:020000040800F2
:1000000000000220DD3B00082D3C00082D3C0008CC
:100010002D3C00082D3C00082D3C0008000000008D
:100020000000000000000000000000002D3C00085F
:100030002D3C0008000000002D3C00083936000867
:100040002D3C00082D3C00082D3C00082D3C0008EC
:100050002D3C00082D3C00082D3C00082D3C0008DC
:100060002D3C00082D3C00082D3C00082D3C0008CC
:100070002D3C00082D3C00082D3C00082D3C0008BC
:100080002D3C00082D3C00082D3C00082D3C0008AC
:100090002D3C00082D3C00082D3C00082D3C00089C
:1000A0002D3C00082D3C00082D3C00082D3C00088C
:1000B0002D3C00082D3C00082D3C00082D3C00087C
:1000C0002D3C00082D3C00082D3C00082D3C00086C
:1000D0002D3C00082D3C00082D3C00082D3C00085C
:1000E0002D3C00082D3C00082D3C00082D3C00084C
:1000F0002D3C00082D3C00082D3C00082D3C00083C
:100100002D3C00082D3C00082D3C00082D3C00082B
:100110002D3C00082D3C00082D3C00082D3C00081B
:100120002D3C00082D3C00082D3C00082D3C00080B
:100130002D3C000800000000000000002D3C0008DD
:100140002D3C00082D3C00082D3C00082D3C0008EB
:100150002D3C00082D3C00082D3C00082D3C0008DB
:100160002D3C00082D3C00082D3C00082D3C0008CB
:100170002D3C00082D3C000800000000000000009D
:080180002D3C00082D3C000895
:1001880010B5054C237833B9044B13B10448AFF3C9
:1001980000800123237010BD7001002000000000C2
:1001A800F83C000808B5034B1BB103490348AFF3FB
:1001B800008008BD0000000074010020F83C000821
:1001C80053B94AB9002908BF00281CBF4FF0FF31B6
:1001D8004FF0FF3000F06AB9ADF1080C6DE904CEBC
:1001E80000F006F8DDF804E0DDE9022304B070470A
:1001F8002DE9F047089D0C46002B4ED194468C45BE
:100208008646B2FA82F262D94AB1C2F1200391401D
:1002180020FA03F30CFA02FC194300FA02FE4FEA33
:100228001C471FFA8CF6B1FBF7F44FEA1E4307FB95
:10023800141143EA014304FB06F199420AD91CEB65
:10024800030304F1FF3080F01281994240F20F81DC
:10025800023C6344591A1FFA8EF3B1FBF7F007FB0F
:10026800101143EA014300FB06F69E420AD91CEB33
:10027800030300F1FF3180F0FC809E4240F2F980D8
:10028800634402389B1B40EA044000211DB1D3405F
:100298000022C5E90032BDE8F0878B4205D90DB1CF
:1002A800C5E9000100210846F5E7B3FA83F1002902
:1002B80046D1A34202D39042C0F0F080861A64EB84
:1002C80003030120002DE6D0C5E90063E3E7002A17
:1002D80040F09080A1EB0C044FEA1C481FFA8CF701
:1002E8000121B4FBF8F64FEA1E4308FB164443EA23
:1002F800044307FB06F0984208D91CEB030306F1F8
:10030800FF3402D2984200F2CD8026461C1A1FFA0A
:100318008EF3B4FBF8F008FB104443EA044300FBF7
:1003280007F79F4208D91CEB030300F1FF3402D200
:100338009F4200F2B0802046DB1B40EA0640A5E75A
:10034800C1F120068B4022FA06F71F4320FA06FC6B
:1003580004FA01F343EA0C03F44000FA01F8380CFC
:100368004FEA1349B4FBF0FE1FFA87FC00FB1E445A
:1003780049EA04440EFB0CF9A14502FA01F20AD934
:100388003C190EF1FF3A80F08480A14540F281804B
:10039800AEF1020E3C44A4EB09041FFA83F9B4FB46
:1003A800F0F300FB134449EA044403FB0CFCA445A6
:1003B80007D93C1903F1FF3067D2A44565D9023B40
:1003C8003C4443EA0E40A0FB0293A4EB0C049C427D
:1003D800CE469C4651D34ED055B1B8EB0E0364EBD4
:1003E8000C0404FA06F6CB401E43CC40C5E9006471
:1003F800002150E7C2F1200320FA03F10CFA02FCB5
:1004080024FA03F394400C434FEA1C4800FA02FE16
:100418001FFA8CF7B3FBF8F008FB1031230C43EA02
:10042800014300FB07F1994208D91CEB030300F1D3
:10043800FF362CD299422AD9023863445B1AA4B2F7
:10044800B3FBF8F108FB113344EA034401FB07F35B
:10045800A34208D91CEB040401F1FF3613D2A342CE
:1004680011D902396444E41A41EA004139E70446E3
:10047800F0E6084606E7C845AED2B9EB020E63EBD4
:10048800070C0138A8E73146EDE7034699E73046FF
:10049800D4E7D6467FE7634402384DE7064623464D
:1004A80008460FE7023E634430E700BF704700BFCD
:1004B800034613F8012B002AFBD1181A013870479C
:1004C8002DE9F041244B254CDFF8B880012818BFEE
:1004D8001C460546224803F03DFB224B2248012DCD
:1004E80018BF184603F036FB204803F033FB2048BA
:1004F80003F030FB182624FA06F3DFB2C3F3031324
:1005080007F00F0718F8030003F01CFB083E18F863
:10051800070003F017FB16F1080FECD1284603F08B
:10052800A3F920B91348BDE8F04103F013BB124802
:1005380003F010FB208A03F01FFB2E2003F002FBC0
:10054800608A03F019FB0D4803F004FBA06803F070
:1005580013FB0B48E7E700BF00000208000008088B
:100568007E3E0008123D0008103D0008143D0008BA
:10057800183D00081B3D0008313D0008353D0008C6
:10058800383D00083F3E0008F0B5BBB003F088F8DE
:1005980002F0E4FF03F0AEFA694803F0DBFA00204A
:1005A80003F0EAFA2E2003F0CDFA012003F0E4FA72
:1005B800644803F0CFFA03F083F90020FFF780FFC7
:1005C8000120FFF77DFF03F0F1F903797BB100F01B
:1005D80091F948B15C4803F0BDFA03F0C5FA01F09F
:1005E8001FFD01F0D5FDFCE7584803F0B3FA03F00E
:1005F800DDF9E7220146684603F06CFB9DF80230FE
:10060800012B28D19DF80340002C40F08B805048E6
:10061800504E514D03F09EFA9DF80000012814BF7A
:100628003046284603F096FA4C4803F093FA9DF8B2
:100638000100012814BF3046284603F08BFA4848C9
:1006480003F088FA9DF801308DF800308DF80240EB
:10065800684603F0AFF99DF8000003F005F920BBE8
:1006680040489DF8004003F075FA3A4A3A4B9DF825
:100678000000B4FA84F4012814BF1046184603F0A9
:1006880069FA6409384803F065FA204603F0ECF883
:1006980008B900F049FB002368468DF800408DF842
:1006A8000140ADF8023003F085F9002002F0A6FF02
:1006B800012002F099FF2D4A9DF800402C4B2D484F
:1006C800012C18BF134603F50076D3F80052D3F86F
:1006D800047203F03FFA204B1E48012C08BF18464D
:1006E80003F038FA1E4803F035FA03F03DFA002209
:1006F8004FF0FF31930003F1604303F5614301328A
:10070800082AC3F88010C3F88011F3D103F01CF84D
:10071800194B9E60BFF34F8FBFF36F8F85F3088827
:10072800B847FEE71548013C8DF8034003F012FA7C
:100738009DF8030003F020FA094803F00BFA87E755
:10074800413D00085D3D0008703D0008903D0008EF
:10075800C23D0008123D0008103D0008CE3D0008CB
:100768006D3D00087E3E00081D3E0008000002089E
:1007780000000808313E000800ED00E0F23D0008E6
:100788002DE9F0411546D708069A00EBD10603EB90
:10079800D20841463A46304603F055FA15F00705A7
:1007A8000BD00124AC4018F80730E4B2621E1340A5
:1007B800F25D644222401343F355BDE8F081000026
:1007C80010B5012002F010FF012002F017FF00F021
:1007D800FDFB00F0F5FC00F00DFD0446002000F0E4
:1007E80057FD2046064A074901F028FB064A4FF400
:1007F80096714FF4CC7001F0E9FB204610BD00BFA4
:10080800613E0008503E0008150800082DE9F04335
:100818000746C7B00E461C461546002A60D04FEA68
:10082800C309B9F1100F28BF4FF010094FF00008A5
:100838002B464A46414604A8CDF80080ADF8108002
:10084800FFF79EFF4FEAD9039C428CBFE41A241B92
:10085800E400102C05EBD905A14628BF4FF010097C
:100868002B46CDF800804A4641460DF10E00ADF802
:100878000E80FFF785FFBDF80E304593B3F5807FF6
:100888002BD8A4EB0904DB009C4228BF1C46DB08DC
:10089800A3EBD40205AB03EBD400414603F0EDF91A
:1008A80010232246009341462B4605A8FFF768FF10
:1008B800BDF814210D4CBDF81030A380B2F5807F2F
:1008C80028BF4FF4807205A904F108006770A6706C
:1008D800E28003F0FFF90123237047B0BDE8F083FD
:1008E800002BFAD1024D99469BE700BF8C010020EE
:1008F8006F3D00082DE9F04FADF54D7D03F056F83A
:10090800814690F80580AB4803F024F9AA4BAB4A1E
:10091800B8F1010F18BF1A461046059203F01AF9EC
:10092800A74803F017F999F8060003F025F9A54838
:1009380003F010F909F107031846039303F00AF9C5
:10094800A14803F007F9FFF73BFF04469F4803F06F
:1009580001F9204603F010F99B4803F0FBF8E72261
:1009680049460CA803F0B6F900230CA88DF83430DA
:1009780003F020F818B1964803F0ECF813E1B8F149
:10098800010F0BBF082405240A250725AC420ED900
:10099800904B914F914E0024B8F1010F18BF1F469C
:1009A8008DF82F4002F04CFE25460690D1E02046F7
:1009B80002F022FF002840F0AB810134E4B2E5E701
:1009C8000DF5087A4FF488720021504603F055F966
:1009D80003988895FFF76CFD0399CA9002468AA888
:1009E80003F078F99AE80300DAF808214690FF2A1C
:1009F8004FF0000B8DF81C1100F2D5804FEAC20AA7
:100A08008DF81D218AAB5246CDF800B008210DF2B1
:100A18001D10FFF7B5FE0AF13002D30809934FF015
:100A2800030A9DF82F300793099B99F8061086F85A
:100A380000B00DF12F0200934FF4CC7046AB01F0DB
:100A4800A9FA30B901F0A4FBBAF1010AE9D1644866
:100A580092E702F0F5FD00F5FA63089302F0F0FD65
:100A6800089B8342F0D901F093FB33780493002B61
:100A7800F4D04FF000037278337099F806309A4238
:100A8800ECD1B378079A9342E8D1B3883BB1554883
:100A980003F060F8B08803F06FF84B486CE7B6F8DD
:100AA80006A0BAF1000F04D10CB1A5425BD24E48A2
:100AB80062E70AEB050BBBF5C02F01D94B485BE792
:100AC8004FF48072FF2188A803F0D7F848495246AE
:100AD80088A803F0FFF83D440AF10302920888A9A8
:100AE800284602F0A1FE90B14248434E03F032F886
:100AF800424803F02FF81C2425FA04F303F00F03EF
:100B0800043CF05C03F01EF8231DF5D1C5E702F0A4
:100B18007FFDC4B9BBF5007F17D33968384A9142C5
:100B280004D1BC68374A611E914201D9364823E78F
:100B3800364803F00FF8B86803F01EF8344804F597
:100B4800007403F007F8A3450DD2BAF1FF0F5D4614
:100B5800AADD02F075FD069BC01A2E4B98427FF65F
:100B68002FAF2D4808E7012002F048FD404600F06D
:100B780003F90446294802F0EDFF204600F0FEF88C
:100B880002F0E8FF104802F0E5FF002C48D02046AC
:100B980000F0F4F80146052001F05EFA01F0F8FAD9
:100BA800002002F02BFD0023049304980DF54D7DE1
:100BB800BDE8F08F6C3E0008123D0008103D0008AB
:100BC800843E0008903E00086D3D0008983E0008ED
:100BD800B73E000800000208000008088C01002049
:100BE8000C3F0008FB3E0008A63F00082D3F000808
:100BF80094010020503F000866400008183D000896
:100C08004D494749FFFD0500693F0008983F000826
:100C1800383D0008E0930400E63E0008BD3F0008A8
:100C280002F0C4FEE72201460CA803F053F89DF831
:100C380030308DF831300CA840F201338DF8308017
:100C4800ADF8323002F0B6FE08B1324894E6398A7F
:100C58007B8A092946AA4FF0760088BF0A241070BB
:100C680081BFB1FBF4F0B0FBF4F504FB15003030A4
:100C78004FF00A048ABF507001200220B1FBF4F53E
:100C880004FB151130310DF219161154092B4FF0D0
:100C98002E01315400F1020508D9B3FBF4F1B1FB80
:100CA800F4F704FB171130315155C51C0A21B3FB69
:100CB800F1F001FB1033303353550023735588A8E6
:100CC800154D014615F8014B5E1CCCB9CD1812F82C
:100CD800010B5C1CC0B92022CA540B4408F141081E
:100CE80001F804809870032001F0B6F90B4802F06F
:100CF80031FF059802F02EFF094802F02BFF54E758
:100D080000F8014B3346DDE705F8010B2346DEE723
:100D1800044831E6CC3F0008EC3F00087E3E00085E
:100D2800064000082240000810B5104802F012FFE3
:100D3800FFF746FD04460E4802F00CFF204602F07D
:100D48001BFF0C4802F006FF02F07AFC044601F093
:100D58001FFA02F075FC001BF928F8D902F070FCA4
:100D6800044602F05DFC02F053FCF0E73640000850
:100D7800983E00086D3D00080120704705289ABF7D
:100D8800024B53F820000248704700BF004100089A
:100D980077400008014B1878704700BF9402002084
:100DA800F0B50246014448F2050700208A4213D0F4
:100DB80012F8016B08250124430026424FEAD03C73
:100DC80098B214BF01230023634518BF784064001C
:100DD800013DE4B2F0D1E9E7F0BD0000104B1A681C
:100DE80022F470021A601A6842F420021A605A68E3
:100DF80042F440625A609A6842F470029A60DA6873
:100E080022F47002DA60DA6842F4A002DA605A6A00
:100E180022F47F425A625A6A42F488425A62704700
:100E280000040240024A136843F4007313607047D9
:100E380000580040064B074AD2F81418014201D165
:100E4800013BF9D1B3FA83F040094042704700BF33
:100E5800A08601000050004038B5144C236843F4C4
:100E68008073054623600120FFF7E4FF002814DBA8
:100E7800C0350F4B256140F20242616911420FD122
:100E8800013BFAD1636923F480636361236843F407
:100E9800007323606FF0010038BD4FF0FF30FBE7AF
:100EA800606910F48060F7D0ECE700BF005800409C
:100EB800A086010070B5044600200D46FFF7CCFF60
:100EC80000281FDB114EB36925448020FFF7B2FFCD
:100ED800002804DAFFF7A6FF6FF0010070BD14F8D0
:100EE800013B3361AC42F0D10420FFF7A3FF002897
:100EF80004DAFFF797FF6FF00200EFE7FFF792FFC2
:100F08000020EBE74FF0FF30E8E700BF0058004053
:100F180007B501210DF107008DF80710FFF7CAFF8B
:100F280003B05DF804FB00002DE9F843264C236864
:100F380043F480630546236001208846FFF78CFF51
:100F480000283BDBA36905F1FF3900264020FFF7A5
:100F580071FF002807DAFFF765FF6FF00200BDE8B0
:100F6800F8833E46F2E7236909F8013F771CA8EBAE
:100F78000703032BF5D80420FFF75CFF002804DAE9
:100F8800FFF750FF6FF00300E9E7236823F480635D
:100F9800236072B62369EB55236843F4007323601A
:100FA800F71C2E442369B37062B64020FFF742FF56
:100FB800002806DB2369EB550020D0E76FF001001D
:100FC800CDE76FF00400CAE7005800402DE9F04F64
:100FD8005D4C5E4B5E4E5F4D002121606160217269
:100FE8001A6B317042F002021A631A6C42F48002E2
:100FF8001A6491B01B6CFFF7F1FE574B4FF4004297
:101008001A602A2219605A60D222DA612B221A62E7
:1010180001221A601A6822F001021A602B6823F470
:1010280040032B602B6843F480032B606B6823F428
:1010380000636B604FF00063AB6102F013FB07467F
:10104800884602F00FFBC21B61EB0803502A73F1BC
:101058000003F6D34FF40063AB61FFF7BFFE3E4BCE
:1010680001251D60022002F0F1FA042104A8FFF70F
:101078005BFF002804DA11B0BDE8F04FFFF748BF66
:101088009DF81030042BF6D19DF81130112BF2D1B8
:10109800324B0593052100230DF11500ADF81830EA
:1010A800FFF77EFE0821ADF81A0005A8FFF702FF3A
:1010B8000028E0DB052002F0C9FA232107A8FFF782
:1010C80033FF0028D7DB9DF81C30232BD3D12121F7
:1010D80007A8FFF765FE9DF83D20C3B29A42CAD122
:1010E8009DF83E30C0F307209842C4D19DF81D00FA
:1010F8009DF81E109DF81F209DF820309DF825B002
:101108009DF826A09DF827909DF828809DF82970C5
:101118000390029101920093FFF7FAFE0398029957
:10112800019A009B20706170A270E37084F804B08B
:1011380084F805A084F8069084F807802772357033
:1011480011B0BDE8F08F00BF9502002000380240C2
:101158009E0200200004024000580040030702805D
:10116800014B1878704700BF9E0200200048704766
:101178009502002030B50F4B1B7885B013B17F2046
:1011880005B030BD0C4C0D4821680191626802928F
:10119800A36803938142F2D1012AF0D17E2BEED8C5
:1011A800032101A8E56802F0FBFA8542E7D1207A1D
:1011B800E6E700BF9F02002000000E08444E4749A2
:1011C80008B5074A074B9B1A074A18BF0123137033
:1011D800FFF7D0FF054B1870054B187008BD00BF0E
:1011E80000000E0800000E089F02002000000020EA
:1011F80001000020014B1878704700BF0100002053
:10120800014B1878704700BF00000020034B187886
:10121800034B1B78C01A18BF01207047000000203C
:101228000100002030B5164B1B7885B004464BB939
:10123800010607D40B2002F0DFFA124D30B1FFF798
:1012480099FF28704FF0FF3005B030BD7F2C0ED0CD
:101258000D4A0294012303216846CDE9002302F0D8
:101268009FFA042203906946084802F0DDFAFFF766
:1012780081FF2870001B18BF4FF0FF30E4E700BF64
:101288009F02002000000020444E474900000E083D
:101298003C4A136B43F002031363136B3A4B196810
:1012A80021F470211960196841F4202119609968A6
:1012B80041F470219960596A21F0FF015962596A15
:1012C80041F099015962136C43F000731364136C75
:1012D8002E4B1A6822F002021A601A6842F00102C4
:1012E8001A602B4A5968C90703D4013AFAD1012078
:1012F80070471A68274942F040021A60264A0028B7
:1013080008BF0A46DA61D3F80022214842F00102F8
:10131800C3F80022D3F81C2222F00102C3F81C22D1
:10132800D3F80C2242F00102C3F80C22D3F80422AD
:1013380022F00102C3F804220022C3F84022C3F8B5
:101348004422D3F8142222F00102C3F81422D3F85D
:101358001C2242F00102C3F81C22D3F8002222F01A
:101368000102C3F800221A6822F001021A60074B32
:101378005A68D20701D50138FAD1B0FA80F040098D
:1013880040007047003802400004024000640040FA
:1013980040420F0005001A0005001AC0082AF0B5DF
:1013A80024D8154B9B685B0123D500231E461F4696
:1013B800DCB294420DD3104BC00040F00500C3F8D6
:1013C8008421C3F88871C3F88C61C3F880010020B8
:1013D800F0BD032BCC5C4FEAC3058BBF203DAC406E
:1013E800AC40274388BF26430133E1E74FF0FF3085
:1013F800EEE76FF00100EBE700640040F0B51B4E2C
:101408000746F06810F0030011D0D6F8B031D6F8CE
:10141800B441D6F8B851D6F8BC6113F0040FC3F341
:10142800800005D1114AD36843F02003D360F0BD92
:101438000FB1DB083B6004F00F04082C28BF082418
:1014480002B114700029EDD000220AE0D300032A6B
:101458008ABF203B25FA03F326FA03F3DBB28B5449
:101468000132D3B29C42F1D8DCE700BF00640040EF
:10147800006802F012B8006801F096BF7FB5164602
:1014880004460D4602F0EEF8064A0094821841F12F
:101498000003CDE901560449044801F033FB04B0C8
:1014A80070BD00BF40420F003C32002028320020AF
:1014B8002DE9F0411546D708069A00EBD10603EB53
:1014C800D20841463A46304602F0BDFB15F0070502
:1014D8000BD00124AC4018F80730E4B2621E134068
:1014E800F25D644222401343F355BDE8F0812DE9D3
:1014F800F04311F0070F079D07460E469C4604D19E
:101508000795BDE8F043FFF7D3BFAA184FF0010EC7
:10151800954201D3BDE8F08305F0070806F00709F6
:10152800C84541464FEAD50438BF4946C1F10801CC
:10153800531BF0081CF80440994228BF194644FA86
:1015480008F43B5C0EFA01F804FA09F408F1FF38D4
:101558005C4008FA09F804EA080463403B540D4467
:101568000E44D5E72DE9F041D400A342069D94BF6F
:10157800E41A241BAC4205F1070228BF2C46D20806
:10158800984606460F46A2EBD402002100EBD40091
:1015980002F073FBCDF818803B4622463046002106
:1015A800BDE8F041FFF7A3BF1FB5CC00944294BF3C
:1015B800241BA41A102C03464FF0000100920DF1D1
:1015C8000E00224628BF1022ADF80E10FFF78FFF3D
:1015D800BDF80E0004B010BD07B58DF8000001205D
:1015E8008DF801008DF804108DF805206846DDE9B6
:1015F8000421ADF80230FFF741FF03B05DF804FBAA
:1016080070B50446D0E90410ADF5047D08B931BBC6
:1016180014480022FFF7C8FF4FF4827205460021E4
:1016280043A802F02AFB284643A901F047F8839D06
:10163800FF2D14D803AE0023EA008DF80C50009358
:10164800082143AB30460135FFF732FFCDE900658D
:1016580040F28113627921792078FFF7BDFF0DF5FB
:10166800047D70BD6F3D0008F0B54FF4A872ADF56C
:10167800297D002105460DEB020002F0FEFA012348
:101688001022002158A88DF850318DF852318DF86C
:10169800553102F0F2FAFFF763FD00286FD0FFF72B
:1016A80065FD02460068516858AB03C3127A1A7088
:1016B8003C4B1C682046FEF7FBFE322802462146BA
:1016C80028BF32225CA8699202F004FB549B059360
:1016D800BDF85431ADF81830DDE956230026CDF8B1
:1016E8001A20CDF81E30009658AB8022702105A82C
:1016F800FFF7FDFE699C322C3ED88DF83240E4009D
:101708005CAB00962246F82105A8FFF7F0FE6C9F17
:10171800012F04F1F8032FD8DB0805AA04F580741B
:10172800D754BF013A46214600966AAB05A8FFF791
:10173800DEFE3C44A69FDE2F1ED8E30805AA083427
:10174800D754FF006EAB3A46214605A80096FFF72E
:10175800CEFE2B788DF80C3001238DF80D30E11971
:101768004FF4D773ADF80E3005AAAB88ADF810303A
:10177800C90803A8FFF782FE0DF5297DF0BD0A49C7
:101788000A4854AB51F8042B1A74140A5C74814249
:101798004FEA12444FEA12629C74DA7403F10403AC
:1017A800F0D185E708000020107AFF1F1C7AFF1F80
:1017B8002DE9FF4D90F800340B7004460D4616468F
:1017C8006BB901464FF48062681C02F03CFA42F2A1
:1017D8000803DB083360002004B0BDE8F08D012B5E
:1017E80025D1D0F80032FF2B25D84B7041F6FF7871
:1017F80000214FF0000A4FF0000BD4F800224F1CD4
:101808003B0191424FEAD300E3D234F8113043450B
:1018180028BF43462B52002300930D2102AB03221D
:101828002844CDE902ABFFF762FE3946E5E7022B13
:1018380004D10823CDE76FF00900CDE76FF00A0067
:10184800CAE700002DE9F041ADF6980D40F6880290
:10185800002104A802F011FA01238DF81034524B2C
:10186800049341F6F873ADF81430504B1C78504B84
:10187800186805A90022D3B29C4200F29180033374
:10188800DBB2012500260DF658042A4684934FF44E
:10189800D77102AB204600968DF814588DF8085081
:1018A800FFF725FE2A4602AB4FF4C071204600968A
:1018B8008DF80850FFF71BFE2A468DF808503D4D5D
:1018C800009602AB40F2B3112046FFF710FE40F23B
:1018D800014802AA294604A8CDF80880FFF768FF46
:1018E800B04253DB029B45F8043CDB002E1F03F19A
:1018F800400502AA06EBD5010DF2144003F12007BA
:10190800CDF80880FFF754FF00283FDB029BFF0853
:101918004021F35105EBC303DA080DF61807B1505F
:1019280003F1200206EBD2023D4603CDA54210602A
:1019380051602F4602F10802F6D103F50872D20869
:101948004021B15003F5107206EBD2020DF698064D
:10195800254603CDB542106051602C4602F10802BD
:10196800F6D1154C154A0292FF2203F588618DF8CD
:101978000C2022788DF80D20C908114A02A8FFF71B
:101988007DFD2378013303F01F0323700DF6980DB6
:10199800BDE8F08130F8123021F8023F01326AE7E1
:1019A800FC2AF7D1FF236CE7551D561D4E27002052
:1019B80050270020A40200204D2700200700561DB4
:1019C800A00200202DE9F047D0E904462DED028B56
:1019D8000546ADF5CD6D002E75D0E700072F78D8F8
:1019E8000023CDF85034DB0000932246082331460B
:1019F800D4A8FFF7B7FDDDF85024D3000833BB4265
:101A080028BF3B46DB089C4294BF221BE21AD10048
:101A1800072960D800238DF860364CAE4FF4087261
:101A28000021304602F029F90DF10F04002300943B
:101A380050AA8DF80E308DF80F300DF58B610DF131
:101A48000E03D4A800F052FE9DF80E3033729DF8B4
:101A58000F30737201F006FEC6E9000196E8030034
:101A6800727A0990337AADF82810090C09AC8DF810
:101A78002A10E37112B143F00203E371002200233C
:101A8800CDE9042300230093062204AB3A21204623
:101A9800FFF72DFD96F818322372002B00F0CB814A
:101AA800013B0D2B58D8DFE813F026012601D8009A
:101AB8003D014501130126013D01450113012601A0
:101AC8003D0145014D01002C46D1AD4E2746234628
:101AD80087E7337885E7F018F35C8DF86036002BDC
:101AE8009BD0013B0D2B37D8DFE803F03C3C074E79
:101AF80063203C4E63203C4E6378012A94BF941ABD
:101B080002F1FF34461C002221463046FFF74CFD07
:101B1800B0F5006FCDF858051ED800901023224666
:101B280031460DF58B60FFF71DFD76E7012A94BF5E
:101B3800921A02F1FF32D300072B00F1010106D8F7
:101B48000023CDF858351B0100930823E9E74378B3
:101B5800CDF85835802BF6D90DF5CD6DBDEC028B3F
:101B6800BDE8F087012A94BF941A02F1FF34461C9D
:101B7800002221463046FFF717FDB0F5807FCDF8EB
:101B88005805E9D8C000C8E7012A94BF921A02F1A3
:101B9800FF32D300072B00F1010104D80023CDF850
:101BA80058359B01D0E74378CDF85835202BF8D924
:101BB800D2E7012A94BF921A02F1FF32D300072B11
:101BC80000F1010104D80023CDF858355B01BBE7CB
:101BD8004378CDF85835402BF8D9BDE7012A94BF92
:101BE800941A02F1FF34E300072B00F101072ED805
:101BF8000026CDF858663601DFF8A0919FED618A7E
:101C0800DFED618A0DF58B6808364FF0080AB2459A
:101C18003FF403AF524621463846FFF7C5FC09EAB0
:101C2800403307EE903A67EE887A000417EE903A50
:101C3800F4EEE87AF1EE10FAA8BF43F0FF4300F0A3
:101C48000040184348F8040B0AF1100ADFE7467809
:101C5800CDF85866802ECED97EE7D6F81071B7F544
:101C6800006F3FF679AFB6F81031A4F809300026B6
:101C78003A461021009650AB0DF12D00FFF718FCE5
:101C880007F1100117F0070713D00022C7F1080762
:101C98000023CDE90623FAB251FA87F7B7F5016FA9
:101CA8003FF65AAF009606AB0DF12D00FFF71FFC6B
:101CB800394621F0070208324032D208CDE9004205
:101CC8004FF4C0736A7929792878FFF785FC43E7D0
:101CD800D6F81061802E3FF63FAF667236010023BA
:101CE8000093324650AB08210DF12D00FFF7E0FBC1
:101CF80006F11002E0E7D6F81021B2F5807F3FF632
:101D08002BAFB6F81031A4F80930D60000230093A1
:101D1800324650AB10210DF12D00FFF7C9FB06F13B
:101D28001802C9E7D6F81061202E3FF615AF667283
:101D3800B601D4E7D6F81061402E3FF60DAF6672B3
:101D48007601CCE7D6F8100280283FF605AF60721E
:101D5800DFED0E6A9FED126A9FED0D7A0D4FDFEDF4
:101D68000E5A000150AB0830082647F6FF7C0DF1EB
:101D78002D0E86424FEAD60214D10132D2009BE7DB
:101D88006F3D00080000807700008047FFFF7F7FDD
:101D980000E07F4700F0FF7F0000800700E0FF0FB2
:101DA80000E07FC7F3EC017AB0EEE75AB4EE665A6A
:101DB800F1EE10FA0BD8F4EEC67AF1EE10FA22D44E
:101DC800F4EE477AF1EE10FAC8BFF0EE477A17EE54
:101DD800908A28F00041B1F1FF4F17D3C8F31609D4
:101DE800B9F1000F24D1B1F1FF4F0CBF4FF4F84106
:101DF80061464FEA184808F4004841EA08012EF8FD
:101E080002101036B5E75FED1A7AE0E708EA070135
:101E180007EE901A67EEA57A17EE901A01F5805131
:101E2800B1F1786F28BF4FF07861C1F34F31E0E727
:101E38004FF4FC41DDE708223EE700BF2DE9F047FB
:101E4800074692B089464148DFF844A1404E4FF416
:101E58000051904601F076FA0AACCAF800003D4AF3
:101E68003D490AA800F03CFE0FCC35460FC594E862
:101E78000700DAF80030336085E807003771FFF7AC
:101E88006FF9364B364D1870082204A8282104AC87
:101E980000F031FE0FCC0FC52368324C2B600025B3
:101EA800314B0293CDE9004500234FF4D77202214C
:101EB800304601F0CFF92D4B0293CDE9004540F2B1
:101EC80003234FF4C0720221304601F0C3F9284BB6
:101ED80002930223CDE90045194640F281123046AB
:101EE80001F0B8F9234B0293CDE900454FF49673FE
:101EF80040F2B3120221304601F0ACF91E4B0293B6
:101F08004FF4E052CDE9004507230021304601F0A7
:101F1800A1F91A4B41463846C3F8009000F0B4FBCB
:101F280001F0A0FB164B174AC3E90001164BC31872
:101F380041F10004C2E900340A4A144B801841F107
:101F48000001C3E9000112B0BDE8F087603200204B
:101F58003C320020791400087F140008C8240020AF
:101F68002832002080841E0000300020D82D002058
:101F7800B02B002088290020002500200800002020
:101F8800302700202827002040420F00402700204B
:101F98005832002013B514468DF8041021788DF8B6
:101FA800051001314FF4017201F01F01ADF8002056
:101FB800ADF8020021701A4604996846FFF75EFAE8
:101FC8000028D4BF0020012002B010BDF0B50F4F8B
:101FD80016463A8885B004460D461AB10C480121C8
:101FE80001F006F90B4B0C4A1E600C4B3C80029327
:101FF8000023CDE9002301212B462246044801F0A5
:1020080029F9C043C0F3C01005B0F0BD5C2700201B
:102018003C3200205827002080841E0060270020C2
:10202800014B01221A7070475527002008B5084B4C
:10203800187850B101F016FB064BD3E9002380183D
:1020480043EB0101002901DA0020014608BD00BF69
:10205800D8240020E024002070B5CAB004464FF40C
:1020680088720D4606A8002101F007FEFFF7DEFF83
:10207800CDE906018DF820400DF1230200242B5DE7
:102088000BB1FF2C3BD1204D9DF81E30AB719DF854
:10209800203006982860072B284628BF0723BDF85C
:1020A8001C20AA80002600F8073F00220023CDE963
:1020B8000423009604AB052203214994FFF717FA7D
:1020C8002C72E400009609AB224628464821FFF707
:1020D8000EFA0E4E0E4B02934834FF238DF80C3047
:1020E8002A4633788DF80D30E10802A8FFF7C6F9C3
:1020F8003378013303F01F0333704AB070BD02F820
:10210800013F0134BBE700BFB22300204C27002069
:102118000700F81FF0B5A5B004AB0D46002419461A
:102128002E5D671C0EB1722C24D104F190036B4410
:10213800202503F8805C4FF00A0E00231D469035D9
:102148006D44B2FBFEFC0EFB1C26303605F88C6C89
:1021580015460133092DDBB26246EFD80C441A4606
:1021680062B990336B443B4403F8802CFFF774FF4B
:1021780025B0F0BD03F8016B3C46D1E7551E24AEEF
:10218800EAB256FA85F515F88C5C04F8015FE7E7C2
:102198002DE9F04FEFB001F065FAB34AD2E9003407
:1021A8009842A14107D3B1495B1844F10004C2E940
:1021B8000034FFF747FB01F055FAAD4AD2E9003485
:1021C8009842A1415AD3AB495B1844F10004C2E9D3
:1021D800003401F047FAA84AD2E90034C01AA54AE7
:1021E8004FF0000361EB0401FDF7EAFFA34B1B78F6
:1021F800064623B1A24B1B780BB1A24B1B7803F008
:102208000104A14B1B7884F001049C4238BF1C4692
:10221800FEF7C0FD032C28BF03248DF8DC40002402
:102228000546369600270026009408AB06220221B0
:1022380037A8CDE90867FFF75AF900940AAB0522D9
:1022480003210DF1DD008DF8DD40CDE90A678F4CE3
:10225800FFF74DF98E4B1893FF238DF8643036AA9B
:1022680023788DF86530072118A88DF8DE50FFF720
:1022780005F92378013303F01F03237001F0F2F905
:10228800844DDFF8148206460F46284600F0D0FD3C
:102298000446C8B1D4E9062352EA03010CD0B2427D
:1022A800BB4109D221462846D8F80C9000F0C8FD59
:1022B80001467948C847E8E794F82420A16A206ACB
:1022C800FFF76CF80028EDD00DF11B020DA907A847
:1022D800FFF794F801284DD0704C237873B101F0C2
:1022E800C1F96F4AD2E90032C01A61EB02016D4AA6
:1022F8000023824273EB010138BF2370FEF786FF8B
:10230800B0B1694C01F0AEF9D4E90023904299418B
:102318000ED301F0A7F9554BC01841F10001C4E9EB
:102328000001FEF76DFF614902460320FFF7F2FE48
:102338005F4B1B78002B00F08881564800F078FD31
:10234800002840F082815B4B5B498A6802F0E052CA
:10235800B2F1E05F01D0013BF7D1BFF34F8F57498E
:10236800574BCA6802F4E0621343CB60BFF34F8F48
:1023780000BFFDE7079B0F939DF81B3010930DAB33
:10238800119301F06FF90FAD002312ACCDE90134C0
:1023980003930246009540480B4600F061FD012872
:1023A80092D16378022B40F0BD806388B3F5D77F64
:1023B80048D00CD8B3F5C07F48D040F28112934280
:1023C80048D0354B6169DB68334898477CE740F271
:1023D800B3129342F5D1D4E9047515B9002FF0D1A1
:1023E800384D002239462846FFF7DEF8FB00172B48
:1023F800ADF8600032D800233593DB0000933A46ED
:10240800182319A82946FFF7ADF8BDF860004FF664
:10241800FF734FF0000898428DF8188036AF53D1FB
:10242800234B01221A709DF818308DF8D8300123FB
:10243800CDE9007340F2B313627921792078FFF770
:10244800CBF8BEE72046FFF70FF9BAE72046FFF7BB
:10245800B9FAB6E72046FFF7D3F8B2E7AB78359379
:10246800702BCAD9ADE700BF40270020809698009E
:102478002827002040420F0030270020C8240020D1
:1024880003000020020000205427002038270020E5
:102498000400551D283200203C320020D82400209A
:1024A800D0240020C0C62D00C024002018410008F8
:1024B80055270020400D03000064004000ED00E0B7
:1024C8000400FA056F3D00084FF6FD7398421ED1CF
:1024D800359D94F804906B1EDE2B03D904238DF8E8
:1024E8001830A0E72A4619A9384601F0F3FB05F58C
:1024F800DC730DEB0305394605F8E08C484601F01E
:10250800CFFA01230028EAD1514A13708BE7514BC7
:102518001B682BB1359A19A998478DF8180082E7DE
:102528000323DCE76269002B7CD16388B3F5E05FA5
:102538007FF447AF94F904302779002BFFF641AFB9
:1025480023691AB9002B7FF43CAF434A00200021CD
:10255800CDE93601D90038294FF00005134636A8D1
:102568000A46009528BF38222946FEF7A1FFDDE973
:102578003613DFF808E10593BEF80080374BBEF943
:1025880000604745D4E90220D3E900CA0FFA87F969
:1025980009D3DFF8ECB0B2EB0C0860EB0A07C345CF
:1025A80075EB070B12D22E49AEF80090C3E9002054
:1025B800002594F805900D702A4B012583F80090AA
:1025C800294B1D70294BC3E90020FAE6B1457FF479
:1025D800F8AEDFF894E094F805909EF800E0BEF1BC
:1025E800000F2FD0059E51EA060E2BD0DFF874E0BD
:1025F8009EF800E00EF1010E0EF01F0EF14521D1FC
:10260800DFF880E0C64575EB07071BD3059B184F1D
:10261800B1EB0C0163EB0A03C7E90013104B01216E
:102628001970CDE7134B1D68002D3FF4CAAE124B4D
:1026380061881B8899427FF4C4AE23696179207947
:10264800A847BEE6C3E90020B6E76FB0BDE8F08F43
:1026580055270020482700206F3D0008F02400205F
:10266800D8240020E8240020F8240020D0240020CA
:10267800E0240020582700205C27002004000020C8
:10268800C0C62D0040420F0070B50B4C0D4620818E
:1026980081B10846FDF70CFF3F2828BF3F200646BA
:1026A8000246294604F15600344401F013FB002386
:1026B80084F8563070BD00BF0C000020012870B5AA
:1026C8000D460FD84C235843074B1E583046FDF78C
:1026D800EFFE314604460246284601F0FBFAC5F8EB
:1026E800004170BD0024FAE70C0000202DE9F047F6
:1026F800494C26688146304615460F469846FDF7F0
:10270800D7FED9F800A15045024605D131464846C2
:1027180001F089FA064660B1E66C3046FDF7C8FE5E
:1027280050452CD152463146484601F07CFA30BB20
:1027380001264C20704304EB000999F8053099F8FC
:1027480004201BBB4C2303FB06431B79002B4CD1F5
:1027580015B10A2385F808324C2303FB06431B896D
:102768002B800123C5F800314C2303FB0644637911
:1027780088F80030A379089A1370BDE8F087002321
:10278800002D46D188F800300023F4E7002FD9D077
:1027980097F80832002BD5D09AB90A2BD8D1D7F898
:1027A8000031002BD4D0388846B97F2802D8C0B26F
:1027B800FEF738FDFEF724FD2081C3E7A4F8540096
:1027C800C0E7012A11D1012B0FD1D7F800213F2AE8
:1027D80028BF3F2292460A3039462044D14401F0AE
:1027E80079FA002389F80A30ACE715B1012385F896
:1027F80008324C2707FB06470A373846FDF758FECC
:10280800394681460246284601F064FAC5F8009127
:10281800AAE785F80832B5E70C00002030B581F04A
:10282800010400EB8404056863684DB1AA68A2EB53
:10283800000CDCF1000242EB0C0205EB8202536053
:102848001D60036003EB81035A68626002B1106087
:10285800586030BD2DE9F0410029037B0CBFFF22F1
:102868000122134459B2013303F0FF03022B04463B
:1028780043D900294FEAD1786FEA01014FEAD171B3
:1028880000EB8103B8BF01255E6896F90C30A8BF3C
:102898004FF0FF3513FB05F3002B10DC4146FFF723
:1028A800BDFF96F90C303BB96B425BB223733746D8
:1028B80035733846BDE8F08100252B46F6E706EB70
:1028C800880330465F68FFF7A9FF41462046FFF7B7
:1028D800A5FF97F90C3013FB05F3002B04DA00234E
:1028E80025733B733373E4E71DBF00236D422373E5
:1028F80023731CBF3B736BB2F4E701730746D8E739
:1029080070472DE9F041DDF818800D461E4608F1A4
:10291800300183681746984768B10024C0E900442D
:10292800C0E9067600F13003846004730461C0F8DE
:10293800248083620562BDE8F081006A0B6A9842D0
:1029480034BF4FF0FF300120704710B5C3680C4604
:10295800096998470023C4E9023323614FF6FF73DE
:10296800A382A37D013303F01F03A37501232376FC
:1029780010BD000002888B8B9A4205D0034A8CBF99
:1029880001230023D0567047002070477A41000881
:102998001C30FFF7EFBF70B5D1E901520446002D96
:1029A80036D0002A34D01046034640680028FBD1B0
:1029B80091F90C0018735D602B601868814222D071
:1029C8009D68456005B128609A60136000220D6813
:1029D8001D60DDB1AE68A6EB010CDCF1000646EB2C
:1029E8000C0605EB86056B6082F00101FFF732FFEC
:1029F8000346006893F90C20FAB9F8B18268D31A33
:102A08005A425A41F0E718460122E0E72360EBE713
:102A1800003A18BF012201EB82020868536803B12B
:102A2800186058B18268511A4A424A4100EB820143
:102A38004B60002BD8D01860D6E700B9236070BD72
:102A48002DE9F84305680746894614469846064620
:102A5800316831B14846A0470028336808D11C4680
:102A68001BB9B8F1000F0BD100242046BDE8F8834C
:102A7800CCBF0126002601361D4603EB8606E7E794
:102A88004846C04704460028EED000233060C0E91D
:102A98000133056003730DB93860E6E7A9680B1ABE
:102AA800594259412846FFF7D5FE90F90C30056880
:102AB800002BF0D1002DD8D1EEE7000010B5074C5F
:102AC80011448A4200D110BD12F8013B83EA102359
:102AD80034F8133083EA002080B2F2E7CE410008D0
:102AE80030B50024FF25C0E90212C0E9044404609F
:102AF8000571846130BDC0E900120022C0E90222DC
:102B0800026170472DE9F04F8FB0CDE90B23DDE965
:102B1800184681468B46002900F08681002800F07F
:102B28008381002C00F080811A9B13B9002E40F09D
:102B38007B81D9F80430072B3ED9402B3ED8B54AC3
:102B4800D35CB54AD35C0593059B62789BF8041067
:102B5800013B0393002A44D12379FF2B40F0648181
:102B68006588B5F5005F80F05F810B0628D445F4D1
:102B7800C04041EA00202378072B00F2558140EA43
:102B8800836303980993864263790A93D9F80810F6
:102B9800D9F8002006F101036DD89E48C35C9E4811
:102BA800C45C9142A4EB060505F1FF3538D36FF0FC
:102BB80002000FB0BDE8F08F0823C4E74023C2E746
:102BC800039B9E4200F230811A9A31464FF6FF70FD
:102BD800FFF774FF00F07F0040EA052040F0B07076
:102BE800C9E7531E012B00F21F8194F9043025799F
:102BF800002BC0F219816388B3F5007F80F014813F
:102C08000F0600F11181980340EAC510951E6A422B
:102C180040EA01006A4140EA026040F00070AAE719
:102C2800DDE90B23099900945846FFF76AFE074629
:102C38000028BCD026B11A993246303001F04AF843
:102C480006F130002A460021384401F016F80A9BA4
:102C5800724A3C4463F01F0384F82F303946704BA6
:102C680009F10C00FFF7ECFED9F808300133C9F878
:102C7800083001209DE7B01C079003980344B3FB7C
:102C8800F0F30B44934292D81A9A31464FF6FF70EC
:102C9800FFF714FF002401230490254606940893A7
:102CA800A046079B434518D8069E002D00F0AE802D
:102CB800DFF86C81594F09F10C05314643463A4615
:102CC8002846FFF7BDFE3669002EF6D1D9F8083040
:102CD8002344C9F8083020466BE7079B0999A3EB02
:102CE8000802039B934289BF4A4BDDF814A09B1846
:102CF800494A84BF5B7812F803A0CDF800A0DDE94B
:102D08000B235846FFF7FDFD069B01340746002BB1
:102D180063D02861002F70D046450AF1FF335ED991
:102D2800A6EB08059D4228BF1D461A990D932A4611
:102D380007F1300000F0CEFF1A9BA8442B4446450B
:102D48001A930D9B2DD8AAF1030AAA1CAAEB050A0F
:102D58009A4288BF4FF0000A05F130005246002120
:102D680038440D9300F089FF0D9B6A1C01329A428A
:102D780037D35544AB4214D9464509D104997A1939
:102D88000135090AAB4282F8301006F1010808D96A
:102D9800464506D27B19049A83F83020013508F19C
:102DA80001080A9B089A03F01F0343EA4213069A94
:102DB800B91A4A424A4143EAC213079A42453D4476
:102DC8008CBF0022012243EA821385F83030089B29
:102DD80083F0010308933D4663E706909AE70025D0
:102DE800B1E704990F48C1F30F2130F81110049886
:102DF80081EA002189B20491B8E73D4654E731469B
:102E0800DBF80C303469584698472646002EF6D130
:102E1800CDE600BF7C410008BD41000843290008F9
:102E280009290008CE4100086FF00100C1E600BF83
:102E380010B1C368002003B9704718465B68FAE709
:102E480038B50D46044640B129B10C30FFF7A3FD53
:102E5800A368013BA360284638BD0546FBE7000090
:102E68002DE9F04F89B09B469DF84C90129B149E1B
:102E780014460746002800F0B581002E00F0B28104
:102E8800002B00F0AF81D3F800A0BAF1005F80F00A
:102E9800A981D3E90158B8F1000F02D1002D40F003
:102EA800A18120220021684600F0E7FE25B900250F
:102EB800284609B0BDE8F08F4FEA9A638DF80830CC
:102EC8001AF0007F0AF07F03CDE9004B8DF80C3033
:102ED8000AF0807240F0CB80002ACAF30C2118BF98
:102EE800FF231AF0801FADF80A108DF80C300CBFC4
:102EF80001220022FF21013DCDE905588DF80D1072
:102F080018F8053003F01F004FEAD31CC3F3801EE6
:102F18008DF80E008DF80FC058B203F0400C8DF8F4
:102F280010E003F0200EC3F340138DF81130002A8F
:102F3800BDD0002805DABEF1000FB8D0BCF1000FF3
:102F48000BD19DF80C30FF2BB1D0062D05D8BCF164
:102F5800000FACD00DB90028A9DAFF2902D03B79BF
:102F68008B42A4D19DF80900A04A043000230DF13A
:102F78000A0107EB8000FFF763FD159B804603B14C
:102F88001860B8F1000F92D09DF90C209DF80C3014
:102F9800002AC0F2038108EB83035C6AF4B99DF848
:102FA8000F30DBB1BB682021384698479DF80C30BC
:102FB80008EB8303586200286ED0DDE90023C0E9DE
:102FC8000244C0E900234FF6FF7383829DF80E3058
:102FD80083750123046180F81790037600259DF816
:102FE8000C3008EB83035C6A002C3FF461AFDDE929
:102FF8000021D4E90003904273EB010ED8E904C51F
:10300800D8F818804BD2101A61EB0303844575EB8E
:10301800030334BF4FF0010C4FF0000C9DF80E0075
:10302800A37D1B1A9DB2002BBCBF05F120031BB268
:10303800BCF1000F08D1E57D4D4533D19DF80F5007
:1030480085B3DBB2012B2DD90023C4E902334FF637
:10305800FF73A382012323769DF80F30A07584F8AF
:103068001790FBB921463846FFF76FFC1FE7002A87
:1030780014BF022201228DF809201AF4000FCAF3A6
:103088008832ADF80A20CAF3C61103D15A1A18BFFC
:10309800012230E700222EE76FF002059FE74FF08C
:1030A800000CBBE794F817E09DF811C0257EA37DBE
:1030B800CE457FF4FCAEAC457FF4F9AE98427FF480
:1030C800F6AE9DF80F30002B51D1DDE90512A08A2C
:1030D800FFF7F4FC0025A082DDE9059AA3684B44BC
:1030E800A36023693BB9B8F1000F04D0BB6841461F
:1030F8003846984720612069002840D0E36809EBEA
:103108000302904538BFA8EB030918444A465146C4
:1031180000F0E0FDE3684B44E3609DF81030002BBD
:1031280037D00DB9A38AEBB99DF80C303371BDF8CF
:1031380008109DF80E3031807371BDF80A20728036
:10314800D4E90023C6E90223E26823693261736186
:103158002DB9A3689A1A012A9CBF023B3361002348
:103168002361012521463846FFF7EFFBA0E69DF8CD
:103178001030C4E90021002BA7D00125ACE7B8F135
:10318800000FCAD021463846FFF7DFFB6FF0020573
:103198008EE6237E83F00103237688E6D8F818307C
:1031A800059C9C4228BF1C462146BB683846984768
:1031B8000028EBD0DDE900899DF80C20BDF80A1045
:1031C800BDF8085032719DF80E20358071807271FB
:1031D800C6E90289C6E904400699224600F07AFD4C
:1031E800012565E66FF0010562E600BF7D2900084C
:1031F800F7B5064648B3022927D8043100EB810504
:10320800ADF806200023124A0DF106012846FFF703
:1032180017FC0446B8B101462846FFF7BCFB04F189
:103228002005002704F5087455F8041FF36801B158
:10323800096930469847F368296830469847A54297
:103248002F60F1D1012003B0F0BD6FF00100FAE763
:103258007D2900082DE9F8430A9F0D4691461E4630
:10326800804610B30FB302291FD8FFF7C1FF041E11
:1032780018DBDDE908230021C7E90423BE614FF408
:103288000072A7F81C9007F12400043500F0F5FC43
:10329800074B084A394608EB8500FFF7D1FBB4FA1B
:1032A80084F464092046BDE8F8836FF00104F9E767
:1032B800092900089929000800B1016001B1486096
:1032C800704710B58A6800235209012A03F10104E6
:1032D80018D8D1E9042402B154614C6904B12261BF
:1032E800DBB250F823208A420BD10A6940F8232028
:1032F8003AB901229A40D0F8803023EA0203C0F894
:10330800803010BD52082346DFE710B58A680023D5
:103318005209012A03F1010411D8DBB2002450F844
:1033280023200A614C6102B15161012240F8231047
:103338009A40D0F880301343C0F8803010BD52084E
:103348002346E6E770B50D46044628B310F00F0192
:1033580026D1BF2D26D9A03DC0F88010802200F0CC
:103368008CFCB5F1004F28BF4FF0004515F01F0643
:1033780014D1C4E92866C4F8A85084F8AC6004F1F4
:10338800A0012046FFF7C1FF00220023C4E922560E
:10339800C4E92466C4E92623204670BD013DE5E75B
:1033A8000024F9E70C46F7E7F8B505460F4651B390
:1033B800D0F88830103B8B4225D310310A460023C1
:1033C800012A03F1010020D807F10F020A40002A60
:1033D80018BF0133DBB201269E4071090A4600235B
:1033E800012A03F1010013D84A1E0A40002A18BF17
:1033F8000133DAB24FF0FF339340D5F88020134001
:103408005C421C4047D1002035E052080346D7E70C
:1034180052080346E4E764081346012C03F101024D
:10342800F9D1DBB2284655F823402146FFF749FF7A
:10343800A368A6609B1B1F2B0DD9A0192168836068
:1034480000230373FFF738FF01462046FFF734FFD8
:103458002846FFF75AFFD5F88C301E44D5F890302F
:10346800C5F88C609E424FF0010388BFC5F8906094
:1034780004F110002373D5F89430BB4238BFC5F867
:10348800947038B937B1D5E92632013342F10002D8
:10349800C5E92632F8BD0023BFE72DE9F843054604
:1034A8000C46002957D0002351F8089C01F8043C29
:1034B80051E90476D0F88C30A3EB0903C0F88C30BE
:1034C800F6B196F80C8088F00108002F3CD03B7BC1
:1034D80083F00103B8F1000F28D09BB1314628468C
:1034E800FFF7EFFE3946FFF7ECFEB368BA681344FE
:1034F8004B44B360002344F8083CBB6039680CE0D7
:10350800B046E2E731462846FFF7DBFEB3684B4496
:10351800B360002344F8083C39463046FFF7CCFE38
:1035280031462846BDE8F843FFF7EFBEA4F1100680
:103538007BB139462846FFF7C4FEBB684B4444F8C4
:10354800083CC7F80880D9E7B8F1000FDAD1A4F130
:1035580010063146E5E7BDE8F88300001F4B204917
:103568001A6B42F003021A631B6B1E4B4FF40032B6
:103578004FF480209A6198611A6822F00C0242F098
:1035880004021A601A6822F0300242F010021A602F
:1035980088610A6822F0300242F010020A601A6854
:1035A80022F440621A601A6822F440521A601A68BB
:1035B80022F440421A60DA6822F4406242F400625F
:1035C800DA60DA6822F4405242F40052DA60DA68CB
:1035D80022F4404242F40042DA6070470038024068
:1035E80000040240000002400028034B0CBF4FF4C7
:1035F800003202229A617047000002400028034B03
:103608000CBF4FF4802204229A61704700040240E4
:10361800024A536983F0040353617047000402406F
:10362800024A536983F00203536170470000024065
:10363800024A136801331360704700BF60520020CC
:10364800014B1868704700BF60520020044A116897
:1036580013685B1A834200D3704730BFF8E700BF96
:103668006052002010B50B494FF0E02208689469B9
:103678000B688342FAD15069074A08491268B2FBBD
:10368800F1F2001B0021B0FBF2F04FF47A72E3FB79
:10369800020110BD60520020A400002040420F002B
:1036A800214B1A6842F480321A601A689203FCD5DA
:1036B8001A6C1E4942F080521A641A6C0A6842F465
:1036C80080420A601A4A40F205711160194A5A602C
:1036D8001A6842F080721A60134A13689B01FCD57D
:1036E800936823F47C4323F0F00343F4144393607A
:1036F800936823F0030343F0020393600A4A936834
:1037080003F00C03082BFAD10B4B0C4A1A604FF04C
:10371800E0230B4A5A610B4AF02182F82310002259
:103728009A6107221A617047003802400070004011
:10373800003C024008544007A4000020007A030A15
:103748003F90020000ED00E04FF0E02300221A61F4
:103758005A619A610D4B1A6842F001021A601A68A0
:103768009207FCD500229A60996811F00C01FBD1F0
:103778001A6822F0867222F480321A60044A5A606B
:10378800044B054A1960054B1A607047003802401F
:1037980010300024003C02400024F400A400002063
:1037A800094B1A6B42F480521A631B6B074B0122B8
:1037B8009A6000EB8101884201D11868704750F87F
:1037C800042B1A60F7E700BF0038024000300240BF
:1037D8008908FFF7E5BF0000054B1A69002ABFBF3B
:1037E800044A5A6002F188325A601869C017704753
:1037F800003C02402301674510B50146EFF31084F1
:1038080072B6FFF7E9FF10B9054B08469847054A15
:10381800136943F00043136184F3108810BD00BF9F
:10382800E5000020003C024070B5154682070446BA
:1038380013D191B18DB1EFF3108672B6FFF7CCFFBB
:1038480018B9074B2A4620469847064A136943F099
:103858000043136186F3108870BD4FF0FF30FBE71B
:1038680021010020003C0240114B10B5114C0128E9
:1038780008BF1C46104B22689A4216D16368012B78
:1038880013D1A1680D4B4A1E9A420ED811F00300BD
:103898000BD1E368012B07D104F50070FFF798FFFF
:1038A800236A1B1A5842584110BD0020FCE700BF8C
:1038B80000000808000002084D494749FFFD0500BF
:1038C8002DE9F84F344CDFF8D880DFF8D890DFF8CE
:1038D800D8A00025012225706570A570E5702571B6
:1038E8006271A571E571C8F80050C9F800502E46FC
:1038F8002F0207F1006707F580373B68534522D14F
:103908007B68012B1FD13B7B012B1CD87B7B012BB8
:1039180019D87B7C012B16D897F91230002B12DBB3
:10392800FB7CDF2B0FD83F213846D7F8FCB0FFF7D8
:1039380037FF834507D11EB1BA68B3689A4202D9E6
:10394800C9F800503E460135B5F5807FD0D106B3A1
:10395800B368C8F80030337B2370737B6370B37B24
:103968000E485A1E53425341A370F37BE370337CD5
:10397800F27C003B18BF01232371737C637106F14D
:103988001401B37CA37100F0A5F9F37C1C44002357
:10399800E371BDE8F88F00BF6C520020735200201D
:1039A8006852002064520020535547490048704728
:1039B8006C520020F0B5C61DC1B005463046FCF774
:1039C80077FDDF28044604D94FF0FF36304641B072
:1039D800F0BDEC22002105A800F04FF92C4F2D4A2C
:1039E8008DF813400123CDE900233B68013302938E
:1039F8002B788DF80C306B788DF80D30AB788DF80E
:103A08000E30EB788DF80F302B798DF810306B79FC
:103A18008DF811302246AB798DF81230314605A861
:103A280000F058F93F216846FFF7BAFE3C683F901E
:103A380024B1194B1C680134FF2C22D804F500234B
:103A480003F580731B0203F580721968013118D1E0
:103A580004339342F9D104F5002000F58070402228
:103A680069460002FFF7E0FE06460028ACD1029B3B
:103A78003B60094B09481C60E722294600F02AF9F7
:103A8800A4E70420FFF7B8FE04460028E3D09BE72C
:103A98006852002053554749645200206C52002058
:103AA80030B5BBB005460C46E7221149684600F020
:103AB80011F901238DF804309DF800308DF8065077
:103AC800B3FA83F35B0920468DF80530FCF7F0FC68
:103AD800DF280AD8421C21460DF1070000F0FAF849
:103AE8006846FFF767FF3BB030BD4FF0FF30FAE79D
:103AF8006C520020114B1A6B42F001021A635A6C87
:103B080042F010025A645B6C0D4B1A6822F4701272
:103B18001A601A6842F420121A605A6A22F47F6204
:103B28005A625A6A42F4EE625A62A3F5704340F24E
:103B3800D9229A6042F20C02DA60704700380240DB
:103B480000000240024B1A681206FCD55860704704
:103B58000010014008B5411E11F8010F00B908BD59
:103B6800FFF7F0FFF8E70000024A13685B06FCD590
:103B7800704700BF001001407FB528B9302004B05D
:103B8800BDE87040FFF7DEBF01AB00211E460A24E6
:103B9800B0FBF4F504FB1502303203F8012B0246A2
:103BA800092A01F10101284601D90A29F0D1013970
:103BB800705CFFF7C7FF0029F9D104B070BD0000A1
:103BC800034AD2F8883043F47003C2F8883070474B
:103BD80000ED00E0DFF834D0FFF7F2FF0C480D49A4
:103BE8000D4A002302E0D458C4500433C4188C4250
:103BF800F9D30A4A0A4C002301E013600432A242B6
:103C0800FBD300F043F8FCF7BFFC7047000002202C
:103C1800000000206C010020E04300087001002033
:103C280054530020FEE710B501390244904201D1F7
:103C3800002005E0037811F8014FA34201D0181BBA
:103C480010BD0130F2E7884210B501EB020402D939
:103C58008442234607D8431EA14208D011F8012BFD
:103C680003F8012FF8E7024401468A4200D110BD4B
:103C780013F8014D02F8014DF7E702440346934259
:103C880000D1704703F8011BF9E7000070B50D4D2E
:103C98000D4C641BA4100026A64209D10B4D0C4CF8
:103CA80000F026F8641BA4100026A64205D170BDBA
:103CB80055F8043B98470136EEE755F8043B98471A
:103CC8000136F2E7D8430008D8430008D843000873
:103CD800DC4300080A44914200F1FF3300D17047E9
:103CE80010B511F8014B03F8014F9142F9D110BDFD
:103CF800F8B500BFF8BC08BC9E467047F8B500BFD1
:083D0800F8BC08BC9E467047A0
:103D100042004100204020003078003A206E6F20A1
:103D2000626F6F7461626C6520696D6167650D0A11
:103D3000003A2076002C20002062797465730D0A09
:103D4000000D0A496E64757374727947726F77203B
:103D5000626F6F746C6F61646572207600202863F7
:103D6000617272696572204530303031290D0A0068
:103D700072657374617274696E6720696E746F2006
:103D8000746865206E657720696D6167650D0A004E
:103D9000757064617465206162616E646F6E6564E4
:103DA0003B20626F6F74696E67207768617420775B
:103DB000617320616C726561647920686572650D5C
:103DC0000A00747269616C20736C6F742000206447
:103DD0006964206E6F7420636F6E6669726D202D4A
:103DE0003E2072657665727420746F20736C6F74F8
:103DF0002000747269616C20626F6F742C20617492
:103E000074656D707473206C65667420616674658A
:103E1000722074686973206F6E653A2000206661B5
:103E2000696C65642069747320636865636B0D0A4F
:103E300000626F6F74202D3E20736C6F7420003011
:103E40003132333435363738394142434445460000
:103E50006F72672E696E64757374727967726F77AB
:103E60002E626F6F746C6F6164657200757064614F
:103E70007465207265717565737465643A20736C3E
:103E80006F7420002066726F6D206E6F6465200075
:103E90002C20706174682000626F6F746C6F6164B5
:103EA0006572206F6E20746865206275732061737F
:103EB000206E6F6465200063616E6E6F7420636CAA
:103EC0006561722074686520757064617465207224
:103ED0006571756573743B206E6F742065726173D4
:103EE000696E670D0A007472616E73666572207484
:103EF000696D6564206F75740D0A0066696C652EC6
:103F000052656164206572726F7220006E6F20616D
:103F10006E737765722066726F6D207468652066B7
:103F2000696C65207365727665720D0A0061727442
:103F30006966616374206973206C617267657220C1
:103F40007468616E2074686520736C6F740D0A006C
:103F5000666C6173682070726F6772616D20666154
:103F6000696C6564206174200061727469666163C4
:103F70007420646F6573206E6F7420737461727443
:103F8000207769746820616E20696D6167652068BB
:103F900065616465720D0A00696D616765206C6515
:103FA0006E6774682000617274696661637420656D
:103FB0006E646564206561726C790D0A00766572C5
:103FC000696669636174696F6E3A200063616E6E41
:103FD0006F74206D61726B2074686520736C6F74F0
:103FE00020626F6F7461626C650D0A00696D6167B4
:103FF000652076657269666965642C206F6E207431
:104000007269616C2000206D61726B656420626F63
:104010006F7461626C65206F6E20747269616C0DE3
:104020000A00736C6F742065726173652066616944
:104030006C65640D0A006E6F20626F6F7461626C54
:104040006520696D6167653B2077616974696E679A
:10405000206F6E207468652062757320666F722011
:104060006F6E650D0A0030313233343536373839EA
:1040700041424344454600756E6B6E6F776E007625
:1040800065726966696564006E6F2076657269663F
:1040900069636174696F6E206B657920696E207445
:1040A000686973206275696C64005348412D32352C
:1040B000362073656C662D74657374206661696C57
:1040C0006564006261642068656164657200626FA6
:1040D000647920646F6573206E6F74206D61746302
:1040E0006820697473206469676573740073696715
:1040F0006E61747572652072656A656374656400CB
:104100007F40000888400008AA400008C34000081B
:10411000CE400008ED4000084E6F64652D494420F4
:10412000636F6D6D69747465642C2072657374615E
:10413000727420746F2061646F70743A006F7267DC
:104140002E696E64757374727967726F772E6E6FF5
:1041500064650075617663616E2E6E6F64652E69AD
:10416000640075617663616E2E6E6F64652E6465A2
:10417000736372697074696F6E00FF01000102035E
:104180000405060708090909090A0A0A0A0B0B0BA4
:104190000B0C0C0C0C0D0D0D0D0D0D0D0D0E0E0E52
:1041A0000E0E0E0E0E0E0E0E0E0E0E0E0E0F0F0F2C
:1041B0000F0F0F0F0F0F0F0F0F0F0F0F0F00010239
:1041C0000304050607080C101418203040000000F6
:1041D0002110422063308440A550C660E7700881FA
:1041E00029914AA16BB18CC1ADD1CEE1EFF1311271
:1041F000100273325222B5529442F772D66239934A
:1042000018837BB35AA3BDD39CC3FFF3DEE36224C0
:10421000433420040114E664C774A44485546AA599
:104220004BB528850995EEE5CFF5ACC58DD5533650
:10423000722611163006D776F6669556B4465BB7E9
:104240007AA719973887DFF7FEE79DD7BCC7C44820
:10425000E5588668A7784008611802282338CCC939
:10426000EDD98EE9AFF9488969990AA92BB9F55AB0
:10427000D44AB77A966A711A500A333A122AFDDB89
:10428000DCCBBFFB9EEB799B588B3BBB1AABA66C80
:10429000877CE44CC55C222C033C600C411CAEEDD9
:1042A0008FFDECCDCDDD2AAD0BBD688D499D977E90
:1042B000B66ED55EF44E133E322E511E700E9FFF29
:1042C000BEEFDDDFFCCF1BBF3AAF599F788F8891DF
:1042D000A981CAB1EBA10CD12DC14EF16FE18010C3
:1042E000A100C230E3200450254046706760B983C6
:1042F0009893FBA3DAB33DC31CD37FE35EF3B10213
:104300009012F322D2323542145277625672EAB5D5
:10431000CBA5A89589856EF54FE52CD50DC5E23462
:10432000C324A01481046674476424540544DBA7A5
:10433000FAB79987B8975FE77EF71DC73CD7D326B2
:10434000F2369106B01657667676154634564CD935
:104350006DC90EF92FE9C899E9898AB9ABA9445802
:10436000654806782768C018E1088238A3287DCB05
:104370005CDB3FEB1EFBF98BD89BBBAB9ABB754A52
:10438000545A376A167AF10AD01AB32A923A2EFD95
:104390000FED6CDD4DCDAABD8BADE89DC98D267CA2
:1043A000076C645C454CA23C832CE01CC10C1FEFE5
:1043B0003EFF5DCF7CDF9BAFBABFD98FF89F176EF2
:1043C000367E554E745E932EB23ED10EF01E000026
:0843D00028BEFF7F0100000080
:0443D800AD0100082B
:0443DC00890100084B
:1043E0007F7F0101FFFF00003D41000853410008AD
:1043F00000010100000000000000000000000000BB
:1044000000000000000000000000000000000000AC
:10441000000000000000000000000000000000009C
:10442000000000000000000000000000000000008C
:1044300000000000000000006241000801010000CF
:104440000000496E64757374727947726F77206EDD
:104450006F64650000000000000000000000000024
:10446000000000000000000000000000000000004C
:10447000000000000000000000000000000000003C
:10448000000000000024F4000B4B0C4A0C4810B54F
:104490004AF6AA24D168C90307D4D36813F0F20FEF
:1044A00014BF4FF0FF30002010BD013B0460F1D17C
:1044B0004FF0FF30F8E700BF00A3E111003C0240DD
:1044C0000030004010B50D4CF323E360236923F462
:1044D0007E7323F0020343EAC00343F4007343F006
:1044E00002032361236943F480332361FFF7CCFF88
:1044F000236923F0FA03236110BD00BF003C024092
:10450000F8B51746104AF323D360136923F44073B8
:1045100023F0010343F4007343F001030024054634
:104520000E4613612046BC4200D028B1064A1369EA
:1045300023F001031361F8BD56F8243045F8243008
:0C454000FFF7A2FF0134EEE7003C024050
:0400000508003BDDD7
:00000001FF
