:020000040800F2
:100000000000022095560008E5560008E556000855
:10001000E5560008E5560008E55600080000000017
:10002000000000000000000000000000E55600088D
:10003000E556000800000000E5560008D90A00084F
:10004000E5560008E5560008E5560008E5560008A4
:10005000E5560008E5560008E5560008E556000894
:10006000E5560008E5560008E5560008E556000884
:10007000E5560008E5560008E5560008E556000874
:10008000E5560008E5560008E5560008E556000864
:10009000E5560008E5560008E5560008E556000854
:1000A000E5560008E5560008E5560008E556000844
:1000B000E5560008E5560008E5560008E556000834
:1000C000E5560008E5560008E5560008E556000824
:1000D000E5560008E5560008E5560008E556000814
:1000E000492F0008E5560008E5560008E5560008C7
:1000F000E5560008E5560008E5560008E5560008F4
:10010000E5560008E5560008E5560008E5560008E3
:10011000E5560008E5560008E5560008E5560008D3
:10012000E5560008E5560008E5560008E5560008C3
:10013000E55600080000000000000000E556000839
:10014000E5560008E5560008E5560008E5560008A3
:10015000E5560008E5560008E5560008E556000893
:10016000E5560008E5560008E5560008E556000883
:10017000E5560008E55600080000000000000000F9
:08018000E5560008E5560008F1
:1001880010B5054C237833B9044B13B10448AFF3C9
:1001980000800123237010BD000100200000000032
:1001A800245A000808B5034B1BB103490348AFF3B1
:1001B800008008BD0000000004010020245A000847
:1001C80053B94AB9002908BF00281CBF4FF0FF31B6
:1001D8004FF0FF3000F06AB9ADF1080C6DE904CEBC
:1001E80000F006F8DDF804E0DDE9022304B070470A
:1001F8002DE9F047089D0C46002B4ED194468C45BE
:100208008646B2FA82F262D94AB1C2F1200391401D
:1002180020FA03F30CFA02FC194300FA02FE4FEA33
:100228001C471FFA8CF6B1FBF7F44FEA1E4307FB95
:10023800141143EA014304FB06F199420AD91CEB65
:10024800030304F1FF3080F01281994240F20F81DC
:10025800023C6344591A1FFA8EF3B1FBF7F007FB0F
:10026800101143EA014300FB06F69E420AD91CEB33
:10027800030300F1FF3180F0FC809E4240F2F980D8
:10028800634402389B1B40EA044000211DB1D3405F
:100298000022C5E90032BDE8F0878B4205D90DB1CF
:1002A800C5E9000100210846F5E7B3FA83F1002902
:1002B80046D1A34202D39042C0F0F080861A64EB84
:1002C80003030120002DE6D0C5E90063E3E7002A17
:1002D80040F09080A1EB0C044FEA1C481FFA8CF701
:1002E8000121B4FBF8F64FEA1E4308FB164443EA23
:1002F800044307FB06F0984208D91CEB030306F1F8
:10030800FF3402D2984200F2CD8026461C1A1FFA0A
:100318008EF3B4FBF8F008FB104443EA044300FBF7
:1003280007F79F4208D91CEB030300F1FF3402D200
:100338009F4200F2B0802046DB1B40EA0640A5E75A
:10034800C1F120068B4022FA06F71F4320FA06FC6B
:1003580004FA01F343EA0C03F44000FA01F8380CFC
:100368004FEA1349B4FBF0FE1FFA87FC00FB1E445A
:1003780049EA04440EFB0CF9A14502FA01F20AD934
:100388003C190EF1FF3A80F08480A14540F281804B
:10039800AEF1020E3C44A4EB09041FFA83F9B4FB46
:1003A800F0F300FB134449EA044403FB0CFCA445A6
:1003B80007D93C1903F1FF3067D2A44565D9023B40
:1003C8003C4443EA0E40A0FB0293A4EB0C049C427D
:1003D800CE469C4651D34ED055B1B8EB0E0364EBD4
:1003E8000C0404FA06F6CB401E43CC40C5E9006471
:1003F800002150E7C2F1200320FA03F10CFA02FCB5
:1004080024FA03F394400C434FEA1C4800FA02FE16
:100418001FFA8CF7B3FBF8F008FB1031230C43EA02
:10042800014300FB07F1994208D91CEB030300F1D3
:10043800FF362CD299422AD9023863445B1AA4B2F7
:10044800B3FBF8F108FB113344EA034401FB07F35B
:10045800A34208D91CEB040401F1FF3613D2A342CE
:1004680011D902396444E41A41EA004139E70446E3
:10047800F0E6084606E7C845AED2B9EB020E63EBD4
:10048800070C0138A8E73146EDE7034699E73046FF
:10049800D4E7D6467FE7634402384DE7064623464D
:1004A80008460FE7023E634430E700BF704700BFCD
:1004B800034613F8012B002AFBD1181A013870479C
:1004C8002DE9F04100F090FB00F03AFB00F0B8F89D
:1004D80000F00AFC494800F037FC494800F034FCB9
:1004E80000F096FB00F030FC464800F02DFC00F0D0
:1004F800E3F8054602F0DEF90446434800F024FC20
:10050800284600F04DFC002C6CD0404800F01CFC44
:10051800606800F019FC3B4800F016FC201E18BF6C
:10052800012000F0D9F800F0A7FD394A394B00281E
:1005380014BF1046184600F007FC00F0F5F93648DD
:1005480000F002FC00F0BAFA00284DD000F0BCFA26
:1005580005463248DFF8E48000F0F6FB6F1E0835E8
:1005680017F8016F330906F00F0618F8030000F0BA
:10057800E3FB18F8060000F0DFFBBD42F0D1284885
:1005880000F0E2FB94B3D4E901766578002000F02E
:100598001FFC3A463146284601F034FD214800F058
:1005A800D3FB284600F0D9FB164800F0CDFB0CB36E
:1005B800E368984700F060FB00F092FA054600F007
:1005C8008BFB0CB12369984701F0A8FE00F088FA6C
:1005D800401BB0F5FA7FF2D300F082FA054600F02E
:1005E80085F8ECE7104897E71048C9E7104E114F17
:1005F8007F25CBE7104800F0A7FBDBE7AD5A0008E2
:10060800DC5A0008D95A0008E95A0008FE5A0008BE
:10061800585A00083C5A0008365B0008535B00082B
:10062800605B0008935B0008035B0008755B0008CB
:10063800765A0008995A0008A75B0008DF5B000893
:100648001B4B1A6B42F003021A631B6B194B4FF4D6
:1006580000329A614FF480229A611A6822F00C02E3
:1006680042F004021A601A6822F0300242F01002C6
:100678001A601A6822F440621A601A6822F440521A
:100688001A601A6822F440421A60DA6822F440625A
:1006980042F40062DA60DA6822F4405242F400520E
:1006A800DA60DA6822F4404242F40042DA607047C5
:1006B8000038024000000240064B1B69C3F340109B
:1006C8005A0648BF40F002001B0648BF40F004002D
:1006D800704700BF000002400028034B0CBF4FF4D6
:1006E800003202229A61704700000240024A5369B0
:1006F80083F002035361704700000240F0B50246E0
:10070800014448F2050700208A4213D012F8016B11
:1007180008250124430026424FEAD03C98B214BF72
:1007280001230023634518BF78406400013DE4B20B
:10073800F0D1E9E7F0BD0000104B1A6822F470020E
:100748001A601A6842F420021A605A6842F4406239
:100758005A609A6842F470029A60DA6822F4700269
:10076800DA60DA6842F4A002DA605A6A22F47F4258
:100778005A625A6A42F488425A6270470004024038
:10078800024A136843F4007313607047005800402E
:10079800064B074AD2F81418014201D1013BF9D19E
:1007A800B3FA83F040094042704700BFA0860100B9
:1007B8000050004038B5144C236843F48073054654
:1007C80023600120FFF7E4FF002814DBC0350F4B3E
:1007D800256140F20242616911420FD1013BFAD111
:1007E800636923F480636361236843F400732360BF
:1007F8006FF0010038BD4FF0FF30FBE7606910F47F
:100808008060F7D0ECE700BF00580040A0860100E8
:1008180070B5044600200D46FFF7CCFF00281FDB0B
:10082800114EB36925448020FFF7B2FF002804DA8F
:10083800FFF7A6FF6FF0010070BD14F8013B3361AC
:10084800AC42F0D10420FFF7A3FF002804DAFFF739
:1008580097FF6FF00200EFE7FFF792FF0020EBE74A
:100868004FF0FF30E8E700BF0058004007B501210E
:100878000DF107008DF80710FFF7CAFF03B05DF808
:1008880004FB00002DE9F843264C236843F48063F9
:100898000546236001208846FFF78CFF00283BDBD4
:1008A800A36905F1FF3900264020FFF771FF0028F2
:1008B80007DAFFF765FF6FF00200BDE8F8833E46F0
:1008C800F2E7236909F8013F771CA8EB0703032B1C
:1008D800F5D80420FFF75CFF002804DAFFF750FF83
:1008E8006FF00300E9E7236823F48063236072B69E
:1008F8002369EB55236843F400732360F71C2E44E7
:100908002369B37062B64020FFF742FF002806DB78
:100918002369EB550020D0E76FF00100CDE76FF0B9
:100928000400CAE7005800402DE9F04F5D4C5E4BCB
:100938005E4E5F4D00212160616021721A6B31703B
:1009480042F002021A631A6C42F480021A6491B0EF
:100958001B6CFFF7F1FE574B4FF400421A602A2236
:1009680019605A60D222DA612B221A6201221A60B7
:100978001A6822F001021A602B6823F440032B60E6
:100988002B6843F480032B606B6823F400636B606F
:100998004FF00063AB6100F0B5F80746884600F0F9
:1009A800B1F8C21B61EB0803502A73F10003F6D3B8
:1009B8004FF40063AB61FFF7BFFE3E4B01251D609E
:1009C800022000F093F8042104A8FFF75BFF002839
:1009D80004DA11B0BDE8F04FFFF748BF9DF81030BA
:1009E800042BF6D19DF81130112BF2D1324B05931F
:1009F800052100230DF11500ADF81830FFF77EFE34
:100A08000821ADF81A0005A8FFF702FF0028E0DB6F
:100A1800052000F06BF8232107A8FFF733FF002813
:100A2800D7DB9DF81C30232BD3D1212107A8FFF752
:100A380065FE9DF83D20C3B29A42CAD19DF83E306A
:100A4800C0F307209842C4D19DF81D009DF81E10E0
:100A58009DF81F209DF820309DF825B09DF826A010
:100A68009DF827909DF828809DF8297003900291A1
:100A780001920093FFF7FAFE03980299019A009BEE
:100A880020706170A270E37084F804B084F805A047
:100A980084F8069084F807802772357011B0BDE895
:100AA800F08F00BF1C010020003802402501002003
:100AB800000402400058004003070280014B1878E8
:100AC800704700BF25010020004870471C01002026
:100AD800024A136801331360704700BF28010020E1
:100AE800014B1868704700BF28010020044A1168AC
:100AF80013685B1A834200D3704730BFF8E700BF22
:100B08002801002010B50B494FF0E02208689469CD
:100B18000B688342FAD15069074A08491268B2FB48
:100B2800F1F2001B0021B0FBF2F04FF47A72E3FB04
:100B3800020110BD28010020A800002040420F003B
:100B4800214B1A6842F480321A601A689203FCD565
:100B58001A6C1E4942F080521A641A6C0A6842F4F0
:100B680080420A601A4A40F205711160194A5A60B7
:100B78001A6842F080721A60134A13689B01FCD508
:100B8800936823F47C4323F0F00343F41443936005
:100B9800936823F0030343F0020393600A4A9368BF
:100BA80003F00C03082BFAD10B4B0C4A1A604FF0D8
:100BB800E0230B4A5A610B4AF02182F823100022E5
:100BC8009A6107221A61704700380240007000409D
:100BD800003C024008544007A8000020007A030A9D
:100BE8003F90020000ED00E0044B05495A6F120ED9
:100BF8000A705A6F42F080725A6770470038024094
:100C08002C010020014B1878704700BF2C010020F0
:100C1800104B1B78980610D4590610D41A0610D415
:100C2800D80610D4590710D41A0710D413F0020F9D
:100C3800094B0A4808BF18467047094870470948D1
:100C4800704709487047094870470948704709487C
:100C5800704700BF2C010020515C0008475C000869
:100C6800F05B0008055C00080A5C0008145C0008DA
:100C78001D5C00083E5C0008134A936843F48053E7
:100C88009360124B5A6F42F001025A67104A596F2B
:100C9800890701D4013AFAD15B6F9B0713D50D4B35
:100CA80045F255521A6004225A604FF47A729A60DB
:100CB800074AD96809B1013AFBD14AF6AA221A6053
:100CC8004CF6CC421A607047002004E0003802401D
:100CD800A186010000300040024B4AF6AA221A60A1
:100CE800704700BF00300040114B1A6B42F0010200
:100CF8001A635A6C42F010025A645B6C0D4B1A6806
:100D080022F470121A601A6842F420121A605A6AA1
:100D180022F47F625A625A6A42F4EE625A62A3F57A
:100D2800704340F2D9229A6042F20C02DA607047AE
:100D38000038024000000240024B1A681206FCD537
:100D4800586070470010014008B5411E11F8010FA6
:100D580000B908BDFFF7F0FFF8E77FB528B93020E4
:100D680004B0BDE87040FFF7E7BF01AB00211E46A5
:100D78000A24B0FBF4F504FB1502303203F8012B0A
:100D88000246092A01F10101284601D90A29F0D1B0
:100D98000139705CFFF7D0FF0029F9D104B070BDAC
:100DA80010F0040F08B5014614BF31203020FFF7BA
:100DB800C3FF11F0020F14BF31203020FFF7BCFF32
:100DC80001F00100BDE808403030FFF7B5BF000072
:100DD8003C4A136B43F002031363136B3A4B1968D5
:100DE80021F470211960196841F42021196099686B
:100DF80041F470219960596A21F0FF015962596ADA
:100E080041F099015962136C43F000731364136C39
:100E18002E4B1A6822F002021A601A6842F0010288
:100E28001A602B4A5968C90703D4013AFAD101203C
:100E380070471A68274942F040021A60264A00287B
:100E480008BF0A46DA61D3F80022214842F00102BD
:100E5800C3F80022D3F81C2222F00102C3F81C2296
:100E6800D3F80C2242F00102C3F80C22D3F8042272
:100E780022F00102C3F804220022C3F84022C3F87A
:100E88004422D3F8142222F00102C3F81422D3F822
:100E98001C2242F00102C3F81C22D3F8002222F0DF
:100EA8000102C3F800221A6822F001021A60074BF7
:100EB8005A68D20701D50138FAD1B0FA80F0400952
:100EC80040007047003802400004024000640040BF
:100ED80040420F0005001A0005001AC0082AF0B5A4
:100EE80024D8154B9B685B0123D500231E461F465B
:100EF800DCB2A2420DD8104B400540F00100C3F807
:100F08008421C3F88871C3F88C61C3F8800100207C
:100F1800F0BD032BCC5C4FEAC3058BBF203DAC4032
:100F2800AC40274388BF26430133E1E74FF0FF3049
:100F3800EEE76FF00100EBE70064004070B5184C75
:100F48000546E06810F0030018D0D4F8B031D4F8A2
:100F5800B401D4F8B861D4F8BC410DB15B0D2B8055
:100F680000F00F00082828BF082002B11070A9B9A6
:100F78000B4AD36843F02003D360012070BDD3002F
:100F8800032A8ABF203B26FA03F324FA03F3DBB2D1
:100F98008B540132D3B29842F1D8E9E70022F9E73D
:100FA80000640040082AF0B524D8154B9B685B0103
:100FB80023D500231E461F46DCB294420DD3104BA6
:100FC800C00040F00500C3F88421C3F88871C3F855
:100FD8008C61C3F880010020F0BD032BCC5C4FEA84
:100FE800C3058BBF203DAC40AC40274388BF264398
:100FF8000133E1E74FF0FF30EEE76FF00100EBE778
:1010080000640040F0B51B4E0746F06810F003007E
:1010180011D0D6F8B031D6F8B441D6F8B851D6F8D0
:10102800BC6113F0040FC3F3800005D1114AD368E3
:1010380043F02003D360F0BD0FB1DB083B6004F040
:101048000F04082C28BF082402B114700029EDD021
:1010580000220AE0D300032A8ABF203B25FA03F3C3
:1010680026FA03F3DBB28B540132D3B29C42F1D897
:10107800DCE700BF006400401FB50120FFF7A8FEB1
:1010880050BB45F6A523022201A940F22310ADF872
:101098000430FFF723FF044600BB1B4B1B4AD168F3
:1010A80089071FD1013BFAD10324204604B010BDA3
:1010B800BDF8062040F223139A4211D19DF803305F
:1010C800022B0DD19DF80830A52B09D19DF80930C8
:1010D8005A2B18BF0524E8E70124E6E71446E4E79D
:1010E8000524E2E700230DF1030202A90DF1060031
:1010F800CDE90233ADF806308DF80330FFF71EFF57
:101108000128D5D00424D0E740420F0000640040F5
:10111800064B5A69510542BF5A6922F480625A61E6
:101128005A69920748BF9B69704700BF0054004046
:10113800024A136843F40073136070470054004078
:10114800074B084A40F480605169084204D1013BCA
:10115800FAD14FF0FF307047506940F38020704754
:10116800A086010000540040074A1368591C1CBFA0
:1011780001331360002805DA044A1368591C1CBFA0
:1011880001331360704700BF340100203001002094
:10119800064B074AD2F81414014201D1013BF9D198
:1011A800B3FA83F040094042704700BFA0860100AF
:1011B8000050004010B1044B1B68036011B1034B91
:1011C8001B680B60704700BF34010020300100200D
:1011D8001D4B1A6B42F002021A631A6C42F4001299
:1011E8001A641B6C194B1A6822F470421A601A6848
:1011F80042F420421A605A6842F0C0025A609A6863
:1012080042F470429A60DA6822F47042DA60DA686E
:1012180042F4A042DA601A6A22F07F421A621A6A1D
:1012280042F088421A62A3F5D8334FF400421A609C
:1012380000221A602A225A60D222DA612B221A620C
:1012480001221A60704700BF0038024000040240C3
:1012580008B5094B09481A6842F400721A609A697D
:10126800920701D50138FAD1FFF752FF18B9BDE846
:101278000840FFF7ADBF08BD00540040A08601003C
:1012880070B5184D0C46FFF743FFAB6903F0030335
:10129800022B064601D1FFF79BFF2B6843F48073AE
:1012A8002B600120FFF774FF002804DAFFF7D0FF56
:1012B8004FF0FF3070BD44EA4604E4B20A4B094AD5
:1012C8002C6140F202415069084206D1013BFAD133
:1012D800FFF7BEFF6FF00100ECE7506910F4806083
:1012E800E8D0F5E700540040A086010070B50C4630
:1012F80000211546FFF7C4FF002816DB0E4EB36920
:101308002544AC4208D10420FFF71AFF0028B4BFD7
:101318006FF00200002070BD8020FFF711FF002849
:1013280006DB14F8013B3361EBE74FF0FF30F2E7DF
:101338006FF00100EFE700BF00540040F8B50D461C
:101348001746002A00F097804C4C012A23681CD1CC
:1013580023F4406323601146FFF792FF002822DB45
:1013680072B6A369236843F40073236062B6402011
:10137800FFF70EFF002804DAFFF76AFF6FF004009A
:1013880013E023692B7000200FE0022A30D143F4C8
:10139800406323600121FFF773FF002806DA236802
:1013A80023F4006323606FF00300F8BD72B6A369ED
:1013B800236823F48063236062B60420FFF7E8FE05
:1013C800002806DAFFF744FF236823F4006323604C
:1013D800D4E772B6236843F40073236023692B7043
:1013E80023696B7062B6236823F400632360CAE73D
:1013F80023F400632360236843F48063236001219E
:10140800FFF73EFF0028CEDBA3690026BB1B032B9A
:1014180009D80420FFF7BCFE00280DDAFFF718FFF3
:101428006FF00500C1E74020FFF7B2FE0028A3DBFC
:101438002369AB550136E9E7104C236823F4806330
:1014480023602369AB550420FFF7A2FE002806F1AC
:10145800010704DAFFF7FCFE6FF00600A5E772B695
:10146800236843F4007323602369EB5535442369EB
:10147800AB7062B687E74FF0FF3096E70054004044
:1014880008B50021FFF7FCFE002805DB034B9B692C
:10149800FFF74EFE012008BD0020FCE70054004085
:1014A80010B572B1FFF722FF041E06DAFFF7D0FE6F
:1014B8002046FFF759FE204610BDFFF739FE0024ED
:1014C800F6E74FF0FF34F6E708B5FFF737FFFFF709
:1014D8004BFE08BD70B505461E468AB1FFF706FFEC
:1014E800041E06DAFFF7B4FE2046FFF73DFE20464D
:1014F80070BD049A31462846FFF720FF0446F3E7FB
:101508004FF0FF34F3E7000073B50D460021144691
:10151800FFF7B6FE00282BDB174EB3698DF8045091
:10152800230A8DF806408DF8053001AD002480208F
:10153800FFF706FE002807DAFFF78AFE6FF00100C2
:10154800FFF712FE02B070BD013415F8013B33619C
:10155800032CECD10420FFF7F3FD002804DAFFF791
:1015680077FE6FF00200EBE7FFF7E2FD0020E7E708
:101578004FF0FF30E4E700BF00540040F8B50F46D5
:10158800002106461546FFF77BFE00284EDB294C56
:101598008020A369FFF7D4FD002806DAFFF758FE7C
:1015A8006FF00100FFF7E0FDF8BD27610420FFF7A9
:1015B800C7FD002804DAFFF74BFE6FF00200F1E7E1
:1015C800236843F44063236001213046FFF758FE47
:1015D800002806DA236823F4006323606FF0030011
:1015E800E0E772B6A369236823F48063236062B6D8
:1015F8000420FFF7CDFD002808DAFFF729FE23684D
:1016080023F4006323606FF00400CBE772B6FFF7A2
:101618008FFD2169236962B62268DBB222F4006279
:1016280043EA0123226000202B80BBE74FF0FF3004
:10163800B8E700BF00540040006803F0BCBF006872
:1016480003F040BF7FB5164604460D46FFF75AFA29
:10165800064A0094821841F10003CDE90156044975
:10166800044803F0DDFA04B070BD00BF40420F002B
:10167800942E0020802E00202DE9F0411546D70831
:10168800069A00EBD10603EBD20841463A463046AB
:1016980004F06AF915F007050BD00124AC4018F8DE
:1016A8000730E4B2621E1340F25D644222401343E5
:1016B800F355BDE8F0812DE9F04311F0070F079DC0
:1016C80007460E469C4604D10795BDE8F043FFF750
:1016D800D3BFAA184FF0010E954201D3BDE8F0839D
:1016E80005F0070806F00709C84541464FEAD50442
:1016F80038BF4946C1F10801531BF0081CF80440E3
:10170800994228BF194644FA08F43B5C0EFA01F8DE
:1017180004FA09F408F1FF385C4008FA09F804EA09
:10172800080463403B540D440E44D5E72DE9F041CD
:10173800D400A342069D94BFE41A241BAC4205F1D1
:10174800070228BF2C46D208984606460F46A2EB49
:10175800D402002100EBD40004F020F9CDF8188061
:101768003B46224630460021BDE8F041FFF7A3BFC3
:101778001FB5CC00944294BF241BA41A102C034616
:101788004FF0000100920DF10E00224628BF1022F2
:10179800ADF80E10FFF78FFFBDF80E0004B010BDB6
:1017A80007B58DF8000001208DF801008DF80410B0
:1017B8008DF805206846DDE90421ADF80230FFF711
:1017C80041FF03B05DF804FB70B50446D0E904108E
:1017D800ADF5047D08B931BB14480022FFF7C8FFF6
:1017E8004FF482720546002143A804F0D7F8284632
:1017F80043A900F0BBFF839DFF2D14D803AE00233F
:10180800EA008DF80C500093082143AB30460135AF
:10181800FFF732FFCDE9006540F281136279217943
:101828002078FFF7BDFF0DF5047D70BDDB5A000879
:10183800F0B54FF4A872ADF5297D002105460DEBF2
:10184800020004F0ABF801231022002158A88DF8FB
:1018580050318DF852318DF8553104F09FF8FFF76B
:101868002DF900286FD0FFF72FF90246006851685C
:1018780058AB03C3127A1A703C4B1C682046FEF71B
:1018880017FE32280246214628BF32225CA86992F8
:1018980004F0B6F8549B0593BDF85431ADF81830F0
:1018A800DDE956230026CDF81A20CDF81E30009623
:1018B80058AB8022702105A8FFF7FDFE699C322CE9
:1018C8003ED88DF83240E4005CAB00962246F82101
:1018D80005A8FFF7F0FE6C9F012F04F1F8032FD83D
:1018E800DB0805AA04F58074D754BF013A4621469F
:1018F80000966AAB05A8FFF7DEFE3C44A69FDE2FE4
:101908001ED8E30805AA0834D754FF006EAB3A4640
:10191800214605A80096FFF7CEFE2B788DF80C30EF
:1019280001238DF80D30E1194FF4D773ADF80E305F
:1019380005AAAB88ADF81030C90803A8FFF782FEE6
:101948000DF5297DF0BD0A490A4854AB51F8042B1E
:101958001A74140A5C7481424FEA12444FEA126204
:101968009C74DA7403F10403F0D185E704000020C5
:10197800107AFF1F1C7AFF1F2DE9FF4D90F80034E5
:101988000B7004460D4616466BB901464FF480624B
:10199800681C03F0E9FF42F20803DB08336000200B
:1019A80004B0BDE8F08D012B25D1D0F80032FF2B13
:1019B80025D84B7041F6FF7800214FF0000A4FF010
:1019C800000BD4F800224F1C3B0191424FEAD30090
:1019D800E3D234F81130434528BF43462B52002345
:1019E80000930D2102AB03222844CDE902ABFFF797
:1019F80062FE3946E5E7022B04D10823CDE76FF0F4
:101A08000900CDE76FF00A00CAE700002DE9F041B0
:101A1800ADF6980D40F68802002104A803F0BEFF39
:101A280001238DF81034524B049341F6F873ADF846
:101A38001430504B1C78504B186805A90022D3B2BB
:101A48009C4200F291800333DBB2012500260DF69B
:101A580058042A4684934FF4D77102AB2046009667
:101A68008DF814588DF80850FFF725FE2A4602AB6A
:101A78004FF4C071204600968DF80850FFF71BFE02
:101A88002A468DF808503D4D009602AB40F2B3113E
:101A98002046FFF710FE40F2014802AA294604A892
:101AA800CDF80880FFF768FFB04253DB029B45F88A
:101AB800043CDB002E1F03F1400502AA06EBD5010A
:101AC8000DF2144003F12007CDF80880FFF754FF0A
:101AD80000283FDB029BFF084021F35105EBC303BD
:101AE800DA080DF61807B15003F1200206EBD2020E
:101AF8003D4603CDA542106051602F4602F1080211
:101B0800F6D103F50872D2084021B15003F51072DE
:101B180006EBD2020DF69806254603CDB5421060B5
:101B280051602C4602F10802F6D1154C154A029272
:101B3800FF2203F588618DF80C2022788DF80D209E
:101B4800C908114A02A8FFF77DFD2378013303F085
:101B58001F0323700DF6980DBDE8F08130F81230A0
:101B680021F8023F01326AE7FC2AF7D1FF236CE72C
:101B7800551D561DD6250020D82500203C010020E3
:101B8800D52500200700561D380100202DE9F04713
:101B9800D0E904462DED028B0546ADF5CD6D002E3E
:101BA80075D0E700072F78D80023CDF85034DB0034
:101BB8000093224608233146D4A8FFF7B7FDDDF885
:101BC8005024D3000833BB4228BF3B46DB089C4265
:101BD80094BF221BE21AD100072960D800238DF890
:101BE80060364CAE4FF408720021304603F0D6FE42
:101BF8000DF10F040023009450AA8DF80E308DF8D3
:101C08000F300DF58B610DF10E03D4A800F0C6FD61
:101C18009DF80E3033729DF80F307372FEF772FF25
:101C2800C6E9000196E80300727A0990337AADF8A4
:101C38002810090C09AC8DF82A10E37112B143F091
:101C48000203E37100220023CDE90423002300935B
:101C5800062204AB3A212046FFF72DFD96F81832EC
:101C68002372002B00F0CB81013B0D2B58D8DFE805
:101C780013F026012601D8003D0145011301260174
:101C88003D014501130126013D0145014D01002C8F
:101C980046D1AD4E2746234687E7337885E7F018C7
:101CA800F35C8DF86036002B9BD0013B0D2B37D8A9
:101CB800DFE803F03C3C074E63203C4E63203C4E7B
:101CC8006378012A94BF941A02F1FF34461C00225B
:101CD80021463046FFF74CFDB0F5006FCDF85805AA
:101CE8001ED800901023224631460DF58B60FFF771
:101CF8001DFD76E7012A94BF921A02F1FF32D30044
:101D0800072B00F1010106D80023CDF858351B0137
:101D180000930823E9E74378CDF85835802BF6D9A6
:101D28000DF5CD6DBDEC028BBDE8F087012A94BF9F
:101D3800941A02F1FF34461C002221463046FFF770
:101D480017FDB0F5807FCDF85805E9D8C000C8E781
:101D5800012A94BF921A02F1FF32D300072B00F137
:101D6800010104D80023CDF858359B01D0E743780A
:101D7800CDF85835202BF8D9D2E7012A94BF921A0A
:101D880002F1FF32D300072B00F1010104D8002330
:101D9800CDF858355B01BBE74378CDF85835402B73
:101DA800F8D9BDE7012A94BF941A02F1FF34E30081
:101DB800072B00F101072ED80026CDF8586636010A
:101DC800DFF8A0919FED618ADFED618A0DF58B68E0
:101DD80008364FF0080AB2453FF403AF5246214691
:101DE8003846FFF7C5FC09EA403307EE903A67EE3C
:101DF800887A000417EE903AF4EEE87AF1EE10FAD9
:101E0800A8BF43F0FF4300F00040184348F8040B14
:101E18000AF1100ADFE74678CDF85866802ECED949
:101E28007EE7D6F81071B7F5006F3FF679AFB6F8D0
:101E38001031A4F8093000263A461021009650AB1C
:101E48000DF12D00FFF718FC07F1100117F0070737
:101E580013D00022C7F108070023CDE90623FAB200
:101E680051FA87F7B7F5016F3FF65AAF009606AB00
:101E78000DF12D00FFF71FFC394621F0070208324B
:101E88004032D208CDE900424FF4C0736A7929790B
:101E98002878FFF785FC43E7D6F81061802E3FF6D7
:101EA8003FAF6672360100230093324650AB0821DB
:101EB8000DF12D00FFF7E0FB06F11002E0E7D6F880
:101EC8001021B2F5807F3FF62BAFB6F81031A4F899
:101ED8000930D60000230093324650AB10210DF193
:101EE8002D00FFF7C9FB06F11802C9E7D6F8106103
:101EF800202E3FF615AF6672B601D4E7D6F810610A
:101F0800402E3FF60DAF66727601CCE7D6F8100288
:101F180080283FF605AF6072DFED0E6A9FED126A0A
:101F28009FED0D7A0D4FDFED0E5A000150AB0830D2
:101F3800082647F6FF7C0DF12D0E86424FEAD602A1
:101F480014D10132D2009BE7DB5A000800008077E9
:101F580000008047FFFF7F7F00E07F4700F0FF7FA2
:101F68000000800700E0FF0F00E07FC7F3EC017A74
:101F7800B0EEE75AB4EE665AF1EE10FA0BD8F4EE6A
:101F8800C67AF1EE10FA22D4F4EE477AF1EE10FA9E
:101F9800C8BFF0EE477A17EE908A28F00041B1F1F9
:101FA800FF4F17D3C8F31609B9F1000F24D1B1F1C7
:101FB800FF4F0CBF4FF4F84161464FEA184808F448
:101FC800004841EA08012EF802101036B5E75FED27
:101FD8001A7AE0E708EA070107EE901A67EEA57A91
:101FE80017EE901A01F58051B1F1786F28BF4FF0C4
:101FF8007861C1F34F31E0E74FF4FC41DDE7082297
:102008003EE700BF2DE9F047074692B089464148B0
:10201800DFF844A1404E4FF40051904603F020FAF7
:102028000AACCAF800003D4A3D490AA802F0E6FD9C
:102038000FCC35460FC594E80700DAF80030336056
:1020480085E807003771FEF739FD364B364D1870B5
:10205800082204A8282104AC02F0DBFD0FCC0FC530
:102068002368324C2B600025314B0293CDE90045A3
:1020780000234FF4D7720221304603F079F92D4B33
:102088000293CDE9004540F203234FF4C0720221C8
:10209800304603F06DF9284B02930223CDE9004541
:1020A800194640F28112304603F062F9234B02933D
:1020B800CDE900454FF4967340F2B3120221304641
:1020C80003F056F91E4B02934FF4E052CDE9004558
:1020D80007230021304603F04BF91A4B4146384696
:1020E800C3F8009000F028FBFEF70CFD164B174ACA
:1020F800C3E90001164BC31841F10004C2E90034DA
:102108000A4A144B801841F10001C3E9000112B0DA
:10211800BDE8F087C02E0020942E0020411600084C
:102128004716000852230020802E002080841E00BD
:10213800582C0020302A002008280020E025002004
:102148008823002004000020B8250020B0250020A6
:1021580040420F00C8250020B02E002013B50C46C1
:102168000421ADF80010FF218DF804102178ADF896
:1021780002008DF8051068461946FFF763FA2378C0
:10218800013303F01F03237002B010BD08B5084BDC
:10219800187850B1FEF7B6FC064BD3E90023801837
:1021A80043EB0101002901DA0020014608BD00BF08
:1021B8006023002068230020014B1870704700BF7F
:1021C800DC250020014B1860704700BFD025002097
:1021D80070B5CAB004464FF488720D4606A80021AF
:1021E80003F0DCFBFFF7D2FFCDE906018DF82040B4
:1021F8000DF1230200242B5D0BB1FF2C3BD1204DA8
:102208009DF81E30AB719DF8203006982860072B8A
:10221800284628BF0723BDF81C20AA80002600F8FE
:10222800073F00220023CDE90423009604AB0522D2
:1022380003214994FFF73FFA2C72E400009609AB9A
:10224800224628464821FFF736FA0E4E0E4B0293D7
:102258004834FF238DF80C302A4633788DF80D303A
:10226800E10802A8FFF7EEF93378013303F01F0302
:1022780033704AB070BD02F8013F0134BBE700BFBC
:102288004A220020D42500200700F81FF0B5A5B089
:1022980004AB0D46002419462E5D671C0EB1722C46
:1022A80024D104F190036B44202503F8805C4FF09F
:1022B8000A0E00231D4690356D44B2FBFEFC0EFB52
:1022C8001C26303605F88C6C15460133092DDBB217
:1022D8006246EFD80C441A4662B990336B443B44CB
:1022E80003F8802CFFF774FF25B0F0BD03F8016BED
:1022F8003C46D1E7551E24AEEAB256FA85F515F8E4
:102308008C5C04F8015FE7E7024B1860024B197018
:10231800704700BFD8250020D62500202DE9F04FB2
:10232800B7B0FEF7EFFBA44AD2E900349842A141C6
:1023380007D3A2495B1844F10004C2E90034FFF74F
:1023480065FBFEF7DFFB9E4AD2E900349842A141C3
:1023580051D39C495B1844F10004C2E90034FEF7EC
:10236800D1FB994AD2E90034C01A964A61EB0401BC
:102378000023FDF725FF954B1C78954B1B7884F0BF
:1023880001049C4238BF1C460646FEF73BFC032C62
:1023980028BF03248DF864400024054618960027BA
:1023A8000026009408AB0622022119A8CDE9086787
:1023B800FFF781F900940AAB052203210DF16500AE
:1023C8008DF86540CDE90A67824CFFF774F9824BB6
:1023D8001293FF238DF84C3018AA23788DF84D30CE
:1023E800072112A88DF86650FFF72CF923780133DE
:1023F80003F01F032370FEF785FB784DDFF8E081BB
:1024080006460F46284602F0A1FD0446C8B1D4E9A5
:10241800062352EA03010CD0B242BB4109D221463D
:102428002846D8F80C9002F099FD01466C48C84738
:10243800E8E794F82420A16A206AFEF7B3FD002893
:10244800EDD00DF11B020DA907A8FEF7DBFD012851
:1024580029D0644C237873B1FEF754FB624AD2E961
:102468000032C01A61EB0201604A0023824273EB1A
:10247800010138BF23705E4B1B78002B00F04581AB
:10248800564802F063FD002840F03F81BFF34F8FAC
:102498005849594BCA6802F4E0621343CB60BFF352
:1024A8004F8F00BFFDE7079B0F939DF81B301093DC
:1024B8000DAB1193FEF726FB12AC0023CDE90134D6
:1024C80003930FAB009302460B46454802F056FDB6
:1024D8000128B6D19DF84920022A40F09380BDF822
:1024E8004A30B3F5D77F4AD00CD8B3F5C07F4AD06D
:1024F80040F2811293424AD0394B1799DB68384829
:1025080098479EE740F2B3129342F5D1DDE916549D
:1025180014B9002DF0D1394C002229462046FFF786
:1025280027F9EB00172BADF8600034D8002335935A
:10253800DB00009319A818232A462146FFF7F6F86E
:102548000023BDF860008DF814304FF6FF739842F1
:1025580026D1274B01221A709DF814308DF81830B7
:102568000123019306AB00939DF84D209DF84C1074
:102578009DF8480040F2B313FFF712F9BCE7204674
:10258800FFF756F9B8E72046FFF700FBB4E7204607
:10259800FFF71AF9B0E7A3783593702BC8D9ABE7E2
:1025A800174B1B681BB198478DF81400D4E7032319
:1025B8008DF81430D0E700BFC82500208096980019
:1025C800B025002040420F00B825002052230020EB
:1025D800DC250020C02500200400551D802E002089
:1025E800942E00206023002058230020C0C62D0010
:1025F800DD25002000ED00E00400FA05DB5A0008A4
:10260800D0250020179B002A7FF476AFBDF84A201A
:10261800B2F5E05F7FF470AF9DF94C209DF84C70E7
:10262800002AFFF669AF169A1BB9002A7FF464AF37
:10263800374BD200382A4FF000004FF000014FF01E
:102648000004CDE9180128BF3822214618A80094B3
:10265800FFF712F8DFF8D4E02E4BBEF80090BEF971
:102668000060B945DDE91815DDE91420D3E900C893
:102678000FFA87FA09D8DFF8B8B0B2EB0C0960EBAB
:102688000807CB4574EB070B12D22349AEF800A01C
:10269800C3E9002000249DF84DA00C701F4B0124B5
:1026A80083F800A01E4B1C701E4BC3E9002023E7D3
:1026B800B2457FF421AFDFF868E09DF84DA09EF8A1
:1026C80000E0BEF1000F1DD051EA050E1AD0DFF868
:1026D8004CE09EF800E00EF1010E0EF01F0ED645FC
:1026E80010D1DFF850E0CE4574EB07070AD3B1EB01
:1026F8000C010D4B65EB0805C3E90015064B0121DC
:102708001970CFE7C3E90020C8E737B0BDE8F08FFC
:10271800DB5A000878230020602300207023002063
:102728008023002058230020682300200000002078
:10273800C0C62D0040420F0070B50B4C0D462081DD
:1027480081B10846FDF7B4FE3F2828BF3F20064662
:102758000246294604F15600344403F051F9002397
:1027680084F8563070BD00BF08000020012870B5FD
:102778000D460FD84C235843074B1E583046FDF7DB
:1027880097FE314604460246284603F039F9C5F853
:10279800004170BD0024FAE7080000202DE9F04749
:1027A800434D2E688146304614460F469846FDF73D
:1027B8007FFED9F800A15045024605D1314648466A
:1027C80003F0C2F8064660B1EE6C3046FDF770FEC5
:1027D800504528D152463146484603F0B5F810BB5B
:1027E80001264C20704305EB000999F8053099F84B
:1027F8000420FBB94C2303FB06531B794BB314B1DC
:10280800012384F808324C2707FB06570A37384655
:10281800FDF74EFE394681460246204603F0F0F8A1
:10282800C4F8009121E00023002C3DD188F8003045
:10283800002321E0002FDDD097F80832002BD9D0F3
:10284800F2B90A2B05D1D7F8003113B13B88A9F8A2
:10285800083014B10A2384F808324C2303FB0653CA
:102868001B8923800123C4F800314C2303FB065540
:102878006B7988F80030AB79089A1370BDE8F08757
:10288800012ABCD1012BBAD1D7F800213F2A28BF91
:102898003F2292460A3039462844D14403F0B0F822
:1028A800002389F80A30A5E784F80832BEE700BF9C
:1028B80008000020431EDBB2FD2B0AD8052806D0ED
:1028C800012806D1044B142202FB00307047002077
:1028D800F8E70020704700BFF45C0008012807B53E
:1028E80005D002280BD0032003B05DF804FB00F0EC
:1028F8007FFB0A490320FFF76BFC0020F4E70DF18A
:1029080006010020ADF8060000F0B2FBBDF8062075
:1029180003490320FFF7BAFCEFE700BF1C5D00087E
:102928003A5D000838B54420FEF7AAFD064D044676
:1029380018B12B780BB900F075FA48202C70FEF707
:102948009FFD024B187038BDE04E0020DF4E00207E
:1029580038B50B460446154601460722184603F0CB
:1029680003F8A268C0F807200B232B60002038BDAD
:102978002DE9F8431E464B070C46154640D100EB9F
:10298800D104D7083A463146204602F0EDFF15F04B
:1029980007030AD001259D40EDB2F35D6A1E13407E
:1029A800E25D6D422A401343E355BDE8F88301F028
:1029B800070804F00709C845434638BF4B46C3F12A
:1029C80008036A1A934228BF1346CA084FEAD40C70
:1029D800B25C10F80C7042FA08F20EFA03F802FA28
:1029E80009F208F1FF387A4008FA09F802EA080201
:1029F800574000F80C7019441C448D42D7D8D4E7CE
:102A080000214FF0010EF8E708B507211848FFF735
:102A18007BFC1848FFF7D6FB1748FEF795F9FEF739
:102A2800D7FB00F09DFA00F0E9FA144B1A6822F07F
:102A380040421A60DA6822F04042DA60DA6842F00E
:102A48008042DA60FFF76EFFFEF75CF80C4BC3E9D3
:102A580000010C4BC3E900010B4B0C491A780C4BD5
:102A68001B78032043EA4202BDE80840FFF70EBC8A
:102A7800105E0008E52800084D5D000800000240CF
:102A8800D04E0020C84E0020DF4E0020805D000898
:102A9800E04E00202DE9F04F8FB0FEF733F8B74A2B
:102AA800B74E0F46D2E900310546E81A67EB010434
:102AB80086424FF00000A04180F04B81B148DFF81A
:102AC80014831B1841F10001C2E9003198F8003065
:102AD8000AAC002B58D0002302AA01A9684600932B
:102AE8000193029300F0B2F9A74A0146002840F08A
:102AF8007781107010222046009E02F04FFFFFF7EA
:102B080045FB04AACDE90A0107A920460C96FFF760
:102B18001FFF002806DB049B9C4907AA4FF480503E
:102B2800FFF71CFB102200212046019E02F036FF11
:102B3800FFF72CFB04AACDE90A0107A920460C9649
:102B4800FFF706FF002806DB049B914907AA41F21C
:102B58000100FFF703FB102200212046029E02F02D
:102B68001DFFFFF713FB04AACDE90A0107A92046B8
:102B78000C96FFF7EDFE002806DB049B854907AAA3
:102B880041F20200FFF7EAFADFF84C9299F80030B8
:102B980013B3002302A8029300F0AEF97A4A014663
:102BA800002840F02381507010222046029E02F037
:102BB800F5FEFFF7EBFA04AACDE90A0107A92046BA
:102BC8000C96FFF7C5FE002806DB049B724907AA8E
:102BD80041F20300FFF7C2FA704B714A1B69127881
:102BE800DFF8F8A113F400430CBF0126002662B1F8
:102BF8009AF80020B24208D0002B6A4B6A4912BFEB
:102C0800042019460320FFF7E3FA8AF80060FFF76B
:102C1800BDFACDE90A0194E803000022ADF82010BE
:102C28000023090CCDE9022307908DF8221046F005
:102C3800020602AB06223A2107A88DF82360FFF7A7
:102C480097FE0026082307AA5849DFF854A141F245
:102C58000400FFF783FACDE90C66FFF797FACDE990
:102C68000A01314601A88DF8046000F001FA9AF8CB
:102C780000209DF804604E4B834662B11A78B24238
:102C880009D04C4A4C49002E16BF11460320042097
:102C9800FFF79EFA464B1E7094E80300ADF820102B
:102CA800090C07908DF82210BBF1000F01D046F0F7
:102CB800020600220023CDE904233A2104AB0622B0
:102CC80007A88DF82360FFF753FE08233B4907AA9E
:102CD80041F20500FFF742FA10220021204602F0D7
:102CE8005DFEFFF753FACDE90A0100F073F901AA76
:102CF80007A920468DED0C0AFFF72AFE002806DBFF
:102D0800019B2F4907AA41F20600FFF727FA99F815
:102D1800004001238AF800302CB11B4B5C78022C50
:102D280094BF0024012498F8003023B1164B1B7877
:102D3800032B28BF02242046FFF73EFA214B1A78BE
:102D4800A24206D01C70002C56D11F490320FFF761
:102D58003FFA1E4A1E48D2E90031ED1A67EB010717
:102D6800854277F1000706D31B1841F10001C2E93B
:102D78000031FFF7D7FD0FB0BDE8F08FD04E00202F
:102D88003F420F0040420F00C34E0020DE4E00209D
:102D9800DD4E0020DC4E0020DB4E0020000002400B
:102DA800C04E0020A05D0008AE5D0008DA4E00208D
:102DB800C14E0020BC5D0008C95D0008D94E002046
:102DC800D84E0020C24E0020D65D0008C84E002014
:102DD80000879303E04E0020DF4E0020A000002073
:102DE8001378FF2B1CBF01331370CDE65378FF2BEC
:102DF8001CBF01335370EFE6084B09495A781B781A
:102E0800022A94BF00220122022B94BF002301232F
:102E180043EA42020420FFF739FA9AE7C34E00203A
:102E2800EC5D000808B544F2271200214420FEF7A3
:102E38006BFB002807DBBDE808404FF40062052162
:102E48004420FEF761BB4FF0FF3008BD73B50D4657
:102E58001446064698B10DF1060202214420FEF7F9
:102E68008DFB002839DBBDF806309FED207A07EE90
:102E7800903AF8EE677A67EE877AC6ED007A9DB1E8
:102E88000DF1060204214420FEF778FB002827DB19
:102E9800BDF906309FED167A07EE903AF8EEE77A1C
:102EA80067EE877AC5ED007A14B9002002B070BDCC
:102EB8000DF1060203214420FEF760FB002812DB17
:102EC800BDF806309FED0B7A07EE903AF8EE677A78
:102ED80067EE877AC4ED007AE7E74FF0FF30E5E761
:102EE8006FF00100E2E76FF00200DFE70AD7A33ACC
:102EF80017B7D1370AD7233A13B504460DF106029E
:102F080000214820FEF73AFB002812DB14B9002004
:102F180002B010BDBDF90630DFED076ADFED077AB4
:102F280007EE103AB8EEC77AE7EE267AC4ED007AD3
:102F3800EDE74FF0FF30EBE70000003C33938843A8
:102F4800054B5A69D20406D54FF480525A61034A98
:102F58001368013313607047003C0140E44E0020C1
:102F6800174B1A6B42F002021A635A6C42F4804201
:102F78005A645B6C134B1A6822F040721A60DA6864
:102F880022F04072DA60DA6842F08072DA600E4A43
:102F9800536923F00F0343F0010353610B4B1A6885
:102FA80042F480521A60DA6842F48052DA609A6811
:102FB80022F480529A60064B4FF480725A60704730
:102FC800003802400004024000380140003C014043
:102FD80000E100E0044BDFED057A93ED000AB8EE5E
:102FE800400A20EE270A7047E44E002000A00C4556
:102FF800014B00221A607047E44E0020184B1A6BF0
:1030080042F005021A635A6C42F480725A645B6C8F
:10301800144B4FF000729A611A6822F440221A6029
:103028001A6842F480221A605A6822F400725A60C0
:10303800DA6822F44022DA600B4A136843F44073DA
:1030480013600A4BDA6842F4E042DA600022DA627E
:103058000E225A639A6842F001029A60704700BFD4
:1030680000380240000002400008024000200140F1
:10307800164B4FF4007270B59A61044605200D4650
:10308800FDF734FD124A136823F0020313609368B6
:1030980043F0804393600F4B1168890701D4013BCB
:1030A800FAD1D26C0949181E4FF0007618BF0120DA
:1030B80092B28E6105B12A803CB12BB140F69243A1
:1030C8009A428CBF00230123237070BD0000024088
:1030D80000200140A08601002DE9F843074644205E
:1030E800FEF7CEF906467620FEF7CAF904466220B6
:1030F800FEF7C6F9DFF85090054634B199F800405C
:103108001CB900F07FFEC443E40FDFF840804DB1E6
:1031180098F8005035B9094B3946188801F068FA13
:10312800C543ED0F064B89F800401E7088F8005023
:103138000CB9044B1C70BDE8F88300BFA200002046
:103148004C4F0020284F00204B4F00204A4F0020B2
:10315800012838B5044603D0022817D0032038BD0B
:10316800104B1B78DBB1104D2B78C3B901F0B8FBBD
:10317800002812DB2C70FDF7C5FC0C4A0C4B80189C
:1031880041F10001C3E900010020E8E7094B1B7881
:103198002BB1094B01221A70F6E72046DFE705201C
:1031A800DDE700BF4A4F0020F84E002020A10700AD
:1031B800F04E00204C4F0020E94E0020034A135CDB
:1031C800FF2B1CBF01331354704700BFF94E00207A
:1031D800244B1B782DE9F04193B3234F3B787BBBFD
:1031E800DFF8A880FDF78EFC98F8005004460E46DC
:1031F8009DB91E4B1E48D3E90012611A66EB020204
:10320800814272F100020DD31A49C3E900460D70DC
:103218001949012288F800200A70164B1A78174BB2
:1032280033F81250164B284693ED000A00F0D4FEEE
:10323800002807DA0120FFF7C1FF002388F80030D3
:10324800BDE8F0810F4B28461D8001233B7000F03C
:10325800AFFE0D4B4FF47A72E0FB0246C3E900461D
:10326800EEE700BF4B4F0020284F0020104F0020F2
:10327800809698000D4F00200C4F002046610008F2
:10328800A4000020184F0020204F00200E4F0020DF
:103298002DE9F8431E464B070C46154640D100EB76
:1032A800D104D7083A463146204602F05DFB15F0B6
:1032B80007030AD001259D40EDB2F35D6A1E134055
:1032C800E25D6D422A401343E355BDE8F88301F0FF
:1032D800070804F00709C845434638BF4B46C3F101
:1032E80008036A1A934228BF1346CA084FEAD40C47
:1032F800B25C10F80C7042FA08F20EFA03F802FAFF
:1033080009F208F1FF387A4008FA09F802EA0802D7
:10331800574000F80C7019441C448D42D7D8D4E7A4
:1033280000214FF0010EF8E738B50B460446154664
:1033380001460722184602F017FBA268C0F80720CA
:103348000B232B60002038BD30B52DED028B1022E9
:1033580089B004460D460DEB02000021B0EE408A0C
:1033680002F01CFBFEF712FF6A46CDE9040101A931
:1033780004A88DED068AFFF7D7FF002805DB009B20
:1033880001AA29462046FEF7E9FE09B0BDEC028BEA
:1033980030BD30B52DED028B102289B004460D46A4
:1033A8000DEB02000021B0EE408A02F0F7FAFEF7BA
:1033B800EDFE6A46CDE9040101A904A88DED068A4F
:1033C800FFF7B2FF002805DB009B01AA294620462B
:1033D800FEF7C4FE09B0BDEC028B30BD30B52DED53
:1033E800028B102289B004460D460DEB0200002125
:1033F800B0EE408A02F0D2FAFEF7C8FE6A46CDE97E
:10340800040101A904A88DED068AFFF78DFF0028A5
:1034180005DB009B01AA29462046FEF79FFE09B05E
:10342800BDEC028B30BD00002DE9F0430A2185B0C8
:103438007E487F4DFEF768FF7E48FEF7C3FEFDF726
:10344800C7FE0120FFF748FE7B48FDF77DFC7B485F
:10345800FDF77AFC2B78002B00F0DA80002302A815
:10346800029300F095FC002840F0CE807448FDF7E8
:103478006BFC0298FDF771FC7248734EFDF764FC13
:103488007248FDF761FC3378002B00F0C38000F030
:1034980087FD6F4A6F4B00280CBF10461846FDF792
:1034A80053FC6D48FDF750FC0420FDF756FC6B48B3
:1034B800FDF74AFC0A20FDF750FC6948694FFDF703
:1034C80043FC6948FDF740FC3B78002B00F0AB80DB
:1034D800664800220023CDE90223FDF735FC02A847
:1034E80001F0D2F958B96248FDF72EFC0398FDF7B0
:1034F80034FC3A20FDF720FC0298FDF72EFC00234F
:1035080001A8019301F0AEF900283BD15948FDF715
:103518001BFCDDED017A9FED587A67EE877AFDEEA8
:10352800E77A17EE904A002C03DA2D20FDF704FC09
:1035380064424FF47A79B4FBF9F84046FDF70DFC84
:103548002E2009FB1844FDF7F7FB6420B4FBF0F0CC
:1035580030304FF00A08C0B2FDF7EEFBB4FBF8F9C3
:10356800B9FBF8F008FB10903030C0B208FB1944E2
:10357800FDF7E2FB04F13000C0B2FDF7DDFB3F4888
:10358800FDF7E2FB00230DF103010DF102008DF8B8
:1035980002308DF8033001F08BF930B99DF8023014
:1035A800002B39D13648FDF7CFFB2648FDF7CCFB79
:1035B800002302A901A8CDE90133FDF7FBFD31483D
:1035C800FDF7C2FB0198FDF7C8FB2F48FDF7BCFBD0
:1035D8000298FDF7C2FB2D48FDF7B6FBFDF792FAFE
:1035E8002B4B3A78C3E900012A4BC3E90001337831
:1035F80029495B0043EA82032A7803201A4305B06D
:10360800BDE8F043FEF742BE2448FDF79DFB33E7D3
:10361800234832E7234851E79DF803300BB122488D
:10362800C1E72248BFE72248C0E700BF326100086F
:103638004C4F0020593100085C5E0008705E00089D
:10364800835E0008D95A00084B4F0020D85E000856
:10365800365E00081E5E0008EB5E0008F85E000893
:103668000A5F00084A4F0020465F0008595F0008BB
:103678008A5E0008615F000800007A446D5F0008F8
:10368800855F00081D600008256000083560000897
:10369800384F0020304F00203F600008945E00083B
:1036A800BC5E00080F5F0008A95F0008DB5F000828
:1036B8000A6000082DE9F0472DED028BB2B0FDF746
:1036C80021FAB14ADFF838C30E46D2E9003105467F
:1036D800EF1A66EB01000024BC4574EB0000AB4F09
:1036E80066D2AB48DFF81C831B1841F10001C2E920
:1036F800003198F8003063B100231EA90CA80C9380
:103708001E9300F0EDFAA04280F29F802046FFF75A
:1037180055FDDFF8F49299F800306BB13C785CB94C
:103728000DF107008DF8074001F01AF8002880F223
:10373800C7800220FFF742FD964B1A7872B198F8BD
:1037480000205AB13A784AB91A7000F036FB0028BE
:10375800914914BF05200320FEF73AFDFFF738FD15
:103768008E4B1C782CB18E4B5C78022C94BF0024B5
:10377800012499F8003023B1894B9B78032B28BF8B
:10378800012498F8003023B1854B1B78032B28BF00
:1037980002242046FEF710FD824B1A78A24207D079
:1037A8001C70002C40F0CD807F490320FEF710FDEF
:1037B8003B78B3B17D4CFDF7A5F9D4E900239042DD
:1037C80099410ED33B78012B40F0208101F08CF811
:1037D800002880F2CE80002375493B700520FEF753
:1037E800F7FC744B1A78C2B1734AD2E900128D42C1
:1037F80076EB020211D300241422214607A81C707C
:1038080002F0CCF807A800F089FCA0426B4F80F2C8
:1038180029810120FFF7D2FC3C70694A6948D2E946
:103828000031ED1A66EB0106854276F1000607D3F2
:103838001B1841F100010020C2E90031FFF74CFCE0
:1038480032B0BDEC028BBDE8F087554BDDED0C7A4C
:103858009FED5D0A1C705D4B5D49C3ED007A37EE44
:10386800800A41F21000FFF76FFD9DED1E0A5949CD
:1038780041F21100FFF78DFDDDED0C7A9FED567AD0
:103888009FED560A9DED1E8A27EE800A77EE877A0D
:1038980080EE270A01F024FF514941F21200DFEDC2
:1038A800517A20EE270AF7EE007A77EEC87A20EEF2
:1038B800270ADFED4D7A20EE270AFFF78FFD28E76C
:1038C8009DF80730002B3FF437AF002304AA03A963
:1038D80002A802930393049300F060FF0028FFF608
:1038E80028AF2F4BDDF808A09C70102221461EA897
:1038F80002F054F8FEF74AFC07AACDE91E010CA90C
:103908001EA8CDF880A0FFF70FFD002806DB079B57
:1039180036490CAA41F21300FEF720FC9DED030A7C
:10392800DFED297A324930EE270A41F21800FFF715
:103938000BFD9DED040A2F4941F21900FFF729FDFF
:10394800FAE6174B99785A781B78022994BF002118
:103958000121022A94BF00220122520042EA810278
:10396800022B88BF42F0010223490420FEF78EFC97
:103978001EE702233B70FDF7C5F8204BC01841F144
:103988000001C4E900012CE7384F0020F84E002060
:1039980040420F00E94E0020996000084B4F00207C
:1039A800F94E0020E84E0020C3600008F04E0020C9
:1039B800FF600008284F0020204F00200E4F0020F5
:1039C800304F00200087930333938843A4000020DE
:1039D800494F0020484F0020CD4C6D43F6288A41BE
:1039E800474F0020145C1C3F00007A44464F0020DB
:1039F800414F0020404F0020D96000088096980071
:103A08003F420F004C4F00204A4F0020022B1CD190
:103A180000231EA88DF8783000F06AFF00280ADA23
:103A28006B490520FEF7D4FB03233B70FDF76AF8CA
:103A3800C4E90001D5E69DF878306649002B664B4D
:103A48000EBF052019460320ECE7644B00211888B7
:103A580000F0CEFD0028BEBF614B00221A70002383
:103A68003B70BEE65F4B5C703B7823B15E4B1B78C6
:103A7800B3FA83F35B095D4A12880AB1002B3DD083
:103A88009DED080A5A4941F21400FFF7A7FCDFED43
:103A9800597A9DED070A584930EE270A41F2160077
:103AA800FFF752FC9DED090A544941F21700FFF750
:103AB80070FC9FED537ADDED086AC6EE877AB6EEA4
:103AC800007A77EE877AFCEEE77A17EE903A9CB2A6
:103AD800A4F59673B3F5487F10D8DFF80081B8F8DD
:103AE8000030A3420AD03E4B1B7813B9A8F8004017
:103AF80004E0204600F0A6FE0028F7D03B78002B13
:103B08005ED0394A3F4C13780A9804EB8301086069
:103B18009DF82C1009B93C4801700133DBB2032B26
:103B280013704DD90DF1780900215022484639709B
:103B380001F034FFFEF72AFB236826936368279376
:103B4800A3682893314A324BCDE92023E3682993AF
:103B58002D4BCDE91E011C788DF8C4404FF00408A8
:103B6800CDF89480CDF8C08099E803004022ADF8E4
:103B78003410090C0C908DF8361020AB11460CA8A7
:103B88008DF83780FFF784FB26AB802288210CA8AC
:103B98008DF84080FFF77CFB00220023CDE9042349
:103BA80040F2091104AB07220CA88DF85140FFF729
:103BB8006FFB184922230CAA41F21500FEF7CEFA32
:103BC8003B78002B3FF429AEFFF702FB25E600BF48
:103BD8001A6100087F60000862600008A2000020E7
:103BE8004A4F0020F94E00200D4F0020184F0020AA
:103BF800454F002033938843434F0020424F002015
:103C08000000C842FC4E00200C4F0020C800FA00FB
:103C180040019001444F002030B502460144FF2086
:103C28008A4200D130BD12F8013B0824584045B201
:103C38004300002DD8B2B8BF80F03100013CF6D166
:103C4800EEE72DE9F04102EB420805460F4614461F
:103C580080440646464505D10023A3420ED10020E4
:103C6800BDE8F081304602210336FFF7D5FF16F88C
:103C7800013C8342EED04FF0FF30F1E703EB430203
:103C8800AA5A52BA27F813200133E6E730B585B0AF
:103C98000D468DF8070014460DF107010122442056
:103CA800FDF7FEFB002815DB2846FCF71FFF062260
:103CB80002A94420FDF708FC00280EDB0222214659
:103CC80002A8FFF7BEFF0028B4BF6FF00300002072
:103CD80005B030BD6FF00100FAE76FF00200F7E7BA
:103CE80037B505460C4601AA0A21FD20FFF7CEFF8D
:103CF800002834DBBDF80630DFED1F7A9FED1F6A20
:103D080007EE103AB8EE477A27EE277AC7EE067A1A
:103D1800B1EE087A77EEC77AF5EEC07AF1EE10FACE
:103D28001FD49FED177AF4EE477AF1EE10FAC8BF68
:103D3800F0EE477A8DB1BDF80430DFED126A07EE78
:103D4800103AB8EE477A27EE267AC7EE066A9FED54
:103D58000E7A36EEC77A85ED007A2CB9002003B0CA
:103D680030BDDFED0A7AE5E7DFED056A87EEA67A72
:103D780084ED007AF2E700BF0000FA4200FF7F47B7
:103D88000000C84200002F43000034420000000039
:103D980013B5044601AA01218920FFF777FF0028FF
:103DA80001DB14B9002002B010BDBDF80420BDF835
:103DB800063043EA02432360F4E707B5732101AAFA
:103DC8001520FFF763FF03B05DF804FB1FB50B4632
:103DD8008DF80F0000920DF10F0101227620FDF7FA
:103DE80079FB05B05DF804FB07B502228DF80400E5
:103DF8008DF80510762001A9FDF752FB03B05DF898
:103E080004FB000010B58CB0002401220DF1030161
:103E1800D0208DF80340FFF7D9FFA042C0F2A78059
:103E28009DF80330612B40F0A580B621E020FFF714
:103E3800DBFFA042C0F2A1800A20FCF757FE5649DA
:103E48000122F020FFF7C2FFA042C0F2998017229A
:103E580001A98A20FFF7BAFFA04203DA6FF0040035
:103E68000CB010BD0E220DF11B01E120FFF7AEFFD3
:103E78000028F3DB05220DF129012046FFF7A6FFF4
:103E88000028EBDB454BBDF823201A80BDF8042041
:103E98005A809DF806201A71BDF80820DA80BDF80E
:103EA8000A201A819DF80C209A72BDF80E209A817A
:103EB800BDF81020DA81BDF812209DF81D0052BA15
:103EC8001A82BDF816205A82BDF818209A829DF8E9
:103ED8001A209A759DF81C2002F00F0141EA001182
:103EE80019839DF81B10120942EA01125A83BDF882
:103EF8001E209A83BDF82020DA839DF8222083F8BB
:103F080020209DF8272083F82120BDF825205A84F9
:103F18009DF8282083F824209DF82B20C2F3011255
:103F280083F825209DF8292083F826209DF92D2047
:103F380021461211742083F82720FFF755FF002827
:103F480021DB01217220FFF74FFF00281EDB2146ED
:103F58007520FFF749FF00281BDB54217420FFF769
:103F680043FF0028B4BF6FF00800002078E74FF047
:103F7800FF3075E76FF0010072E76FF002006FE73E
:103F88006FF003006CE76FF0050069E76FF006005B
:103F980066E76FF0070063E7544F0020564F002094
:103FA800024B1878431E584258417047544F00201E
:103FB80000284AF2762249F6251314BF134600203A
:103FC8004FF47A7218BF962003F5FA73B3FBF2F335
:103FD800013318447047000007B5002800F08180BD
:103FE800454B9FED466A93F921209FED457ADFED19
:103FF800455A06EE902AB3F92220F8EEE66AB0F5A3
:10400800C87FA6EE867A06EE902A9FED3F6A93F95E
:10401800242088BFDFED3D7AFAEEE86A98BF07EE04
:10402800900AE6EE865A4FF05A0098BFF8EE677A83
:10403800F7EE006A06EE102A93F8252093F9263049
:10404800B0EE665AA5EEA75A07EE902ABAEECB6AEA
:10405800F8EE677A20EE060AB1EE006A77EE867A05
:10406800A7EE050A86EE277A07EE903A9FED286AB2
:10407800F8EEE77AF0EE665AE7EE865A27EE007A0F
:1040880086EEA56AFBEE097AE7EE067A9FED217ABD
:1040980067EE877AFCEEE77ACDED017A9DF8041099
:1040A800FFF7A2FE00281EDB65216420FFF79CFEB7
:1040B80000281BDB184B1B78012B14BF1021202173
:1040C8007120FFF791FE002813DB55217420FFF7BC
:1040D8008BFE0028ACBF00206FF0030003B05DF832
:1040E80004FB0146ECE74FF0FF30F7E76FF0010003
:1040F800F4E76FF00200F1E7564F00200000803D22
:104108000000444275021A3B6F12033A0000C8438C
:104118006F12033B9A995940544F00202DE9F04300
:1041280087B00446112201A91D20FFF74FFE002881
:10413800C0F2D8819DF90430002B80F2D6819DF819
:104148000A309DF809209FEDEA6A9FEDEA7ADFEDD3
:10415800EA6ADFEDEA3A9DF806609DF807709DF877
:104168000800BDF80CE01B0143EA02339DF80B2060
:1041780043EA121307EE903AE14BE24AB3F80080A3
:1041880092F800C005EE908AB3F90280F8EE655AFD
:10419800F8EEE77A04EE908A26EE656A93F90480D1
:1041A80027EE657AA7EEA66ABCF1010F0BBF9DF852
:1041B80014109DF812109DF813509DF81150A7EE99
:1041C800A37A8A0942EA850207EE908AF8EEE77A2E
:1041D800B3EE005A67EE857A27EE077AF8EEE44ADE
:1041E80067EE877ADFF87083E6EE247A01F00F0530
:1041F800C8ED007A1CB9002007B0BDE8F083B3F918
:104208000C909FEDC14A9FEDC17A9FEDC12A93F9A9
:10421800108001EE909A93F90A90F6EE004AA7EE04
:10422800A44A06EE109AB3F90890C7EE875AB8EE7A
:10423800C66A07EE109A26EE046AB8EEC77A26EE2A
:10424800046A27EE047AB3F80690C4ED005AA6EE85
:10425800267A9FEDB06A27EE067AB7EE006AB0EECE
:10426800463AA7EE023A02EE909AF8EE622A07EE74
:10427800908A62EE832AB3F90E80F5EE402AF1EEB9
:1042880010FA00F0C780000940EA071040EA06303B
:1042980007EE100A9FEDA03A987DB8EEC77AF8EEBF
:1042A800E77A33EE477A67EEA37A24EE043AF8EE1B
:1042B800E11A67EE837A03EE108AB8EEC33A23EE6A
:1042C800044AB0EE003AE4EE037AB5EE004A67EE2F
:1042D800847A9FED924AE1EE847A9FED914AA7EEA7
:1042E800C47ADFED907A67EE277A87EEA27ADFED5F
:1042F8008E7ADFED8E2A67EE277A27EEA73A23EE2D
:10430800273A07EE900AB3F91400F8EE677A04EE3C
:10431800100AB3F9120067EEA33A07EE900AB8EE56
:10432800C44AF8EEE77A24EE074A67EE827A24EE6A
:10433800074A67EE877A93F91100E4EE227A04EED1
:10434800100AE3EE237AB8EEC44ADFED793AE4EED8
:10435800237A9FED784AA7EE847A9EFA9EF080B27F
:1043680084ED017A07EE100A188B04EE100A93F90F
:104378001C0007EE900AF8EEE77AB8EE444A67EEBA
:10438800A47A588B67EEA57AB8EE477AE4EE057AF8
:10439800F0EE464A37EE677A07EE900A93F91D0069
:1043A80005EE100AB8EEC55A93F91E0025EE265AF6
:1043B800FBEEC77AE5EE854A05EE100ABAEEC65A54
:1043C800D87F25EE255AE5EE854A05EE100A67EEF8
:1043D800A47A93F9200067EE877A07EE100ABAEEFE
:1043E800E57AB8EE455A27EE257ADFED535AA5EE61
:1043F800267A27EE877AE7EE877AF4EEE57AF1EE09
:1044080010FA0ADCF5EEC07AF1EE10FA07D5DFED06
:104418004B7A04E09FED497A9FE7F0EE657A87EEE4
:10442800A57ABCF1010F84ED027A1ED14FF48023E6
:10443800EB4007EE903A9FED427AF8EEE77A02EB0E
:10444800420202F5206267EE877A07EE102AB8EE7C
:10445800C77AC7EE876A01F03001A1F130035942EB
:1044680059412174C4ED036AC5E60120A84007EE4E
:10447800900A93F927309FED337AF8EEE76A07EE52
:10448800903AF8EEE77AB1EE045A2F4BA7EE857A08
:1044980003EB850307EE902A9FED2C5AD3ED004AD3
:1044A8002B4BF8EE677A03EB850377EEC57A84EE3B
:1044B800A55A35EE065A25EE075A87EE857A93ED0A
:1044C800005AC5EE257ADFED235A77EE867A37EE65
:1044D800067A67EEA57A67EEA67A67EE277AC6EEC1
:1044E800276AB8E74FF0FF3086E66FF0010083E6F1
:1044F8000000803A000000390000803800000037D2
:10450800564F0020544F002000007AC70000A045F5
:104518000000003800000036000080490000804795
:10452800000080390050C3450000803B0000003087
:10453800000000430000803D0000C8420000000069
:10454800002474490080A7449061000800000044DA
:1045580050610008BD370634504F002007B549BAEE
:10456800ADF8021040BA0221ADF800000DEB0100D1
:10457800FFF752FB05228DF8040069466220FCF71C
:104588008FFFC01703B05DF804FB07B540BAADF85C
:104598000400022201A96220FCF782FFC01703B0C1
:1045A8005DF804FB7FB50D46144602EB4206FFF7A3
:1045B800ECFF002815DB0220FCF798FA324601A927
:1045C8006220FCF781FF00280EDB2246294601A85D
:1045D800FFF737FB0028ACBF00206FF0030004B0E2
:1045E80070BD6FF00100FAE76FF00200F7E7000016
:1045F8002DE9FF47DFF85CA1DFF85C91DFF85C810B
:104608004E4F0024054643F686700E468AF8004051
:1046180089F8004088F800403C70FFF7B6FFA042D8
:104628007CDB4FF4FA70FCF761FA032202A943F22B
:1046380082600294ADF80C40FFF7B4FF68B9BDF88A
:104648000A00BDF80C303E4ABDF8081043EA0043A2
:10465800C2E9003101238AF80030012202A942F29E
:104668001830FFF79FFF98B9BDF808309FED357AED
:10467800DFED356A07EE903AF8EE677A334B67EE6E
:10468800877A87EEA67A83ED007A012389F80030CD
:104698004FF0000901220DF1060142F21330ADF886
:1046A8000690FFF77FFF48453BDBBDF806304B45DA
:1046B800274B14BF01224A464FF001041A7088F8AC
:1046C800004015D0494642F21640FFF747FF4845DB
:1046D8002ADB0220FCF70AFA56B143F21560FFF70D
:1046E80054FF484523DB4FF44870FCF7FFF93C7052
:1046F80029464FF46040FFF731FF00281ADB0220FB
:10470800FCF7F4F942F2B110FFF73FFF0028B4BFFD
:104718006FF00500002004B0BDE8F0874FF0FF30CF
:10472800F9E76FF00100F6E76FF00200F3E76FF0CA
:104738000300F0E76FF00400EDE700BF7E4F0020B4
:10474800884F002000002F4300FF7F47844F002040
:104758007F4F0020824F0020814F0020804F002093
:1047680013B50023044601220DF106014EF2B840AC
:10477800ADF80630FFF716FF00280CDB14B900204F
:1047880002B010BDBDF80630C3F30A03003B18BFE2
:1047980001232370F3E74FF0FF30F1E773B50646C6
:1047A8000D461446694603224EF60540FFF7FAFE09
:1047B80000283BDB5EB1BDF800309FED1E7A07EEA6
:1047C800903AF8EE677A67EE877AC6ED007A9DB17F
:1047D800BDF802309FED187ADFED186A07EE903ABF
:1047E800F8EE677A67EE877A87EEA67ADFED147AB5
:1047F80077EE677AC5ED007A14B9002002B070BD73
:10480800BDF80430DFED0D6A07EE103AB8EE477ACE
:10481800C7EE267AB7EE007AF4EE477AF1EE10FA90
:10482800C8BFF0EE477AC4ED007AE6E74FF0FF30F4
:10483800E4E700BFBD37863500002F4300FF7F4700
:1048480000003442014608B54FF46040FFF786FE89
:10485800002804DB0220FCF749F9002008BD4FF0CE
:10486800FF30FBE7064B1B7833B108B900207047CF
:10487800044B1B680360F9E74FF0FF30704700BF37
:10488800814F0020844F0020074B1B7843B108B9A3
:1048980000207047054BD3E90023C0E90023F7E760
:1048A8004FF0FF30704700BF824F0020884F002034
:1048B800084B1B7853B110B1074B1B78037009B92B
:1048C80000207047054B1B780B70F9E74FF0FF305D
:1048D800704700BF804F00207F4F00207E4F002090
:1048E80043F68670FFF751BE43F23960FFF74DBEBD
:1048F80013B50322044601A96220FCF7E5FD002850
:1049080015DB002301220DF1020101A8ADF80230E8
:10491800FFF797F900280DDB14B9002002B010BD8D
:10492800BDF80230B3FA83F35B092370F5E74FF063
:10493800FF30F3E76FF00100F0E730B581F00104D4
:1049480000EB8404056863684DB1AA68A2EB000C0B
:10495800DCF1000242EB0C0205EB820253601D60A1
:10496800036003EB81035A68626002B1106058600B
:1049780030BD2DE9F0410029037B0CBFFF22012245
:10498800134459B2013303F0FF03022B044643D901
:1049980000294FEAD1786FEA01014FEAD17100EBA3
:1049A8008103B8BF01255E6896F90C30A8BF4FF0A7
:1049B800FF3513FB05F3002B10DC4146FFF7BDFF65
:1049C80096F90C303BB96B425BB2237337463573AB
:1049D8003846BDE8F08100252B46F6E706EB88034C
:1049E80030465F68FFF7A9FF41462046FFF7A5FF5D
:1049F80097F90C3013FB05F3002B04DA0023257319
:104A08003B733373E4E71DBF00236D4223732373A5
:104A18001CBF3B736BB2F4E701730746D8E77047D6
:104A28002DE9F041DDF818800D461E4608F13001E9
:104A380083681746984768B10024C0E90044C0E974
:104A4800067600F13003846004730461C0F82480A2
:104A580083620562BDE8F081006A0B6A984234BF40
:104A68004FF0FF300120704710B5C3680C46096944
:104A780098470023C4E9023323614FF6FF73A382EA
:104A8800A37D013303F01F03A3750123237610BD13
:104A980002888B8B9A4205D0034A8CBF01230023DE
:104AA800D056704700207047D06100081C30FFF7CF
:104AB800EFBF70B5D1E901520446002D36D0002A67
:104AC80034D01046034640680028FBD191F90C0009
:104AD80018735D602B601868814222D09D6845601C
:104AE80005B128609A60136000220D681D60DDB171
:104AF800AE68A6EB010CDCF1000646EB0C0605EBF4
:104B080086056B6082F00101FFF733FF03460068FA
:104B180093F90C20FAB9F8B18268D31A5A425A416B
:104B2800F0E718460122E0E72360EBE7003A18BFF8
:104B3800012201EB82020868536803B1186058B17A
:104B48008268511A4A424A4100EB82014B60002BAD
:104B5800D8D01860D6E700B9236070BD2DE9F843B6
:104B6800056807468946144698460646316831B1B5
:104B78004846A0470028336808D11C461BB9B8F13D
:104B8800000F0BD100242046BDE8F883CCBF0126D6
:104B9800002601361D4603EB8606E7E74846C04770
:104BA80004460028EED000233060C0E901330560D8
:104BB80003730DB93860E6E7A9680B1A59425941E1
:104BC8002846FFF7D6FE90F90C300568002BF0D187
:104BD800002DD8D1EEE7000010B5074C11448A42E9
:104BE80000D110BD12F8013B83EA102334F81330CA
:104BF80083EA002080B2F2E72462000830B500247E
:104C0800FF25C0E90212C0E904440460057184610B
:104C180030BDC0E900120022C0E9022202617047DB
:104C28002DE9F04F8FB0CDE90B23DDE91846814619
:104C38008B46002900F08681002800F08381002C33
:104C480000F080811A9B13B9002E40F07B81D9F8BF
:104C58000430072B3ED9402B3ED8B54AD35CB54A21
:104C6800D35C0593059B62789BF80410013B039382
:104C7800002A44D12379FF2B40F064816588B5F57B
:104C8800005F80F05F810B0628D445F4C04041EAFC
:104C980000202378072B00F2558140EA83630398AC
:104CA8000993864263790A93D9F80810D9F8002045
:104CB80006F101036DD89E48C35C9E48C45C9142CE
:104CC800A4EB060505F1FF3538D36FF002000FB0ED
:104CD800BDE8F08F0823C4E74023C2E7039B9E4248
:104CE80000F230811A9A31464FF6FF70FFF774FFD1
:104CF80000F07F0040EA052040F0B070C9E7531E7D
:104D0800012B00F21F8194F904302579002BC0F2A1
:104D180019816388B3F5007F80F014810F0600F1D4
:104D28001181980340EAC510951E6A4240EA0100C5
:104D38006A4140EA026040F00070AAE7DDE90B230F
:104D4800099900945846FFF76BFE07460028BCD027
:104D580026B11A993246303000F052FE06F1300082
:104D68002A460021384400F019FE0A9B724A3C4446
:104D780063F01F0384F82F303946704B09F10C009B
:104D8800FFF7ECFED9F808300133C9F808300120E4
:104D98009DE7B01C079003980344B3FBF0F30B4462
:104DA800934292D81A9A31464FF6FF70FFF714FFD4
:104DB800002401230490254606940893A046079BE7
:104DC800434518D8069E002D00F0AE80DFF86C81B0
:104DD800594F09F10C05314643463A462846FFF734
:104DE800BDFE3669002EF6D1D9F808302344C9F83B
:104DF800083020466BE7079B0999A3EB0802039B41
:104E0800934289BF4A4BDDF814A09B18494A84BFD6
:104E18005B7812F803A0CDF800A0DDE90B23584613
:104E2800FFF7FEFD069B01340746002B63D028617F
:104E3800002F70D046450AF1FF335ED9A6EB08056E
:104E48009D4228BF1D461A990D932A4607F1300046
:104E580000F0D6FD1A9BA8442B4446451A930D9B97
:104E68002DD8AAF1030AAA1CAAEB050A9A4288BF00
:104E78004FF0000A05F130005246002138440D93E6
:104E880000F08CFD0D9B6A1C01329A4237D35544C1
:104E9800AB4214D9464509D104997A190135090A52
:104EA800AB4282F8301006F1010808D9464506D20F
:104EB8007B19049A83F83020013508F101080A9B10
:104EC800089A03F01F0343EA4213069AB91A4A42A2
:104ED8004A4143EAC213079A42453D448CBF002227
:104EE800012243EA821385F83030089B83F00103DE
:104EF80008933D4663E706909AE70025B1E70499D1
:104F08000F48C1F30F2130F81110049881EA0021ED
:104F180089B20491B8E73D4654E73146DBF80C30D6
:104F28003469584698472646002EF6D1CDE600BF8C
:104F3800D261000813620008614A0008274A000885
:104F4800246200086FF00100C1E600BF10B1C36819
:104F5800002003B9704718465B68FAE738B50D4674
:104F6800044640B129B10C30FFF7A3FDA368013B0B
:104F7800A360284638BD0546FBE700002DE9F04F41
:104F880089B09B469DF84C90129B149E1446074688
:104F9800002800F0B581002E00F0B281002B00F04F
:104FA800AF81D3F800A0BAF1005F80F0A981D3E9FE
:104FB8000158B8F1000F02D1002D40F0A181202244
:104FC8000021684600F0EAFC25B90025284609B00A
:104FD800BDE8F08F4FEA9A638DF808301AF0007F29
:104FE8000AF07F03CDE9004B8DF80C300AF080728F
:104FF80040F0CB80002ACAF30C2118BFFF231AF017
:10500800801FADF80A108DF80C300CBF0122002269
:10501800FF21013DCDE905588DF80D1018F8053030
:1050280003F01F004FEAD31CC3F3801E8DF80E0057
:105038008DF80FC058B203F0400C8DF810E003F063
:10504800200EC3F340138DF81130002ABDD000287C
:1050580005DABEF1000FB8D0BCF1000F0BD19DF8F6
:105068000C30FF2BB1D0062D05D8BCF1000FACD009
:105078000DB90028A9DAFF2902D03B798B42A4D1C7
:105088009DF80900A04A043000230DF10A0107EB3E
:105098008000FFF763FD159B804603B11860B8F1E7
:1050A800000F92D09DF90C209DF80C30002AC0F218
:1050B800038108EB83035C6AF4B99DF80F30DBB118
:1050C800BB682021384698479DF80C3008EB8303CD
:1050D800586200286ED0DDE90023C0E90244C0E927
:1050E80000234FF6FF7383829DF80E3083750123EA
:1050F800046180F81790037600259DF80C3008EBC2
:1051080083035C6A002C3FF461AFDDE90021D4E938
:105118000003904273EB010ED8E904C5D8F8188053
:105128004BD2101A61EB0303844575EB030334BFBC
:105138004FF0010C4FF0000C9DF80E00A37D1B1AD8
:105148009DB2002BBCBF05F120031BB2BCF1000FC0
:1051580008D1E57D4D4533D19DF80F5085B3DBB2BD
:10516800012B2DD90023C4E902334FF6FF73A38224
:10517800012323769DF80F30A07584F81790FBB9AA
:1051880021463846FFF770FC1FE7002A14BF0222A9
:1051980001228DF809201AF4000FCAF38832ADF8FD
:1051A8000A20CAF3C61103D15A1A18BF012230E7E0
:1051B80000222EE76FF002059FE74FF0000CBBE7D7
:1051C80094F817E09DF811C0257EA37DCE457FF4A5
:1051D800FCAEAC457FF4F9AE98427FF4F6AE9DF88C
:1051E8000F30002B51D1DDE90512A08AFFF7F4FC3E
:1051F8000025A082DDE9059AA3684B44A3602369D2
:105208003BB9B8F1000F04D0BB684146384698470F
:1052180020612069002840D0E36809EB030290452B
:1052280038BFA8EB030918444A46514600F0E8FB8A
:10523800E3684B44E3609DF81030002B37D00DB97C
:10524800A38AEBB99DF80C303371BDF808109DF8AE
:105258000E3031807371BDF80A207280D4E90023C2
:10526800C6E90223E2682369326173612DB9A36834
:105278009A1A012A9CBF023B33610023236101254E
:1052880021463846FFF7F0FBA0E69DF81030C4E948
:105298000021002BA7D00125ACE7B8F1000FCAD038
:1052A80021463846FFF7E0FB6FF002058EE6237EC5
:1052B80083F00103237688E6D8F81830059C9C42D1
:1052C80028BF1C462146BB68384698470028EBD0C3
:1052D800DDE900899DF80C20BDF80A10BDF80850DA
:1052E80032719DF80E20358071807271C6E902898D
:1052F800C6E904400699224600F082FB012565E6CE
:105308006FF0010562E600BF994A0008F7B5064646
:1053180048B3022927D8043100EB8105ADF80620EF
:105328000023124A0DF106012846FFF717FC044630
:10533800B8B101462846FFF7BCFB04F12005002759
:1053480004F5087455F8041FF36801B1096930467B
:105358009847F368296830469847A5422F60F1D1ED
:10536800012003B0F0BD6FF00100FAE7994A000888
:105378002DE9F8430A9F0D4691461E46804610B314
:105388000FB302291FD8FFF7C1FF041E18DBDDE9A0
:1053980008230021C7E90423BE614FF40072A7F86F
:1053A8001C9007F12400043500F0F8FA074B084A6E
:1053B800394608EB8500FFF7D1FBB4FA84F4640999
:1053C8002046BDE8F8836FF00104F9E7274A000892
:1053D800B54A000800B1016001B14860704710B5D6
:1053E8008A6800235209012A03F1010418D8D1E977
:1053F800042402B154614C6904B12261DBB250F853
:1054080023208A420BD10A6940F823203AB90122A5
:105418009A40D0F8803023EA0203C0F8803010BDEB
:1054280052082346DFE710B58A6800235209012A8B
:1054380003F1010411D8DBB2002450F823200A61DB
:105448004C6102B15161012240F823109A40D0F812
:1054580080301343C0F8803010BD52082346E6E779
:1054680070B50D46044628B310F00F0126D1BF2DA4
:1054780026D9A03DC0F88010802200F08FFAB5F13F
:10548800004F28BF4FF0004515F01F0614D1C4E99E
:105498002866C4F8A85084F8AC6004F1A00120463E
:1054A800FFF7C1FF00220023C4E92256C4E924669D
:1054B800C4E92623204670BD013DE5E70024F9E74D
:1054C8000C46F7E7F8B505460F4651B3D0F88830D3
:1054D800103B8B4225D310310A460023012A03F1E1
:1054E800010020D807F10F020A40002A18BF013333
:1054F800DBB201269E4071090A460023012A03F106
:10550800010013D84A1E0A40002A18BF0133DAB234
:105518004FF0FF339340D5F8802013405C421C4085
:1055280047D1002035E052080346D7E75208034622
:10553800E4E764081346012C03F10102F9D1DBB258
:10554800284655F823402146FFF749FFA368A6607F
:105558009B1B1F2B0DD9A01921688360002303739F
:10556800FFF738FF01462046FFF734FF2846FFF7CC
:105578005AFFD5F88C301E44D5F89030C5F88C60A9
:105588009E424FF0010388BFC5F8906004F11000F7
:105598002373D5F89430BB4238BFC5F8947038B936
:1055A80037B1D5E92632013342F10002C5E9263286
:1055B800F8BD0023BFE72DE9F84305460C4600294E
:1055C80057D0002351F8089C01F8043C51E90476AF
:1055D800D0F88C30A3EB0903C0F88C30F6B196F8FC
:1055E8000C8088F00108002F3CD03B7B83F001033E
:1055F800B8F1000F28D09BB131462846FFF7EFFEDF
:105608003946FFF7ECFEB368BA6813444B44B360FD
:10561800002344F8083CBB6039680CE0B046E2E778
:1056280031462846FFF7DBFEB3684B44B3600023DE
:1056380044F8083C39463046FFF7CCFE3146284648
:10564800BDE8F843FFF7EFBEA4F110067BB1394679
:105658002846FFF7C4FEBB684B4444F8083CC7F82B
:105668000880D9E7B8F1000FDAD1A4F11006314665
:10567800E5E7BDE8F8830000034AD2F8883043F430
:105688007003C2F88830704700ED00E0DFF834D0CE
:10569800FFF7F2FF0C480D490D4A002302E0D458E9
:1056A800C4500433C4188C42F9D30A4A0A4C002364
:1056B80001E013600432A242FBD300F07DF9FAF74F
:1056C800FFFE70470000022000000020FC000020C0
:1056D8004C64000800010020C8500020FEE70000CC
:1056E80008B52DED028BF0EE408A00F039F8B0EEE7
:1056F800408AB0EE680A00F029F860B1DFED0F7A51
:10570800F4EEE78AF1EE10FA0ADD00F04FF99FEDAA
:105718000C8A22230360B0EE480ABDEC028B08BD58
:10572800DFED087AF4EEE78AF1EE10FAF3D500F02F
:105738003DF922239FED048A0360ECE71772B1421A
:105748000000807FB5F1CFC20000000010EE103AD3
:1057580023F00040B0F1FF4FACBF0020012070479C
:1057680010EE102A22F00043B3F1FF4F02D930EEB9
:10577800000A70474FEAD27106D1DFED4E7A002950
:1057880018BFB0EE670A70474B48824202DD00201E
:1057980000F0D4B8002A05DA484A934202D900201A
:1057A80000F0C6B8464A9342F7EE005A52D9454A25
:1057B80093424FEA810234D8434B134493ED007A65
:1057C800424B134430EE477AC1F10102D3ED007A1F
:1057D800521A37EE670A20EE006A9FED3D5ADFED58
:1057E8003D6AE6EE056A9FED3C5AA6EE865ADFED65
:1057F8003B6AE5EE066A9FED3A5AA6EE865AF0EE47
:10580800406AE5EE466AB0EE006A20EE265A92BB80
:1058180076EEC66AC5EE267A37EEC00A35EEC00ABD
:105828007047304B9FED307ADFED306A1344D3ED8B
:10583800007AE0EE077AB0EE407AFDEEE77A17EEEE
:10584800902AF8EEE77AA7EEE67ADFED296A67EEA6
:10585800A67ABEE7B3F1505F0BD2DFED266A70EE91
:10586800266AF4EEE56AF1EE10FA02DD30EE250A5A
:1058780070470022AFE736EE666A12F17D0FC5EE7B
:10588800066AB8BF643277EEE67A77EEC77A75EEC5
:10589800E77A17EE903AABBF03EBC25303EBC25360
:1058A80000EE103ADFED147ABCBF00EE103A20EE9D
:1058B800270A7047000000001772B142B5F1CF42C5
:1058C8001872B13E9115853F2C64000824640008C5
:1058D8004CBB31330EEADDB555B38A38610B36BBA4
:1058E800ABAA2A3E346400083BAAB83F8071313F16
:1058F800D1F71737CAF249710000800D10B52DEDA8
:10590800028BB0EE408A044600F050F8B0EE480A28
:10591800BDEC028B046010BD30B1F1EE407A27EE89
:10592800800A2220FFF7EABFF0EE407AF7E700008E
:105938009FED010AFFF7F0BF000000109FED010A7C
:10594800FFF7EABF0000007010B501390244904229
:1059580001D1002005E0037811F8014FA34201D0DE
:10596800181B10BD0130F2E7884210B501EB0204A4
:1059780002D98442234607D8431EA14208D011F811
:10598800012B03F8012FF8E7024401468A4200D1AF
:1059980010BD13F8014D02F8014DF7E70244034624
:1059A800934200D1704703F8011BF9E7014B1868CF
:1059B800704700BFAC00002070B50D4D0D4C641B46
:1059C800A4100026A64209D10B4D0C4C00F026F875
:1059D800641BA4100026A64205D170BD55F8043BEF
:1059E80098470136EEE755F8043B98470136F2E749
:1059F80044640008446400084464000848640008DB
:105A08000A44914200F1FF3300D1704710B511F8F4
:105A1800014B03F8014F9142F9D110BDF8B500BF11
:105A2800F8BC08BC9E467047F8B500BFF8BC08BC77
:045A38009E467047CF
:105A3C0043414E206C6F6F706261636B2073656CB9
:105A4C00662D74657374204F4B0D0A0043414E2034
:105A5C006C6F6F706261636B2073656C662D74651F
:105A6C007374204641494C0D0A006F72672E696EA3
:105A7C0064757374727967726F772E6E6F64652EAE
:105A8C00756E6964656E74696669656400756E69C6
:105A9C0064656E746966696564206D6F64756C65A8
:105AAC00000D0A496E64757374727947726F7720B2
:105ABC006E6F6465206669726D776172652028630C
:105ACC00617272696572204530303031290D0A00DF
