:020000040800F2
:1000000000000220E15D0008315E0008315E00085A
:10001000315E0008315E0008315E0008000000001B
:10002000000000000000000000000000315E000839
:10003000315E000800000000315E0008C50C0008B9
:10004000315E0008315E0008315E0008315E000854
:10005000315E0008315E0008315E0008315E000844
:10006000315E0008315E0008315E0008315E000834
:10007000315E0008315E0008315E0008315E000824
:10008000315E0008315E0008315E0008315E000814
:10009000315E0008315E0008315E0008315E000804
:1000A000315E0008315E0008315E0008315E0008F4
:1000B000315E0008315E0008315E0008315E0008E4
:1000C000315E0008315E0008315E0008315E0008D4
:1000D000315E0008315E0008315E0008315E0008C4
:1000E00049340008315E0008315E0008315E0008C6
:1000F000315E0008315E0008315E0008315E0008A4
:10010000315E0008315E0008315E0008315E000893
:10011000315E0008315E0008315E0008315E000883
:10012000315E0008315E0008315E0008315E000873
:10013000315E00080000000000000000315E000891
:10014000315E0008315E0008315E0008315E000853
:10015000315E0008315E0008315E0008315E000843
:10016000315E0008315E0008315E0008315E000833
:10017000315E0008315E0008000000000000000051
:08018000315E0008315E000849
:1001880010B5054C237833B9044B13B10448AFF3C9
:1001980000800123237010BDD00100200000000062
:1001A8007061000808B5034B1BB103490348AFF35E
:1001B800008008BD00000000D40100207061000824
:1001C80053B94AB9002908BF00281CBF4FF0FF31B6
:1001D8004FF0FF3000F06AB9ADF1080C6DE904CEBC
:1001E80000F006F8DDF804E0DDE9022304B070470A
:1001F8002DE9F047089D0C46002B4ED194468C45BE
:100208008646B2FA82F262D94AB1C2F1200391401D
:1002180020FA03F30CFA02FC194300FA02FE4FEA33
:100228001C471FFA8CF6B1FBF7F44FEA1E4307FB95
:10023800141143EA014304FB06F199420AD91CEB65
:10024800030304F1FF3080F01281994240F20F81DC
:10025800023C6344591A1FFA8EF3B1FBF7F007FB0F
:10026800101143EA014300FB06F69E420AD91CEB33
:10027800030300F1FF3180F0FC809E4240F2F980D8
:10028800634402389B1B40EA044000211DB1D3405F
:100298000022C5E90032BDE8F0878B4205D90DB1CF
:1002A800C5E9000100210846F5E7B3FA83F1002902
:1002B80046D1A34202D39042C0F0F080861A64EB84
:1002C80003030120002DE6D0C5E90063E3E7002A17
:1002D80040F09080A1EB0C044FEA1C481FFA8CF701
:1002E8000121B4FBF8F64FEA1E4308FB164443EA23
:1002F800044307FB06F0984208D91CEB030306F1F8
:10030800FF3402D2984200F2CD8026461C1A1FFA0A
:100318008EF3B4FBF8F008FB104443EA044300FBF7
:1003280007F79F4208D91CEB030300F1FF3402D200
:100338009F4200F2B0802046DB1B40EA0640A5E75A
:10034800C1F120068B4022FA06F71F4320FA06FC6B
:1003580004FA01F343EA0C03F44000FA01F8380CFC
:100368004FEA1349B4FBF0FE1FFA87FC00FB1E445A
:1003780049EA04440EFB0CF9A14502FA01F20AD934
:100388003C190EF1FF3A80F08480A14540F281804B
:10039800AEF1020E3C44A4EB09041FFA83F9B4FB46
:1003A800F0F300FB134449EA044403FB0CFCA445A6
:1003B80007D93C1903F1FF3067D2A44565D9023B40
:1003C8003C4443EA0E40A0FB0293A4EB0C049C427D
:1003D800CE469C4651D34ED055B1B8EB0E0364EBD4
:1003E8000C0404FA06F6CB401E43CC40C5E9006471
:1003F800002150E7C2F1200320FA03F10CFA02FCB5
:1004080024FA03F394400C434FEA1C4800FA02FE16
:100418001FFA8CF7B3FBF8F008FB1031230C43EA02
:10042800014300FB07F1994208D91CEB030300F1D3
:10043800FF362CD299422AD9023863445B1AA4B2F7
:10044800B3FBF8F108FB113344EA034401FB07F35B
:10045800A34208D91CEB040401F1FF3613D2A342CE
:1004680011D902396444E41A41EA004139E70446E3
:10047800F0E6084606E7C845AED2B9EB020E63EBD4
:10048800070C0138A8E73146EDE7034699E73046FF
:10049800D4E7D6467FE7634402384DE7064623464D
:1004A80008460FE7023E634430E700BF704700BFCD
:1004B800034613F8012B002AFBD1181A013870479C
:1004C8002DE9F84300F086FC00F030FC00F0EEF86F
:1004D80000F048FD604800F075FD604800F072FDCE
:1004E80000F08CFC00F06EFD5D4800F06BFD00F044
:1004F80019F9054602F072FB04465A4800F062FDFD
:10050800284600F08BFD002C5ED0574800F05AFDBD
:10051800606800F057FD524800F054FD271E18BFD0
:100528000127384600F00EF900F0E4FE4F4A504B20
:10053800002814BF1046184600F044FD00F02AFABF
:100548004C4800F03FFD00F0EFFA00283ED000F0E4
:10055800F1FA05464848DFF8489100F033FD05F107
:10056800FF38083518F8016F330906F00F0619F837
:10057800030000F01FFD19F8060000F01BFD4545BB
:10058800F0D13E4800F01EFD00F012FB00F02AFBFF
:1005980005463B4800F016FD00F078FB00F012FD20
:1005A800384800F00FFD284600F015FD2C4800F0F3
:1005B80009FD00F01DFB064650B15CB92646DFF880
:1005C800E480DFF8E49007E02F48A5E72F48D9E753
:1005D800002CF4D0D4E90198002000F037FD4A46F9
:1005E8004146284601F04CFE00F002FB394601F076
:1005F8008BFF274800F0E6FC284600F0ECFC184882
:1006080000F0E0FCCEB1E368984700F02BFC00F066
:100618005DFB054600F056FC0EB12369984701F0D2
:10062800CBFF00F053FB401BB0F5FA7FF2D300F08C
:100638004DFB054600F090F8ECE7164800F0C2FCC8
:1006480000F0D6FA144A154B00280CBF104618467D
:1006580000F0B8FCD9E700BF356200086462000802
:10066800616200087162000886620008A4610008DF
:1006780088610008BE620008DB620008E8620008C2
:100688001B6300082B6300088B620008FD620008EA
:10069800366300084A6300081C620008F961000814
:1006A80072630008C2610008E56100081B4B1A6B01
:1006B80042F003021A631B6B194B4FF400329A6124
:1006C8004FF480229A611A6822F00C0242F0040268
:1006D8001A601A6822F0300242F010021A601A6892
:1006E80022F440621A601A6822F440521A601A68AA
:1006F80022F440421A60DA6822F4406242F400624E
:10070800DA60DA6822F4405242F40052DA60DA68B9
:1007180022F4404242F40042DA6070470038024056
:1007280000000240064B1B69C3F340105A0648BF3D
:1007380040F002001B0648BF40F00400704700BFAD
:10074800000002400028034B0CBF4FF40032022285
:100758009A61704700000240024A536983F002031D
:100768005361704700000240F0B50246014448F268
:10077800050700208A4213D012F8016B08250124CE
:10078800430026424FEAD03C98B214BF012300230D
:10079800634518BF78406400013DE4B2F0D1E9E751
:1007A800F0BD0000104B1A6822F470021A601A6833
:1007B80042F420021A605A6842F440625A609A6809
:1007C80042F470029A60DA6822F47002DA60DA6839
:1007D80042F4A002DA605A6A22F47F425A625A6AE4
:1007E80042F488425A62704700040240024A136881
:1007F80043F400731360704700580040064B074AE3
:10080800D2F81418014201D1013BF9D1B3FA83F0AF
:1008180040094042704700BFA086010000500040D8
:1008280038B5144C236843F48073054623600120CF
:10083800FFF7E4FF002814DBC0350F4B256140F2B9
:100848000242616911420FD1013BFAD1636923F475
:1008580080636361236843F4007323606FF00100D1
:1008680038BD4FF0FF30FBE7606910F48060F7D0C7
:10087800ECE700BF00580040A086010070B50446B0
:1008880000200D46FFF7CCFF00281FDB114EB3698F
:1008980025448020FFF7B2FF002804DAFFF7A6FFFF
:1008A8006FF0010070BD14F8013B3361AC42F0D128
:1008B8000420FFF7A3FF002804DAFFF797FF6FF083
:1008C8000200EFE7FFF792FF0020EBE74FF0FF3061
:1008D800E8E700BF0058004007B501210DF1070007
:1008E8008DF80710FFF7CAFF03B05DF804FB00009E
:1008F8002DE9F843264C236843F4806305462360BA
:1009080001208846FFF78CFF00283BDBA36905F12F
:10091800FF3900264020FFF771FF002807DAFFF7AC
:1009280065FF6FF00200BDE8F8833E46F2E72369F1
:1009380009F8013F771CA8EB0703032BF5D804201F
:10094800FFF75CFF002804DAFFF750FF6FF00300A1
:10095800E9E7236823F48063236072B62369EB55C3
:10096800236843F400732360F71C2E442369B37093
:1009780062B64020FFF742FF002806DB2369EB55EB
:100988000020D0E76FF00100CDE76FF00400CAE760
:10099800005800402DE9F04F5D4C5E4B5E4E5F4DB8
:1009A80000212160616021721A6B317042F00202ED
:1009B8001A631A6C42F480021A6491B01B6CFFF738
:1009C800F1FE574B4FF400421A602A2219605A6010
:1009D800D222DA612B221A6201221A601A6822F0E6
:1009E80001021A602B6823F440032B602B6843F440
:1009F80080032B606B6823F400636B604FF0006327
:100A0800AB6100F075F90746884600F071F9C21B22
:100A180061EB0803502A73F10003F6D34FF4006327
:100A2800AB61FFF7BFFE3E4B01251D60022000F0C1
:100A380053F9042104A8FFF75BFF002804DA11B07A
:100A4800BDE8F04FFFF748BF9DF81030042BF6D1F2
:100A58009DF81130112BF2D1324B0593052100235B
:100A68000DF11500ADF81830FFF77EFE0821ADF83E
:100A78001A0005A8FFF702FF0028E0DB052000F0B8
:100A88002BF9232107A8FFF733FF0028D7DB9DF8B0
:100A98001C30232BD3D1212107A8FFF765FE9DF831
:100AA8003D20C3B29A42CAD19DF83E30C0F3072018
:100AB8009842C4D19DF81D009DF81E109DF81F2076
:100AC8009DF820309DF825B09DF826A09DF8279028
:100AD8009DF828809DF82970039002910192009357
:100AE800FFF7FAFE03980299019A009B2070617043
:100AF800A270E37084F804B084F805A084F8069026
:100B080084F807802772357011B0BDE8F08F00BFF8
:100B1800EC01002000380240F501002000040240EA
:100B28000058004003070280014B1878704700BF47
:100B3800F501002000487047EC010020084B1A6BB3
:100B480042F480521A631B6B064B01229A600268BA
:100B58001A6042681A6082681A601868704700BF95
:100B680000380240003002401FB50E4B1B7813B10D
:100B78007F2004B010BD0C4B0C4C186801905A68CB
:100B8800029299680391A042F2D1012AF0D17E29FC
:100B9800EED801A8DC68FFF7D1FF8442E8D1C8B2DB
:100BA800E7E700BFF601002000000E08444E474961
:100BB80008B5074A074B9B1A074A18BF0123137049
:100BC800FFF7D2FF054B1870054B187008BD00BF22
:100BD80000000E0800000E08F601002000000020AA
:100BE80001000020014B1878704700BF0100002069
:100BF800024B18787F3818BF012070470100002089
:100C0800014B1878704700BF00000020034B18788C
:100C1800034B1B78C01A18BF012070470000002042
:100C28000100002030B5154B1B7885B004464BB940
:100C3800010607D40B2000F05DF9114D30B1FFF724
:100C480093FF28704FF0FF3005B030BD7F2C0DD0DA
:100C58000C4A029401236846CDE90023FFF76EFF92
:100C6800694603900422084800F05CF9FFF77CFF0E
:100C78002870001B18BF4FF0FF30E5E7F601002091
:100C880000000020444E474900000E08064B1B7820
:100C98003BB9064B06481A78064B7F2A18BF1846F8
:100CA80070470548704700BFF6010020010000208A
:100CB800B6630008DA63000883630008024A136811
:100CC80001331360704700BFF8010020014B18681A
:100CD800704700BFF8010020044A116813685B1AC6
:100CE800834200D3704730BFF8E700BFF801002007
:100CF80010B50B494FF0E022086894690B688342ED
:100D0800FAD15069074A08491268B2FBF1F2001B90
:100D18000021B0FBF2F04FF47A72E3FB020110BD40
:100D2800F8010020B000002040420F00214B1A6853
:100D380042F480321A601A689203FCD51A6C1E4974
:100D480042F080521A641A6C0A6842F480420A60BF
:100D58001A4A40F205711160194A5A601A6842F03D
:100D680080721A60134A13689B01FCD5936823F4B8
:100D78007C4323F0F00343F414439360936823F017
:100D8800030343F0020393600A4A936803F00C03D9
:100D9800082BFAD10B4B0C4A1A604FF0E0230B4A90
:100DA8005A610B4AF02182F8231000229A61072227
:100DB8001A6170470038024000700040003C024051
:100DC80008544007B0000020007A030A3F90020050
:100DD80000ED00E0044B05495A6F120E0A705A6F75
:100DE80042F080725A67704700380240FC010020C8
:100DF800014B1878704700BFFC010020104B1B788E
:100E0800980610D4590610D41A0610D4D80610D44F
:100E1800590710D41A0710D413F0020F094B0A48C7
:100E280008BF18467047094870470948704709487D
:100E3800704709487047094870470948704700BF1C
:100E4800FC010020476400083D640008E6630008D0
:100E5800FB630008006400080A64000813640008C3
:100E680034640008134A936843F480539360124B28
:100E78005A6F42F001025A67104A596F890701D424
:100E8800013AFAD15B6F9B0713D50D4B45F25552CA
:100E98001A6004225A604FF47A729A60074AD96835
:100EA80009B1013AFBD14AF6AA221A604CF6CC42A3
:100EB8001A607047002004E000380240A186010053
:100EC80000300040024B4AF6AA221A60704700BF61
:100ED80000300040054B1A69002ABFBF044A5A6017
:100EE80002F188325A601869C0177047003C024006
:100EF8002301674510B50146EFF3108472B6FFF77A
:100F0800E9FF10B9054B08469847054A136943F0AD
:100F18000043136184F3108810BD00BF4101002015
:100F2800003C024070B515468207044613D191B1C2
:100F38008DB1EFF3108672B6FFF7CCFF18B9074BE7
:100F48002A4620469847064A136943F0004313612E
:100F580086F3108870BD4FF0FF30FBE77D0100205D
:100F6800003C0240114B1A6B42F001021A635A6CA2
:100F780042F010025A645B6C0D4B1A6822F470122E
:100F88001A601A6842F420121A605A6A22F47F62C0
:100F98005A625A6A42F4EE625A62A3F5704340F20A
:100FA800D9229A6042F20C02DA6070470038024097
:100FB80000000240024B1A681206FCD558607047C0
:100FC8000010014008B5411E11F8010F00B908BD15
:100FD800FFF7F0FFF8E77FB528B9302004B0BDE887
:100FE8007040FFF7E7BF01AB00211E460A24B0FBA3
:100FF800F4F504FB1502303203F8012B0246092AE6
:1010080001F10101284601D90A29F0D10139705CA2
:10101800FFF7D0FF0029F9D104B070BD10F0040F1C
:1010280008B5014614BF31203020FFF7C3FF11F087
:10103800020F14BF31203020FFF7BCFF01F0010080
:10104800BDE808403030FFF7B5BF00003C4A136BDD
:1010580043F002031363136B3A4B196821F47021B0
:101068001960196841F420211960996841F47021C8
:101078009960596A21F0FF015962596A41F0990152
:101088005962136C43F000731364136C2E4B1A6887
:1010980022F002021A601A6842F001021A602B4A12
:1010A8005968C90703D4013AFAD1012070471A6870
:1010B800274942F040021A60264A002808BF0A461B
:1010C800DA61D3F80022214842F00102C3F8002275
:1010D800D3F81C2222F00102C3F81C22D3F80C22F8
:1010E80042F00102C3F80C22D3F8042222F00102D4
:1010F800C3F804220022C3F84022C3F84422D3F8DC
:10110800142222F00102C3F81422D3F81C2242F060
:101118000102C3F81C22D3F8002222F00102C3F80E
:1011280000221A6822F001021A60074B5A68D20797
:1011380001D50138FAD1B0FA80F040094000704773
:1011480000380240000402400064004040420F00A2
:1011580005001A0005001AC0082AF0B524D8154B56
:101168009B685B0123D500231E461F46DCB2A242C2
:101178000DD8104B400540F00100C3F88421C3F896
:101188008871C3F88C61C3F880010020F0BD032B7F
:10119800CC5C4FEAC3058BBF203DAC40AC40274335
:1011A80088BF26430133E1E74FF0FF30EEE76FF0E9
:1011B8000100EBE70064004070B5184C0546E06894
:1011C80010F0030018D0D4F8B031D4F8B401D4F832
:1011D800B861D4F8BC410DB15B0D2B8000F00F0055
:1011E800082828BF082002B11070A9B90B4AD36893
:1011F80043F02003D360012070BDD300032A8ABFC7
:10120800203B26FA03F324FA03F3DBB28B540132B2
:10121800D3B29842F1D8E9E70022F9E70064004028
:10122800082AF0B524D8154B9B685B0123D5002309
:101238001E461F46DCB294420DD3104BC00040F04E
:101248000500C3F88421C3F88871C3F88C61C3F81A
:1012580080010020F0BD032BCC5C4FEAC3058BBF97
:10126800203DAC40AC40274388BF26430133E1E72B
:101278004FF0FF30EEE76FF00100EBE7006400404D
:10128800F0B51B4E0746F06810F0030011D0D6F8F1
:10129800B031D6F8B441D6F8B851D6F8BC6113F0DD
:1012A800040FC3F3800005D1114AD36843F020032B
:1012B800D360F0BD0FB1DB083B6004F00F04082CCD
:1012C80028BF082402B114700029EDD000220AE0DA
:1012D800D300032A8ABF203B25FA03F326FA03F337
:1012E800DBB28B540132D3B29C42F1D8DCE700BFA9
:1012F800006400401FB50120FFF7A8FE50BB45F66B
:10130800A523022201A940F22310ADF80430FFF70B
:1013180023FF044600BB1B4B1B4AD16889071FD11A
:10132800013BFAD10324204604B010BDBDF80620C5
:1013380040F223139A4211D19DF80330022B0DD1AC
:101348009DF80830A52B09D19DF809305A2B18BFF4
:101358000524E8E70124E6E71446E4E70524E2E784
:1013680000230DF1030202A90DF10600CDE90233B5
:10137800ADF806308DF80330FFF71EFF0128D5D0F1
:101388000424D0E740420F0000640040064B5A692D
:10139800510542BF5A6922F480625A615A6992071C
:1013A80048BF9B69704700BF00540040024A136859
:1013B80043F400731360704700540040074B084A19
:1013C80040F480605169084204D1013BFAD14FF0E2
:1013D800FF307047506940F380207047A0860100B5
:1013E80000540040074A1368591C1CBF013313609E
:1013F800002805DA044A1368591C1CBF013313601E
:10140800704700BF0402002000020020064B074A74
:10141800D2F81414014201D1013BF9D1B3FA83F097
:1014280040094042704700BFA086010000500040BC
:1014380010B1044B1B68036011B1034B1B680B60B0
:10144800704700BF04020020000200201D4B1A6BE9
:1014580042F002021A631A6C42F400121A641B6CFE
:10146800194B1A6822F470421A601A6842F4204232
:101478001A605A6842F0C0025A609A6842F4704290
:101488009A60DA6822F47042DA60DA6842F4A042BC
:10149800DA601A6A22F07F421A621A6A42F08842B7
:1014A8001A62A3F5D8334FF400421A6000221A607A
:1014B8002A225A60D222DA612B221A6201221A6089
:1014C800704700BF003802400004024008B5094BCD
:1014D80009481A6842F400721A609A69920701D59D
:1014E8000138FAD1FFF752FF18B9BDE80840FFF7F5
:1014F800ADBF08BD00540040A086010070B5184D6E
:101508000C46FFF743FFAB6903F00303022B0646C3
:1015180001D1FFF79BFF2B6843F480732B600120F8
:10152800FFF774FF002804DAFFF7D0FF4FF0FF3011
:1015380070BD44EA4604E4B20A4B094A2C6140F201
:1015480002415069084206D1013BFAD1FFF7BEFFBC
:101558006FF00100ECE7506910F48060E8D0F5E71F
:1015680000540040A086010070B50C4600211546C5
:10157800FFF7C4FF002816DB0E4EB3692544AC42C2
:1015880008D10420FFF71AFF0028B4BF6FF002004B
:10159800002070BD8020FFF711FF002806DB14F83B
:1015A800013B3361EBE74FF0FF30F2E76FF00100EA
:1015B800EFE700BF00540040F8B50D461746002A73
:1015C80000F097804C4C012A23681CD123F4406317
:1015D80023601146FFF792FF002822DB72B6A36949
:1015E800236843F40073236062B64020FFF70EFFC0
:1015F800002804DAFFF76AFF6FF0040013E023699C
:101608002B7000200FE0022A30D143F4406323609E
:101618000121FFF773FF002806DA236823F400632B
:1016280023606FF00300F8BD72B6A369236823F442
:101638008063236062B60420FFF7E8FE002806DA1C
:10164800FFF744FF236823F400632360D4E772B6EE
:10165800236843F40073236023692B7023696B703C
:1016680062B6236823F400632360CAE723F40063A7
:101678002360236843F4806323600121FFF73EFF62
:101688000028CEDBA3690026BB1B032B09D8042046
:10169800FFF7BCFE00280DDAFFF718FF6FF0050012
:1016A800C1E74020FFF7B2FE0028A3DB2369AB5552
:1016B8000136E9E7104C236823F48063236023692B
:1016C800AB550420FFF7A2FE002806F1010704DA53
:1016D800FFF7FCFE6FF00600A5E772B6236843F437
:1016E800007323602369EB5535442369AB7062B6F8
:1016F80087E74FF0FF3096E70054004008B5002117
:10170800FFF7FCFE002805DB034B9B69FFF74EFE45
:10171800012008BD0020FCE70054004010B572B15C
:10172800FFF722FF041E06DAFFF7D0FE2046FFF778
:1017380059FE204610BDFFF739FE0024F6E74FF0AA
:10174800FF34F6E708B5FFF737FFFFF74BFE08BD94
:1017580070B505461E468AB1FFF706FF041E06DA75
:10176800FFF7B4FE2046FFF73DFE204670BD049A01
:1017780031462846FFF720FF0446F3E74FF0FF34D1
:10178800F3E7000073B50D4600211446FFF7B6FED7
:1017980000282BDB174EB3698DF80450230A8DF807
:1017A80006408DF8053001AD00248020FFF706FEC5
:1017B800002807DAFFF78AFE6FF00100FFF712FE34
:1017C80002B070BD013415F8013B3361032CECD134
:1017D8000420FFF7F3FD002804DAFFF777FE6FF027
:1017E8000200EBE7FFF7E2FD0020E7E74FF0FF30EC
:1017F800E4E700BF00540040F8B50F460021064654
:101808001546FFF77BFE00284EDB294C8020A36994
:10181800FFF7D4FD002806DAFFF758FE6FF0010045
:10182800FFF7E0FDF8BD27610420FFF7C7FD00289A
:1018380004DAFFF74BFE6FF00200F1E7236843F488
:101848004063236001213046FFF758FE002806DA7E
:10185800236823F4006323606FF00300E0E772B6A7
:10186800A369236823F48063236062B60420FFF72A
:10187800CDFD002808DAFFF729FE236823F400636A
:1018880023606FF00400CBE772B6FFF78FFD216984
:10189800236962B62268DBB222F4006243EA0123BC
:1018A800226000202B80BBE74FF0FF30B8E700BF75
:1018B80000540040006804F024BA006804F0A8B995
:1018C8007FB5164604460D46FFF712FA064A0094FD
:1018D800821841F10003CDE901560449044803F098
:1018E80045FD04B070BD00BF40420F00742F0020BA
:1018F800602F00202DE9F0411546D708069A00EB25
:10190800D10603EBD20841463A46304604F0D2FBF2
:1019180015F007050BD00124AC4018F80730E4B2E5
:10192800621E1340F25D644222401343F355BDE842
:10193800F0812DE9F04311F0070F079D07460E4689
:101948009C4604D10795BDE8F043FFF7D3BFAA181A
:101958004FF0010E954201D3BDE8F08305F007086A
:1019680006F00709C84541464FEAD50438BF49463D
:10197800C1F10801531BF0081CF80440994228BF24
:10198800194644FA08F43B5C0EFA01F804FA09F423
:1019980008F1FF385C4008FA09F804EA08046340D3
:1019A8003B540D440E44D5E72DE9F041D400A34241
:1019B800069D94BFE41A241BAC4205F1070228BF18
:1019C8002C46D208984606460F46A2EBD4020021C0
:1019D80000EBD40004F088FBCDF818803B46224683
:1019E80030460021BDE8F041FFF7A3BF1FB5CC008A
:1019F800944294BF241BA41A102C03464FF00001F4
:101A080000920DF10E00224628BF1022ADF80E10EC
:101A1800FFF78FFFBDF80E0004B010BD07B58DF8B5
:101A2800000001208DF801008DF804108DF80520C4
:101A38006846DDE90421ADF80230FFF741FF03B045
:101A48005DF804FB70B50446D0E90410ADF5047DDB
:101A580008B931BB14480022FFF7C8FF4FF482725F
:101A68000546002143A804F03FFB284643A901F09E
:101A780005F8839DFF2D14D803AE0023EA008DF8E6
:101A88000C500093082143AB30460135FFF732FF75
:101A9800CDE9006540F28113627921792078FFF75A
:101AA800BDFF0DF5047D70BD63620008F0B54FF40D
:101AB800A872ADF5297D002105460DEB020004F062
:101AC80013FB01231022002158A88DF850318DF8FE
:101AD80052318DF8553104F007FBFFF725F800283F
:101AE8006FD0FFF727F802460068516858AB03C368
:101AF800127A1A703C4B1C682046FEF7D9FC322833
:101B08000246214628BF32225CA8699204F01EFBD7
:101B1800549B0593BDF85431ADF81830DDE95623D0
:101B28000026CDF81A20CDF81E30009658AB80223A
:101B3800702105A8FFF7FDFE699C322C3ED88DF870
:101B48003240E4005CAB00962246F82105A8FFF776
:101B5800F0FE6C9F012F04F1F8032FD8DB0805AACB
:101B680004F58074D754BF013A46214600966AAB03
:101B780005A8FFF7DEFE3C44A69FDE2F1ED8E3082B
:101B880005AA0834D754FF006EAB3A46214605A88B
:101B98000096FFF7CEFE2B788DF80C3001238DF8D8
:101BA8000D30E1194FF4D773ADF80E3005AAAB88A4
:101BB800ADF81030C90803A8FFF782FE0DF5297D9E
:101BC800F0BD0A490A4854AB51F8042B1A74140A98
:101BD8005C7481424FEA12444FEA12629C74DA74D0
:101BE80003F10403F0D185E708000020107AFF1FF5
:101BF8001C7AFF1F2DE9FF4D90F800340B70044646
:101C08000D4616466BB901464FF48062681C04F015
:101C180051FA42F20803DB083360002004B0BDE843
:101C2800F08D012B25D1D0F80032FF2B25D84B7031
:101C380041F6FF7800214FF0000A4FF0000BD4F86E
:101C480000224F1C3B0191424FEAD300E3D234F803
:101C58001130434528BF43462B52002300930D21E2
:101C680002AB03222844CDE902ABFFF762FE3946F6
:101C7800E5E7022B04D10823CDE76FF00900CDE793
:101C88006FF00A00CAE700002DE9F041ADF6980DA3
:101C980040F68802002104A804F026FA01238DF8F2
:101CA8001034524B049341F6F873ADF81430504B8E
:101CB8001C78504B186805A90022D3B29C4200F248
:101CC80091800333DBB2012500260DF658042A461D
:101CD80084934FF4D77102AB204600968DF81458C0
:101CE8008DF80850FFF725FE2A4602AB4FF4C07165
:101CF800204600968DF80850FFF71BFE2A468DF8FF
:101D080008503D4D009602AB40F2B3112046FFF754
:101D180010FE40F2014802AA294604A8CDF808801E
:101D2800FFF768FFB04253DB029B45F8043CDB0039
:101D38002E1F03F1400502AA06EBD5010DF214404F
:101D480003F12007CDF80880FFF754FF00283FDB98
:101D5800029BFF084021F35105EBC303DA080DF697
:101D68001807B15003F1200206EBD2023D4603CD1D
:101D7800A542106051602F4602F10802F6D103F522
:101D88000872D2084021B15003F5107206EBD20256
:101D98000DF69806254603CDB542106051602C46D5
:101DA80002F10802F6D1154C154A0292FF2203F5FA
:101DB80088618DF80C2022788DF80D20C908114A09
:101DC80002A8FFF77DFD2378013303F01F0323707A
:101DD8000DF6980DBDE8F08130F8123021F8023F79
:101DE80001326AE7FC2AF7D1FF236CE7551D561D1F
:101DF800B6260020B82600200C020020B5260020B8
:101E08000700561D080200202DE9F047D0E90446D6
:101E18002DED028B0546ADF5CD6D002E75D0E70092
:101E2800072F78D80023CDF85034DB0000932246E2
:101E380008233146D4A8FFF7B7FDDDF85024D300B6
:101E48000833BB4228BF3B46DB089C4294BF221B99
:101E5800E21AD100072960D800238DF860364CAE0D
:101E68004FF408720021304604F03EF90DF10F04DA
:101E78000023009450AA8DF80E308DF80F300DF520
:101E88008B610DF10E03D4A800F010FE9DF80E3002
:101E980033729DF80F307372FEF72AFFC6E900010E
:101EA80096E80300727A0990337AADF82810090C85
:101EB80009AC8DF82A10E37112B143F00203E37103
:101EC80000220023CDE9042300230093062204AB5B
:101ED8003A212046FFF72DFD96F818322372002B81
:101EE80000F0CB81013B0D2B58D8DFE813F0260119
:101EF8002601D8003D014501130126013D01450198
:101F0800130126013D0145014D01002C46D1AD4E7E
:101F18002746234687E7337885E7F018F35C8DF882
:101F28006036002B9BD0013B0D2B37D8DFE803F040
:101F38003C3C074E63203C4E63203C4E6378012AAC
:101F480094BF941A02F1FF34461C00222146304601
:101F5800FFF74CFDB0F5006FCDF858051ED800907E
:101F68001023224631460DF58B60FFF71DFD76E7FD
:101F7800012A94BF921A02F1FF32D300072B00F115
:101F8800010106D80023CDF858351B01009308231A
:101F9800E9E74378CDF85835802BF6D90DF5CD6DA6
:101FA800BDEC028BBDE8F087012A94BF941A02F1B8
:101FB800FF34461C002221463046FFF717FDB0F5D6
:101FC800807FCDF85805E9D8C000C8E7012A94BF3A
:101FD800921A02F1FF32D300072B00F1010104D855
:101FE8000023CDF858359B01D0E74378CDF8583514
:101FF800202BF8D9D2E7012A94BF921A02F1FF32B6
:10200800D300072B00F1010104D80023CDF858357F
:102018005B01BBE74378CDF85835402BF8D9BDE7CD
:10202800012A94BF941A02F1FF34E300072B00F150
:1020380001072ED80026CDF858663601DFF8A091A2
:102048009FED618ADFED618A0DF58B6808364FF0E8
:10205800080AB2453FF403AF524621463846FFF717
:10206800C5FC09EA403307EE903A67EE887A000427
:1020780017EE903AF4EEE87AF1EE10FAA8BF43F0C2
:10208800FF4300F00040184348F8040B0AF1100A17
:10209800DFE74678CDF85866802ECED97EE7D6F8A9
:1020A8001071B7F5006F3FF679AFB6F81031A4F8A4
:1020B800093000263A461021009650AB0DF12D004C
:1020C800FFF718FC07F1100117F0070713D00022DB
:1020D800C7F108070023CDE90623FAB251FA87F7BA
:1020E800B7F5016F3FF65AAF009606AB0DF12D001C
:1020F800FFF71FFC394621F0070208324032D208A8
:10210800CDE900424FF4C0736A7929792878FFF73E
:1021180085FC43E7D6F81061802E3FF63FAF667224
:10212800360100230093324650AB08210DF12D00F3
:10213800FFF7E0FB06F11002E0E7D6F81021B2F550
:10214800807F3FF62BAFB6F81031A4F80930D600DF
:1021580000230093324650AB10210DF12D00FFF7FC
:10216800C9FB06F11802C9E7D6F81061202E3FF620
:1021780015AF6672B601D4E7D6F81061402E3FF667
:102188000DAF66727601CCE7D6F8100280283FF6CC
:1021980005AF6072DFED0E6A9FED126A9FED0D7A52
:1021A8000D4FDFED0E5A000150AB0830082647F6F8
:1021B800FF7C0DF12D0E86424FEAD60214D1013272
:1021C800D2009BE763620008000080770000804728
:1021D800FFFF7F7F00E07F4700F0FF7F0000800760
:1021E80000E0FF0F00E07FC7F3EC017AB0EEE75A9A
:1021F800B4EE665AF1EE10FA0BD8F4EEC67AF1EEA8
:1022080010FA22D4F4EE477AF1EE10FAC8BFF0EED5
:10221800477A17EE908A28F00041B1F1FF4F17D3A3
:10222800C8F31609B9F1000F24D1B1F1FF4F0CBF63
:102238004FF4F84161464FEA184808F4004841EA6B
:1022480008012EF802101036B5E75FED1A7AE0E7BC
:1022580008EA070107EE901A67EEA57A17EE901ABA
:1022680001F58051B1F1786F28BF4FF07861C1F363
:102278004F31E0E74FF4FC41DDE708223EE700BFBD
:102288002DE9F047074692B089464148DFF844A156
:10229800404E4FF40051904603F088FC0AACCAF84F
:1022A80000003D4A3D490AA803F04EF80FCC3546D8
:1022B8000FC594E80700DAF80030336085E80700B6
:1022C8003771FEF731FC364B364D1870082204A8DA
:1022D800282104AC03F043F80FCC0FC52368324C17
:1022E8002B600025314B0293CDE9004500234FF4C4
:1022F800D7720221304603F0E1FB2D4B0293CDE962
:10230800004540F203234FF4C0720221304603F027
:10231800D5FB284B02930223CDE90045194640F22C
:102328008112304603F0CAFB234B0293CDE90045E6
:102338004FF4967340F2B3120221304603F0BEFB0D
:102348001E4B02934FF4E052CDE9004507230021CC
:10235800304603F0B3FB1A4B41463846C3F80090A9
:1023680000F072FBFEF7C4FC164B174AC3E90001E4
:10237800164BC31841F10004C2E900340A4A144B51
:10238800801841F10001C3E9000112B0BDE8F087EF
:10239800A02F0020742F0020BD180008C3180008C3
:1023A80030240020602F002080841E00382D00205B
:1023B800102B0020E8280020C026002068240020D8
:1023C80008000020982600209026002040420F0098
:1023D800A8260020902F002013B50C460421ADF844
:1023E8000010FF218DF804102178ADF802008DF857
:1023F800051068461946FFF763FA2378013303F09E
:102408001F03237002B010BD08B5084B187850B1EF
:10241800FEF76EFC064BD3E90023801843EB01015D
:10242800002901DA0020014608BD00BF4024002031
:1024380048240020014B1870704700BFBC260020BC
:10244800014B1860704700BFB026002070B5CAB0B5
:1024580004464FF488720D4606A8002103F044FE96
:10246800FFF7D2FFCDE906018DF820400DF12302D8
:1024780000242B5D0BB1FF2C3BD1204D9DF81E3065
:10248800AB719DF8203006982860072B284628BF96
:102498000723BDF81C20AA80002600F8073F002269
:1024A8000023CDE90423009604AB052203214994B7
:1024B800FFF73FFA2C72E400009609AB2246284643
:1024C8004821FFF736FA0E4E0E4B02934834FF238D
:1024D8008DF80C302A4633788DF80D30E10802A8C3
:1024E800FFF7EEF93378013303F01F0333704AB076
:1024F80070BD02F8013F0134BBE700BF1A2300207A
:10250800B42600200700F81F044B1870044B1970FC
:1025180018B904490420FFF799BF70470300002049
:10252800020000204F640008F0B5A5B004AB0D46CA
:10253800002419462E5D671C0EB1722C24D104F1BB
:1025480090036B44202503F8805C4FF00A0E0023AB
:102558001D4690356D44B2FBFEFC0EFB1C26303642
:1025680005F88C6C15460133092DDBB26246EFD8AD
:102578000C441A4662B990336B443B4403F8802CF0
:10258800FFF764FF25B0F0BD03F8016B3C46D1E7C7
:10259800551E24AEEAB256FA85F515F88C5C04F897
:1025A800015FE7E7024B1860024B1970704700BFE4
:1025B800B8260020B62600202DE9F04FB7B0FEF768
:1025C80097FBB24AD2E900349842A14107D3B049F7
:1025D8005B1844F10004C2E90034FFF755FBFEF72D
:1025E80087FBAC4AD2E900349842A1415AD3AA49A0
:1025F8005B1844F10004C2E90034FEF779FBA74AEE
:10260800D2E90034C01AA44A4FF0000361EB040178
:10261800FDF7D6FDA24B1B78064623B1A14B1B78CC
:102628000BB1A14B1B7803F00104A04B1B7884F07D
:1026380001049C4238BF1C46FEF7DAFB032C28BF76
:1026480003248DF8644000240546189600270026C8
:10265800009408AB0622022119A8CDE90867FFF704
:1026680068F900940AAB052203210DF165008DF885
:102678006540CDE90A678E4CFFF75BF98D4B1293E5
:10268800FF238DF84C3018AA23788DF84D30072198
:1026980012A88DF86650FFF713F92378013303F079
:1026A8001F032370FEF724FB834DDFF810820646D4
:1026B8000F46284602F0F0FF0446C8B1D4E90623C5
:1026C80052EA03010CD0B242BB4109D22146284646
:1026D800D8F80C9002F0E8FF01467848C847E8E7C8
:1026E80094F82420A16A206AFEF79AFD0028EDD00C
:1026F8000DF11B020DA907A8FEF7C2FD01284DD058
:102708006F4C237873B1FEF7F3FA6E4AD2E90032C0
:10271800C01A61EB02016C4A0023824273EB01018B
:1027280038BF2370FEF772FAB0B1684CFEF7E0FAD2
:10273800D4E90023904299410ED3FEF7D9FA544BBD
:10274800C01841F10001C4E90001FEF759FA6049D7
:1027580002460320FFF7E8FE5E4B1B78002B00F0D3
:102768005A81554802F098FF002840F054815A4B8E
:102778005A498A6802F0E052B2F1E05F01D0013BA9
:10278800F7D1BFF34F8F5649564BCA6802F4E0623F
:102798001343CB60BFF34F8F00BFFDE7079B0F9339
:1027A8009DF81B3010930DAB1193FEF7A1FA12ACF4
:1027B8000023CDE9013403930FAB009302460B4687
:1027C8003E4802F081FF012892D19DF84920022A53
:1027D80040F09E80BDF84A30B3F5D77F4AD00CD878
:1027E800B3F5C07F4AD040F2811293424AD0334BAE
:1027F8001799DB68314898477AE740F2B312934259
:10280800F5D1DDE9165414B9002DF0D1364C00226B
:1028180029462046FFF7EAF8EB00172BADF86000D1
:1028280064D800233593DB00009319A818232A469F
:102838002146FFF7B9F80023BDF860008DF8143081
:102848004FF6FF73984256D1224B01221A709DF819
:1028580014308DF818300123019306AB00939DF8CE
:102868004D209DF84C109DF8480040F2B313FFF737
:10287800D5F8BCE72046FFF719F9B8E72046FFF777
:10288800C3FAB4E72046FFF7DDF8B0E7A826002032
:10289800809698009026002040420F00982600203D
:1028A800302400200300002002000020BC26002065
:1028B800A02600200400551D602F0020742F002042
:1028C8004024002038240020C0C62D0028240020E1
:1028D80083640008BD260020400D0300006400400A
:1028E80000ED00E00400FA0563620008A378359360
:1028F800702B98D97BE7494B1B682BB1359A19A9DE
:1029080098478DF81400A2E703238DF814309EE74A
:10291800179B002A7FF46BAFBDF84A20B2F5E05F41
:102928007FF465AF9DF94C209DF84C70002AFFF6A6
:102938005EAF169A1BB9002A7FF459AF384BD20004
:10294800382A4FF000004FF000014FF00004CDE9A5
:10295800180128BF3822214618A80094FEF7CAFF9C
:10296800DFF8D8E02F4BBEF80090BEF900604F4565
:10297800DDE91815DDE91420D3E900C80FFA87FA54
:1029880009D3DFF8BCB0B2EB0C0960EB0807CB4504
:1029980074EB070B12D22449AEF800A0C3E900205B
:1029A80000249DF84DA00C70204B012483F800A052
:1029B8001F4B1C701F4BC3E9002018E7B2457FF47A
:1029C80016AFDFF86CE09DF84DA09EF800E0BEF170
:1029D800000F1DD051EA050E1AD0DFF850E09EF81E
:1029E80000E00EF1010E0EF01F0ED64510D1DFF8F3
:1029F80054E0CE4574EB07070AD3B1EB0C010E4B3C
:102A080065EB0805C3E90015074B01211970CFE7ED
:102A1800C3E90020C8E737B0BDE8F08FB026002032
:102A2800636200085824002040240020502400201D
:102A380060240020382400204824002004000020BE
:102A4800C0C62D0040420F0070B50B4C0D462081CA
:102A580081B10846FDF72CFD3F2828BF3F200646D8
:102A68000246294604F15600344403F06FFB002364
:102A780084F8563070BD00BF0C000020012870B5E6
:102A88000D460FD84C235843074B1E583046FDF7C8
:102A98000FFD314604460246284603F057FBC5F8A9
:102AA800004170BD0024FAE70C0000202DE9F04732
:102AB800494C26688146304615460F469846FDF72C
:102AC800F7FCD9F800A15045024605D131464846E1
:102AD80003F0E0FA064660B1E66C3046FDF7E8FC24
:102AE80050452CD152463146484603F0D3FA30BB04
:102AF80001264C20704304EB000999F8053099F839
:102B080004201BBB4C2303FB06431B79002B4CD131
:102B180015B10A2385F808324C2303FB06431B89A9
:102B28002B800123C5F800314C2303FB064463794D
:102B380088F80030A379089A1370BDE8F08700235D
:102B4800002D46D188F800300023F4E7002FD9D0B3
:102B580097F80832002BD5D09AB90A2BD8D1D7F8D4
:102B68000031002BD4D0388846B97F2802D8C0B2AB
:102B7800FEF758F8FEF744F82081C3E7A4F854009C
:102B8800C0E7012A11D1012B0FD1D7F800213F2A24
:102B980028BF3F2292460A3039462044D14403F0E8
:102BA800D5FA002389F80A30ACE715B1012385F876
:102BB80008324C2707FB06470A373846FDF778FCEA
:102BC800394681460246284603F0C0FAC5F8009106
:102BD800AAE785F80832B5E70C000020431EDBB2EF
:102BE800FD2B0AD8052806D0012806D1044B14224B
:102BF80002FB003070470020F8E70020704700BF54
:102C08004065000810B52DED048B022882B00ED067
:102C180003281AD0012850D100F06AFC2949032062
:102C2800FFF714FC002002B0BDEC048B10BD0DF1C1
:102C380006010020ADF8060000F09AFCBDF8062059
:102C480021490320FFF770FCECE7204B1B78B3B356
:102C58001F4C22689AB31F4B9FED1F9AD3ED008A31
:102C68001E4B1F4993ED008AF5EEC08AF1EE10FA6B
:102C7800D8BFDFED1C8AB5EEC08AF1EE10FA4FF02E
:102C88000300D8BF9FED178AFFF74EFC68EE898ACC
:102C98001549FCEEE87A032017EE902AFFF744FC6A
:102CA80028EE098A1149FCEEC87A032017EE902A0B
:102CB800FFF73AFC00232360B4E70320B3E70520BD
:102CC800B1E700BF6865000886650008E04F00208E
:102CD800A84F0020B04F002000247449AC4F0020BA
:102CE8009965000800000000BA650008DA65000868
:102CF80038B54420FEF702FD0D4D044618B12B7877
:102D08000BB900F00FFB48202C70FEF7F7FC094BBD
:102D18001870094B1A784AB92A7802F001021A7019
:102D28005A78002A18BF1046587038BD0122F4E7B7
:102D3800E04F0020DF4F0020A34F002038B50B469E
:102D48000446154601460722184603F0B3F9A2685F
:102D5800C0F807200B232B60002038BD2DE9F8436D
:102D68001E464B070C46154640D100EBD104D70848
:102D78003A463146204603F09DF915F007030AD07C
:102D880001259D40EDB2F35D6A1E1340E25D6D4280
:102D98002A401343E355BDE8F88301F0070804F01F
:102DA8000709C845434638BF4B46C3F108036A1AAA
:102DB800934228BF1346CA084FEAD40CB25C10F8F5
:102DC8000C7042FA08F20EFA03F802FA09F208F156
:102DD800FF387A4008FA09F802EA0802574000F872
:102DE8000C7019441C448D42D7D8D4E700214FF009
:102DF800010EF8E708B507211848FFF7D3FB184874
:102E0800FFF71EFB1748FEF7DDF8FEF71FFB00F083
:102E180027FB00F073FB144B1A6822F040421A603B
:102E2800DA6822F04042DA60DA6842F08042DA601A
:102E3800FFF75EFFFDF75CFF0C4BC3E900010C4B8D
:102E4800C3E900010B4B0C491A780C4B1B78032083
:102E580043EA4202BDE80840FFF766BBCA660008BD
:102E68000D2C0008FA65000800000240D04F002031
:102E7800C84F0020DF4F00202D660008E04F0020DB
:102E88002DE9F04F8FB0FDF733FF1A4B0F46D3E90A
:102E980000120546691A41F2883067EB0202814246
:102EA80072F1000245D3C3E9005700230A93124B7D
:102EB8001B78002B3DD000220AA9104600F046FAE4
:102EC800002836D10D4BDDED0A7A93ED007A0C4AD5
:102ED8000C4937EE277A83ED007A136801331360C3
:102EE8000B68094AA3B9C2ED007A084AC2ED007A14
:102EF8001DE000BFC04F0020E04F0020B84F002069
:102F0800B44F0020A84F0020B04F0020AC4F002045
:102F180092ED007AF4EEC77AF1EE10FAE6D4BC4AE4
:102F280092ED007AF4EEC77AF1EE10FADEDC0133A6
:102F38000B60B849DFF828C3D1E90030EE1A67EB17
:102F480000040022B44572EB040480F0AE81B24C58
:102F5800DFF810831B1940F10000C1E9003098F830
:102F680000300AAC002B78D0AC4EDFF8FC92336806
:102F78004FF0000ACDF800A0CDF804A0CDF808A0C5
:102F8800002B00F0A78107EE903AD9ED006AF8EE21
:102F9800677A114686EEA77A68468DED017A00F0C9
:102FA800D5F9DDED007A9DED017A67EE877A014665
:102FB800CDED027A00239A4AC9F800A033600029AF
:102FC80040F08F81117020461022009E03F08CF88B
:102FD800FFF71AFA04AACDE90A0107A920460C96B8
:102FE800FFF7ACFE002806DB049B8E4907AA4FF4C6
:102FF8008050FFF7F1F9102200212046019E03F0CE
:1030080073F8FFF701FA04AACDE90A0107A92046D7
:103018000C96FFF793FE002806DB049B824907AA5B
:1030280041F20100FFF7D8F9102200212046029E44
:1030380003F05AF8FFF7E8F904AACDE90A0107A94D
:1030480020460C96FFF77AFE002806DB049B77499A
:1030580007AA41F20200FFF7BFF9DFF8109299F8CA
:10306800003013B3002302A8029300F0C5F96C4A9C
:103078000146002840F03B81507010222046029EF5
:1030880003F032F8FFF7C0F904AACDE90A0107A94D
:1030980020460C96FFF752FE002806DB049B644985
:1030A80007AA41F20300FFF797F9624B624A1B69CE
:1030B8001278DFF8BCA113F400430CBF01260026E8
:1030C80062B19AF80020B24208D0002B5B4B5C49F1
:1030D80012BF042019460320FFF7B8F98AF80060E8
:1030E800FFF792F9CDE90A0194E803000022ADF850
:1030F80020100023090CCDE9022307908DF8221037
:1031080046F0020602AB06223A2107A88DF8236092
:10311800FFF724FE0026082307AA4A49DFF818A16A
:1031280041F20400FFF758F9CDE90C66FFF76CF996
:10313800CDE90A01314601A88DF8046000F018FABB
:103148009AF800209DF804603F4B834662B11A78D4
:10315800B24209D03D4A3E49002E16BF114603200F
:103168000420FFF773F9384B1E7094E80300ADF89C
:103178002010090C07908DF82210BBF1000F01D028
:1031880046F0020600220023CDE904233A2104ABCD
:10319800062207A88DF82360FFF7E0FD08232D49D4
:1031A80007AA41F20500FFF717F91022002120466F
:1031B80002F09AFFFFF728F9CDE90A0100F08AF931
:1031C80001AA07A920468DED0C0AFFF7B7FD0028D4
:1031D80006DB019B204907AA41F20600FFF7FCF82D
:1031E80098F8003001268AF800601BB10C4A127862
:1031F800022A04D8194A16780EB183F0010699F804
:103208000030BBB3064A5278022A38D832E000BFF1
:10321800AC4F0020D04F002040420F00B44F002098
:10322800A54F0020DE4F0020DD4F0020DC4F00209E
:10323800DB4F002000000240A04F00204D66000830
:103248005B660008DA4F0020A14F0020696600087D
:1032580076660008D94F0020D84F0020A34F0020E1
:103268003F420F00E04F0020B84F0020DF4F002002
:10327800A4000020254A547814B1002B3DD1012424
:10328800002EA04618BF4FF002084046FFF7D2F8BC
:103298001F4B1A78424508D083F80080B8F1000F18
:1032A8002DD11C490320FFF7D1F81B4A1B48D2E94E
:1032B8000031ED1A67EB0107854277F1000706D365
:1032C8001B1841F10001C2E90031FFF711FD0FB0F1
:1032D800BDE8F08F01A902AA684600F037F8014658
:1032E80068E61378FF2B1CBF01331370B5E65378DB
:1032F800FF2B1CBF01335370D7E60024C0E70849F1
:1033080046EA44020420FFF70FF9CEE7A34F002056
:10331800A24F002083660008C84F0020008793034F
:103328009966000808B544F2271200214420FEF7E8
:1033380029FA002807DBBDE808404FF400620521A0
:103348004420FEF71FBA4FF0FF3008BD73B50D4695
:103358001446064698B10DF1060202214420FEF7F4
:103368004BFA002839DBBDF806309FED207A07EECE
:10337800903AF8EE677A67EE877AC6ED007A9DB1E3
:103388000DF1060204214420FEF736FA002827DB57
:10339800BDF906309FED167A07EE903AF8EEE77A17
:1033A80067EE877AC5ED007A14B9002002B070BDC7
:1033B8000DF1060203214420FEF71EFA002812DB55
:1033C800BDF806309FED0B7A07EE903AF8EE677A73
:1033D80067EE877AC4ED007AE7E74FF0FF30E5E75C
:1033E8006FF00100E2E76FF00200DFE70AD7A33AC7
:1033F80017B7D1370AD7233A13B504460DF1060299
:1034080000214820FEF7F8F9002812DB14B9002043
:1034180002B010BDBDF90630DFED076ADFED077AAF
:1034280007EE103AB8EEC77AE7EE267AC4ED007ACE
:10343800EDE74FF0FF30EBE70000003C33938843A3
:10344800054B5A69D20406D54FF480525A61034A93
:103458001368013313607047003C0140E44F0020BB
:10346800174B1A6B42F002021A635A6C42F48042FC
:103478005A645B6C134B1A6822F040721A60DA685F
:1034880022F04072DA60DA6842F08072DA600E4A3E
:10349800536923F00F0343F0010353610B4B1A6880
:1034A80042F480521A60DA6842F48052DA609A680C
:1034B80022F480529A60064B4FF480725A6070472B
:1034C800003802400004024000380140003C01403E
:1034D80000E100E0044BDFED057A93ED000AB8EE59
:1034E800400A20EE270A7047E44F002000A00C4550
:1034F800014B00221A607047E44F0020184B1A6BEA
:1035080042F005021A635A6C42F480725A645B6C8A
:10351800144B4FF000729A611A6822F440221A6024
:103528001A6842F480221A605A6822F400725A60BB
:10353800DA6822F44022DA600B4A136843F44073D5
:1035480013600A4BDA6842F4E042DA600022DA6279
:103558000E225A639A6842F001029A60704700BFCF
:1035680000380240000002400008024000200140EC
:10357800164B4FF4007270B59A61044605200D464B
:10358800FDF7AAFB124A136823F00203136093683D
:1035980043F0804393600F4B1168890701D4013BC6
:1035A800FAD1D26C0949181E4FF0007618BF0120D5
:1035B80092B28E6105B12A803CB12BB140F692439C
:1035C8009A428CBF00230123237070BD0000024083
:1035D80000200140A08601002DE9F8430746442059
:1035E800FEF78CF806467620FEF788F80446622037
:1035F800FEF784F8DFF87490054634B199F8004076
:103608001CB900F05FFFC443E40FDFF864804DB1DC
:1036180098F8005035B9114B3946188801F048FB25
:10362800C543ED0F0E4B88F800501E700D4B89F8FE
:1036380000401A78002A18BF16465A781E70002AC9
:1036480008BF22465A709A78002A18BF15469D70FE
:103658000CB9054B1C70BDE8F88300BFA60000201C
:1036680054500020F94F00203050002053500020C3
:1036780052500020034A135CFF2B1CBF0133135424
:10368800704700BFFC4F0020274B1B782DE9F04105
:10369800002B37D0DFF8BC8098F80030002B31D1F0
:1036A800FDF726FB214B224F1B783C7805460E463A
:1036B800CBB194B91F4B2048D3E90012691A66EBC5
:1036C8000202814272F100020FD31C49C3E900567D
:1036D8000C701B4901223A700A70184B1A78194B62
:1036E80033F8124001E0002CF7D1174B204693ED38
:1036F800000A00F0D1FF002806DA0120FFF7BAFF20
:1037080000233B70BDE8F081104B20461C8001234C
:1037180088F8003000F0ACFF0D4B4FF47A72E0FBF4
:103728000256C3E90056EDE753500020AC000020D4
:103738001250002018500020809698001150002048
:1037480010500020B06A0008A80000202050002077
:103758002850002030500020431E70B5062B7FD81B
:10376800DFE803F0041E274B4B596A003F4B1B78D8
:10377800002B79D03E4C2378002B75D101F056FCF4
:10378800002801DA012070BD01232370FDF7B0FA8B
:10379800384A394B801841F10001C3E9000106E0BD
:1037A800364B1B78002B5FD0354B01221A70002056
:1037B800E9E72E4B1B78002B56D02D4D2C78002C8A
:1037C80052D100294ED0002A4CD00A440A2011F8C0
:1037D800013B303BDEB2092E44D800FB0434B4F57B
:1037E800FA6F3FDC8A42F2D101F020FC0028C9DBE5
:1037F800244B1C8003232B70C8E70528224B234940
:103808000CBF012200221A70214B08BF1946032061
:10381800FEF71CFECBE7154B1B782BB3144B1D781A
:1038280015BB1C4C2378002BC1D001F0FFFB0028EE
:10383800A8DB19492570EAE70C4B1B78A3B10C4BA0
:103848001A788AB9134A11780029B0D10121117068
:1038580005221A70FDF74CFA074BC3E90001A6E7E9
:10386800032090E704208EE705208CE752500020C3
:10387800F84F002020A10700F04F002054500020EE
:10388800E94F0020EA4F0020AC000020EA6600085B
:10389800D8660008AD000020FD6600082DE9F84351
:1038A8001E464B070C46154640D100EBD104D708FD
:1038B8003A463146204602F0FDFB15F007030AD0D0
:1038C80001259D40EDB2F35D6A1E1340E25D6D4235
:1038D8002A401343E355BDE8F88301F0070804F0D4
:1038E8000709C845434638BF4B46C3F108036A1A5F
:1038F800934228BF1346CA084FEAD40CB25C10F8AA
:103908000C7042FA08F20EFA03F802FA09F208F10A
:10391800FF387A4008FA09F802EA0802574000F826
:103928000C7019441C448D42D7D8D4E700214FF0BD
:10393800010EF8E738B50B4604461546014607223E
:10394800184602F0B7FBA268C0F807200B232B60CB
:10395800002038BD30B52DED028B102289B0044609
:103968000D460DEB02000021B0EE408A02F0BCFBD0
:10397800FEF74AFD6A46CDE9040101A904A88DEDC8
:10398800068AFFF7D7FF002805DB009B01AA294616
:103998002046FEF721FD09B0BDEC028B30BD30B5E5
:1039A8002DED028B102289B004460D460DEB020066
:1039B8000021B0EE408A02F097FBFEF725FD6A462B
:1039C800CDE9040101A904A88DED068AFFF7B2FF2D
:1039D800002805DB009B01AA29462046FEF7FCFCCF
:1039E80009B0BDEC028B30BD30B52DED028B102235
:1039F80089B004460D460DEB02000021B0EE408A66
:103A080002F072FBFEF700FD6A46CDE9040101A948
:103A180004A88DED068AFFF78DFF002805DB009BC3
:103A280001AA29462046FEF7D7FC09B0BDEC028B57
:103A380030BD00002DE9F0430A2185B07E487F4D56
:103A4800FEF7B0FD7E48FEF7FBFCFDF7FFFC01200A
:103A5800FFF7C2FD7B48FDF7B5FA7B48FDF7B2FAE0
:103A68002B78002B00F0DA80002302A8029300F0E4
:103A7800EFFC002840F0CE807448FDF7A3FA0298C6
:103A8800FDF7A9FA7248734EFDF79CFA7248FDF7E4
:103A980099FA3378002B00F0C38000F0E1FD6F4AFB
:103AA8006F4B00280CBF10461846FDF78BFA6D487F
:103AB800FDF788FA0420FDF78EFA6B48FDF782FAC5
:103AC8000A20FDF788FA6948694FFDF77BFA6948CB
:103AD800FDF778FA3B78002B00F0AB8066480022AF
:103AE8000023CDE90223FDF76DFA02A801F072FA6E
:103AF80058B96248FDF766FA0398FDF76CFA3A2060
:103B0800FDF758FA0298FDF766FA002301A8019319
:103B180001F008FA00283BD15948FDF753FADDEDCA
:103B2800017A9FED587A67EE877AFDEEE77A17EE0D
:103B3800904A002C03DA2D20FDF73CFA64424FF43A
:103B48007A79B4FBF9F84046FDF745FA2E2009FBCF
:103B58001844FDF72FFA6420B4FBF0F030304FF032
:103B68000A08C0B2FDF726FAB4FBF8F9B9FBF8F079
:103B780008FB10903030C0B208FB1944FDF71AFA60
:103B880004F13000C0B2FDF715FA3F48FDF71AFA04
:103B980000230DF103010DF102008DF802308DF8BC
:103BA800033001F02BFA30B99DF80230002B39D1DF
:103BB8003648FDF707FA2648FDF704FA002302A95C
:103BC80001A8CDE90133FDF733FC3148FDF7FAF9D7
:103BD8000198FDF700FA2F48FDF7F4F90298FDF770
:103BE800FAF92D48FDF7EEF9FDF782F82B4B3A78F4
:103BF800C3E900012A4BC3E90001337829495B0076
:103C080043EA82032A7803201A4305B0BDE8F0434B
:103C1800FEF78ABC2448FDF7D5F933E7234832E795
:103C2800234851E79DF803300BB12248C1E72248E9
:103C3800BFE72248C0E700BF9C6A00085450002034
:103C4800613700085267000866670008796700084E
:103C58006162000853500020CE6700082C670008F6
:103C680014670008E1670008EE67000800680008AC
:103C7800525000203C6800084F6800088067000820
:103C88005768000800007A44636800087B680008E9
:103C9800136900081B6900082B69000840500020C0
:103CA80038500020356900088A670008B2670008A4
:103CB800056800089F680008D168000800690008C6
:103CC8002DE9F04F2DED028BB3B0FDF711F8B74A8F
:103CD800DFF84CC30F46D2E900310646F41A67EB09
:103CE80001000025A44575EB0000B14C80F08880E8
:103CF800B048DFF830831B1841F10001C2E90031F8
:103D080098F8003063B100231EA90CA80C931E93E9
:103D180000F046FBA84280F2C2802846FFF7AAFCC2
:103D2800DFF804B39BF8003083B1A34B1B786BB169
:103D380025785DB90DF107008DF8075001F070F88E
:103D4800002880F2E7800220FFF794FC9B4B1A784A
:103D580072B198F800205AB122784AB91A7000F066
:103D68008CFB0028964914BF05200320FEF76EFB44
:103D7800FFF78AFC98F8003023B1924A1278022A99
:103D880000F20981904A1278002A00F0078183F036
:103D980001098E4B1A7822B18A4B5B78022B00F20C
:103DA800FF80894B5B78002B00F0FD8082F0010AD0
:103DB8009BF8003023B1834A9278022A00F23881B6
:103DC800814A9278002A00F0368183F00108BAF11E
:103DD800000F14BF55464546B9F1000F18BF02251C
:103DE800EDB22846FEF726FB794B1A78AA4207D08F
:103DF8001D70002D40F0218176490320FEF726FB37
:103E08002378B3B1744DFCF773FFD5E900239042D2
:103E180099410ED32378012B40F0238101F00AF950
:103E2800002880F2138100236C4923700520FEF7D7
:103E38000DFB6B4B1A78D2B16A4AD2E900128E4256
:103E480077EB020213D300251422294607A81D7018
:103E580002F04AF907A800F0C1FCA842DFF8CC81BB
:103E680080F24C810120FFF705FC88F800505E4A7B
:103E78005E48D2E90031F61A67EB0107864277F10E
:103E8800000707D31B1841F100010020C2E90031E7
:103E9800FFF7A2FB33B0BDEC028BBDE8F08F494BB6
:103EA800DDED0C7A9FED520A1D70524B5249C3ED5D
:103EB800007A37EE800A41F21000FFF74BFD9DEDC6
:103EC8001E0A4E4941F21100FFF769FDDDED0C7A3B
:103ED8009FED4B7A9FED4B0A9DED1E8A27EE800AD7
:103EE80077EE877A80EE270A01F0A0FF464941F273
:103EF8001200DFED467A20EE270AF7EE007A77EE19
:103F0800C87A20EE270ADFED427A20EE270AFFF76B
:103F18006BFD05E79DF80730002B3FF417AF002332
:103F280004AA03A902A802930393049300F096FF3E
:103F38000028FFF608AF234BDDF808909D7010228B
:103F480029461EA802F0D0F8FEF75EFA07AACDE9C6
:103F58001E010CA91EA8CDF88090FFF7EBFC0028E5
:103F680006DB079B2B490CAA41F21300FEF734FA33
:103F78009DED030ADFED1E7A274930EE270A41F24C
:103F88001800FFF7E7FC9DED040A244941F21900E7
:103F9800FFF705FDDAE64FF00109FAE69146F8E683
:103FA8004FF0010A04E79A4602E700BF405000209C
:103FB800F84F002040420F00AD000020E94F0020DC
:103FC800DC690008FC4F0020F94F00205350002006
:103FD800E84F0020066A0008F04F0020506A0008E9
:103FE80030500020285000203850002000879303CC
:103FF80033938843A80000205150002050500020DF
:10400800CD4C6D43F6288A414F500020145C1C3F6C
:1040180000007A444E5000204950002048500020AB
:104028003F420F00545000205250002012500020F0
:104038004FF00108CBE69046C9E649EA4A028D49A5
:1040480042EA88020420FEF76FFAD9E602232370B9
:10405800FCF74EFE884BC01841F10001C5E900018C
:10406800E7E6032B12D1854BB3F9000000F06CFF93
:10407800002804DA82490520FEF7E8F916E004234F
:104088002370FCF735FEC5E90001D2E6042B0FD1F9
:1040980000F090FF794B7B49B3F900207A4B002858
:1040A8000ABF194605200320FEF73EFA0523E7E775
:1040B800022B13D100231EA88DF8783000F0BEFF24
:1040C800002801DA7149D6E79DF878307049002B4D
:1040D800704B0EBF052019460320CDE76E4B1B78A9
:1040E8004BB16E4B0021188800F0E2FD0028BEBFDE
:1040F8006B4B00221A70002323709AE6694B5D709F
:1041080098F8003023B1684B1B78B3FA83F35B0946
:10411800664A12880AB1002B42D09DED080A64490C
:1041280041F21400FFF760FCDFED627A9DED070AAB
:10413800614930EE270A41F21600FFF70BFC9DEDAE
:10414800090A5E4941F21700FFF729FC9FED5C7AE6
:10415800DDED086AC6EE877AB6EE007A77EE877AE2
:10416800FCEEE77A17EE903A9DB2A5F59673B3F593
:10417800487F15D8DFF82491B9F80030AB420FD04A
:10418800474B1B7823B1444B1B780BB1237813B1F1
:10419800A9F8005004E0284600F0B4FE0028F7D043
:1041A80098F80030002B5CD03F4A464C13780A98A8
:1041B80004EB830108609DF82C1009B9424801708E
:1041C8000133DBB2032B13704BD90DF178090021B1
:1041D8005022484688F8001001F086FFFEF714F9CF
:1041E8002368269363682793A3682893374A384B34
:1041F800CDE92023E3682993334BCDE91E011C78D0
:104208008DF8C44004252595309599E8030040228F
:10421800ADF83410090C0C908DF8361020AB11460F
:104228000CA88DF83750FFF739FB26AB8022882180
:104238000CA88DF84050FFF731FB00220023CDE990
:10424800042340F2091104AB07220CA88DF8514051
:10425800FFF724FB1F4922230CAA41F21500FEF7A1
:10426800BBF898F80030002B3FF401AEFFF70CFACA
:10427800FDE500BF1C6A000880969800EA4F002000
:104288006B6A00088169000858690008836A000899
:10429800C2690008A5690008AD000020A60000203A
:1042A80052500020FC4F00201150002020500020C8
:1042B8004D500020339388434B5000204A50002033
:1042C8000000C8420050002010500020C800FA002A
:1042D800400190014C50002030B502460144FF20B7
:1042E8008A4200D130BD12F8013B0824584045B23B
:1042F8004300002DD8B2B8BF80F03100013CF6D1A0
:10430800EEE72DE9F04102EB420805460F46144658
:1043180080440646464505D10023A3420ED100201D
:10432800BDE8F081304602210336FFF7D5FF16F8C5
:10433800013C8342EED04FF0FF30F1E703EB43023C
:10434800AA5A52BA27F813200133E6E730B585B0E8
:104358000D468DF8070014460DF10701012244208F
:10436800FDF7DCF9002815DB2846FCF7B5FC06222A
:1043780002A94420FDF7E6F900280EDB02222146B7
:1043880002A8FFF7BEFF0028B4BF6FF003000020AB
:1043980005B030BD6FF00100FAE76FF00200F7E7F3
:1043A80037B505460C4601AA0A21FD20FFF7CEFFC6
:1043B800002834DBBDF80630DFED1F7A9FED1F6A59
:1043C80007EE103AB8EE477A27EE277AC7EE067A54
:1043D800B1EE087A77EEC77AF5EEC07AF1EE10FA08
:1043E8001FD49FED177AF4EE477AF1EE10FAC8BFA2
:1043F800F0EE477A8DB1BDF80430DFED126A07EEB2
:10440800103AB8EE477A27EE267AC7EE066A9FED8D
:104418000E7A36EEC77A85ED007A2CB9002003B003
:1044280030BDDFED0A7AE5E7DFED056A87EEA67AAB
:1044380084ED007AF2E700BF0000FA4200FF7F47F0
:104448000000C84200002F43000034420000000072
:1044580013B5044601AA01218920FFF777FF002838
:1044680001DB14B9002002B010BDBDF80420BDF86E
:10447800063043EA02432360F4E707B5732101AA33
:104488001520FFF763FF03B05DF804FB1FB50B466B
:104498008DF80F0000920DF10F0101227620FDF733
:1044A80057F905B05DF804FB07B502228DF8040042
:1044B8008DF80510762001A9FDF730F903B05DF8F5
:1044C80004FB000010B58CB0002401220DF103019B
:1044D800D0208DF80340FFF7D9FFA042C0F2A78093
:1044E8009DF80330612B40F0A580B621E020FFF74E
:1044F800DBFFA042C0F2A1800A20FCF7EDFB564981
:104508000122F020FFF7C2FFA042C0F299801722D3
:1045180001A98A20FFF7BAFFA04203DA6FF004006E
:104528000CB010BD0E220DF11B01E120FFF7AEFF0C
:104538000028F3DB05220DF129012046FFF7A6FF2D
:104548000028EBDB454BBDF823201A80BDF804207A
:104558005A809DF806201A71BDF80820DA80BDF847
:104568000A201A819DF80C209A72BDF80E209A81B3
:10457800BDF81020DA81BDF812209DF81D0052BA4E
:104588001A82BDF816205A82BDF818209A829DF822
:104598001A209A759DF81C2002F00F0141EA0011BB
:1045A80019839DF81B10120942EA01125A83BDF8BB
:1045B8001E209A83BDF82020DA839DF8222083F8F4
:1045C80020209DF8272083F82120BDF825205A8433
:1045D8009DF8282083F824209DF82B20C2F301128F
:1045E80083F825209DF8292083F826209DF92D2081
:1045F80021461211742083F82720FFF755FF002861
:1046080021DB01217220FFF74FFF00281EDB214626
:104618007520FFF749FF00281BDB54217420FFF7A2
:1046280043FF0028B4BF6FF00800002078E74FF080
:10463800FF3075E76FF0010072E76FF002006FE777
:104648006FF003006CE76FF0050069E76FF0060094
:1046580066E76FF0070063E75C5000205E500020BB
:10466800024B1878431E5842584170475C5000204E
:1046780000284AF2762249F6251314BF1346002073
:104688004FF47A7218BF962003F5FA73B3FBF2F36E
:10469800013318447047000007B5002800F08180F6
:1046A800454B9FED466A93F921209FED457ADFED52
:1046B800455A06EE902AB3F92220F8EEE66AB0F5DC
:1046C800C87FA6EE867A06EE902A9FED3F6A93F998
:1046D800242088BFDFED3D7AFAEEE86A98BF07EE3E
:1046E800900AE6EE865A4FF05A0098BFF8EE677ABD
:1046F800F7EE006A06EE102A93F8252093F9263083
:10470800B0EE665AA5EEA75A07EE902ABAEECB6A23
:10471800F8EE677A20EE060AB1EE006A77EE867A3E
:10472800A7EE050A86EE277A07EE903A9FED286AEB
:10473800F8EEE77AF0EE665AE7EE865A27EE007A48
:1047480086EEA56AFBEE097AE7EE067A9FED217AF6
:1047580067EE877AFCEEE77ACDED017A9DF80410D2
:10476800FFF7A2FE00281EDB65216420FFF79CFEF0
:1047780000281BDB184B1B78012B14BF10212021AC
:104788007120FFF791FE002813DB55217420FFF7F5
:104798008BFE0028ACBF00206FF0030003B05DF86B
:1047A80004FB0146ECE74FF0FF30F7E76FF001003C
:1047B800F4E76FF00200F1E75E5000200000803D52
:1047C8000000444275021A3B6F12033A0000C843C6
:1047D8006F12033B9A9959405C5000202DE9F04331
:1047E80087B00446112201A91D20FFF74FFE0028BB
:1047F800C0F2D8819DF90430002B80F2D6819DF853
:104808000A309DF809209FEDEA6A9FEDEA7ADFED0C
:10481800EA6ADFEDEA3A9DF806609DF807709DF8B0
:104828000800BDF80CE01B0143EA02339DF80B2099
:1048380043EA121307EE903AE14BE24AB3F80080DC
:1048480092F800C005EE908AB3F90280F8EE655A36
:10485800F8EEE77A04EE908A26EE656A93F904800A
:1048680027EE657AA7EEA66ABCF1010F0BBF9DF88B
:1048780014109DF812109DF813509DF81150A7EED2
:10488800A37A8A0942EA850207EE908AF8EEE77A67
:10489800B3EE005A67EE857A27EE077AF8EEE44A17
:1048A80067EE877ADFF87083E6EE247A01F00F0569
:1048B800C8ED007A1CB9002007B0BDE8F083B3F951
:1048C8000C909FEDC14A9FEDC17A9FEDC12A93F9E3
:1048D800108001EE909A93F90A90F6EE004AA7EE3E
:1048E800A44A06EE109AB3F90890C7EE875AB8EEB4
:1048F800C66A07EE109A26EE046AB8EEC77A26EE64
:10490800046A27EE047AB3F80690C4ED005AA6EEBE
:10491800267A9FEDB06A27EE067AB7EE006AB0EE07
:10492800463AA7EE023A02EE909AF8EE622A07EEAD
:10493800908A62EE832AB3F90E80F5EE402AF1EEF2
:1049480010FA00F0C780000940EA071040EA063074
:1049580007EE100A9FEDA03A987DB8EEC77AF8EEF8
:10496800E77A33EE477A67EEA37A24EE043AF8EE54
:10497800E11A67EE837A03EE108AB8EEC33A23EEA3
:10498800044AB0EE003AE4EE037AB5EE004A67EE68
:10499800847A9FED924AE1EE847A9FED914AA7EEE0
:1049A800C47ADFED907A67EE277A87EEA27ADFED98
:1049B8008E7ADFED8E2A67EE277A27EEA73A23EE66
:1049C800273A07EE900AB3F91400F8EE677A04EE76
:1049D800100AB3F9120067EEA33A07EE900AB8EE90
:1049E800C44AF8EEE77A24EE074A67EE827A24EEA4
:1049F800074A67EE877A93F91100E4EE227A04EE0B
:104A0800100AE3EE237AB8EEC44ADFED793AE4EE11
:104A1800237A9FED784AA7EE847A9EFA9EF080B2B8
:104A280084ED017A07EE100A188B04EE100A93F948
:104A38001C0007EE900AF8EEE77AB8EE444A67EEF3
:104A4800A47A588B67EEA57AB8EE477AE4EE057A31
:104A5800F0EE464A37EE677A07EE900A93F91D00A2
:104A680005EE100AB8EEC55A93F91E0025EE265A2F
:104A7800FBEEC77AE5EE854A05EE100ABAEEC65A8D
:104A8800D87F25EE255AE5EE854A05EE100A67EE31
:104A9800A47A93F9200067EE877A07EE100ABAEE37
:104AA800E57AB8EE455A27EE257ADFED535AA5EE9A
:104AB800267A27EE877AE7EE877AF4EEE57AF1EE42
:104AC80010FA0ADCF5EEC07AF1EE10FA07D5DFED40
:104AD8004B7A04E09FED497A9FE7F0EE657A87EE1E
:104AE800A57ABCF1010F84ED027A1ED14FF4802320
:104AF800EB4007EE903A9FED427AF8EEE77A02EB48
:104B0800420202F5206267EE877A07EE102AB8EEB5
:104B1800C77AC7EE876A01F03001A1F13003594224
:104B280059412174C4ED036AC5E60120A84007EE87
:104B3800900A93F927309FED337AF8EEE76A07EE8B
:104B4800903AF8EEE77AB1EE045A2F4BA7EE857A41
:104B580003EB850307EE902A9FED2C5AD3ED004A0C
:104B68002B4BF8EE677A03EB850377EEC57A84EE74
:104B7800A55A35EE065A25EE075A87EE857A93ED43
:104B8800005AC5EE257ADFED235A77EE867A37EE9E
:104B9800067A67EEA57A67EEA67A67EE277AC6EEFA
:104BA800276AB8E74FF0FF3086E66FF0010083E62A
:104BB8000000803A0000003900008038000000370B
:104BC8005E5000205C50002000007AC70000A0451D
:104BD80000000038000000360000804900008047CF
:104BE800000080390050C3450000803B00000030C1
:104BF800000000430000803D0000C84200000000A3
:104C0800002474490080A744F86A000800000044A2
:104C1800B86A0008BD3706345850002007B549BAAD
:104C2800ADF8021040BA0221ADF800000DEB01000A
:104C3800FFF752FB05228DF8040069466220FCF755
:104C48006DFDC01703B05DF804FB07B540BAADF8B9
:104C58000400022201A96220FCF760FDC01703B01E
:104C68005DF804FB7FB50D46144602EB4206FFF7DC
:104C7800ECFF002815DB0220FCF72EF8324601A9CC
:104C88006220FCF75FFD00280EDB2246294601A8BA
:104C9800FFF737FB0028ACBF00206FF0030004B01B
:104CA80070BD6FF00100FAE76FF00200F7E700004F
:104CB8002DE9FF47DFF85CA1DFF85C91DFF85C8144
:104CC8004E4F0024054643F686700E468AF800408B
:104CD80089F8004088F800403C70FFF7B6FFA04212
:104CE8007CDB4FF4FA70FBF7F7FF032202A943F2CB
:104CF80082600294ADF80C40FFF7B4FF68B9BDF8C4
:104D08000A00BDF80C303E4ABDF8081043EA0043DB
:104D1800C2E9003101238AF80030012202A942F2D7
:104D28001830FFF79FFF98B9BDF808309FED357A26
:104D3800DFED356A07EE903AF8EE677A334B67EEA7
:104D4800877A87EEA67A83ED007A012389F8003006
:104D58004FF0000901220DF1060142F21330ADF8BF
:104D68000690FFF77FFF48453BDBBDF806304B4513
:104D7800274B14BF01224A464FF001041A7088F8E5
:104D8800004015D0494642F21640FFF747FF484514
:104D98002ADB0220FBF7A0FF56B143F21560FFF7AC
:104DA80054FF484523DB4FF44870FBF795FF3C70F0
:104DB80029464FF46040FFF731FF00281ADB022034
:104DC800FBF78AFF42F2B110FFF73FFF0028B4BF9C
:104DD8006FF00500002004B0BDE8F0874FF0FF3009
:104DE800F9E76FF00100F6E76FF00200F3E76FF004
:104DF8000300F0E76FF00400EDE700BF86500020E5
:104E08009050002000002F4300FF7F478C50002067
:104E1800875000208A5000208950002088500020A8
:104E280013B50023044601220DF106014EF2B840E5
:104E3800ADF80630FFF716FF00280CDB14B9002088
:104E480002B010BDBDF80630C3F30A03003B18BF1B
:104E580001232370F3E74FF0FF30F1E773B50646FF
:104E68000D461446694603224EF60540FFF7FAFE42
:104E780000283BDB5EB1BDF800309FED1E7A07EEDF
:104E8800903AF8EE677A67EE877AC6ED007A9DB1B8
:104E9800BDF802309FED187ADFED186A07EE903AF8
:104EA800F8EE677A67EE877A87EEA67ADFED147AEE
:104EB80077EE677AC5ED007A14B9002002B070BDAC
:104EC800BDF80430DFED0D6A07EE103AB8EE477A08
:104ED800C7EE267AB7EE007AF4EE477AF1EE10FACA
:104EE800C8BFF0EE477AC4ED007AE6E74FF0FF302E
:104EF800E4E700BFBD37863500002F4300FF7F473A
:104F080000003442014608B54FF46040FFF786FEC2
:104F1800002804DB0220FBF7DFFE002008BD4FF06D
:104F2800FF30FBE7064B1B7833B108B90020704708
:104F3800044B1B680360F9E74FF0FF30704700BF70
:104F4800895000208C500020002808B502DA4FF064
:104F5800FF3008BD07EE900ADFED136AF8EEE77A36
:104F680087EEA67ADFED116AB4EEE67AF1EE10FA72
:104F7800EDDCDFED0F7A27EE277A42F21D40C7EE0F
:104F8800267AB6EE007A77EE877AFCEEE77A17EEA5
:104F9800903A99B2FFF742FE0028D8DB0220FBF7CF
:104FA8009BFE0020D5E700BF0000C84200002F4349
:104FB80000FF7F4708B543F21560FFF746FE00285B
:104FC80005DB4FF44870FBF787FE002008BD4FF063
:104FD800FF30FBE7074B1B7843B108B90020704747
:104FE800054BD3E90023C0E90023F7E74FF0FF3072
:104FF800704700BF8A50002090500020084B1B7853
:1050080053B110B1074B1B78037009B900207047E2
:10501800054B1B780B70F9E74FF0FF30704700BF66
:1050280088500020875000208650002043F6867064
:10503800FFF70BBE43F23960FFF707BE13B5032233
:10504800044601A96220FCF77DFB002815DB00233C
:1050580001220DF1020101A8ADF80230FFF751F964
:1050680000280DDB14B9002002B010BDBDF80230D5
:10507800B3FA83F35B092370F5E74FF0FF30F3E7EA
:105088006FF00100F0E730B581F0010400EB840413
:10509800056863684DB1AA68A2EB000CDCF1000258
:1050A80042EB0C0205EB820253601D60036003EBC8
:1050B80081035A68626002B11060586030BD2DE902
:1050C800F0410029037B0CBFFF220122134459B28F
:1050D800013303F0FF03022B044643D900294FEAAA
:1050E800D1786FEA01014FEAD17100EB8103B8BFB3
:1050F80001255E6896F90C30A8BF4FF0FF3513FB09
:1051080005F3002B10DC4146FFF7BDFF96F90C3084
:105118003BB96B425BB22373374635733846BDE8FB
:10512800F08100252B46F6E706EB880330465F68DA
:10513800FFF7A9FF41462046FFF7A5FF97F90C3076
:1051480013FB05F3002B04DA002325733B73337339
:10515800E4E71DBF00236D42237323731CBF3B7319
:105168006BB2F4E701730746D8E770472DE9F041C1
:10517800DDF818800D461E4608F130018368174691
:10518800984768B10024C0E90044C0E9067600F1F8
:105198003003846004730461C0F82480836205626C
:1051A800BDE8F081006A0B6A984234BF4FF0FF30C7
:1051B8000120704710B5C3680C4609699847002359
:1051C800C4E9023323614FF6FF73A382A37D013341
:1051D80003F01F03A3750123237610BD02888B8B70
:1051E8009A4205D0034A8CBF01230023D05670474A
:1051F80000207047386B00081C30FFF7EFBF70B510
:10520800D1E901520446002D36D0002A34D0104688
:10521800034640680028FBD191F90C0018735D60C3
:105228002B601868814222D09D68456005B12860CE
:105238009A60136000220D681D60DDB1AE68A6EBB0
:10524800010CDCF1000646EB0C0605EB86056B60ED
:1052580082F00101FFF733FF0346006893F90C2041
:10526800FAB9F8B18268D31A5A425A41F0E7184697
:105278000122E0E72360EBE7003A18BF012201EBC7
:1052880082020868536803B1186058B18268511ADD
:105298004A424A4100EB82014B60002BD8D018608B
:1052A800D6E700B9236070BD2DE9F84305680746C5
:1052B8008946144698460646316831B14846A047A3
:1052C8000028336808D11C461BB9B8F1000F0BD170
:1052D80000242046BDE8F883CCBF0126002601360D
:1052E8001D4603EB8606E7E74846C0470446002804
:1052F800EED000233060C0E90133056003730DB9B7
:105308003860E6E7A9680B1A594259412846FFF761
:10531800D6FE90F90C300568002BF0D1002DD8D1BD
:10532800EEE7000010B5074C11448A4200D110BDC9
:1053380012F8013B83EA102334F8133083EA002083
:1053480080B2F2E78C6B000830B50024FF25C0E975
:105358000212C0E9044404600571846130BDC0E9EB
:1053680000120022C0E90222026170472DE9F04FC5
:105378008FB0CDE90B23DDE9184681468B4600291D
:1053880000F08681002800F08381002C00F08081E5
:105398001A9B13B9002E40F07B81D9F80430072BF3
:1053A8003ED9402B3ED8B54AD35CB54AD35C059369
:1053B800059B62789BF80410013B0393002A44D1B3
:1053C8002379FF2B40F064816588B5F5005F80F094
:1053D8005F810B0628D445F4C04041EA00202378B9
:1053E800072B00F2558140EA8363039809938642AC
:1053F80063790A93D9F80810D9F8002006F1010357
:105408006DD89E48C35C9E48C45C9142A4EB0605D7
:1054180005F1FF3538D36FF002000FB0BDE8F08F0B
:105428000823C4E74023C2E7039B9E4200F2308171
:105438001A9A31464FF6FF70FFF774FF00F07F00AD
:1054480040EA052040F0B070C9E7531E012B00F276
:105458001F8194F904302579002BC0F219816388E3
:10546800B3F5007F80F014810F0600F111819803D5
:1054780040EAC510951E6A4240EA01006A4140EAC6
:10548800026040F00070AAE7DDE90B230999009457
:105498005846FFF76BFE07460028BCD026B11A997C
:1054A8003246303000F052FE06F130002A46002124
:1054B800384400F019FE0A9B724A3C4463F01F030B
:1054C80084F82F303946704B09F10C00FFF7ECFED9
:1054D800D9F808300133C9F8083001209DE7B01C1D
:1054E800079003980344B3FBF0F30B44934292D81C
:1054F8001A9A31464FF6FF70FFF714FF0024012374
:105508000490254606940893A046079B434518D85F
:10551800069E002D00F0AE80DFF86C81594F09F12E
:105528000C05314643463A462846FFF7BDFE366924
:10553800002EF6D1D9F808302344C9F8083020469F
:105548006BE7079B0999A3EB0802039B934289BF6A
:105558004A4BDDF814A09B18494A84BF5B7812F8BF
:1055680003A0CDF800A0DDE90B235846FFF7FEFDA8
:10557800069B01340746002B63D02861002F70D0AA
:1055880046450AF1FF335ED9A6EB08059D4228BFC0
:105598001D461A990D932A4607F1300000F0D6FDF2
:1055A8001A9BA8442B4446451A930D9B2DD8AAF163
:1055B800030AAA1CAAEB050A9A4288BF4FF0000A00
:1055C80005F130005246002138440D9300F08CFD5F
:1055D8000D9B6A1C01329A4237D35544AB4214D909
:1055E800464509D104997A190135090AAB4282F86E
:1055F800301006F1010808D9464506D27B19049AED
:1056080083F83020013508F101080A9B089A03F055
:105618001F0343EA4213069AB91A4A424A4143EA27
:10562800C213079A42453D448CBF0022012243EA37
:10563800821385F83030089B83F0010308933D46B8
:1056480063E706909AE70025B1E704990F48C1F38C
:105658000F2130F81110049881EA002189B20491D1
:10566800B8E73D4654E73146DBF80C303469584614
:1056780098472646002EF6D1CDE600BF3A6B0008C3
:105688007B6B0008AD510008735100088C6B000853
:105698006FF00100C1E600BF10B1C368002003B974
:1056A800704718465B68FAE738B50D46044640B1BE
:1056B80029B10C30FFF7A3FDA368013BA36028467E
:1056C80038BD0546FBE700002DE9F04F89B09B4641
:1056D8009DF84C90129B149E14460746002800F033
:1056E800B581002E00F0B281002B00F0AF81D3F815
:1056F80000A0BAF1005F80F0A981D3E90158B8F1A0
:10570800000F02D1002D40F0A1812022002168461F
:1057180000F0EAFC25B90025284609B0BDE8F08F5D
:105728004FEA9A638DF808301AF0007F0AF07F0379
:10573800CDE9004B8DF80C300AF0807240F0CB8038
:10574800002ACAF30C2118BFFF231AF0801FADF8F6
:105758000A108DF80C300CBF01220022FF21013DF8
:10576800CDE905588DF80D1018F8053003F01F0025
:105778004FEAD31CC3F3801E8DF80E008DF80FC0BE
:1057880058B203F0400C8DF810E003F0200EC3F37C
:1057980040138DF81130002ABDD0002805DABEF17B
:1057A800000FB8D0BCF1000F0BD19DF80C30FF2BC7
:1057B800B1D0062D05D8BCF1000FACD00DB900282A
:1057C800A9DAFF2902D03B798B42A4D19DF80900C0
:1057D800A04A043000230DF10A0107EB8000FFF70F
:1057E80063FD159B804603B11860B8F1000F92D095
:1057F8009DF90C209DF80C30002AC0F2038108EBBB
:1058080083035C6AF4B99DF80F30DBB1BB682021D3
:10581800384698479DF80C3008EB830358620028F7
:105828006ED0DDE90023C0E90244C0E900234FF649
:10583800FF7383829DF80E3083750123046180F81D
:105848001790037600259DF80C3008EB83035C6AFB
:10585800002C3FF461AFDDE90021D4E90003904258
:1058680073EB010ED8E904C5D8F818804BD2101A8A
:1058780061EB0303844575EB030334BF4FF0010C60
:105888004FF0000C9DF80E00A37D1B1A9DB2002B53
:10589800BCBF05F120031BB2BCF1000F08D1E57DA8
:1058A8004D4533D19DF80F5085B3DBB2012B2DD96F
:1058B8000023C4E902334FF6FF73A3820123237642
:1058C8009DF80F30A07584F81790FBB9214638462B
:1058D800FFF770FC1FE7002A14BF022201228DF88F
:1058E80009201AF4000FCAF38832ADF80A20CAF367
:1058F800C61103D15A1A18BF012230E700222EE739
:105908006FF002059FE74FF0000CBBE794F817E033
:105918009DF811C0257EA37DCE457FF4FCAEAC4535
:105928007FF4F9AE98427FF4F6AE9DF80F30002B65
:1059380051D1DDE90512A08AFFF7F4FC0025A08209
:10594800DDE9059AA3684B44A36023693BB9B8F124
:10595800000F04D0BB68414638469847206120694B
:10596800002840D0E36809EB0302904538BFA8EB54
:10597800030918444A46514600F0E8FBE3684B44E3
:10598800E3609DF81030002B37D00DB9A38AEBB92E
:105998009DF80C303371BDF808109DF80E30318039
:1059A8007371BDF80A207280D4E90023C6E9022386
:1059B800E2682369326173612DB9A3689A1A012AD2
:1059C8009CBF023B336100232361012521463846F1
:1059D800FFF7F0FBA0E69DF81030C4E90021002B8A
:1059E800A7D00125ACE7B8F1000FCAD02146384648
:1059F800FFF7E0FB6FF002058EE6237E83F00103DC
:105A0800237688E6D8F81830059C9C4228BF1C46A7
:105A18002146BB68384698470028EBD0DDE9008965
:105A28009DF80C20BDF80A10BDF8085032719DF899
:105A38000E20358071807271C6E90289C6E904407A
:105A48000699224600F082FB012565E66FF0010504
:105A580062E600BFE5510008F7B5064648B30229DB
:105A680027D8043100EB8105ADF806200023124A3F
:105A78000DF106012846FFF717FC0446B8B10146A8
:105A88002846FFF7BCFB04F12005002704F508743D
:105A980055F8041FF36801B1096930469847F3685F
:105AA800296830469847A5422F60F1D1012003B0FC
:105AB800F0BD6FF00100FAE7E55100082DE9F84361
:105AC8000A9F0D4691461E46804610B30FB3022921
