:020000040800F2
:1000000000000220214A0008714A0008714A0008D5
:10001000714A0008714A0008714A00080000000097
:10002000000000000000000000000000714A00080D
:10003000714A000800000000714A0008D90A00084F
:10004000714A0008714A0008714A0008714A0008A4
:10005000714A0008714A0008714A0008714A000894
:10006000714A0008714A0008714A0008714A000884
:10007000714A0008714A0008714A0008714A000874
:10008000714A0008714A0008714A0008714A000864
:10009000714A0008714A0008714A0008714A000854
:1000A000714A0008714A0008714A0008714A000844
:1000B000714A0008714A0008714A0008714A000834
:1000C000714A0008714A0008714A0008714A000824
:1000D000714A0008714A0008714A0008714A000814
:1000E000B9270008714A0008714A0008714A0008DF
:1000F000714A0008714A0008714A0008714A0008F4
:10010000714A0008714A0008714A0008714A0008E3
:10011000714A0008714A0008714A0008714A0008D3
:10012000714A0008714A0008714A0008714A0008C3
:10013000714A00080000000000000000714A000839
:10014000714A0008714A0008714A0008714A0008A3
:10015000714A0008714A0008714A0008714A000893
:10016000714A0008714A0008714A0008714A000883
:10017000714A0008714A00080000000000000000F9
:08018000714A0008714A0008F1
:1001880010B5054C237833B9044B13B10448AFF3C9
:1001980000800123237010BD000100200000000032
:1001A800B04D000808B5034B1BB103490348AFF332
:1001B800008008BD0000000004010020B04D0008C8
:1001C80053B94AB9002908BF00281CBF4FF0FF31B6
:1001D8004FF0FF3000F06AB9ADF1080C6DE904CEBC
:1001E80000F006F8DDF804E0DDE9022304B070470A
:1001F8002DE9F047089D0C46002B4ED194468C45BE
:100208008646B2FA82F262D94AB1C2F1200391401D
:1002180020FA03F30CFA02FC194300FA02FE4FEA33
:100228001C471FFA8CF6B1FBF7F44FEA1E4307FB95
:10023800141143EA014304FB06F199420AD91CEB65
:10024800030304F1FF3080F01281994240F20F81DC
:10025800023C6344591A1FFA8EF3B1FBF7F007FB0F
:10026800101143EA014300FB06F69E420AD91CEB33
:10027800030300F1FF3180F0FC809E4240F2F980D8
:10028800634402389B1B40EA044000211DB1D3405F
:100298000022C5E90032BDE8F0878B4205D90DB1CF
:1002A800C5E9000100210846F5E7B3FA83F1002902
:1002B80046D1A34202D39042C0F0F080861A64EB84
:1002C80003030120002DE6D0C5E90063E3E7002A17
:1002D80040F09080A1EB0C044FEA1C481FFA8CF701
:1002E8000121B4FBF8F64FEA1E4308FB164443EA23
:1002F800044307FB06F0984208D91CEB030306F1F8
:10030800FF3402D2984200F2CD8026461C1A1FFA0A
:100318008EF3B4FBF8F008FB104443EA044300FBF7
:1003280007F79F4208D91CEB030300F1FF3402D200
:100338009F4200F2B0802046DB1B40EA0640A5E75A
:10034800C1F120068B4022FA06F71F4320FA06FC6B
:1003580004FA01F343EA0C03F44000FA01F8380CFC
:100368004FEA1349B4FBF0FE1FFA87FC00FB1E445A
:1003780049EA04440EFB0CF9A14502FA01F20AD934
:100388003C190EF1FF3A80F08480A14540F281804B
:10039800AEF1020E3C44A4EB09041FFA83F9B4FB46
:1003A800F0F300FB134449EA044403FB0CFCA445A6
:1003B80007D93C1903F1FF3067D2A44565D9023B40
:1003C8003C4443EA0E40A0FB0293A4EB0C049C427D
:1003D800CE469C4651D34ED055B1B8EB0E0364EBD4
:1003E8000C0404FA06F6CB401E43CC40C5E9006471
:1003F800002150E7C2F1200320FA03F10CFA02FCB5
:1004080024FA03F394400C434FEA1C4800FA02FE16
:100418001FFA8CF7B3FBF8F008FB1031230C43EA02
:10042800014300FB07F1994208D91CEB030300F1D3
:10043800FF362CD299422AD9023863445B1AA4B2F7
:10044800B3FBF8F108FB113344EA034401FB07F35B
:10045800A34208D91CEB040401F1FF3613D2A342CE
:1004680011D902396444E41A41EA004139E70446E3
:10047800F0E6084606E7C845AED2B9EB020E63EBD4
:10048800070C0138A8E73146EDE7034699E73046FF
:10049800D4E7D6467FE7634402384DE7064623464D
:1004A80008460FE7023E634430E700BF704700BFCD
:1004B800034613F8012B002AFBD1181A013870479C
:1004C8002DE9F04100F090FB00F03AFB00F0B8F89D
:1004D80000F00AFC494800F037FC494800F034FCB9
:1004E80000F096FB00F030FC464800F02DFC00F0D0
:1004F800E3F8054601F0EEFE0446434800F024FC0C
:10050800284600F04DFC002C6CD0404800F01CFC44
:10051800606800F019FC3B4800F016FC201E18BF6C
:10052800012000F0D9F800F0A7FD394A394B00281E
:1005380014BF1046184600F007FC00F0F5F93648DD
:1005480000F002FC00F0BAFA00284DD000F0BCFA26
:1005580005463248DFF8E48000F0F6FB6F1E0835E8
:1005680017F8016F330906F00F0618F8030000F0BA
:10057800E3FB18F8060000F0DFFBBD42F0D1284885
:1005880000F0E2FB94B3D4E901766578002000F02E
:100598001FFC3A463146284601F0FAFB214800F094
:1005A800D3FB284600F0D9FB164800F0CDFB0CB36E
:1005B800E368984700F060FB00F092FA054600F007
:1005C8008BFB0CB12369984701F090FC00F088FA86
:1005D800401BB0F5FA7FF2D300F082FA054600F02E
:1005E80085F8ECE7104897E71048C9E7104E114F17
:1005F8007F25CBE7104800F0A7FBDBE7394E000862
:10060800684E0008654E0008754E00088A4E0008BE
:10061800E44D0008C84D0008C24E0008DF4E00082F
:10062800EC4E00081F4F00088F4E0008014F0008CD
:10063800024E0008254E0008334F00086B4F000893
:100648001B4B1A6B42F003021A631B6B194B4FF4D6
:1006580000329A614FF480229A611A6822F00C02E3
:1006680042F004021A601A6822F0300242F01002C6
:100678001A601A6822F440621A601A6822F440521A
:100688001A601A6822F440421A60DA6822F440625A
:1006980042F40062DA60DA6822F4405242F400520E
:1006A800DA60DA6822F4404242F40042DA607047C5
:1006B8000038024000000240064B1B69C3F340109B
:1006C8005A0648BF40F002001B0648BF40F004002D
:1006D800704700BF000002400028034B0CBF4FF4D6
:1006E800003202229A61704700000240024A5369B0
:1006F80083F002035361704700000240F0B50246E0
:10070800014448F2050700208A4213D012F8016B11
:1007180008250124430026424FEAD03C98B214BF72
:1007280001230023634518BF78406400013DE4B20B
:10073800F0D1E9E7F0BD0000104B1A6822F470020E
:100748001A601A6842F420021A605A6842F4406239
:100758005A609A6842F470029A60DA6822F4700269
:10076800DA60DA6842F4A002DA605A6A22F47F4258
:100778005A625A6A42F488425A6270470004024038
:10078800024A136843F4007313607047005800402E
:10079800064B074AD2F81418014201D1013BF9D19E
:1007A800B3FA83F040094042704700BFA0860100B9
:1007B8000050004038B5144C236843F48073054654
:1007C80023600120FFF7E4FF002814DBC0350F4B3E
:1007D800256140F20242616911420FD1013BFAD111
:1007E800636923F480636361236843F400732360BF
:1007F8006FF0010038BD4FF0FF30FBE7606910F47F
:100808008060F7D0ECE700BF00580040A0860100E8
:1008180070B5044600200D46FFF7CCFF00281FDB0B
:10082800114EB36925448020FFF7B2FF002804DA8F
:10083800FFF7A6FF6FF0010070BD14F8013B3361AC
:10084800AC42F0D10420FFF7A3FF002804DAFFF739
:1008580097FF6FF00200EFE7FFF792FF0020EBE74A
:100868004FF0FF30E8E700BF0058004007B501210E
:100878000DF107008DF80710FFF7CAFF03B05DF808
:1008880004FB00002DE9F843264C236843F48063F9
:100898000546236001208846FFF78CFF00283BDBD4
:1008A800A36905F1FF3900264020FFF771FF0028F2
:1008B80007DAFFF765FF6FF00200BDE8F8833E46F0
:1008C800F2E7236909F8013F771CA8EB0703032B1C
:1008D800F5D80420FFF75CFF002804DAFFF750FF83
:1008E8006FF00300E9E7236823F48063236072B69E
:1008F8002369EB55236843F400732360F71C2E44E7
:100908002369B37062B64020FFF742FF002806DB78
:100918002369EB550020D0E76FF00100CDE76FF0B9
:100928000400CAE7005800402DE9F04F5D4C5E4BCB
:100938005E4E5F4D00212160616021721A6B31703B
:1009480042F002021A631A6C42F480021A6491B0EF
:100958001B6CFFF7F1FE574B4FF400421A602A2236
:1009680019605A60D222DA612B221A6201221A60B7
:100978001A6822F001021A602B6823F440032B60E6
:100988002B6843F480032B606B6823F400636B606F
:100998004FF00063AB6100F0B5F80746884600F0F9
:1009A800B1F8C21B61EB0803502A73F10003F6D3B8
:1009B8004FF40063AB61FFF7BFFE3E4B01251D609E
:1009C800022000F093F8042104A8FFF75BFF002839
:1009D80004DA11B0BDE8F04FFFF748BF9DF81030BA
:1009E800042BF6D19DF81130112BF2D1324B05931F
:1009F800052100230DF11500ADF81830FFF77EFE34
:100A08000821ADF81A0005A8FFF702FF0028E0DB6F
:100A1800052000F06BF8232107A8FFF733FF002813
:100A2800D7DB9DF81C30232BD3D1212107A8FFF752
:100A380065FE9DF83D20C3B29A42CAD19DF83E306A
:100A4800C0F307209842C4D19DF81D009DF81E10E0
:100A58009DF81F209DF820309DF825B09DF826A010
:100A68009DF827909DF828809DF8297003900291A1
:100A780001920093FFF7FAFE03980299019A009BEE
:100A880020706170A270E37084F804B084F805A047
:100A980084F8069084F807802772357011B0BDE895
:100AA800F08F00BF1C010020003802402501002003
:100AB800000402400058004003070280014B1878E8
:100AC800704700BF25010020004870471C01002026
:100AD800024A136801331360704700BF28010020E1
:100AE800014B1868704700BF28010020044A1168AC
:100AF80013685B1A834200D3704730BFF8E700BF22
:100B08002801002010B50B494FF0E02208689469CD
:100B18000B688342FAD15069074A08491268B2FB48
:100B2800F1F2001B0021B0FBF2F04FF47A72E3FB04
:100B3800020110BD28010020A400002040420F003F
:100B4800214B1A6842F480321A601A689203FCD565
:100B58001A6C1E4942F080521A641A6C0A6842F4F0
:100B680080420A601A4A40F205711160194A5A60B7
:100B78001A6842F080721A60134A13689B01FCD508
:100B8800936823F47C4323F0F00343F41443936005
:100B9800936823F0030343F0020393600A4A9368BF
:100BA80003F00C03082BFAD10B4B0C4A1A604FF0D8
:100BB800E0230B4A5A610B4AF02182F823100022E5
:100BC8009A6107221A61704700380240007000409D
:100BD800003C024008544007A4000020007A030AA1
:100BE8003F90020000ED00E0044B05495A6F120ED9
:100BF8000A705A6F42F080725A6770470038024094
:100C08002C010020014B1878704700BF2C010020F0
:100C1800104B1B78980610D4590610D41A0610D415
:100C2800D80610D4590710D41A0710D413F0020F9D
:100C3800094B0A4808BF18467047094870470948D1
:100C4800704709487047094870470948704709487C
:100C5800704700BF2C010020DD4F0008D34F00086B
:100C68007C4F0008914F0008964F0008A04F0008DD
:100C7800A94F0008CA4F0008134A936843F48053E9
:100C88009360124B5A6F42F001025A67104A596F2B
:100C9800890701D4013AFAD15B6F9B0713D50D4B35
:100CA80045F255521A6004225A604FF47A729A60DB
:100CB800074AD96809B1013AFBD14AF6AA221A6053
:100CC8004CF6CC421A607047002004E0003802401D
:100CD800A186010000300040024B4AF6AA221A60A1
:100CE800704700BF00300040114B1A6B42F0010200
:100CF8001A635A6C42F010025A645B6C0D4B1A6806
:100D080022F470121A601A6842F420121A605A6AA1
:100D180022F47F625A625A6A42F4EE625A62A3F57A
:100D2800704340F2D9229A6042F20C02DA607047AE
:100D38000038024000000240024B1A681206FCD537
:100D4800586070470010014008B5411E11F8010FA6
:100D580000B908BDFFF7F0FFF8E77FB528B93020E4
:100D680004B0BDE87040FFF7E7BF01AB00211E46A5
:100D78000A24B0FBF4F504FB1502303203F8012B0A
:100D88000246092A01F10101284601D90A29F0D1B0
:100D98000139705CFFF7D0FF0029F9D104B070BDAC
:100DA80010F0040F08B5014614BF31203020FFF7BA
:100DB800C3FF11F0020F14BF31203020FFF7BCFF32
:100DC80001F00100BDE808403030FFF7B5BF000072
:100DD8003C4A136B43F002031363136B3A4B1968D5
:100DE80021F470211960196841F42021196099686B
:100DF80041F470219960596A21F0FF015962596ADA
:100E080041F099015962136C43F000731364136C39
:100E18002E4B1A6822F002021A601A6842F0010288
:100E28001A602B4A5968C90703D4013AFAD101203C
:100E380070471A68274942F040021A60264A00287B
:100E480008BF0A46DA61D3F80022214842F00102BD
:100E5800C3F80022D3F81C2222F00102C3F81C2296
:100E6800D3F80C2242F00102C3F80C22D3F8042272
:100E780022F00102C3F804220022C3F84022C3F87A
:100E88004422D3F8142222F00102C3F81422D3F822
:100E98001C2242F00102C3F81C22D3F8002222F0DF
:100EA8000102C3F800221A6822F001021A60074BF7
:100EB8005A68D20701D50138FAD1B0FA80F0400952
:100EC80040007047003802400004024000640040BF
:100ED80040420F0005001A0005001AC0082AF0B5A4
:100EE80024D8154B9B685B0123D500231E461F465B
:100EF800DCB2A2420DD8104B400540F00100C3F807
:100F08008421C3F88871C3F88C61C3F8800100207C
:100F1800F0BD032BCC5C4FEAC3058BBF203DAC4032
:100F2800AC40274388BF26430133E1E74FF0FF3049
:100F3800EEE76FF00100EBE70064004070B5184C75
:100F48000546E06810F0030018D0D4F8B031D4F8A2
:100F5800B401D4F8B861D4F8BC410DB15B0D2B8055
:100F680000F00F00082828BF082002B11070A9B9A6
:100F78000B4AD36843F02003D360012070BDD3002F
:100F8800032A8ABF203B26FA03F324FA03F3DBB2D1
:100F98008B540132D3B29842F1D8E9E70022F9E73D
:100FA80000640040082AF0B524D8154B9B685B0103
:100FB80023D500231E461F46DCB294420DD3104BA6
:100FC800C00040F00500C3F88421C3F88871C3F855
:100FD8008C61C3F880010020F0BD032BCC5C4FEA84
:100FE800C3058BBF203DAC40AC40274388BF264398
:100FF8000133E1E74FF0FF30EEE76FF00100EBE778
:1010080000640040F0B51B4E0746F06810F003007E
:1010180011D0D6F8B031D6F8B441D6F8B851D6F8D0
:10102800BC6113F0040FC3F3800005D1114AD368E3
:1010380043F02003D360F0BD0FB1DB083B6004F040
:101048000F04082C28BF082402B114700029EDD021
:1010580000220AE0D300032A8ABF203B25FA03F3C3
:1010680026FA03F3DBB28B540132D3B29C42F1D897
:10107800DCE700BF006400401FB50120FFF7A8FEB1
:1010880050BB45F6A523022201A940F22310ADF872
:101098000430FFF723FF044600BB1B4B1B4AD168F3
:1010A80089071FD1013BFAD10324204604B010BDA3
:1010B800BDF8062040F223139A4211D19DF803305F
:1010C800022B0DD19DF80830A52B09D19DF80930C8
:1010D8005A2B18BF0524E8E70124E6E71446E4E79D
:1010E8000524E2E700230DF1030202A90DF1060031
:1010F800CDE90233ADF806308DF80330FFF71EFF57
:101108000128D5D00424D0E740420F0000640040F5
:10111800064B5A69510542BF5A6922F480625A61E6
:101128005A69920748BF9B69704700BF0054004046
:10113800024A136843F40073136070470054004078
:10114800074B084A40F480605169084204D1013BCA
:10115800FAD14FF0FF307047506940F38020704754
:10116800A086010000540040064B074AD2F8141428
:10117800014201D1013BF9D1B3FA83F04009404261
:10118800704700BFA0860100005000401D4B1A6B3D
:1011980042F002021A631A6C42F400121A641B6CC1
:1011A800194B1A6822F470421A601A6842F42042F5
:1011B8001A605A6842F0C0025A609A6842F4704253
:1011C8009A60DA6822F47042DA60DA6842F4A0427F
:1011D800DA601A6A22F07F421A621A6A42F088427A
:1011E8001A62A3F5D8334FF400421A6000221A603D
:1011F8002A225A60D222DA612B221A6201221A604C
:10120800704700BF003802400004024008B5094B8F
:1012180009481A6842F400721A609A69920701D55F
:101228000138FAD1FFF774FF18B9BDE80840FFF795
:10123800ADBF08BD00540040A086010070B5184D30
:101248000C46FFF765FFAB6903F00303022B064664
:1012580001D1FFF79BFF2B6843F480732B600120BB
:10126800FFF782FF002804DAFFF7D0FF4FF0FF30C6
:1012780070BD44EA4604E4B20A4B094A2C6140F2C4
:1012880002415069084206D1013BFAD1FFF7BEFF7F
:101298006FF00100ECE7506910F48060E8D0F5E7E2
:1012A80000540040A086010070B50C460021154688
:1012B800FFF7C4FF002816DB0E4EB3692544AC4285
:1012C80008D10420FFF73CFF0028B4BF6FF00200EC
:1012D800002070BD8020FFF733FF002806DB14F8DC
:1012E800013B3361EBE74FF0FF30F2E76FF00100AD
:1012F800EFE700BF00540040F8B50D461746002A36
:1013080000F097804C4C012A23681CD123F44063D9
:1013180023601146FFF792FF002822DB72B6A3690B
:10132800236843F40073236062B64020FFF71CFF74
:10133800002804DAFFF76AFF6FF0040013E023695E
:101348002B7000200FE0022A30D143F44063236061
:101358000121FFF773FF002806DA236823F40063EE
:1013680023606FF00300F8BD72B6A369236823F405
:101378008063236062B60420FFF7F6FE002806DAD1
:10138800FFF744FF236823F400632360D4E772B6B1
:10139800236843F40073236023692B7023696B70FF
:1013A80062B6236823F400632360CAE723F400636A
:1013B8002360236843F4806323600121FFF73EFF25
:1013C8000028CEDBA3690026BB1B032B09D8042009
:1013D800FFF7CAFE00280DDAFFF718FF6FF00500C7
:1013E800C1E74020FFF7C0FE0028A3DB2369AB5507
:1013F8000136E9E7104C236823F4806323602369EE
:10140800AB550420FFF7B0FE002806F1010704DA07
:10141800FFF7FCFE6FF00600A5E772B6236843F4F9
:10142800007323602369EB5535442369AB7062B6BA
:1014380087E74FF0FF3096E70054004008B50021D9
:10144800FFF7FCFE002805DB034B9B69FFF770FEE6
:10145800012008BD0020FCE70054004010B55AB137
:10146800FFF722FF041E03DAFFF7D0FE204610BD67
:10147800FFF75EFE0024F9E74FF0FF34F6E7FFF7C9
:101488003BBFF8B5069F05461E4672B1FFF70CFF35
:10149800041E03DAFFF7BAFE2046F8BD3A46314685
:1014A8002846BDE8F840FFF727BF4FF0FF34F3E7C1
:1014B80073B50D4600211446FFF7C0FE002829DB4E
:1014C800164EB3698DF80450230A8DF806408DF83E
:1014D800053001AD00248020FFF732FE002805DA30
:1014E800FFF794FE6FF0010002B070BD013415F8EB
:1014F800013B3361032CEED10420FFF721FE0028C5
:1015080004DAFFF783FE6FF00200EDE7FFF710FE45
:101518000020E9E74FF0FF30E6E700BF0054004045
:10152800F8B50F46002106461546FFF787FE002846
:101538004CDB284C8020A369FFF702FE002804DA60
:10154800FFF764FE6FF00100F8BD27610420FFF784
:10155800F7FD002804DAFFF759FE6FF00200F3E701
:10156800236843F44063236001213046FFF766FE99
:10157800002806DA236823F4006323606FF0030071
:10158800E2E772B6A369236823F48063236062B636
:101598000420FFF7E9FD002808DAFFF737FE236883
:1015A80023F4006323606FF00400CDE772B6FFF701
:1015B800BFFD2169236962B62268DBB222F40062AA
:1015C80043EA0123226000202B80BDE74FF0FF3063
:1015D800BAE700BF00540040006803F0B2B90068E1
:1015E80003F036B97FB5164604460D46FFF78AFA6A
:1015F800064A0094821841F10003CDE901560449D6
:10160800044802F0D3FC04B070BD00BF40420F0094
:10161800FC090020E80900202DE9F0411546D7080B
:10162800069A00EBD10603EBD20841463A4630460B
:1016380003F060FB15F007050BD00124AC4018F847
:101648000730E4B2621E1340F25D64422240134345
:10165800F355BDE8F0812DE9F04311F0070F079D20
:1016680007460E469C4604D10795BDE8F043FFF7B0
:10167800D3BFAA184FF0010E954201D3BDE8F083FD
:1016880005F0070806F00709C84541464FEAD504A2
:1016980038BF4946C1F10801531BF0081CF8044043
:1016A800994228BF194644FA08F43B5C0EFA01F83F
:1016B80004FA09F408F1FF385C4008FA09F804EA6A
:1016C800080463403B540D440E44D5E72DE9F0412E
:1016D800D400A342069D94BFE41A241BAC4205F132
:1016E800070228BF2C46D208984606460F46A2EBAA
:1016F800D402002100EBD40003F016FBCDF81880CB
:101708003B46224630460021BDE8F041FFF7A3BF23
:101718001FB5CC00944294BF241BA41A102C034676
:101728004FF0000100920DF10E00224628BF102252
:10173800ADF80E10FFF78FFFBDF80E0004B010BD16
:1017480007B58DF8000001208DF801008DF8041010
:101758008DF805206846DDE90421ADF80230FFF771
:1017680041FF03B05DF804FB70B50446D0E90410EE
:10177800ADF5047D08B931BB14480022FFF7C8FF56
:101788004FF482720546002143A803F0CDFA28469B
:1017980043A900F0FBFC839DFF2D14D803AE002362
:1017A800EA008DF80C500093082143AB3046013510
:1017B800FFF732FFCDE9006540F2811362792179A4
:1017C8002078FFF7BDFF0DF5047D70BD674E00085A
:1017D800F0B54FF4A872ADF5297D002105460DEB53
:1017E800020003F0A1FA01231022002158A88DF865
:1017F80050318DF852318DF8553103F095FAFFF7D5
:101808005DF900286FD0FFF75FF90246006851685C
:1018180058AB03C3127A1A703C4B1C682046FEF77B
:1018280047FE32280246214628BF32225CA8699228
:1018380003F0ACFA549B0593BDF85431ADF8183059
:10184800DDE956230026CDF81A20CDF81E30009683
:1018580058AB8022702105A8FFF7FDFE699C322C49
:101868003ED88DF83240E4005CAB00962246F82161
:1018780005A8FFF7F0FE6C9F012F04F1F8032FD89D
:10188800DB0805AA04F58074D754BF013A462146FF
:1018980000966AAB05A8FFF7DEFE3C44A69FDE2F44
:1018A8001ED8E30805AA0834D754FF006EAB3A46A1
:1018B800214605A80096FFF7CEFE2B788DF80C3050
:1018C80001238DF80D30E1194FF4D773ADF80E30C0
:1018D80005AAAB88ADF81030C90803A8FFF782FE47
:1018E8000DF5297DF0BD0A490A4854AB51F8042B7F
:1018F8001A74140A5C7481424FEA12444FEA126265
:101908009C74DA7403F10403F0D185E70000002029
:10191800107AFF1F1C7AFF1F2DE9F047D0E9044613
:101928002DED028B0546ADF5CD6D002E75D0E70087
:10193800072F78D80023CDF85034DB0000932246D7
:1019480008233146D4A8FFF7C1FEDDF85024D300A0
:101958000833BB4228BF3B46DB089C4294BF221B8E
:10196800E21AD100072960D800238DF860364CAE02
:101978004FF408720021304603F0D6F90DF10F0438
:101988000023009450AA8DF80E308DF80F300DF515
:101998008B610DF10E03D4A800F010FC9DF80E30F9
:1019A80033729DF80F307372FFF7ACF8C6E9000187
:1019B80096E80300727A0990337AADF82810090C7A
:1019C80009AC8DF82A10E37112B143F00203E371F8
:1019D80000220023CDE9042300230093062204AB50
:1019E8003A212046FFF737FE96F818322372002B6B
:1019F80000F0CB81013B0D2B58D8DFE813F026010E
:101A08002601D8003D014501130126013D0145018C
:101A1800130126013D0145014D01002C46D1AD4E73
:101A28002746234687E7337885E7F018F35C8DF877
:101A38006036002B9BD0013B0D2B37D8DFE803F035
:101A48003C3C074E63203C4E63203C4E6378012AA1
:101A580094BF941A02F1FF34461C002221463046F6
:101A6800FFF756FEB0F5006FCDF858051ED8009068
:101A78001023224631460DF58B60FFF727FE76E7E7
:101A8800012A94BF921A02F1FF32D300072B00F10A
:101A9800010106D80023CDF858351B01009308230F
:101AA800E9E74378CDF85835802BF6D90DF5CD6D9B
:101AB800BDEC028BBDE8F087012A94BF941A02F1AD
:101AC800FF34461C002221463046FFF721FEB0F5C0
:101AD800807FCDF85805E9D8C000C8E7012A94BF2F
:101AE800921A02F1FF32D300072B00F1010104D84A
:101AF8000023CDF858359B01D0E74378CDF8583509
:101B0800202BF8D9D2E7012A94BF921A02F1FF32AA
:101B1800D300072B00F1010104D80023CDF8583574
:101B28005B01BBE74378CDF85835402BF8D9BDE7C2
:101B3800012A94BF941A02F1FF34E300072B00F145
:101B480001072ED80026CDF858663601DFF8A09197
:101B58009FED618ADFED618A0DF58B6808364FF0DD
:101B6800080AB2453FF403AF524621463846FFF70C
:101B7800CFFD09EA403307EE903A67EE887A000411
:101B880017EE903AF4EEE87AF1EE10FAA8BF43F0B7
:101B9800FF4300F00040184348F8040B0AF1100A0C
:101BA800DFE74678CDF85866802ECED97EE7D6F89E
:101BB8001071B7F5006F3FF679AFB6F81031A4F899
:101BC800093000263A461021009650AB0DF12D0041
:101BD800FFF722FD07F1100117F0070713D00022C5
:101BE800C7F108070023CDE90623FAB251FA87F7AF
:101BF800B7F5016F3FF65AAF009606AB0DF12D0011
:101C0800FFF729FD394621F0070208324032D20891
:101C1800CDE900424FF4C0736A7929792878FFF733
:101C28008FFD43E7D6F81061802E3FF63FAF66720E
:101C3800360100230093324650AB08210DF12D00E8
:101C4800FFF7EAFC06F11002E0E7D6F81021B2F53A
:101C5800807F3FF62BAFB6F81031A4F80930D600D4
:101C680000230093324650AB10210DF12D00FFF7F1
:101C7800D3FC06F11802C9E7D6F81061202E3FF60A
:101C880015AF6672B601D4E7D6F81061402E3FF65C
:101C98000DAF66727601CCE7D6F8100280283FF6C1
:101CA80005AF6072DFED0E6A9FED126A9FED0D7A47
:101CB8000D4FDFED0E5A000150AB0830082647F6ED
:101CC800FF7C0DF12D0E86424FEAD60214D1013267
:101CD800D2009BE7674E000800008077000080472D
:101CE800FFFF7F7F00E07F4700F0FF7F0000800755
:101CF80000E0FF0F00E07FC7F3EC017AB0EEE75A8F
:101D0800B4EE665AF1EE10FA0BD8F4EEC67AF1EE9C
:101D180010FA22D4F4EE477AF1EE10FAC8BFF0EECA
:101D2800477A17EE908A28F00041B1F1FF4F17D398
:101D3800C8F31609B9F1000F24D1B1F1FF4F0CBF58
:101D48004FF4F84161464FEA184808F4004841EA60
:101D580008012EF802101036B5E75FED1A7AE0E7B1
:101D680008EA070107EE901A67EEA57A17EE901AAF
:101D780001F58051B1F1786F28BF4FF07861C1F358
:101D88004F31E0E74FF4FC41DDE708223EE700BFB2
:101D98002DE9F047074692B089463848DFF818A180
:101DA800374E4FF48051904602F020FD0AACCAF835
:101DB8000000344A34490AA802F0E6F80FCC354648
:101DC8000FC594E80700DAF80030336085E80700AB
:101DD8003771FEF773FE2D4B2D4D1870082204A89D
:101DE800182104AC02F0DBF80FCC0FC52368294C8E
:101DF8002B600025284B0293CDE9004500234FF4C2
:101E0800D7720221304602F079FC244B0293CDE9C7
:101E1800004540F203234FF4C0720221304602F01D
:101E28006DFC1F4B029302231946CDE9004540F291
:101E38008112304602F062FC1A4B029340F2B31250
:101E4800CDE900454FF496730221304602F056FC66
:101E5800154B41463846C3F8009000F07DF9FEF76F
:101E680051FE124B124AC3E900018018114B41F18F
:101E78000001C3E9000112B0BDE8F087200A002084
:101E8800FC090020E1150008E71500082D010020D5
:101E9800E809002080841E00C00700209805002063
:101EA80070030020480100200000002038010020B5
:101EB80040420F0030010020180A002013B50C46DC
:101EC8000421ADF80010FF218DF804102178ADF839
:101ED80002008DF8051068461946FFF783FB237842
:101EE800013303F01F03237002B010BD2DE9F04346
:101EF800B7B0FEF707FE8C4AD2E900349842A141F8
:101F080049D38A495B1844F10004C2E90034FEF75A
:101F1800F9FD874AD2E90034C01A61EB0401834A0B
:101F28000023FEF74DF9834B1D780646FEF76AFE3F
:101F380085F001058DF864500025044618960027A1
:101F4800002608AB0622022119A80095CDE90867EA
:101F5800FFF781FB0AAB052203210DF1650000950F
:101F6800CDE90A678DF86550FFF775FB724B8DF860
:101F78006640724C1293FF238DF84C3018AA2378D0
:101F88008DF84D30072112A8FFF72CFB2378013379
:101F980003F01F032370FEF7B5FD694DDFF8A48138
:101FA80006460F46284602F097F90446C8B1D4E918
:101FB800062352EA03010CD0B242BB4109D22146A2
:101FC8002846D8F80C9002F08FF901465D48C847BA
:101FD800E8E794F82420A16A206AFEF7E3FF0028C6
:101FE800EDD0584F0DAE0DF11B02314607A8FFF793
:101FF80009F8012817D0544B1B78002B00F091806A
:102008004F4802F069F9002840F08B80BFF34F8FEA
:102018004E494F4BCA6802F4E0621343CB60BFF3EA
:102028004F8F00BFFDE7079B0F939DF81B30CDE94D
:102038001036FEF767FD12AC0023CDE90134039397
:102048000FAB009302460B46384602F05DF90128B3
:10205800C9D19DF84930022B0CD1BDF84A30B3F5EF
:10206800D77F4DD00BD8B3F5C07F4DD040F2811249
:1020780093424DD0FB68179932489847B3E740F22E
:10208800B3129342F6D1DDE9165414B9002DF1D1FB
:10209800304C002229462046FFF73AFBEB00172B6D
:1020A800ADF8600038D800233593DB0000932A464A
:1020B800214619A81823FFF709FBBDF860209DF8F1
:1020C8004C109DF8480000238DF814304FF6FF732C
:1020D8009A420BBF1C4B032301228DF8143008BF12
:1020E8001A709DF814308DF818300123019306AB4F
:1020F80000939DF84D2040F2B313FFF721FBB9E799
:102108002046FFF765FBB5E72046FFF705FCB1E77A
:102118002046FFF729FBADE7A3783593702BC4D988
:10212800A8E737B0BDE8F0833001002040420F0037
:10213800380100202D0100200400551D4001002019
:10214800E8090020FC0900204101002000ED00E022
:102158000400FA05674E000870B50B4C0D46208147
:1021680081B10846FEF7A4F93F2828BF3F2006465C
:102178000246294604F15600344402F007FE0023C3
:1021880084F8563070BD00BF04000020012870B5E7
:102198000D460FD84C235843074B1E583046FEF7C0
:1021A80087F9314604460246284602F0EFFDC5F895
:1021B800004170BD0024FAE7040000202DE9F04733
:1021C800434D2E688146304614460F469846FEF722
:1021D8006FF9D9F800A15045024605D13146484665
:1021E80002F078FD064660B1EE6C3046FEF760F905
:1021F800504528D152463146484602F06BFD10BB87
:1022080001264C20704305EB000999F8053099F830
:102218000420FBB94C2303FB06531B794BB314B1C1
:10222800012384F808324C2707FB06570A3738463B
:10223800FEF73EF9394681460246204602F0A6FDE1
:10224800C4F8009121E00023002C3DD188F800302B
:10225800002321E0002FDDD097F80832002BD9D0D9
:10226800F2B90A2B05D1D7F8003113B13B88A9F888
:10227800083014B10A2384F808324C2303FB0653B0
:102288001B8923800123C4F800314C2303FB065526
:102298006B7988F80030AB79089A1370BDE8F0873D
:1022A800012ABCD1012BBAD1D7F800213F2A28BF77
:1022B8003F2292460A3039462844D14402F066FD4E
:1022C800002389F80A30A5E784F80832BEE700BF82
:1022D80004000020431EDBB2FD2B0AD8052806D0D7
:1022E800012806D1044B142202FB0030704700205D
:1022F800F8E70020704700BF8050000838B5442038
:10230800FFF79CF8064D044618B12B780BB900F07E
:10231800C1F948202C70FFF791F8024B187038BDAE
:10232800381A0020371A002038B50B4604461546DF
:1023380001460722184602F0DDFCA268C0F8072013
:102348000B232B60002038BD2DE9F8431E464B07B0
:102358000C46154640D100EBD104D7083A46314621
:10236800204602F0C7FC15F007030AD001259D405E
:10237800EDB2F35D6A1E1340E25D6D422A401343DD
:10238800E355BDE8F88301F0070804F00709C845DC
:10239800434638BF4B46C3F108036A1A934228BF25
:1023A8001346CA084FEAD40CB25C10F80C7042FA13
:1023B80008F20EFA03F802FA09F208F1FF387A4037
:1023C80008FA09F802EA0802574000F80C701944A4
:1023D8001C448D42D7D8D4E700214FF0010EF8E70E
:1023E80008B51048FEF7B0FCFEF7D0FE00F0F0F993
:1023F80000F036FA0C4B1A6822F040421A60DA688C
:1024080022F04042DA60DA6842F08042DA60FFF790
:1024180075FFFEF777FB054BC3E90001044BC3E9E1
:10242800000108BDA850000800000240281A00203A
:10243800201A00202DE9F0438FB0FEF763FB864A8F
:10244800864F0E46D2E900310546E81A66EB0104CC
:1024580087424FF00000A04180F0E98080481B18B7
:1024680041F10001C2E900317E4B1B780AAC002B18
:1024780055D0002301A902AA68460093019302934C
:1024880000F01CF90146002849D110222046009F7F
:1024980002F04AFCFEF736FB04AACDE90A0107A9B7
:1024A80020460C97FFF740FF002806DB049B6E4987
:1024B80007AA4FF48050FFF701FD102200212046A3
:1024C800019F02F031FCFEF71DFB04AACDE90A01C9
:1024D80007A920460C97FFF727FF002806DB049B77
:1024E800624907AA41F20100FFF7E8FC1022002127
:1024F8002046029F02F018FCFEF704FB04AACDE96F
:102508000A0107A920460C97FFF70EFF002806DBF3
:10251800049B574907AA41F20200FFF7CFFC554B2D
:102528001B78F3B1002302A8029300F01DF90146BD
:10253800B8B910222046029F02F0F6FBFEF7E2FA35
:1025480004AACDE90A0107A920460C97FFF7ECFE7B
:10255800002806DB049B484907AA41F20300FFF75D
:10256800ADFC464B1F69FEF7CDFACDE90A0194E8A8
:10257800030087F40047ADF82010C7F3C037090CF3
:1025880007908DF822104FF000084FF0000902ABB9
:1025980006223A2107A847F00207CDE902898DF8FB
:1025A8002370FFF7D1FE082307AA354941F204003A
:1025B800FFF784FCFEF7A6FACDE90A0100F0AEF9B0
:1025C800034694E8030043F00203ADF82010090C19
:1025D80007908DF822108DF82330062204AB3A219B
:1025E80007A8CDE90489FFF7AFFE0823254907AA04
:1025F80041F20500FFF762FC10220021204602F09C
:1026080093FBFEF77FFACDE90A0100F01BF901AA56
:1026180007A920468DED0C0AFFF786FE002806DB89
:10262800019B194907AA41F20600FFF747FC174A20
:102638001748D2E90031ED1A66EB0106854276F1BA
:10264800000606D31B1841F10001C2E90031FFF76B
:1026580055FE0FB0BDE8F083281A00203F420F0056
:1026680040420F00381A0020361A0020351A002080
:10267800341A0020371A0020331A002000000240C4
:10268800321A0020311A0020301A0020201A0020A7
:102698000087930308B544F2271200214420FEF76F
:1026A80007FF002807DBBDE808404FF4006205215A
:1026B8004420FEF7FDBE4FF0FF3008BD73B50D4650
:1026C8001446064698B10DF1060202214420FEF791
:1026D80027FF002839DBBDF806309FED207A07EE8A
:1026E800903AF8EE677A67EE877AC6ED007A9DB180
:1026F8000DF1060204214420FEF712FF002827DB13
:10270800BDF906309FED167A07EE903AF8EEE77AB3
:1027180067EE877AC5ED007A14B9002002B070BD63
:102728000DF1060203214420FEF7FAFE002812DB11
:10273800BDF806309FED0B7A07EE903AF8EE677A0F
:1027480067EE877AC4ED007AE7E74FF0FF30E5E7F8
:102758006FF00100E2E76FF00200DFE70AD7A33A63
:1027680017B7D1370AD7233A13B504460DF1060235
:1027780000214820FEF7D4FE002812DB14B90020FF
:1027880002B010BDBDF90630DFED076ADFED077A4C
:1027980007EE103AB8EEC77AE7EE267AC4ED007A6B
:1027A800EDE74FF0FF30EBE70000003C3393884340
:1027B800054B5A69D20406D54FF480525A61034A30
:1027C8001368013313607047003C01403C1A002035
:1027D800174B1A6B42F002021A635A6C42F4804299
:1027E8005A645B6C134B1A6822F040721A60DA68FC
:1027F80022F04072DA60DA6842F08072DA600E4ADB
:10280800536923F00F0343F0010353610B4B1A681C
:1028180042F480521A60DA6842F48052DA609A68A8
:1028280022F480529A60064B4FF480725A607047C7
:10283800003802400004024000380140003C0140DA
:1028480000E100E0044BDFED057A93ED000AB8EEF5
:10285800400A20EE270A70473C1A002000A00C45C9
:10286800184B1A6B42F005021A635A6C42F48072D4
:102878005A645B6C144B4FF000729A611A6822F428
:1028880040221A601A6842F480221A605A6822F4B8
:1028980000725A60DA6822F44022DA600B4A136840
:1028A80043F4407313600A4BDA6842F4E042DA609A
:1028B8000022DA620E225A639A6842F001029A6094
:1028C800704700BF00380240000002400008024084
:1028D8000020014008B50E4B4FF400729A610520A4
:1028E800FEF704F90B4B1A6822F002021A609A6884
:1028F80042F080429A60084A1968890701D4013A6F
:10290800FAD1D86C024B4FF000729A6180B208BDC0
:102918000000024000200140A086010008B5FFF732
:10292800D9FFB0F5006F2CBF0020012008BD0000C2
:102938002DE9F84307464420FEF780FD0646762039
:10294800FEF77CFD04466220FEF778FDDFF8509024
:10295800054634B199F800401CB900F051FCC44355
:10296800E40FDFF840804DB198F8005035B9094BB5
:102978003946188801F02EF8C543ED0F064B89F843
:1029880000401E7088F800500CB9044B1C70BDE85C
:10299800F88300BF9C0000207C1A0020581A0020F1
:1029A8007B1A00207A1A002038B50B4604461546D3
:1029B80001460722184602F09DF9A268C0F80720D0
:1029C8000B232B60002038BD30B52DED028B102273
:1029D80089B004460D460DEB02000021B0EE408A96
:1029E80002F0A2F9FEF78EF86A46CDE9040101A9C2
:1029F80004A88DED068AFFF7D7FF002805DB009BAA
:102A080001AA29462046FFF759FA09B0BDEC028B06
:102A180030BD30B52DED028B102289B004460D462D
:102A28000DEB02000021B0EE408A02F07DF9FEF7BE
:102A380069F86A46CDE9040101A904A88DED068A62
:102A4800FFF7B2FF002805DB009B01AA29462046B4
:102A5800FFF734FA09B0BDEC028B30BD30B52DED6F
:102A6800028B102289B004460D460DEB02000021AE
:102A7800B0EE408A02F058F9FEF744F86A46CDE90C
:102A8800040101A904A88DED068AFFF78DFF00282F
:102A980005DB009B01AA29462046FFF70FFA09B07B
:102AA800BDEC028B30BD00007FB5FEF76FFB012047
:102AB800FFF73EFF6348FEF747F96348FEF744F91E
:102AC800624B1B78002B00F0AF80002302A8029312
:102AD80000F066FB002840F0A3805D48FEF734F95B
:102AE8000298FEF73AF95B48FEF72EF95A48FEF7C6
:102AF8002BF95A4B1B78002B00F0988000F04EFC05
:102B0800574A584B00280CBF10461846FEF71CF9C8
:102B18005548FEF719F90A20FEF71FF95348FEF742
:102B280013F95348FEF710F9524B1B78002B00F0AD
:102B38008680514800220023CDE90223FEF704F9DC
:102B480002A801F093F858B94C48FEF7FDF803982D
:102B5800FEF703F93A20FEF7EFF80298FEF7FDF8C2
:102B6800002301A8019301F06FF8D0BB4448FEF799
:102B7800EBF8DDED017A9FED437A67EE877AFDEE9B
:102B8800E77A17EE904A002C03DA2D20FEF7D4F8E6
:102B980064424FF47A76B4FBF6F52846FEF7DDF882
:102BA8002E2006FB1544FEF7C7F86420B4FBF0F0AE
:102BB80030300A25C0B2FEF7BFF8B4FBF5F6B6FB15
:102BC800F5F005FB10603030C0B205FB1644FEF787
:102BD800B3F804F13000C0B2FEF7AEF82A48FEF7A9
:102BE800B3F800230DF103010DF102008DF8023056
:102BF8008DF8033001F04EF828B99DF80230BBB9C2
:102C08002248FEF7A1F81348FEF79EF8FDF77AFF71
:102C18001F4BC3E900011F4BC3E9000104B070BD9D
:102C28001D48FEF791F85EE71C485DE71C4876E70B
:102C38009DF803300BB11B48E3E71B48E1E71B484D
:102C4800E2E700BF195100082D5100087C1A002046
:102C580040510008654E0008955100087B1A002075
:102C6800F3500008DB500008A8510008BA510008CA
:102C7800F65100087A1A0020095200084751000846
:102C88001152000800007A441D520008355200080D
:102C9800681A0020601A0020515100087951000874
:102CA800BF510008595200088B520008BA52000858
:102CB8002DE9F04F2DED028B95B0FDF723FFBB4AB0
:102CC800BB4EDFF85C830F46D2E900310546E81AAF
:102CD80067EB010486424FF00000A04180F03D817F
:102CE800B4481B1841F10001C2E90031B24B1B780E
:102CF800002B40D000230EA90AA80A930E9300F0D7
:102D0800F7F9002837DBDDED0A7A9FEDAC0AAC4B0A
:102D1800AC49C3ED007A37EE800A41F21000FFF7A4
:102D280053FEA9499DED0E0A41F21100FFF771FE0D
:102D3800DDED0A7A9FEDA57A9FEDA50A9DED0E8A35
:102D480027EE800A77EE877A80EE270A01F08EFE5A
:102D5800A04941F21200DFEDA07A20EE270AF7EE33
:102D6800007A77EEC87A20EE270ADFED9C7A20EE0B
:102D7800270AFFF773FE9A4B1B78002B42D00024DA
:102D88000DF10B008DF80B4000F0DCFEA04239DBA2
:102D98009DF80B30002B35D0002305AA04A903A801
:102DA80003930493059300F0EBFEA0422ADB102264
:102DB80021460EA8039E01F0B7FFFDF7A3FE06AA61
:102DC800CDE90E010AA90EA81096FFF7EDFDA04265
:102DD80006DB069B83490AAA41F21300FFF76EF847
:102DE8009DED040ADFED757A7F4930EE270A41F23E
:102DF8001800FFF7E9FD9DED050A7C4941F219002D
:102E0800FFF707FE7A4A98F800301278002A00F097
:102E1800A480002B6CD0774BD3E90023954277EB45
:102E28000303C0F09F80002114220EA888F8001028
:102E380001F07AFF0EA800F063FB0028C0F2928030
:102E48009DED0F0A6C4941F21400FFF707FEDFED14
:102E58005B7A9DED0E0A694930EE270A41F21600A9
:102E6800FFF7B2FD9DED100A654941F21700FFF723
:102E7800D0FD644B1B78EBB1119E9DF84840FDF7DF
:102E880041FECDE90A01DDE90A014FF4A073ADF86E
:102E98001C10090C06908DF81E10ADF823305A4905
:102EA800CDF81F600E2306AA41F215008DF82540C3
:102EB800FFF704F89FED557ADDED0F6AC6EE877AC5
:102EC800B6EE007A77EE877AFCEEE77A17EE903A5C
:102ED8009CB2A4F59673B3F5487F43D84C4E33881B
:102EE800A3423FD03E4B1B78002B53D1348039E0AE
:102EF800FDF708FE0E464749DFF828A1D1E900236F
:102F08000446B4EB020B66EB0309D34579F10003E1
:102F18002B4A2CBF0123002392ED000A0193184687
:102F280000F058FA002818DBD345019B354A79F19F
:102F3800000928BF3749137018464FF0010228BF0F
:102F4800C1E9004688F8002000F030FA294B4FF418
:102F58007A72E0FB0246C3E9004698F80030002B7D
:102F68007FF459AF2C4A2D48D2E90031ED1A67EBAE
:102F78000107854277F1000712D31B1841F10001C0
:102F88000020C2E9003115B0BDEC028BBDE8F04F5E
:102F9800FFF7CEBC204600F047FE0028E2D1A5E7A7
:102FA80015B0BDEC028BBDE8F08F00BF681A002099
:102FB8003F420F0040420F007C1A002033938843A1
:102FC800A0000020791A0020781A0020CD4C6D430B
:102FD800F6288A41771A0020145C1C3F00007A44C6
:102FE8007A1A0020761A0020711A0020701A002020
:102FF8007B1A0020501A0020751A0020731A00202E
:10300800721A0020481A0020741A00200000C842D2
:103018009C000020401A0020601A002000879303BB
:10302800581A00208096980030B502460144FF20C7
:103038008A4200D130BD12F8013B0824584045B2FD
:103048004300002DD8B2B8BF80F03100013CF6D162
:10305800EEE72DE9F04102EB420805460F4614461B
:1030680080440646464505D10023A3420ED10020E0
:10307800BDE8F081304602210336FFF7D5FF16F888
:10308800013C8342EED04FF0FF30F1E703EB4302FF
:10309800AA5A52BA27F813200133E6E730B585B0AB
:1030A8000D468DF8070014460DF107010122442052
:1030B800FEF7D4F9002815DB2846FDF717FD062290
:1030C80002A94420FEF7DBF900280EDB0222214684
:1030D80002A8FFF7BEFF0028B4BF6FF0030000206E
:1030E80005B030BD6FF00100FAE76FF00200F7E7B6
:1030F80037B505460C4601AA0A21FD20FFF7CEFF89
:10310800002834DBBDF80630DFED1F7A9FED1F6A1B
:1031180007EE103AB8EE477A27EE277AC7EE067A16
:10312800B1EE087A77EEC77AF5EEC07AF1EE10FACA
:103138001FD49FED177AF4EE477AF1EE10FAC8BF64
:10314800F0EE477A8DB1BDF80430DFED126A07EE74
:10315800103AB8EE477A27EE267AC7EE066A9FED50
:103168000E7A36EEC77A85ED007A2CB9002003B0C6
:1031780030BDDFED0A7AE5E7DFED056A87EEA67A6E
:1031880084ED007AF2E700BF0000FA4200FF7F47B3
:103198000000C84200002F43000034420000000035
:1031A80013B5044601AA01218920FFF777FF0028FB
:1031B80001DB14B9002002B010BDBDF80420BDF831
:1031C800063043EA02432360F4E71FB50B468DF847
:1031D8000F0000920DF10F0101227620FEF751F940
:1031E80005B05DF804FB07B502228DF804008DF8E0
:1031F8000510762001A9FEF731F903B05DF804FB4C
:1032080010B58CB0002401220DF10301D0208DF8F7
:103218000340FFF7DAFFA042C0F2A7809DF8033011
:10322800612B40F0A580B621E020FFF7DCFFA0422B
:10323800C0F2A1800A20FDF759FC56490122F0206E
:10324800FFF7C3FFA042C0F29980172201A98A2084
:10325800FFF7BBFFA04203DA6FF004000CB010BD0B
:103268000E220DF11B01E120FFF7AFFF0028F3DB71
:1032780005220DF129012046FFF7A7FF0028EBDB07
:10328800454BBDF823201A80BDF804205A809DF8CC
:1032980006201A71BDF80820DA80BDF80A201A81C4
:1032A8009DF80C209A72BDF80E209A81BDF8102066
:1032B800DA81BDF812209DF81D0052BA1A82BDF8B5
:1032C80016205A82BDF818209A829DF81A209A75FD
:1032D8009DF81C2002F00F0141EA001119839DF8A6
:1032E8001B10120942EA01125A83BDF81E209A8364
:1032F800BDF82020DA839DF8222083F820209DF84D
:10330800272083F82120BDF825205A849DF82820FD
:1033180083F824209DF82B20C2F3011283F825207E
:103328009DF8292083F826209DF92D202146121189
:10333800742083F82720FFF756FF002821DB01219E
:103348007220FFF750FF00281EDB21467520FFF78B
:103358004AFF00281BDB54217420FFF744FF002894
:10336800B4BF6FF00800002078E74FF0FF3075E732
:103378006FF0010072E76FF002006FE76FF0030073
:103388006CE76FF0050069E76FF0060066E76FF01D
:10339800070063E7841A0020861A0020024B187879
:1033A800431E584258417047841A002000284AF2A8
:1033B800762249F6251314BF134600204FF47A727B
:1033C80018BF962003F5FA73B3FBF2F301331844E0
:1033D8007047000007B50146002865D03F4BDFED78
:1033E800406A93F92120DFED3F7A9FED3F6A9FED18
:1033F8003F5A07EE102AB3F92220B8EEC77A5A20AE
:10340800E7EE267A07EE102ADFED396A93F92420D1
:10341800BAEEE87AA7EE266AF7EE006A07EE102AF7
:10342800F0EE665AE6EE055A93F8252093F9263011
:10343800BAEECB7AB1EE006A20EE070AA7EEA50A2B
:1034480007EE902AF8EE677AF0EE665A77EE867AFB
:1034580086EE277A07EE903A9FED266AF8EEE77A2D
:1034680027EE007AE7EE865AFBEE097A86EEA56A21
:10347800E7EE067A9FED207A67EE877AFCEEE77A28
:10348800CDED017A9DF80410FFF7ADFE00281CDB96
:1034980065216420FFF7A7FE002819DB174B1B786E
:1034A800012B14BF102120217120FFF79CFE00285A
:1034B80011DB55217420FFF796FE0028ACBF0020D1
:1034C8006FF0030003B05DF804FB4FF0FF30F9E73D
:1034D8006FF00100F6E76FF00200F3E7861A0020AC
:1034E8000000803D0000444275021A3B0000A043E2
:1034F8006F12033A6F12033B9A995940841A0020BD
:103508002DE9F04387B00446112201A91D20FFF7D9
:103518005CFE0028C0F2D8819DF90430002B80F2AF
:10352800D6819DF80A309DF809209FEDEA6A9FED43
:10353800EA7ADFEDEA6ADFEDEA3A9DF806609DF87F
:1035480007709DF80800BDF80CE01B0143EA023340
:103558009DF80B2043EA121307EE903AE14BE24A3A
:10356800B3F8008092F800C005EE908AB3F90280A3
:10357800F8EE655AF8EEE77A04EE908A26EE656A68
:1035880093F9048027EE657AA7EEA66ABCF1010FCD
:103598000BBF9DF814109DF812109DF813509DF85C
:1035A8001150A7EEA37A8A0942EA850207EE908AAB
:1035B800F8EEE77AB3EE005A67EE857A27EE077AD7
:1035C800F8EEE44A67EE877ADFF87083E6EE247A4D
:1035D80001F00F05C8ED007A1CB9002007B0BDE85E
:1035E800F083B3F90C909FEDC14A9FEDC17A9FED2E
:1035F800C12A93F9108001EE909A93F90A90F6EE99
:10360800004AA7EEA44A06EE109AB3F90890C7EE4E
:10361800875AB8EEC66A07EE109A26EE046AB8EE24
:10362800C77A26EE046A27EE047AB3F80690C4ED4A
:10363800005AA6EE267A9FEDB06A27EE067AB7EE14
:10364800006AB0EE463AA7EE023A02EE909AF8EE19
:10365800622A07EE908A62EE832AB3F90E80F5EEAD
:10366800402AF1EE10FA00F0C780000940EA07107E
:1036780040EA063007EE100A9FEDA03A987DB8EEB2
:10368800C77AF8EEE77A33EE477A67EEA37A24EE44
:10369800043AF8EEE11A67EE837A03EE108AB8EE80
:1036A800C33A23EE044AB0EE003AE4EE037AB5EEEC
:1036B800004A67EE847A9FED924AE1EE847A9FEDA4
:1036C800914AA7EEC47ADFED907A67EE277A87EE03
:1036D800A27ADFED8E7ADFED8E2A67EE277A27EE63
:1036E800A73A23EE273A07EE900AB3F91400F8EE4A
:1036F800677A04EE100AB3F9120067EEA33A07EEF0
:10370800900AB8EEC44AF8EEE77A24EE074A67EE64
:10371800827A24EE074A67EE877A93F91100E4EE7D
:10372800227A04EE100AE3EE237AB8EEC44ADFEDFB
:10373800793AE4EE237A9FED784AA7EE847A9EFAE6
:103748009EF080B284ED017A07EE100A188B04EE21
:10375800100A93F91C0007EE900AF8EEE77AB8EE23
:10376800444A67EEA47A588B67EEA57AB8EE477A92
:10377800E4EE057AF0EE464A37EE677A07EE900AED
:1037880093F91D0005EE100AB8EEC55A93F91E000C
:1037980025EE265AFBEEC77AE5EE854A05EE100AB5
:1037A800BAEEC65AD87F25EE255AE5EE854A05EECB
:1037B800100A67EEA47A93F9200067EE877A07EE7D
:1037C800100ABAEEE57AB8EE455A27EE257ADFED0B
:1037D800535AA5EE267A27EE877AE7EE877AF4EE33
:1037E800E57AF1EE10FA0ADCF5EEC07AF1EE10FA9D
:1037F80007D5DFED4B7A04E09FED497A9FE7F0EEBD
:10380800657A87EEA57ABCF1010F84ED027A1ED1A4
:103818004FF48023EB4007EE903A9FED427AF8EEA2
:10382800E77A02EB420202F5206267EE877A07EE3A
:10383800102AB8EEC77AC7EE876A01F03001A1F105
:103848003003594259412174C4ED036AC5E6012089
:10385800A84007EE900A93F927309FED337AF8EEE7
:10386800E76A07EE903AF8EEE77AB1EE045A2F4B82
:10387800A7EE857A03EB850307EE902A9FED2C5A75
:10388800D3ED004A2B4BF8EE677A03EB850377EE0E
:10389800C57A84EEA55A35EE065A25EE075A87EE04
:1038A800857A93ED005AC5EE257ADFED235A77EE37
:1038B800867A37EE067A67EEA57A67EEA67A67EE1D
:1038C800277AC6EE276AB8E74FF0FF3086E66FF032
:1038D800010083E60000803A0000003900008038CB
:1038E80000000037861A0020841A002000007AC7DA
:1038F8000000A045000000380000003600008049A4
:1039080000008047000080390050C3450000803B1C
:1039180000000030000000430000803D0000C84265
:1039280000000000002474490080A74410530008D8
:1039380000000044D0520008BD370634801A002029
:1039480007B549BAADF8021040BA0221ADF8000037
:103958000DEB0100FFF768FB05228DF804006946AE
:103968006220FDF77BFDC01703B05DF804FB07B5C7
:1039780040BAADF80400022201A96220FDF76EFDED
:10398800C01703B05DF804FB7FB50D46144602EB83
:103998004206FFF7ECFF002815DB0220FDF7A6F82A
:1039A800324601A96220FDF76AFD00280EDB224697
:1039B800294601A8FFF74DFB0028ACBF00206FF097
:1039C800030004B070BD6FF00100FAE76FF0020069
:1039D800F7E700002DE9FF47DFF85CA1DFF85C910D
:1039E800DFF85C814E4F0024054643F686700E468C
:1039F8008AF8004089F8004088F800403C70FFF7DA
:103A0800B6FFA0427CDB4FF4FA70FDF76FF8032293
:103A180002A943F282600294ADF80C40FFF7B4FFAC
:103A280068B9BDF80A00BDF80C303E4ABDF8081068
:103A380043EA0043C2E9003101238AF80030012239
:103A480002A942F21830FFF79FFF98B9BDF8083075
:103A58009FED357ADFED356A07EE903AF8EE677A32
:103A6800334B67EE877A87EEA67A83ED007A0123D7
:103A780089F800304FF0000901220DF1060142F2E9
:103A88001330ADF80690FFF77FFF48453BDBBDF8E4
:103A980006304B45274B14BF01224A464FF001041C
:103AA8001A7088F8004015D0494642F21640FFF7D0
:103AB80047FF48452ADB0220FDF718F856B143F2C4
:103AC8001560FFF754FF484523DB4FF44870FDF7B6
:103AD8000DF83C7029464FF46040FFF731FF00288D
:103AE8001ADB0220FDF702F842F2B110FFF73FFFA0
:103AF8000028B4BF6FF00500002004B0BDE8F087CF
:103B08004FF0FF30F9E76FF00100F6E76FF00200C1
:103B1800F3E76FF00300F0E76FF00400EDE700BF94
:103B2800AE1A0020B81A002000002F4300FF7F477C
:103B3800B41A0020AF1A0020B21A0020B11A0020CF
:103B4800B01A002013B50023044601220DF1060126
:103B58004EF2B840ADF80630FFF716FF00280CDB30
:103B680014B9002002B010BDBDF80630C3F30A0333
:103B7800003B18BF01232370F3E74FF0FF30F1E754
:103B880073B506460D461446694603224EF60540AF
:103B9800FFF7FAFE00283BDB5EB1BDF800309FED71
:103BA8001E7A07EE903AF8EE677A67EE877AC6EDE6
:103BB800007A9DB1BDF802309FED187ADFED186AE2
:103BC80007EE903AF8EE677A67EE877A87EEA67A7C
:103BD800DFED147A77EE677AC5ED007A14B9002024
:103BE80002B070BDBDF80430DFED0D6A07EE103A83
:103BF800B8EE477AC7EE267AB7EE007AF4EE477A3F
:103C0800F1EE10FAC8BFF0EE477AC4ED007AE6E7A5
:103C18004FF0FF30E4E700BFBD37863500002F4383
:103C280000FF7F4700003442014608B54FF460406A
:103C3800FFF786FE002804DB0220FCF757FF002070
:103C480008BD4FF0FF30FBE7064B1B7833B108B9CE
:103C580000207047044B1B680360F9E74FF0FF3002
:103C6800704700BFB11A0020B41A0020074B1B7818
:103C780043B108B900207047054BD3E90023C0E9D8
:103C88000023F7E74FF0FF30704700BFB21A00205B
:103C9800B81A0020084B1B7853B110B1074B1B789A
:103CA800037009B900207047054B1B780B70F9E7C2
:103CB8004FF0FF30704700BFB01A0020AF1A002045
:103CC800AE1A002030B581F0010400EB84040568C9
:103CD80063684DB1AA68A2EB000CDCF1000242EB6C
:103CE8000C0205EB820253601D60036003EB810345
:103CF8005A68626002B11060586030BD2DE9F04129
:103D08000029037B0CBFFF220122134459B201335F
:103D180003F0FF03022B044643D900294FEAD17868
:103D28006FEA01014FEAD17100EB8103B8BF0125A9
:103D38005E6896F90C30A8BF4FF0FF3513FB05F30A
:103D4800002B10DC4146FFF7BDFF96F90C303BB95C
:103D58006B425BB22373374635733846BDE8F08152
:103D680000252B46F6E706EB880330465F68FFF729
:103D7800A9FF41462046FFF7A5FF97F90C3013FB32
:103D880005F3002B04DA002325733B733373E4E750
:103D98001DBF00236D42237323731CBF3B736BB29B
:103DA800F4E701730746D8E770472DE9F041DDF8DD
:103DB80018800D461E4608F130018368174698475B
:103DC80068B10024C0E90044C0E9067600F1300378
:103DD800846004730461C0F8248083620562BDE8CE
:103DE800F081006A0B6A984234BF4FF0FF3001201F
:103DF800704710B5C3680C46096998470023C4E9A1
:103E0800023323614FF6FF73A382A37D013303F0CE
:103E18001F03A3750123237610BD000002888B8B36
:103E28009A4205D0034A8CBF01230023D05670471D
:103E380000207047505300081C30FFF7EFBF70B5E3
:103E4800D1E901520446002D36D0002A34D010465C
:103E5800034640680028FBD191F90C0018735D6097
:103E68002B601868814222D09D68456005B12860A2
:103E78009A60136000220D681D60DDB1AE68A6EB84
:103E8800010CDCF1000646EB0C0605EB86056B60C1
:103E980082F00101FFF732FF0346006893F90C2016
:103EA800FAB9F8B18268D31A5A425A41F0E718466B
:103EB8000122E0E72360EBE7003A18BF012201EB9B
:103EC80082020868536803B1186058B18268511AB1
:103ED8004A424A4100EB82014B60002BD8D018605F
:103EE800D6E700B9236070BD2DE9F8430568074699
:103EF8008946144698460646316831B14846A04777
:103F08000028336808D11C461BB9B8F1000F0BD143
:103F180000242046BDE8F883CCBF012600260136E0
:103F28001D4603EB8606E7E74846C04704460028D7
:103F3800EED000233060C0E90133056003730DB98A
:103F48003860E6E7A9680B1A594259412846FFF735
:103F5800D5FE90F90C300568002BF0D1002DD8D192
:103F6800EEE7000010B5074C11448A4200D110BD9D
:103F780012F8013B83EA102334F8133083EA002057
:103F880080B2F2E7A453000830B50024FF25C0E949
:103F98000212C0E9044404600571846130BDC0E9BF
:103FA80000120022C0E90222026170472DE9F04F99
:103FB8008FB0CDE90B23DDE9184681468B460029F1
:103FC80000F08681002800F08381002C00F08081B9
:103FD8001A9B13B9002E40F07B81D9F80430072BC7
:103FE8003ED9402B3ED8B54AD35CB54AD35C05933D
:103FF800059B62789BF80410013B0393002A44D187
:104008002379FF2B40F064816588B5F5005F80F067
:104018005F810B0628D445F4C04041EA002023788C
:10402800072B00F2558140EA83630398099386427F
:1040380063790A93D9F80810D9F8002006F101032A
:104048006DD89E48C35C9E48C45C9142A4EB0605AB
:1040580005F1FF3538D36FF002000FB0BDE8F08FDF
:104068000823C4E74023C2E7039B9E4200F2308145
:104078001A9A31464FF6FF70FFF774FF00F07F0081
:1040880040EA052040F0B070C9E7531E012B00F24A
:104098001F8194F904302579002BC0F219816388B7
:1040A800B3F5007F80F014810F0600F111819803A9
:1040B80040EAC510951E6A4240EA01006A4140EA9A
:1040C800026040F00070AAE7DDE90B23099900942B
:1040D8005846FFF76AFE07460028BCD026B11A9951
:1040E8003246303000F052FE06F130002A460021F8
:1040F800384400F019FE0A9B724A3C4463F01F03DF
:1041080084F82F303946704B09F10C00FFF7ECFEAC
:10411800D9F808300133C9F8083001209DE7B01CF0
:10412800079003980344B3FBF0F30B44934292D8EF
:104138001A9A31464FF6FF70FFF714FF0024012347
:104148000490254606940893A046079B434518D833
:10415800069E002D00F0AE80DFF86C81594F09F102
:104168000C05314643463A462846FFF7BDFE3669F8
:10417800002EF6D1D9F808302344C9F80830204673
:104188006BE7079B0999A3EB0802039B934289BF3E
:104198004A4BDDF814A09B18494A84BF5B7812F893
:1041A80003A0CDF800A0DDE90B235846FFF7FDFD7D
:1041B800069B01340746002B63D02861002F70D07E
:1041C80046450AF1FF335ED9A6EB08059D4228BF94
:1041D8001D461A990D932A4607F1300000F0D6FDC6
:1041E8001A9BA8442B4446451A930D9B2DD8AAF137
:1041F800030AAA1CAAEB050A9A4288BF4FF0000AD4
:1042080005F130005246002138440D9300F08CFD32
:104218000D9B6A1C01329A4237D35544AB4214D9DC
:10422800464509D104997A190135090AAB4282F841
:10423800301006F1010808D9464506D27B19049AC0
:1042480083F83020013508F101080A9B089A03F029
:104258001F0343EA4213069AB91A4A424A4143EAFB
:10426800C213079A42453D448CBF0022012243EA0B
:10427800821385F83030089B83F0010308933D468C
:1042880063E706909AE70025B1E704990F48C1F360
:104298000F2130F81110049881EA002189B20491A5
:1042A800B8E73D4654E73146DBF80C3034695846E8
:1042B80098472646002EF6D1CDE600BF5253000897
:1042C80093530008EB3D0008B13D0008A4530008D3
:1042D8006FF00100C1E600BF10B1C368002003B948
:1042E800704718465B68FAE738B50D46044640B192
:1042F80029B10C30FFF7A3FDA368013BA360284652
:1043080038BD0546FBE700002DE9F04F89B09B4614
:104318009DF84C90129B149E14460746002800F006
:10432800B581002E00F0B281002B00F0AF81D3F8E8
:1043380000A0BAF1005F80F0A981D3E90158B8F173
:10434800000F02D1002D40F0A181202200216846F3
:1043580000F0EAFC25B90025284609B0BDE8F08F31
:104368004FEA9A638DF808301AF0007F0AF07F034D
:10437800CDE9004B8DF80C300AF0807240F0CB800C
:10438800002ACAF30C2118BFFF231AF0801FADF8CA
:104398000A108DF80C300CBF01220022FF21013DCC
:1043A800CDE905588DF80D1018F8053003F01F00F9
:1043B8004FEAD31CC3F3801E8DF80E008DF80FC092
:1043C80058B203F0400C8DF810E003F0200EC3F350
:1043D80040138DF81130002ABDD0002805DABEF14F
:1043E800000FB8D0BCF1000F0BD19DF80C30FF2B9B
:1043F800B1D0062D05D8BCF1000FACD00DB90028FE
:10440800A9DAFF2902D03B798B42A4D19DF8090093
:10441800A04A043000230DF10A0107EB8000FFF7E2
:1044280063FD159B804603B11860B8F1000F92D068
:104438009DF90C209DF80C30002AC0F2038108EB8E
:1044480083035C6AF4B99DF80F30DBB1BB682021A7
:10445800384698479DF80C3008EB830358620028CB
:104468006ED0DDE90023C0E90244C0E900234FF61D
:10447800FF7383829DF80E3083750123046180F8F1
:104488001790037600259DF80C3008EB83035C6ACF
:10449800002C3FF461AFDDE90021D4E9000390422C
:1044A80073EB010ED8E904C5D8F818804BD2101A5E
:1044B80061EB0303844575EB030334BF4FF0010C34
:1044C8004FF0000C9DF80E00A37D1B1A9DB2002B27
:1044D800BCBF05F120031BB2BCF1000F08D1E57D7C
:1044E8004D4533D19DF80F5085B3DBB2012B2DD943
:1044F8000023C4E902334FF6FF73A3820123237616
:104508009DF80F30A07584F81790FBB921463846FE
:10451800FFF76FFC1FE7002A14BF022201228DF863
:1045280009201AF4000FCAF38832ADF80A20CAF33A
:10453800C61103D15A1A18BF012230E700222EE70C
:104548006FF002059FE74FF0000CBBE794F817E007
:104558009DF811C0257EA37DCE457FF4FCAEAC4509
:104568007FF4F9AE98427FF4F6AE9DF80F30002B39
:1045780051D1DDE90512A08AFFF7F4FC0025A082DD
:10458800DDE9059AA3684B44A36023693BB9B8F1F8
:10459800000F04D0BB68414638469847206120691F
:1045A800002840D0E36809EB0302904538BFA8EB28
:1045B800030918444A46514600F0E8FBE3684B44B7
:1045C800E3609DF81030002B37D00DB9A38AEBB902
:1045D8009DF80C303371BDF808109DF80E3031800D
:1045E8007371BDF80A207280D4E90023C6E902235A
:1045F800E2682369326173612DB9A3689A1A012AA6
:104608009CBF023B336100232361012521463846C4
:10461800FFF7EFFBA0E69DF81030C4E90021002B5E
:10462800A7D00125ACE7B8F1000FCAD0214638461B
:10463800FFF7DFFB6FF002058EE6237E83F00103B0
:10464800237688E6D8F81830059C9C4228BF1C467B
:104658002146BB68384698470028EBD0DDE9008939
:104668009DF80C20BDF80A10BDF8085032719DF86D
:104678000E20358071807271C6E90289C6E904404E
:104688000699224600F082FB012565E66FF00105D8
:1046980062E600BF253E0008F7B5064648B3022982
:1046A80027D8043100EB8105ADF806200023124A13
:1046B8000DF106012846FFF717FC0446B8B101467C
:1046C8002846FFF7BCFB04F12005002704F5087411
:1046D80055F8041FF36801B1096930469847F36833
:1046E800296830469847A5422F60F1D1012003B0D0
:1046F800F0BD6FF00100FAE7253E00082DE9F84308
:104708000A9F0D4691461E46804610B30FB30229F4
:104718001FD8FFF7C1FF041E18DBDDE908230021BD
:10472800C7E90423BE614FF40072A7F81C9007F193
:104738002400043500F0F8FA074B084A394608EB1C
:104748008500FFF7D1FBB4FA84F464092046BDE87C
:10475800F8836FF00104F9E7B13D0008413E000815
:1047680000B1016001B14860704710B58A68002344
:104778005209012A03F1010418D8D1E9042402B12D
:1047880054614C6904B12261DBB250F823208A429B
:104798000BD10A6940F823203AB901229A40D0F88F
:1047A800803023EA0203C0F8803010BD5208234647
:1047B800DFE710B58A6800235209012A03F10104D2
:1047C80011D8DBB2002450F823200A614C6102B1F1
:1047D8005161012240F823109A40D0F880301343E9
:1047E800C0F8803010BD52082346E6E770B50D4684
:1047F800044628B310F00F0126D1BF2D26D9A03DBD
:10480800C0F88010802200F08FFAB5F1004F28BF61
:104818004FF0004515F01F0614D1C4E92866C4F806
:10482800A85084F8AC6004F1A0012046FFF7C1FF4E
:1048380000220023C4E92256C4E92466C4E92623D9
:10484800204670BD013DE5E70024F9E70C46F7E78F
:10485800F8B505460F4651B3D0F88830103B8B4267
:1048680025D310310A460023012A03F1010020D87C
:1048780007F10F020A40002A18BF0133DBB20126F4
:104888009E4071090A460023012A03F1010013D84A
:104898004A1E0A40002A18BF0133DAB24FF0FF332C
:1048A8009340D5F8802013405C421C4047D100203B
:1048B80035E052080346D7E752080346E4E76408A0
:1048C8001346012C03F10102F9D1DBB2284655F851
:1048D80023402146FFF749FFA368A6609B1B1F2BB7
:1048E8000DD9A0192168836000230373FFF738FFEF
:1048F80001462046FFF734FF2846FFF75AFFD5F850
:104908008C301E44D5F89030C5F88C609E424FF02C
:10491800010388BFC5F8906004F110002373D5F82F
:104928009430BB4238BFC5F8947038B937B1D5E96F
:104938002632013342F10002C5E92632F8BD0023D0
:10494800BFE72DE9F84305460C46002957D0002358
:1049580051F8089C01F8043C51E90476D0F88C30F1
:10496800A3EB0903C0F88C30F6B196F80C8088F0F8
:104978000108002F3CD03B7B83F00103B8F1000F06
:1049880028D09BB131462846FFF7EFFE3946FFF79E
:10499800ECFEB368BA6813444B44B360002344F890
:1049A800083CBB6039680CE0B046E2E7314628466F
:1049B800FFF7DBFEB3684B44B360002344F8083CC0
:1049C80039463046FFF7CCFE31462846BDE8F84365
:1049D800FFF7EFBEA4F110067BB139462846FFF772
:1049E800C4FEBB684B4444F8083CC7F80880D9E7C4
:1049F800B8F1000FDAD1A4F110063146E5E7BDE8B9
:104A0800F8830000034AD2F8883043F47003C2F8F0
:104A18008830704700ED00E0DFF834D0FFF7F2FF90
:104A28000C480D490D4A002302E0D458C450043301
:104A3800C4188C42F9D30A4A0A4C002301E01360D7
:104A48000432A242FBD300F07DF9FBF739FD704731
:104A58000000022000000020F8000020CC550008CB
:104A680000010020F81B0020FEE7000008B52DED2E
:104A7800028BF0EE408A00F039F8B0EE408AB0EED2
:104A8800680A00F029F860B1DFED0F7AF4EEE78AE2
:104A9800F1EE10FA0ADD00F04FF99FED0C8A22239F
:104AA8000360B0EE480ABDEC028B08BDDFED087A62
:104AB800F4EEE78AF1EE10FAF3D500F03DF922237F
:104AC8009FED048A0360ECE71772B1420000807F13
:104AD800B5F1CFC20000000010EE103A23F00040FC
:104AE800B0F1FF4FACBF00200120704710EE102A34
:104AF80022F00043B3F1FF4F02D930EE000A7047AD
:104B08004FEAD27106D1DFED4E7A002918BFB0EE18
:104B1800670A70474B48824202DD002000F0D4B893
:104B2800002A05DA484A934202D9002000F0C6B8A4
:104B3800464A9342F7EE005A52D9454A93424FEA01
:104B4800810234D8434B134493ED007A424B13440B
:104B580030EE477AC1F10102D3ED007A521A37EEEE
:104B6800670A20EE006A9FED3D5ADFED3D6AE6EEEA
:104B7800056A9FED3C5AA6EE865ADFED3B6AE5EEE4
:104B8800066A9FED3A5AA6EE865AF0EE406AE5EEBE
:104B9800466AB0EE006A20EE265A92BB76EEC66AE6
:104BA800C5EE267A37EEC00A35EEC00A7047304B9C
:104BB8009FED307ADFED306A1344D3ED007AE0EEF2
:104BC800077AB0EE407AFDEEE77A17EE902AF8EE13
:104BD800E77AA7EEE67ADFED296A67EEA67ABEE7FE
:104BE800B3F1505F0BD2DFED266A70EE266AF4EE61
:104BF800E56AF1EE10FA02DD30EE250A7047002270
:104C0800AFE736EE666A12F17D0FC5EE066AB8BFE9
:104C1800643277EEE67A77EEC77A75EEE77A17EEC2
:104C2800903AABBF03EBC25303EBC25300EE103A0A
:104C3800DFED147ABCBF00EE103A20EE270A704769
:104C4800000000001772B142B5F1CF421872B13EB0
:104C58009115853FAC550008A45500084CBB31336D
:104C68000EEADDB555B38A38610B36BBABAA2A3ECE
:104C7800B45500083BAAB83F8071313FD1F71737C8
:104C8800CAF249710000800D10B52DED028BB0EE0F
:104C9800408A044600F050F8B0EE480ABDEC028B9A
:104CA800046010BD30B1F1EE407A27EE800A222070
:104CB800FFF7EABFF0EE407AF7E700009FED010A40
:104CC800FFF7F0BF000000109FED010AFFF7EABFF1
:104CD8000000007010B501390244904201D1002053
:104CE80005E0037811F8014FA34201D0181B10BD4D
:104CF8000130F2E7884210B501EB020402D9844280
:104D0800234607D8431EA14208D011F8012B03F807
:104D1800012FF8E7024401468A4200D110BD13F87A
:104D2800014D02F8014DF7E702440346934200D1D2
:104D3800704703F8011BF9E7014B1868704700BF7B
:104D4800A800002070B50D4D0D4C641BA410002662
:104D5800A64209D10B4D0C4C00F026F8641BA41098
:104D68000026A64205D170BD55F8043B9847013688
:104D7800EEE755F8043B98470136F2E7C4550008BA
:104D8800C4550008C4550008C85500080A44914293
:104D980000F1FF3300D1704710B511F8014B03F84B
:104DA800014F9142F9D110BDF8B500BFF8BC08BC5D
:104DB8009E467047F8B500BFF8BC08BC9E467047D1
:104DC80043414E206C6F6F706261636B2073656C3A
:104DD800662D74657374204F4B0D0A0043414E20B5
:104DE8006C6F6F706261636B2073656C662D7465A0
:104DF8007374204641494C0D0A006F72672E696E24
:104E080064757374727967726F772E6E6F64652E2E
:104E1800756E6964656E74696669656400756E6946
:104E280064656E746966696564206D6F64756C6528
:104E3800000D0A496E64757374727947726F772032
:104E48006E6F6465206669726D776172652028638C
:104E5800617272696572204530303031290D0A005F
:104E68006C6173742072657365743A20006D6F64A9
:104E7800756C652D6964207374726170203D2030F3
:104E88006200202D3E2000202D3E20554E494445ED
:104E98004E54494649454420286E6F207065727308
:104EA8006F6E616C69747920636C61696D732074CD
:104EB800686973204944290D0A0041544543433623
:104EC800303820636172726965722049442028492C
:104ED800324332293A200070726573656E742C2053
:104EE800534E3D00202D3E206E6F646520756E691F
:104EF8007175652D69640D0A00616273656E7420B1
:104F08002D3E2053544D333220666163746F72799D
:104F1800205549440D0A0063797068616C207570EA
:104F28003A206E6F64652D696420006E6F2070658D
:104F380072736F6E616C6974793A20736B656C6516
:104F4800746F6E206F6E6C792C206E6F2073656E97
:104F5800736F72207075626C69636174696F6E73C8
:104F68000D0A00303132333435363738394142434F
:104F7800444546004957444720286669726D776161
:104F880072652068616E67290057574447006C6F47
:104F9800772D706F77657200736F667477617265CD
:104FA800004E5253542070696E20286465627567FC
:104FB8002070726F6265206F7220627574746F6EF4
:104FC8002900706F7765722D6F6E0062726F776E51
:104FD8002D6F757400756E6B6E6F776E006F7267EC
:104FE8002E696E64757374727967726F772E6E6F3F
:104FF80064650075617663616E2E6E6F64652E69F7
:10500800640075617663616E2E6E6F64652E6465EB
:10501800736372697074696F6E004D30352D53413A
:10502800464554592028453030303629006F72677C
:105038002E696E64757374727967726F772E6E6FEE
:1050480064652E6D3035004D30312D434C494D414E
:1050580054452028453030303229006F72672E6958
:105068006E64757374727967726F772E6E6F64658C
:105078002E6D30310000000005600000225000084D
:1050880035500008E92300083D24000801610000AC
:105098004F50000863500008B12A0008B92C0008D6
:1050A800646562756720636F6E736F6C6520656EEB
:1050B800647320686572652028504139202D3E2090
:1050C8006C65616B2065786369746174696F6E29BA
:1050D8000D0A0070726573656E742C2076617269B2
:1050E800616E7420424D45363838007072657365BC
:1050F8006E742C2076617269616E7420424D45365B
:1051080038302028616C7465726E6174697665291F
:10511800004D30312073656E736F722070726F624C
:10512800653A0D0A00202055312053485434352063
:1051380020307834343A200070726573656E742CB0
:105148002073657269616C200041434B206275745D
:10515800206E6F2076616C696420616E737765726A
:10516800202D3E204E4F5420616E20534854343534
:1051780000616273656E74202D3E206E6F20542F7F
:1051880052482C206E6F205650440D0A002020559E
:105198003220424D4536387820307837363A20006C
:1051A8002C20676173207363616E20657665727960
:1051B800200020730D0A00616273656E74202D3E15
:1051C80020434F3220707265737375726520666173
:1051D8006C6C73206261636B20746F2031303133E3
:1051E8002068506120284F2D3438290D0A002020CE
:1051F80055332053434434312020307836323A2016
:105208000070726573656E74002C2054206F66669A
:10521800736574200020432028756E63616C696291
:1052280072617465642C204F2D343529002C20417F
:10523800534320616C7265616479206F666620282B
:105248006E6F20454550524F4D207772697465291D
:10525800002C2041534320776173204F4E202D3E70
:10526800206F66662C20706572736973746564209C
:10527800286F6E6520454550524F4D206379636C09
:105288006529002C2041534320776173204F4E201D
:105298002D3E206F666620696E2052414D206F6E4C
:1052A8006C792C204E4F5420706572736973746545
:1052B8006400616273656E74202D3E206E6F20431A
:1052C8004F320D0A0000000000000000000000003E
:1052D8000000000000000000CDCCCC3D3333333F4C
:1052E80000000000CDCC4CBFCDCCCCBD00000000F0
:1052F80000000000000000000000000000000000A6
:105308000000000000000000000000000000000095
:10531800000000000000000000000000000080BF46
:1053280000000000CDCC4CBF0000000000000000D1
:105338009A9999BE000000BF00000000000080BFDD
:105348000000000000000000FF0100010203040546
:10535800060708090909090A0A0A0A0B0B0B0B0CAC
:105368000C0C0C0D0D0D0D0D0D0D0D0E0E0E0E0E63
:105378000E0E0E0E0E0E0E0E0E0E0E0F0F0F0F0F40
:105388000F0F0F0F0F0F0F0F0F0F0F000102030466
:10539800050607080C1014182030400000002110E2
:1053A800422063308440A550C660E7700881299187
:1053B8004AA16BB18CC1ADD1CEE1EFF1311210022F
:1053C80073325222B5529442F772D66239931883D7
:1053D8007BB35AA3BDD39CC3FFF3DEE362244334FB
:1053E80020040114E664C774A44485546AA54BB527
:1053F80028850995EEE5CFF5ACC58DD553367226CF
:1054080011163006D776F6669556B4465BB77AA776
:1054180019973887DFF7FEE79DD7BCC7C448E5581A
:105428008668A7784008611802282338CCC9EDD9C6
:105438008EE9AFF9488969990AA92BB9F55AD44A6E
:10544800B77A966A711A500A333A122AFDDBDCCB16
:10545800BFFB9EEB799B588B3BBB1AABA66C877C3A
:10546800E44CC55C222C033C600C411CAEED8FFD66
:10547800ECCDCDDD2AAD0BBD688D499D977EB66E0E
:10548800D55EF44E133E322E511E700E9FFFBEEFB6
:10549800DDDFFCCF1BBF3AAF599F788F8891A98178
:1054A800CAB1EBA10CD12DC14EF16FE18010A10062
:1054B800C230E3200450254046706760B983989352
:1054C800FBA3DAB33DC31CD37FE35EF3B1029012B2
:1054D800F322D2323542145277625672EAB5CBA51E
:1054E800A89589856EF54FE52CD50DC5E234C32402
:1054F800A01481046674476424540544DBA7FAB7F2
:105508009987B8975FE77EF71DC73CD7D326F23651
:105518009106B01657667676154634564CD96DC93D
:105528000EF92FE9C899E9898AB9ABA944586548A1
:1055380006782768C018E1088238A3287DCB5CDB91
:105548003FEB1EFBF98BD89BBBAB9ABB754A545AF1
:10555800376A167AF10AD01AB32A923A2EFD0FED5D
:105568006CDD4DCDAABD8BADE89DC98D267C076C41
:10557800645C454CA23C832CE01CC10C1FEF3EFF31
:105588005DCF7CDF9BAFBABFD98FF89F176E367E91
:10559800554E745E932EB23ED10EF01ED1F71737DA
:1055A800D1F717B78071313F807131BF0000003FDC
:0455B800000000BF30
:0855BC003CACFF7F0100000080
:0455C400AD0100082D
:0455C800890100084D
:1055CC00E54F0008FB4F0008000100000000000040
:1055DC0000000000000000000000000000000000BF
:1055EC0000000000000000000000000000000000AF
:1055FC00000000000000000000000000000000009F
:10560C00000000000000000000000000000000008E
:10561C000A500008010100000000496E64757374A3
:10562C00727947726F77206E6F646500000000001E
:10563C00000000000000000000000000000000005E
:10564C00000000000000000000000000000000004E
:10565C00000000000000000000000000F503000046
:10566C000000C8410024F400AC0000200000000041
:10567C00C01A0020281B0020901B002000000000F6
:10568C00000000000000000000000000000000000E
:10569C0000000000000000000000000000000000FE
:1056AC0000000000000000000000000000000000EE
:0856BC000000000000000000E6
:0400000508004A2184
:00000001FF
