:020000040800F2
:1000000000000220313200088132000881320008ED
:1000100081320008813200088132000800000000AF
:100020000000000000000000000000008132000815
:10003000813200080000000081320008A51000088D
:1000400081320008813200088132000881320008C4
:1000500081320008813200088132000881320008B4
:1000600081320008813200088132000881320008A4
:100070008132000881320008813200088132000894
:100080008132000881320008813200088132000884
:100090008132000881320008813200088132000874
:1000A0008132000881320008813200088132000864
:1000B0008132000881320008813200088132000854
:1000C0008132000881320008813200088132000844
:1000D0008132000881320008813200088132000834
:1000E000950A000881320008813200088132000838
:1000F0008132000881320008813200088132000814
:100100008132000881320008813200088132000803
:1001100081320008813200088132000881320008F3
:1001200081320008813200088132000881320008E3
:100130008132000800000000000000008132000849
:1001400081320008813200088132000881320008C3
:1001500081320008813200088132000881320008B3
:1001600081320008813200088132000881320008A3
:100170008132000881320008000000000000000009
:08018000813200088132000801
:1001880010B5054C237833B9044B13B10448AFF3C9
:1001980000800123237010BDA00000200000000093
:1001A8004C33000808B5034B1BB103490348AFF3B0
:1001B800008008BD00000000A40000204C330008A7
:1001C80053B94AB9002908BF00281CBF4FF0FF31B6
:1001D8004FF0FF3000F06AB9ADF1080C6DE904CEBC
:1001E80000F006F8DDF804E0DDE9022304B070470A
:1001F8002DE9F047089D0C46002B4ED194468C45BE
:100208008646B2FA82F262D94AB1C2F1200391401D
:1002180020FA03F30CFA02FC194300FA02FE4FEA33
:100228001C471FFA8CF6B1FBF7F44FEA1E4307FB95
:10023800141143EA014304FB06F199420AD91CEB65
:10024800030304F1FF3080F01281994240F20F81DC
:10025800023C6344591A1FFA8EF3B1FBF7F007FB0F
:10026800101143EA014300FB06F69E420AD91CEB33
:10027800030300F1FF3180F0FC809E4240F2F980D8
:10028800634402389B1B40EA044000211DB1D3405F
:100298000022C5E90032BDE8F0878B4205D90DB1CF
:1002A800C5E9000100210846F5E7B3FA83F1002902
:1002B80046D1A34202D39042C0F0F080861A64EB84
:1002C80003030120002DE6D0C5E90063E3E7002A17
:1002D80040F09080A1EB0C044FEA1C481FFA8CF701
:1002E8000121B4FBF8F64FEA1E4308FB164443EA23
:1002F800044307FB06F0984208D91CEB030306F1F8
:10030800FF3402D2984200F2CD8026461C1A1FFA0A
:100318008EF3B4FBF8F008FB104443EA044300FBF7
:1003280007F79F4208D91CEB030300F1FF3402D200
:100338009F4200F2B0802046DB1B40EA0640A5E75A
:10034800C1F120068B4022FA06F71F4320FA06FC6B
:1003580004FA01F343EA0C03F44000FA01F8380CFC
:100368004FEA1349B4FBF0FE1FFA87FC00FB1E445A
:1003780049EA04440EFB0CF9A14502FA01F20AD934
:100388003C190EF1FF3A80F08480A14540F281804B
:10039800AEF1020E3C44A4EB09041FFA83F9B4FB46
:1003A800F0F300FB134449EA044403FB0CFCA445A6
:1003B80007D93C1903F1FF3067D2A44565D9023B40
:1003C8003C4443EA0E40A0FB0293A4EB0C049C427D
:1003D800CE469C4651D34ED055B1B8EB0E0364EBD4
:1003E8000C0404FA06F6CB401E43CC40C5E9006471
:1003F800002150E7C2F1200320FA03F10CFA02FCB5
:1004080024FA03F394400C434FEA1C4800FA02FE16
:100418001FFA8CF7B3FBF8F008FB1031230C43EA02
:10042800014300FB07F1994208D91CEB030300F1D3
:10043800FF362CD299422AD9023863445B1AA4B2F7
:10044800B3FBF8F108FB113344EA034401FB07F35B
:10045800A34208D91CEB040401F1FF3613D2A342CE
:1004680011D902396444E41A41EA004139E70446E3
:10047800F0E6084606E7C845AED2B9EB020E63EBD4
:10048800070C0138A8E73146EDE7034699E73046FF
:10049800D4E7D6467FE7634402384DE7064623464D
:1004A80008460FE7023E634430E700BF704700BFCD
:1004B800034613F8012B002AFBD1181A013870479C
:1004C800F8B500F023FE00F0A1FB00F073FE3648FB
:1004D80000F0A0FE00F0D6FB0446344800F09AFE77
:1004E800204600F0C3FE324B3248052C06BF1846A2
:1004F8000124002400F08EFE204600F0D3FB01F01A
:1005080021F82D4A2D4B002814BF1046184600F03C
:1005180081FE00F0EFFC2A4800F07CFE00F0B4FDFC
:1005280000283FD000F0B6FD04462648264F00F0CC
:1005380071FE661E083416F8015F2B0905F00F05D9
:10054800F85C00F05FFE785D00F05CFEB442F2D12A
:100558001E4800F05FFE002000F0A0FE602001F0C1
:1005680043FD1B4800F056FE602000F05CFE194871
:1005780000F050FE184800F04DFE00F0A3F800F01F
:1005880095FD044600F0C4F801F0CEFD00F08EFDA4
:10059800001BB0F5FA7FF5D300F088FD044600F0A3
:1005A8008BFBEFE70D48D4E7D2330008013400088D
:1005B8006433000878330008B4330008983300081F
:1005C8001634000833340008D134000840340008D9
:1005D80073340008873400089E3400085534000836
:1005E80038B5442001F084F8064D044618B12B783C
:1005F8000BB900F0BDF948202C7001F079F8024BD6
:10060800187038BDD8000020D700002038B50B4638
:100618000446154601460722184602F03EFEA26827
:10062800C0F807200B232B60002038BD2DE9F843C4
:100638001E464B070C46154640D100EBD104D7089F
:100648003A463146204602F028FE15F007030AD044
:1006580001259D40EDB2F35D6A1E1340E25D6D42D7
:100668002A401343E355BDE8F88301F0070804F076
:100678000709C845434638BF4B46C3F108036A1A01
:10068800934228BF1346CA084FEAD40CB25C10F84C
:100698000C7042FA08F20EFA03F802FA09F208F1AD
:1006A800FF387A4008FA09F802EA0802574000F8C9
:1006B8000C7019441C448D42D7D8D4E700214FF060
:1006C800010EF8E708B500F0D3FF00F0EFF900F0ED
:1006D80035FA0C4B1A6822F040421A60DA6822F0A8
:1006E8004042DA60DA6842F08042DA60FFF778FF69
:1006F80000F0EEFC044BC3E90001044BC3E9000120
:1007080008BD00BF00000240C8000020C000002053
:100718002DE9F0438FB000F0DBFC864A864F0E4689
:10072800D2E900310546E81A66EB010487424FF02A
:100738000000A04180F0E98080481B1841F10001C9
:10074800C2E900317E4B1B780AAC002B55D0002340
:1007580001A902AA684600930193029300F01CF9CC
:100768000146002849D110222046009F02F0AFFD23
:1007780000F0AEFC04AACDE90A0107A920460C97AF
:10078800FFF744FF002806DB049B6E4907AA4FF4D5
:10079800805001F0B1FC102200212046019F02F098
:1007A80096FD00F095FC04AACDE90A0107A92046A8
:1007B8000C97FFF72BFF002806DB049B624907AA6A
:1007C80041F2010001F098FC102200212046029F0E
:1007D80002F07DFD00F07CFC04AACDE90A0107A91E
:1007E80020460C97FFF712FF002806DB049B5749A9
:1007F80007AA41F2020001F07FFC554B1B78F3B1C8
:10080800002302A8029300F01DF90146B8B910228E
:100818002046029F02F05BFD00F05AFC04AACDE9D5
:100828000A0107A920460C97FFF7F0FE002806DB0F
:10083800049B484907AA41F2030001F05DFC464BBE
:100848001F6900F045FCCDE90A0194E8030087F42C
:100858000047ADF82010C7F3C037090C07908DF892
:1008680022104FF000084FF0000902AB06223A218F
:1008780007A847F00207CDE902898DF82370FFF732
:10088800D5FE082307AA354941F2040001F034FCDB
:1008980000F01EFCCDE90A0100F0AEF9034694E829
:1008A800030043F00203ADF82010090C07908DF8FF
:1008B80022108DF82330062204AB3A2107A8CDE98F
:1008C8000489FFF7B3FE0823254907AA41F205006A
:1008D80001F012FC10220021204602F0F8FC00F082
:1008E800F7FBCDE90A0100F01BF901AA07A9204688
:1008F8008DED0C0AFFF78AFE002806DB019B1949DB
:1009080007AA41F2060001F0F7FB174A1748D2E997
:100918000031ED1A66EB0106854276F1000606D332
:100928001B1841F10001C2E90031FFF759FE0FB071
:10093800BDE8F083C80000203F420F0040420F008E
:10094800D8000020D6000020D5000020D4000020C8
:10095800D7000020D300002000000240D200002071
:10096800D1000020D0000020C000002000879303A1
:1009780008B544F227120021442000F0C9FE0028DF
:1009880007DBBDE808404FF400620521442000F071
:10099800BFBE4FF0FF3008BD73B50D46144606467E
:1009A80098B10DF106020221442000F0E9FE00286A
:1009B80039DBBDF806309FED207A07EE903AF8EE65
:1009C800677A67EE877AC6ED007A9DB10DF1060267
:1009D8000421442000F0D4FE002827DBBDF90630AE
:1009E8009FED167A07EE903AF8EEE77A67EE877A87
:1009F800C5ED007A14B9002002B070BD0DF10602F1
:100A08000321442000F0BCFE002812DBBDF80630AC
:100A18009FED0B7A07EE903AF8EE677A67EE877AE1
:100A2800C4ED007AE7E74FF0FF30E5E76FF001002B
:100A3800E2E76FF00200DFE70AD7A33A17B7D1372A
:100A48000AD7233A13B504460DF1060200214820BF
:100A580000F096FE002812DB14B9002002B010BD89
:100A6800BDF90630DFED076ADFED077A07EE103AC9
:100A7800B8EEC77AE7EE267AC4ED007AEDE74FF0D4
:100A8800FF30EBE70000003C33938843054B5A697D
:100A9800D20406D54FF480525A61034A13680133D1
:100AA80013607047003C0140DC000020174B1A6BB4
:100AB80042F002021A635A6C42F480425A645B6C38
:100AC800134B1A6822F040721A60DA6822F04072FA
:100AD800DA60DA6842F08072DA600E4A536923F00D
:100AE8000F0343F0010353610B4B1A6842F4805221
:100AF8001A60DA6842F48052DA609A6822F4805206
:100B08009A60064B4FF480725A6070470038024072
:100B18000004024000380140003C014000E100E0D0
:100B2800044BDFED057A93ED000AB8EE400A20EE9B
:100B3800270A7047DC00002000A00C45184B1A6BF0
:100B480042F005021A635A6C42F480725A645B6C74
:100B5800144B4FF000729A611A6822F440221A600E
:100B68001A6842F480221A605A6822F400725A60A5
:100B7800DA6822F44022DA600B4A136843F44073BF
:100B880013600A4BDA6842F4E042DA600022DA6263
:100B98000E225A639A6842F001029A60704700BFB9
:100BA80000380240000002400008024000200140D6
:100BB80008B50E4B4FF400729A61052000F07CFADC
:100BC8000B4B1A6822F002021A609A6842F08042BF
:100BD8009A60084A1968890701D4013AFAD1D86C91
:100BE800024B4FF000729A6180B208BD00000240CB
:100BF80000200140A086010008B5FFF7D9FFB0F535
:100C0800006F2CBF0020012008BD00001B4B1A6B91
:100C180042F003021A631B6B194B4FF400329A61BE
:100C28004FF480229A611A6822F00C0242F0040202
:100C38001A601A6822F0300242F010021A601A682C
:100C480022F440621A601A6822F440521A601A6844
:100C580022F440421A60DA6822F4406242F40062E8
:100C6800DA60DA6822F4405242F40052DA60DA6854
:100C780022F4404242F40042DA60704700380240F1
:100C880000000240064B1B69C3F340105A0648BFD8
:100C980040F002001B0648BF40F00400704700BF48
:100CA800000002400028034B0CBF4FF40032022220
:100CB8009A61704700000240024A536983F00203B8
:100CC8005361704700000240F0B50246014448F203
:100CD800050700208A4213D012F8016B0825012469
:100CE800430026424FEAD03C98B214BF01230023A8
:100CF800634518BF78406400013DE4B2F0D1E9E7EC
:100D0800F0BD0000104B1A6822F470021A601A68CD
:100D180042F420021A605A6842F440625A609A68A3
:100D280042F470029A60DA6822F47002DA60DA68D3
:100D380042F4A002DA605A6A22F47F425A625A6A7E
:100D480042F488425A62704700040240024A13681B
:100D580043F400731360704700580040064B074A7D
:100D6800D2F81418014201D1013BF9D1B3FA83F04A
:100D780040094042704700BFA08601000050004073
:100D880038B5144C236843F480730546236001206A
:100D9800FFF7E4FF002814DBC0350F4B256140F254
:100DA8000242616911420FD1013BFAD1636923F410
:100DB80080636361236843F4007323606FF001006C
:100DC80038BD4FF0FF30FBE7606910F48060F7D062
:100DD800ECE700BF00580040A086010070B504464B
:100DE80000200D46FFF7CCFF00281FDB114EB3692A
:100DF80025448020FFF7B2FF002804DAFFF7A6FF9A
:100E08006FF0010070BD14F8013B3361AC42F0D1C2
:100E18000420FFF7A3FF002804DAFFF797FF6FF01D
:100E28000200EFE7FFF792FF0020EBE74FF0FF30FB
:100E3800E8E700BF0058004007B501210DF10700A1
:100E48008DF80710FFF7CAFF03B05DF804FB000038
:100E58002DE9F843264C236843F480630546236054
:100E680001208846FFF78CFF00283BDBA36905F1CA
:100E7800FF3900264020FFF771FF002807DAFFF747
:100E880065FF6FF00200BDE8F8833E46F2E723698C
:100E980009F8013F771CA8EB0703032BF5D80420BA
:100EA800FFF75CFF002804DAFFF750FF6FF003003C
:100EB800E9E7236823F48063236072B62369EB555E
:100EC800236843F400732360F71C2E442369B3702E
:100ED80062B64020FFF742FF002806DB2369EB5586
:100EE8000020D0E76FF00100CDE76FF00400CAE7FB
:100EF800005800402DE9F04F5D4C5E4B5E4E5F4D53
:100F080000212160616021721A6B317042F0020287
:100F18001A631A6C42F480021A6491B01B6CFFF7D2
:100F2800F1FE574B4FF400421A602A2219605A60AA
:100F3800D222DA612B221A6201221A601A6822F080
:100F480001021A602B6823F440032B602B6843F4DA
:100F580080032B606B6823F400636B604FF00063C1
:100F6800AB6100F0B5F80746884600F0B1F8C21B3F
:100F780061EB0803502A73F10003F6D34FF40063C2
:100F8800AB61FFF7BFFE3E4B01251D60022000F05C
:100F980093F8042104A8FFF75BFF002804DA11B0D6
:100FA800BDE8F04FFFF748BF9DF81030042BF6D18D
:100FB8009DF81130112BF2D1324B059305210023F6
:100FC8000DF11500ADF81830FFF77EFE0821ADF8D9
:100FD8001A0005A8FFF702FF0028E0DB052000F053
:100FE8006BF8232107A8FFF733FF0028D7DB9DF80C
:100FF8001C30232BD3D1212107A8FFF765FE9DF8CC
:101008003D20C3B29A42CAD19DF83E30C0F30720B2
:101018009842C4D19DF81D009DF81E109DF81F2010
:101028009DF820309DF825B09DF826A09DF82790C2
:101038009DF828809DF829700390029101920093F1
:10104800FFF7FAFE03980299019A009B20706170DD
:10105800A270E37084F804B084F805A084F80690C0
:1010680084F807802772357011B0BDE8F08F00BF93
:10107800E000002000380240E9000020000402409F
:101088000058004003070280014B1878704700BFE2
:10109800E900002000487047E0000020024A136879
:1010A80001331360704700BFEC000020014B186843
:1010B800704700BFEC000020044A116813685B1AEF
:1010C800834200D3704730BFF8E700BFEC00002030
:1010D80010B50B494FF0E022086894690B68834209
:1010E800FAD15069074A08491268B2FBF1F2001BAD
:1010F8000021B0FBF2F04FF47A72E3FB020110BD5D
:10110800EC0000209800002040420F00214B1A6894
:1011180042F480321A601A689203FCD51A6C1E4990
:1011280042F080521A641A6C0A6842F480420A60DB
:101138001A4A40F205711160194A5A601A6842F059
:1011480080721A60134A13689B01FCD5936823F4D4
:101158007C4323F0F00343F414439360936823F033
:10116800030343F0020393600A4A936803F00C03F5
:10117800082BFAD10B4B0C4A1A604FF0E0230B4AAC
:101188005A610B4AF02182F8231000229A61072243
:101198001A6170470038024000700040003C02406D
:1011A8000854400798000020007A030A3F90020084
:1011B80000ED00E0114B1A6B42F001021A635A6C01
:1011C80042F010025A645B6C0D4B1A6822F47012DC
:1011D8001A601A6842F420121A605A6A22F47F626E
:1011E8005A625A6A42F4EE625A62A3F5704340F2B8
:1011F800D9229A6042F20C02DA6070470038024045
:1012080000000240024B1A681206FCD5586070476D
:101218000010014008B5411E11F8010F00B908BDC2
:10122800FFF7F0FFF8E77FB528B9302004B0BDE834
:101238007040FFF7E7BF01AB00211E460A24B0FB50
:10124800F4F504FB1502303203F8012B0246092A93
:1012580001F10101284601D90A29F0D10139705C50
:10126800FFF7D0FF0029F9D104B070BD10F0040FCA
:1012780008B5014614BF31203020FFF7C3FF11F035
:10128800020F14BF31203020FFF7BCFF01F001002E
:10129800BDE808403030FFF7B5BF00003C4A136B8B
:1012A80043F002031363136B3A4B196821F470215E
:1012B8001960196841F420211960996841F4702176
:1012C8009960596A21F0FF015962596A41F0990100
:1012D8005962136C43F000731364136C2E4B1A6835
:1012E80022F002021A601A6842F001021A602B4AC0
:1012F8005968C90703D4013AFAD1012070471A681E
:10130800274942F040021A60264A002808BF0A46C8
:10131800DA61D3F80022214842F00102C3F8002222
:10132800D3F81C2222F00102C3F81C22D3F80C22A5
:1013380042F00102C3F80C22D3F8042222F0010281
:10134800C3F804220022C3F84022C3F84422D3F889
:10135800142222F00102C3F81422D3F81C2242F00E
:101368000102C3F81C22D3F8002222F00102C3F8BC
:1013780000221A6822F001021A60074B5A68D20745
:1013880001D50138FAD1B0FA80F040094000704721
:1013980000380240000402400064004040420F0050
:1013A80005001A0005001AC0082AF0B524D8154B04
:1013B8009B685B0123D500231E461F46DCB2A24270
:1013C8000DD8104B400540F00100C3F88421C3F844
:1013D8008871C3F88C61C3F880010020F0BD032B2D
:1013E800CC5C4FEAC3058BBF203DAC40AC402743E3
:1013F80088BF26430133E1E74FF0FF30EEE76FF097
:101408000100EBE70064004070B5184C0546E06841
:1014180010F0030018D0D4F8B031D4F8B401D4F8DF
:10142800B861D4F8BC410DB15B0D2B8000F00F0002
:10143800082828BF082002B11070A9B90B4AD36840
:1014480043F02003D360012070BDD300032A8ABF74
:10145800203B26FA03F324FA03F3DBB28B54013260
:10146800D3B29842F1D8E9E70022F9E700640040D6
:10147800082AF0B524D8154B9B685B0123D50023B7
:101488001E461F46DCB294420DD3104BC00040F0FC
:101498000500C3F88421C3F88871C3F88C61C3F8C8
:1014A80080010020F0BD032BCC5C4FEAC3058BBF45
:1014B800203DAC40AC40274388BF26430133E1E7D9
:1014C8004FF0FF30EEE76FF00100EBE700640040FB
:1014D800F0B51B4E0746F06810F0030011D0D6F89F
:1014E800B031D6F8B441D6F8B851D6F8BC6113F08B
:1014F800040FC3F3800005D1114AD36843F02003D9
:10150800D360F0BD0FB1DB083B6004F00F04082C7A
:1015180028BF082402B114700029EDD000220AE087
:10152800D300032A8ABF203B25FA03F326FA03F3E4
:10153800DBB28B540132D3B29C42F1D8DCE700BF56
:10154800006400401FB50120FFF7A8FE50BB45F618
:10155800A523022201A940F22310ADF80430FFF7B9
:1015680023FF044600BB1B4B1B4AD16889071FD1C8
:10157800013BFAD10324204604B010BDBDF8062073
:1015880040F223139A4211D19DF80330022B0DD15A
:101598009DF80830A52B09D19DF809305A2B18BFA2
:1015A8000524E8E70124E6E71446E4E70524E2E732
:1015B80000230DF1030202A90DF10600CDE9023363
:1015C800ADF806308DF80330FFF71EFF0128D5D09F
:1015D8000424D0E740420F0000640040024A136828
:1015E80043F400731360704700540040064B074AE9
:1015F800D2F81414014201D1013BF9D1B3FA83F0B6
:1016080040094042704700BFA086010000500040DA
:1016180070B5154C236843F4807306462360012097
:101628000D46FFF7E3FF002816DB45EA4605EDB255
:101638000E4B256140F20242616911420FD1013B14
:10164800FAD1636923F480636361236843F4007308
:1016580023606FF0010070BD4FF0FF30FBE7606959
:1016680010F48060F7D0ECE700540040A086010039
:101678001D4B1A6B42F002021A631A6C42F40012F4
:101688001A641B6C194B1A6822F470421A601A68A3
:1016980042F420421A605A6842F0C0025A609A68BE
:1016A80042F470429A60DA6822F47042DA60DA68CA
:1016B80042F4A042DA601A6A22F07F421A621A6A79
:1016C80042F088421A62A3F5D8334FF400421A60F8
:1016D80000221A602A225A60D222DA612B221A6268
:1016E80001221A60704700BF00380240000402401F
:1016F80008B50021FFF78CFF002805DB034B9B6929
:10170800FFF76CFF012008BD0020FCE700540040F3
:1017180073B50D4600211446FFF77AFF002829DB30
:10172800164EB3698DF80450230A8DF806408DF8DB
:10173800053001AD00248020FFF758FF002805DAA6
:10174800FFF74CFF6FF0010002B070BD013415F8CF
:10175800013B3361032CEED10420FFF747FF00283B
:1017680004DAFFF73BFF6FF00200EDE7FFF736FF03
:101778000020E9E74FF0FF30E6E700BF00540040E3
:10178800F8B50F46002106461546FFF741FF002829
:1017980041DB244C8020A369FFF728FF002804DAE6
:1017A800FFF71CFF6FF00100F8BD27610420FFF769
:1017B8001DFF002804DAFFF711FF6FF00200F3E7BE
:1017C800236843F44063236001213046FFF720FF7C
:1017D800002823DB72B6A369236823F4806323609F
:1017E80062B60420FFF702FF002804DAFFF7F6FECE
:1017F8006FF00400D8E772B6FFF7F0FE216923699D
:1018080062B62268DBB222F4006243EA0123226056
:1018180000202B80C8E74FF0FF30C5E76FF00300CA
:10182800C2E700BF00540040006801F092BC0068A5
:1018380001F016BC7FB5164604460D46FFF748FC76
:10184800064A0094821841F10003CDE90156044983
:10185800044800F0B3FF04B070BD00BF40420F0061
:10186800BC090020A80900202DE9F0411546D70839
:10187800069A00EBD10603EBD20841463A463046B9
:1018880001F00BFD15F007050BD00124AC4018F84A
:101898000730E4B2621E1340F25D644222401343F3
:1018A800F355BDE8F0812DE9F04311F0070F079DCE
:1018B80007460E469C4604D10795BDE8F043FFF75E
:1018C800D3BFAA184FF0010E954201D3BDE8F083AB
:1018D80005F0070806F00709C84541464FEAD50450
:1018E80038BF4946C1F10801531BF0081CF80440F1
:1018F800994228BF194644FA08F43B5C0EFA01F8ED
:1019080004FA09F408F1FF385C4008FA09F804EA17
:10191800080463403B540D440E44D5E72DE9F041DB
:10192800D400A342069D94BFE41A241BAC4205F1DF
:10193800070228BF2C46D208984606460F46A2EB57
:10194800D402002100EBD40001F0C1FCCDF81880CE
:101958003B46224630460021BDE8F041FFF7A3BFD1
:101968001FB5CC00944294BF241BA41A102C034624
:101978004FF0000100920DF10E00224628BF102200
:10198800ADF80E10FFF78FFFBDF80E0004B010BDC4
:1019980007B58DF8000001208DF801008DF80410BE
:1019A8008DF805206846DDE90421ADF80230FFF71F
:1019B80041FF03B05DF804FB70B50446D0E904109C
:1019C800ADF5047D08B931BB14480022FFF7C8FF04
:1019D8004FF482720546002143A801F078FC28469E
:1019E80043A900F0D3FC839DFF2D14D803AE002338
:1019F800EA008DF80C500093082143AB30460135BE
:101A0800FFF732FFCDE9006540F281136279217951
:101A18002078FFF7BDFF0DF5047D70BD0034000888
:101A28002DE9F0414FF4A872ADF5287D0021064656
:101A38000DEB020001F04BFC01231022002158A8F5
:101A48008DF850318DF852318DF8553101F03FFC49
:101A5800FFF71AFB002872D0FFF71CFB024600684C
:101A6800516858AB03C3127A1A70192369933D4B16
:101A78005CAA03F1180518685968144603C40833AA
:101A8800AB422246F7D11B782370549B0593BDF8CF
:101A98005431ADF81830DDE9562305AF4FF0000892
:101AA800CDF81A20CDF81E30802258AB7021384668
:101AB800CDF80080FFF7F7FE19238DF83230CDF806
:101AC80000805CABC822F8213846FFF7ECFE6C9C1E
:101AD800012C30D88DF84C40A4016AABCDF80080B9
:101AE80022464FF4E4713846FFF7DDFEA69DDE2D51
:101AF80004F5E4731FD8DB0804F5E874FD54ED0021
:101B080021466EAB2A463846CDF80080FFF7CBFE5B
:101B180033788DF80C3001238DF80D302C444FF4B8
:101B2800D773ADF80E303A46B388ADF81030E108F7
:101B380003A8FFF77FFE0DF5287DBDE8F0810A496F
:101B48000A4854AB51F8042B1A74140A5C74814285
:101B58004FEA12444FEA12629C74DA7403F10403E8
:101B6800F0D182E7E2340008107AFF1F1C7AFF1FC9
:101B78002DE9F047D0E904462DED028B0546ADF579
:101B8800CD6D002E75D0E700072F78D80023CDF84B
:101B98005034DB000093224608233146D4A8FFF7CF
:101BA800BDFEDDF85024D3000833BB4228BF3B46B6
:101BB800DB089C4294BF221BE21AD100072960D897
:101BC80000238DF860364CAE4FF408720021304681
:101BD80001F07DFB0DF10F040023009450AA8DF84D
:101BE8000E308DF80F300DF58B610DF10E03D4A872
:101BF80000F0E4FB9DF80E3033729DF80F307372DD
:101C0800FFF766FAC6E9000196E80300727A0990C0
:101C1800337AADF82810090C09AC8DF82A10E37155
:101C280012B143F00203E37100220023CDE904233B
:101C380000230093062204AB3A212046FFF733FE27
:101C480096F818322372002B00F0CB81013B0D2B44
:101C580058D8DFE813F026012601D8003D014501D8
:101C6800130126013D014501130126013D014501EE
:101C78004D01002C46D1AD4E2746234687E73378E1
:101C880085E7F018F35C8DF86036002B9BD0013B9C
:101C98000D2B37D8DFE803F03C3C074E63203C4E61
:101CA80063203C4E6378012A94BF941A02F1FF34F2
:101CB800461C002221463046FFF752FEB0F5006F61
:101CC800CDF858051ED800901023224631460DF550
:101CD8008B60FFF723FE76E7012A94BF921A02F180
:101CE800FF32D300072B00F1010106D80023CDF8FD
:101CF80058351B0100930823E9E74378CDF8583598
:101D0800802BF6D90DF5CD6DBDEC028BBDE8F087C3
:101D1800012A94BF941A02F1FF34461C002221467E
:101D28003046FFF71DFEB0F5807FCDF85805E9D89D
:101D3800C000C8E7012A94BF921A02F1FF32D3000B
:101D4800072B00F1010104D80023CDF858359B0179
:101D5800D0E74378CDF85835202BF8D9D2E7012AB7
:101D680094BF921A02F1FF32D300072B00F1010150
:101D780004D80023CDF858355B01BBE74378CDF88C
:101D88005835402BF8D9BDE7012A94BF941A02F1BF
:101D9800FF34E300072B00F101072ED80026CDF809
:101DA80058663601DFF8A0919FED618ADFED618A00
:101DB8000DF58B6808364FF0080AB2453FF403AFBB
:101DC800524621463846FFF7CBFD09EA403307EE75
:101DD800903A67EE887A000417EE903AF4EEE87AC3
:101DE800F1EE10FAA8BF43F0FF4300F0004018439B
:101DF80048F8040B0AF1100ADFE74678CDF8586670
:101E0800802ECED97EE7D6F81071B7F5006F3FF671
:101E180079AFB6F81031A4F8093000263A461021F7
:101E2800009650AB0DF12D00FFF71EFD07F11001D4
:101E380017F0070713D00022C7F108070023CDE9E0
:101E48000623FAB251FA87F7B7F5016F3FF65AAF92
:101E5800009606AB0DF12D00FFF725FD394621F060
:101E6800070208324032D208CDE900424FF4C0736D
:101E78006A7929792878FFF78BFD43E7D6F810614E
:101E8800802E3FF63FAF667236010023009332463C
:101E980050AB08210DF12D00FFF7E6FC06F110020A
:101EA800E0E7D6F81021B2F5807F3FF62BAFB6F801
:101EB8001031A4F80930D60000230093324650AB05
:101EC80010210DF12D00FFF7CFFC06F11802C9E72C
:101ED800D6F81061202E3FF615AF6672B601D4E72A
:101EE800D6F81061402E3FF60DAF66727601CCE74A
:101EF800D6F8100280283FF605AF6072DFED0E6A53
:101F08009FED126A9FED0D7A0D4FDFED0E5A00011D
:101F180050AB0830082647F6FF7C0DF12D0E86429F
:101F28004FEAD60214D10132D2009BE700340008F0
:101F38000000807700008047FFFF7F7F00E07F4739
:101F480000F0FF7F0000800700E0FF0F00E07FC780
:101F5800F3EC017AB0EEE75AB4EE665AF1EE10FAF5
:101F68000BD8F4EEC67AF1EE10FA22D4F4EE477AE2
:101F7800F1EE10FAC8BFF0EE477A17EE908A28F013
:101F88000041B1F1FF4F17D3C8F31609B9F1000F9B
:101F980024D1B1F1FF4F0CBF4FF4F84161464FEA2D
:101FA800184808F4004841EA08012EF802101036D3
:101FB800B5E75FED1A7AE0E708EA070107EE901A3D
:101FC80067EEA57A17EE901A01F58051B1F1786F96
:101FD80028BF4FF07861C1F34F31E0E74FF4FC417F
:101FE800DDE708223EE700BF2DE9F0414FF48051BC
:101FF80092B007463248DFF8FC80324E00F0FEFF10
:102008000AACC8F80000304A30490AA800F0C4FBFE
:102018000FCC35460FC594E80700D8F80030336078
:1020280085E8070004AC04A808221821377100F0DD
:10203800BEFB0FCC264D0FC52368264C2B60002510
:10204800254B0293CDE9004500234FF4D7720221B6
:10205800304600F05BFF214B0293CDE9004540F28A
:1020680003234FF4C0720221304600F04FFF1C4B8F
:10207800029302231946CDE9004540F28112304609
:1020880000F044FF174B029340F2B3124FF49673DB
:102098000221CDE90045304600F038FF384600F00F
:1020A8006FF9FFF715F8104B104AC3E900018018C3
:1020B8000F4B41F10001C3E9000112B0BDE8F08106
:1020C800E0090020BC090020311800083718000872
:1020D800A809002080841E008007002058050020E1
:1020E8003003002008010020F800002040420F00C3
:1020F800F0000020D809002013B50C460421ADF8E3
:102108000010FF218DF804102178ADF802008DF839
:10211800051068461946FFF78DFB2378013303F055
:102128001F03237002B010BD2DE9F043B7B0FEF7CE
:10213800CFFF884AD2E900349842A14141D3864969
:102148005B1844F10004C2E90034FEF7C1FF834A7A
:10215800D2E90034C01A61EB04017F4A0023FEF77C
:102168002FF80024189000260027009408AB0622B8
:10217800022119A88DF86440CDE90867FFF793FBA1
:1021880000940AAB052203210DF165008DF8654026
:10219800CDE90A67FFF787FB714B8DF86640714CF4
:1021A8001293FF238DF84C3018AA23788DF84D3000
:1021B800072112A8FFF73EFB2378013303F01F0322
:1021C8002370FEF785FF684DDFF8A08106460F46AD
:1021D800284600F089FC0446C8B1D4E9062352EA2F
:1021E80003010CD0B242BB4109D221462846D8F897
:1021F8000C9000F081FC01465C48C847E8E794F879
:102208002420A16A206AFFF733F90028EDD0574F40
:102218000DAE0DF11B02314607A8FFF759F9012849
:1022280017D0534B1B78002B00F091804E4800F0DC
:102238005BFC002840F08B80BFF34F8F4D494E4B1D
:10224800CA6802F4E0621343CB60BFF34F8F00BF4C
:10225800FDE7079B0F939DF81B30CDE91036FEF77D
:1022680037FF12AC0023CDE9013403930FAB009381
:1022780002460B46384600F04FFC0128C9D19DF8AC
:102288004930022B0CD1BDF84A30B3F5D77F4DD079
:102298000BD8B3F5C07F4DD040F2811293424DD098
:1022A800FB68179931489847B3E740F2B312934255
:1022B800F6D1DDE9165414B9002DF1D12F4C0022C6
:1022C80029462046FFF74CFBEB00172BADF86000C2
:1022D80038D800233593DB0000932A46214619A8F5
:1022E8001823FFF71BFBBDF860209DF84C109DF8E4
:1022F800480000238DF814304FF6FF739A420BBF45
:102308001B4B032301228DF8143008BF1A709DF867
:1023180014308DF818300123019306AB00939DF813
:102328004D2040F2B313FFF733FBB9E72046FFF720
:1023380077FBB5E72046FFF71BFCB1E72046FFF720
:102348003BFBADE7A3783593702BC4D9A8E737B02A
:10235800BDE8F083F000002040420F00F8000020A4
:102368000400551D00010020A8090020BC09002018
:102378000101002000ED00E00400FA050034000827
:10238800014B1881704700BF00000020012870B57C
:102398000D460FD84C235843074B1E583046FEF7BE
:1023A80087F8314604460246284600F0BDFFC5F8C6
:1023B800004170BD0024FAE7000000202DE9F04735
:1023C800434D2E688146304614460F469846FEF720
:1023D8006FF8D9F800A15045024605D13146484664
:1023E80000F04BFF064660B1EE6C3046FEF760F831
:1023F800504528D152463146484600F03EFF10BBB2
:1024080001264C20704305EB000999F8053099F82E
:102418000420FBB94C2303FB06531B794BB314B1BF
:10242800012384F808324C2707FB06570A37384639
:10243800FEF73EF8394681460246204600F074FF12
:10244800C4F8009121E00023002C3DD188F8003029
:10245800002321E0002FDDD097F80832002BD9D0D7
:10246800F2B90A2B05D1D7F8003113B13B88A9F886
:10247800083014B10A2384F808324C2303FB0653AE
:102488001B8923800123C4F800314C2303FB065524
:102498006B7988F80030AB79089A1370BDE8F0873B
:1024A800012ABCD1012BBAD1D7F800213F2A28BF75
:1024B8003F2292460A3039462844D14400F034FF7E
:1024C800002389F80A30A5E784F80832BEE700BF80
:1024D8000000002030B581F0010400EB8404056899
:1024E80063684DB1AA68A2EB000CDCF1000242EB74
:1024F8000C0205EB820253601D60036003EB81034D
:102508005A68626002B11060586030BD2DE9F04130
:102518000029037B0CBFFF220122134459B2013367
:1025280003F0FF03022B044643D900294FEAD17870
:102538006FEA01014FEAD17100EB8103B8BF0125B1
:102548005E6896F90C30A8BF4FF0FF3513FB05F312
:10255800002B10DC4146FFF7BDFF96F90C303BB964
:102568006B425BB22373374635733846BDE8F0815A
:1025780000252B46F6E706EB880330465F68FFF731
:10258800A9FF41462046FFF7A5FF97F90C3013FB3A
:1025980005F3002B04DA002325733B733373E4E758
:1025A8001DBF00236D42237323731CBF3B736BB2A3
:1025B800F4E701730746D8E770472DE9F041DDF8E5
:1025C80018800D461E4608F1300183681746984763
:1025D80068B10024C0E90044C0E9067600F1300380
:1025E800846004730461C0F8248083620562BDE8D6
:1025F800F081006A0B6A984234BF4FF0FF30012027
:10260800704710B5C3680C46096998470023C4E9A8
:10261800023323614FF6FF73A382A37D013303F0D6
:102628001F03A3750123237610BD000002888B8B3E
:102638009A4205D0034A8CBF01230023D056704725
:1026480000207047233500081C30FFF7EFBF70B536
:10265800D1E901520446002D36D0002A34D0104664
:10266800034640680028FBD191F90C0018735D609F
:102678002B601868814222D09D68456005B12860AA
:102688009A60136000220D681D60DDB1AE68A6EB8C
:10269800010CDCF1000646EB0C0605EB86056B60C9
:1026A80082F00101FFF732FF0346006893F90C201E
:1026B800FAB9F8B18268D31A5A425A41F0E7184673
:1026C8000122E0E72360EBE7003A18BF012201EBA3
:1026D80082020868536803B1186058B18268511AB9
:1026E8004A424A4100EB82014B60002BD8D0186067
:1026F800D6E700B9236070BD2DE9F84305680746A1
:102708008946144698460646316831B14846A0477E
:102718000028336808D11C461BB9B8F1000F0BD14B
:1027280000242046BDE8F883CCBF012600260136E8
:102738001D4603EB8606E7E74846C04704460028DF
:10274800EED000233060C0E90133056003730DB992
:102758003860E6E7A9680B1A594259412846FFF73D
:10276800D5FE90F90C300568002BF0D1002DD8D19A
:10277800EEE7000010B5074C11448A4200D110BDA5
:1027880012F8013B83EA102334F8133083EA00205F
:1027980080B2F2E77635000830B50024FF25C0E99D
:1027A8000212C0E9044404600571846130BDC0E9C7
:1027B80000120022C0E90222026170472DE9F04FA1
:1027C8008FB0CDE90B23DDE9184681468B460029F9
:1027D80000F08681002800F08381002C00F08081C1
:1027E8001A9B13B9002E40F07B81D9F80430072BCF
:1027F8003ED9402B3ED8B54AD35CB54AD35C059345
:10280800059B62789BF80410013B0393002A44D18E
:102818002379FF2B40F064816588B5F5005F80F06F
:102828005F810B0628D445F4C04041EA0020237894
:10283800072B00F2558140EA836303980993864287
:1028480063790A93D9F80810D9F8002006F1010332
:102858006DD89E48C35C9E48C45C9142A4EB0605B3
:1028680005F1FF3538D36FF002000FB0BDE8F08FE7
:102878000823C4E74023C2E7039B9E4200F230814D
:102888001A9A31464FF6FF70FFF774FF00F07F0089
:1028980040EA052040F0B070C9E7531E012B00F252
:1028A8001F8194F904302579002BC0F219816388BF
:1028B800B3F5007F80F014810F0600F111819803B1
:1028C80040EAC510951E6A4240EA01006A4140EAA2
:1028D800026040F00070AAE7DDE90B230999009433
:1028E8005846FFF76AFE07460028BCD026B11A9959
:1028F8003246303000F018FD06F130002A4600213B
:10290800384400F0E4FC0A9B724A3C4463F01F031D
:1029180084F82F303946704B09F10C00FFF7ECFEB4
:10292800D9F808300133C9F8083001209DE7B01CF8
:10293800079003980344B3FBF0F30B44934292D8F7
:102948001A9A31464FF6FF70FFF714FF002401234F
:102958000490254606940893A046079B434518D83B
:10296800069E002D00F0AE80DFF86C81594F09F10A
:102978000C05314643463A462846FFF7BDFE366900
:10298800002EF6D1D9F808302344C9F8083020467B
:102998006BE7079B0999A3EB0802039B934289BF46
:1029A8004A4BDDF814A09B18494A84BF5B7812F89B
:1029B80003A0CDF800A0DDE90B235846FFF7FDFD85
:1029C800069B01340746002B63D02861002F70D086
:1029D80046450AF1FF335ED9A6EB08059D4228BF9C
:1029E8001D461A990D932A4607F1300000F09CFC09
:1029F8001A9BA8442B4446451A930D9B2DD8AAF13F
:102A0800030AAA1CAAEB050A9A4288BF4FF0000ADB
:102A180005F130005246002138440D9300F057FC70
:102A28000D9B6A1C01329A4237D35544AB4214D9E4
:102A3800464509D104997A190135090AAB4282F849
:102A4800301006F1010808D9464506D27B19049AC8
:102A580083F83020013508F101080A9B089A03F031
:102A68001F0343EA4213069AB91A4A424A4143EA03
:102A7800C213079A42453D448CBF0022012243EA13
:102A8800821385F83030089B83F0010308933D4694
:102A980063E706909AE70025B1E704990F48C1F368
:102AA8000F2130F81110049881EA002189B20491AD
:102AB800B8E73D4654E73146DBF80C3034695846F0
:102AC80098472646002EF6D1CDE600BF25350008EA
:102AD80066350008FB250008C12500087635000882
:102AE8006FF00100C1E600BF10B1C368002003B950
:102AF800704718465B68FAE738B50D46044640B19A
:102B080029B10C30FFF7A3FDA368013BA360284659
:102B180038BD0546FBE700002DE9F04F89B09B461C
:102B28009DF84C90129B149E14460746002800F00E
:102B3800B581002E00F0B281002B00F0AF81D3F8F0
:102B480000A0BAF1005F80F0A981D3E90158B8F17B
:102B5800000F02D1002D40F0A181202200216846FB
:102B680000F0B5FB25B90025284609B0BDE8F08F6F
:102B78004FEA9A638DF808301AF0007F0AF07F0355
:102B8800CDE9004B8DF80C300AF0807240F0CB8014
:102B9800002ACAF30C2118BFFF231AF0801FADF8D2
:102BA8000A108DF80C300CBF01220022FF21013DD4
:102BB800CDE905588DF80D1018F8053003F01F0001
:102BC8004FEAD31CC3F3801E8DF80E008DF80FC09A
:102BD80058B203F0400C8DF810E003F0200EC3F358
:102BE80040138DF81130002ABDD0002805DABEF157
:102BF800000FB8D0BCF1000F0BD19DF80C30FF2BA3
:102C0800B1D0062D05D8BCF1000FACD00DB9002805
:102C1800A9DAFF2902D03B798B42A4D19DF809009B
:102C2800A04A043000230DF10A0107EB8000FFF7EA
:102C380063FD159B804603B11860B8F1000F92D070
:102C48009DF90C209DF80C30002AC0F2038108EB96
:102C580083035C6AF4B99DF80F30DBB1BB682021AF
:102C6800384698479DF80C3008EB830358620028D3
:102C78006ED0DDE90023C0E90244C0E900234FF625
:102C8800FF7383829DF80E3083750123046180F8F9
:102C98001790037600259DF80C3008EB83035C6AD7
:102CA800002C3FF461AFDDE90021D4E90003904234
:102CB80073EB010ED8E904C5D8F818804BD2101A66
:102CC80061EB0303844575EB030334BF4FF0010C3C
:102CD8004FF0000C9DF80E00A37D1B1A9DB2002B2F
:102CE800BCBF05F120031BB2BCF1000F08D1E57D84
:102CF8004D4533D19DF80F5085B3DBB2012B2DD94B
:102D08000023C4E902334FF6FF73A382012323761D
:102D18009DF80F30A07584F81790FBB92146384606
:102D2800FFF76FFC1FE7002A14BF022201228DF86B
:102D380009201AF4000FCAF38832ADF80A20CAF342
:102D4800C61103D15A1A18BF012230E700222EE714
:102D58006FF002059FE74FF0000CBBE794F817E00F
:102D68009DF811C0257EA37DCE457FF4FCAEAC4511
:102D78007FF4F9AE98427FF4F6AE9DF80F30002B41
:102D880051D1DDE90512A08AFFF7F4FC0025A082E5
:102D9800DDE9059AA3684B44A36023693BB9B8F100
:102DA800000F04D0BB684146384698472061206927
:102DB800002840D0E36809EB0302904538BFA8EB30
:102DC800030918444A46514600F0AEFAE3684B44FA
:102DD800E3609DF81030002B37D00DB9A38AEBB90A
:102DE8009DF80C303371BDF808109DF80E30318015
:102DF8007371BDF80A207280D4E90023C6E9022362
:102E0800E2682369326173612DB9A3689A1A012AAD
:102E18009CBF023B336100232361012521463846CC
:102E2800FFF7EFFBA0E69DF81030C4E90021002B66
:102E3800A7D00125ACE7B8F1000FCAD02146384623
:102E4800FFF7DFFB6FF002058EE6237E83F00103B8
:102E5800237688E6D8F81830059C9C4228BF1C4683
:102E68002146BB68384698470028EBD0DDE9008941
:102E78009DF80C20BDF80A10BDF8085032719DF875
:102E88000E20358071807271C6E90289C6E9044056
:102E98000699224600F048FA012565E66FF001051B
:102EA80062E600BF35260008F7B5064648B3022992
:102EB80027D8043100EB8105ADF806200023124A1B
:102EC8000DF106012846FFF717FC0446B8B1014684
:102ED8002846FFF7BCFB04F12005002704F5087419
:102EE80055F8041FF36801B1096930469847F3683B
:102EF800296830469847A5422F60F1D1012003B0D8
:102F0800F0BD6FF00100FAE7352600082DE9F84317
:102F18000A9F0D4691461E46804610B30FB30229FC
:102F28001FD8FFF7C1FF041E18DBDDE908230021C5
:102F3800C7E90423BE614FF40072A7F81C9007F19B
:102F48002400043500F0C3F9074B084A394608EB5A
:102F58008500FFF7D1FBB4FA84F464092046BDE884
:102F6800F8836FF00104F9E7C1250008512600082D
:102F780000B1016001B14860704710B58A6800234C
:102F88005209012A03F1010418D8D1E9042402B135
:102F980054614C6904B12261DBB250F823208A42A3
:102FA8000BD10A6940F823203AB901229A40D0F897
:102FB800803023EA0203C0F8803010BD520823464F
:102FC800DFE710B58A6800235209012A03F10104DA
:102FD80011D8DBB2002450F823200A614C6102B1F9
:102FE8005161012240F823109A40D0F880301343F1
:102FF800C0F8803010BD52082346E6E770B50D468C
:10300800044628B310F00F0126D1BF2D26D9A03DC4
:10301800C0F88010802200F05AF9B5F1004F28BF9F
:103028004FF0004515F01F0614D1C4E92866C4F80E
:10303800A85084F8AC6004F1A0012046FFF7C1FF56
:1030480000220023C4E92256C4E92466C4E92623E1
:10305800204670BD013DE5E70024F9E70C46F7E797
:10306800F8B505460F4651B3D0F88830103B8B426F
:1030780025D310310A460023012A03F1010020D884
:1030880007F10F020A40002A18BF0133DBB20126FC
:103098009E4071090A460023012A03F1010013D852
:1030A8004A1E0A40002A18BF0133DAB24FF0FF3334
:1030B8009340D5F8802013405C421C4047D1002043
:1030C80035E052080346D7E752080346E4E76408A8
:1030D8001346012C03F10102F9D1DBB2284655F859
:1030E80023402146FFF749FFA368A6609B1B1F2BBF
:1030F8000DD9A0192168836000230373FFF738FFF7
:1031080001462046FFF734FF2846FFF75AFFD5F857
:103118008C301E44D5F89030C5F88C609E424FF034
:10312800010388BFC5F8906004F110002373D5F837
:103138009430BB4238BFC5F8947038B937B1D5E977
:103148002632013342F10002C5E92632F8BD0023D8
:10315800BFE72DE9F84305460C46002957D0002360
:1031680051F8089C01F8043C51E90476D0F88C30F9
:10317800A3EB0903C0F88C30F6B196F80C8088F000
:103188000108002F3CD03B7B83F00103B8F1000F0E
:1031980028D09BB131462846FFF7EFFE3946FFF7A6
:1031A800ECFEB368BA6813444B44B360002344F898
:1031B800083CBB6039680CE0B046E2E73146284677
:1031C800FFF7DBFEB3684B44B360002344F8083CC8
:1031D80039463046FFF7CCFE31462846BDE8F8436D
:1031E800FFF7EFBEA4F110067BB139462846FFF77A
:1031F800C4FEBB684B4444F8083CC7F80880D9E7CC
:10320800B8F1000FDAD1A4F110063146E5E7BDE8C0
:10321800F8830000034AD2F8883043F47003C2F8F8
:103228008830704700ED00E0DFF834D0FFF7F2FF98
:103238000C480D490D4A002302E0D458C450043309
:10324800C4188C42F9D30A4A0A4C002301E01360DF
:103258000432A242FBD300F043F8FDF731F970477E
:1032680000000220000000209C0000208837000891
:10327800A0000020E0190020FEE710B50139024443
:10328800904201D1002005E0037811F8014FA342D4
:1032980001D0181B10BD0130F2E7884210B501EBD0
:1032A800020402D98442234607D8431EA14208D00B
:1032B80011F8012B03F8012FF8E7024401468A426E
:1032C80000D110BD13F8014D02F8014DF7E7024493
:1032D8000346934200D1704703F8011BF9E7000049
:1032E80070B50D4D0D4C641BA4100026A64209D1E3
:1032F8000B4D0C4C00F026F8641BA4100026A642C7
:1033080005D170BD55F8043B98470136EEE755F8EE
:10331800043B98470136F2E78037000880370008F9
:1033280080370008843700080A44914200F1FF33CF
:1033380000D1704710B511F8014B03F8014F9142C5
:10334800F9D110BDF8B500BFF8BC08BC9E4670475F
:0C335800F8B500BFF8BC08BC9E467047EA
:10336400202D3E204D30352D534146455459204F94
:103374004B0D0A00202D3E204D49534D41544348E6
:10338400202865787065637465642030623130315B
:10339400290D0A0043414E206C6F6F706261636BAC
:1033A4002073656C662D74657374204F4B0D0A0091
:1033B40043414E206C6F6F706261636B2073656C68
:1033C400662D74657374204641494C0D0A000D0A3C
:1033D400496E64757374727947726F77204D303516
:1033E4002D534146455459206272696E672D75709C
:1033F40020286C617965722031290D0A006D6F6493
:10340400756C652D6964207374726170203D203081
:103414006200415445434336303820636172726917
:103424006572204944202849324332293A200070E9
:10343400726573656E742C20534E3D00202D3E2022
:103444006E6F646520756E697175652D69640D0A0A
:1034540000616273656E74202D3E2053544D3332E7
:1034640020666163746F7279205549440D0A0063C4
:10347400797068616C2075703A206E6F64652D698F
:103484006420002C204D30352074656C656D6574A6
:103494007279206C6976650D0A006465627567202F
:1034A400636F6E736F6C6520656E647320686572FC
:1034B400652028504139202D3E206C65616B2065C4
:1034C400786369746174696F6E290D0A0030313252
:1034D40033343536373839414243444546006F72F8
:1034E400672E696E64757374727967726F772E6E66
:1034F4006F64652E6D30350075617663616E2E6E76
:103504006F64652E69640075617663616E2E6E6FFB
:1035140064652E6465736372697074696F6E00FF0D
:1035240001000102030405060708090909090A0A3A
:103534000A0A0B0B0B0B0C0C0C0C0D0D0D0D0D0DC9
:103544000D0D0E0E0E0E0E0E0E0E0E0E0E0E0E0E99
:103554000E0E0F0F0F0F0F0F0F0F0F0F0F0F0F0F79
:103564000F0F0001020304050607080C10141820AD
:10357400304000002110422063308440A550C660D2
:10358400E770088129914AA16BB18CC1ADD1CEE11C
:10359400EFF13112100273325222B5529442F77293
:1035A400D662399318837BB35AA3BDD39CC3FFF36C
:1035B400DEE36224433420040114E664C774A444A3
:1035C40085546AA54BB528850995EEE5CFF5ACC5BC
:1035D4008DD55336722611163006D776F666955673
:1035E400B4465BB77AA719973887DFF7FEE79DD70C
:1035F400BCC7C448E5588668A77840086118022803
:103604002338CCC9EDD98EE9AFF9488969990AA95B
:103614002BB9F55AD44AB77A966A711A500A333AD2
:10362400122AFDDBDCCBBFFB9EEB799B588B3BBBAB
:103634001AABA66C877CE44CC55C222C033C600C62
:10364400411CAEED8FFDECCDCDDD2AAD0BBD688DFB
:10365400499D977EB66ED55EF44E133E322E511EB2
:10366400700E9FFFBEEFDDDFFCCF1BBF3AAF599F4B
:10367400788F8891A981CAB1EBA10CD12DC14EF1EB
:103684006FE18010A100C230E32004502540467051
:103694006760B9839893FBA3DAB33DC31CD37FE37C
:1036A4005EF3B1029012F322D232354214527762A1
:1036B4005672EAB5CBA5A89589856EF54FE52CD54C
:1036C4000DC5E234C324A0148104667447642454F1
:1036D4000544DBA7FAB79987B8975FE77EF71DC75C
:1036E4003CD7D326F2369106B01657667676154641
:1036F40034564CD96DC90EF92FE9C899E9898AB9AC
:10370400ABA94458654806782768C018E108823890
:10371400A3287DCB5CDB3FEB1EFBF98BD89BBBABBB
:103724009ABB754A545A376A167AF10AD01AB32AE0
:10373400923A2EFD0FED6CDD4DCDAABD8BADE89D0B
:10374400C98D267C076C645C454CA23C832CE01C30
:10375400C10C1FEF3EFF5DCF7CDF9BAFBABFD98F9B
:10376400F89F176E367E554E745E932EB23ED10E80
:04377400F01E000043
:0837780080CAFF7F0100000080
:04378000AD0100088F
:0437840089010008AF
:10378800FC340008000100000000000000000000F8
:103798000000000000000000000000000000000021
:1037A8000000000000000000000000000000000011
:1037B8000000000000000000000000000000000001
:1037C8000000000000000000000000000B350008A9
:1037D800010100000000496E6475737472794772C4
:1037E8006F77204D30352D53414645545900000020
:1037F80000000000000000000000000000000000C1
:1038080000000000000000000000000000000000B0
:0C38180000000000000000000024F4008C
:04000005080032318C
:00000001FF
