:020000040800F2
:10000000000002209D590008ED590008ED59000834
:10001000ED590008ED590008ED59000800000000F6
:10002000000000000000000000000000ED59000882
:10003000ED59000800000000ED590008C50C00084B
:10004000ED590008ED590008ED590008ED59000878
:10005000ED590008ED590008ED590008ED59000868
:10006000ED590008ED590008ED590008ED59000858
:10007000ED590008ED590008ED590008ED59000848
:10008000ED590008ED590008ED590008ED59000838
:10009000ED590008ED590008ED590008ED59000828
:1000A000ED590008ED590008ED590008ED59000818
:1000B000ED590008ED590008ED590008ED59000808
:1000C000ED590008ED590008ED590008ED590008F8
:1000D000ED590008ED590008ED590008ED590008E8
:1000E00051320008ED590008ED590008ED5900089B
:1000F000ED590008ED590008ED590008ED590008C8
:10010000ED590008ED590008ED590008ED590008B7
:10011000ED590008ED590008ED590008ED590008A7
:10012000ED590008ED590008ED590008ED59000897
:10013000ED5900080000000000000000ED59000823
:10014000ED590008ED590008ED590008ED59000877
:10015000ED590008ED590008ED590008ED59000867
:10016000ED590008ED590008ED590008ED59000857
:10017000ED590008ED5900080000000000000000E3
:08018000ED590008ED590008DB
:1001880010B5054C237833B9044B13B10448AFF3C9
:1001980000800123237010BDD00100200000000062
:1001A8002C5D000808B5034B1BB103490348AFF3A6
:1001B800008008BD00000000D40100202C5D00086C
:1001C80053B94AB9002908BF00281CBF4FF0FF31B6
:1001D8004FF0FF3000F06AB9ADF1080C6DE904CEBC
:1001E80000F006F8DDF804E0DDE9022304B070470A
:1001F8002DE9F047089D0C46002B4ED194468C45BE
:100208008646B2FA82F262D94AB1C2F1200391401D
:1002180020FA03F30CFA02FC194300FA02FE4FEA33
:100228001C471FFA8CF6B1FBF7F44FEA1E4307FB95
:10023800141143EA014304FB06F199420AD91CEB65
:10024800030304F1FF3080F01281994240F20F81DC
:10025800023C6344591A1FFA8EF3B1FBF7F007FB0F
:10026800101143EA014300FB06F69E420AD91CEB33
:10027800030300F1FF3180F0FC809E4240F2F980D8
:10028800634402389B1B40EA044000211DB1D3405F
:100298000022C5E90032BDE8F0878B4205D90DB1CF
:1002A800C5E9000100210846F5E7B3FA83F1002902
:1002B80046D1A34202D39042C0F0F080861A64EB84
:1002C80003030120002DE6D0C5E90063E3E7002A17
:1002D80040F09080A1EB0C044FEA1C481FFA8CF701
:1002E8000121B4FBF8F64FEA1E4308FB164443EA23
:1002F800044307FB06F0984208D91CEB030306F1F8
:10030800FF3402D2984200F2CD8026461C1A1FFA0A
:100318008EF3B4FBF8F008FB104443EA044300FBF7
:1003280007F79F4208D91CEB030300F1FF3402D200
:100338009F4200F2B0802046DB1B40EA0640A5E75A
:10034800C1F120068B4022FA06F71F4320FA06FC6B
:1003580004FA01F343EA0C03F44000FA01F8380CFC
:100368004FEA1349B4FBF0FE1FFA87FC00FB1E445A
:1003780049EA04440EFB0CF9A14502FA01F20AD934
:100388003C190EF1FF3A80F08480A14540F281804B
:10039800AEF1020E3C44A4EB09041FFA83F9B4FB46
:1003A800F0F300FB134449EA044403FB0CFCA445A6
:1003B80007D93C1903F1FF3067D2A44565D9023B40
:1003C8003C4443EA0E40A0FB0293A4EB0C049C427D
:1003D800CE469C4651D34ED055B1B8EB0E0364EBD4
:1003E8000C0404FA06F6CB401E43CC40C5E9006471
:1003F800002150E7C2F1200320FA03F10CFA02FCB5
:1004080024FA03F394400C434FEA1C4800FA02FE16
:100418001FFA8CF7B3FBF8F008FB1031230C43EA02
:10042800014300FB07F1994208D91CEB030300F1D3
:10043800FF362CD299422AD9023863445B1AA4B2F7
:10044800B3FBF8F108FB113344EA034401FB07F35B
:10045800A34208D91CEB040401F1FF3613D2A342CE
:1004680011D902396444E41A41EA004139E70446E3
:10047800F0E6084606E7C845AED2B9EB020E63EBD4
:10048800070C0138A8E73146EDE7034699E73046FF
:10049800D4E7D6467FE7634402384DE7064623464D
:1004A80008460FE7023E634430E700BF704700BFCD
:1004B800034613F8012B002AFBD1181A013870479C
:1004C8002DE9F84300F086FC00F030FC00F0EEF86F
:1004D80000F048FD604800F075FD604800F072FDCE
:1004E80000F08CFC00F06EFD5D4800F06BFD00F044
:1004F80019F9054602F062FB04465A4800F062FD0D
:10050800284600F08BFD002C5ED0574800F05AFDBD
:10051800606800F057FD524800F054FD271E18BFD0
:100528000127384600F00EF900F0E4FE4F4A504B20
:10053800002814BF1046184600F044FD00F02AFABF
:100548004C4800F03FFD00F0EFFA00283ED000F0E4
:10055800F1FA05464848DFF8489100F033FD05F107
:10056800FF38083518F8016F330906F00F0619F837
:10057800030000F01FFD19F8060000F01BFD4545BB
:10058800F0D13E4800F01EFD00F012FB00F02AFBFF
:1005980005463B4800F016FD00F078FB00F012FD20
:1005A800384800F00FFD284600F015FD2C4800F0F3
:1005B80009FD00F01DFB064650B15CB92646DFF880
:1005C800E480DFF8E49007E02F48A5E72F48D9E753
:1005D800002CF4D0D4E90198002000F037FD4A46F9
:1005E8004146284601F04CFE00F002FB394601F076
:1005F8008BFF274800F0E6FC284600F0ECFC184882
:1006080000F0E0FCCEB1E368984700F02BFC00F066
:100618005DFB054600F056FC0EB12369984701F0D2
:10062800CBFF00F053FB401BB0F5FA7FF2D300F08C
:100638004DFB054600F090F8ECE7164800F0C2FCC8
:1006480000F0D6FA144A154B00280CBF104618467D
:1006580000F0B8FCD9E700BFF15D0008205E000893
:100668001D5E00082D5E0008425E0008605D0008FF
:10067800445D00087A5E0008975E0008A45E0008E2
:10068800D75E0008E75E0008475E0008B95E00080C
:10069800F25E0008065F0008D85D0008B55D000836
:1006A8002E5F00087E5D0008A15D00081B4B1A6BD9
:1006B80042F003021A631B6B194B4FF400329A6124
:1006C8004FF480229A611A6822F00C0242F0040268
:1006D8001A601A6822F0300242F010021A601A6892
:1006E80022F440621A601A6822F440521A601A68AA
:1006F80022F440421A60DA6822F4406242F400624E
:10070800DA60DA6822F4405242F40052DA60DA68B9
:1007180022F4404242F40042DA6070470038024056
:1007280000000240064B1B69C3F340105A0648BF3D
:1007380040F002001B0648BF40F00400704700BFAD
:10074800000002400028034B0CBF4FF40032022285
:100758009A61704700000240024A536983F002031D
:100768005361704700000240F0B50246014448F268
:10077800050700208A4213D012F8016B08250124CE
:10078800430026424FEAD03C98B214BF012300230D
:10079800634518BF78406400013DE4B2F0D1E9E751
:1007A800F0BD0000104B1A6822F470021A601A6833
:1007B80042F420021A605A6842F440625A609A6809
:1007C80042F470029A60DA6822F47002DA60DA6839
:1007D80042F4A002DA605A6A22F47F425A625A6AE4
:1007E80042F488425A62704700040240024A136881
:1007F80043F400731360704700580040064B074AE3
:10080800D2F81418014201D1013BF9D1B3FA83F0AF
:1008180040094042704700BFA086010000500040D8
:1008280038B5144C236843F48073054623600120CF
:10083800FFF7E4FF002814DBC0350F4B256140F2B9
:100848000242616911420FD1013BFAD1636923F475
:1008580080636361236843F4007323606FF00100D1
:1008680038BD4FF0FF30FBE7606910F48060F7D0C7
:10087800ECE700BF00580040A086010070B50446B0
:1008880000200D46FFF7CCFF00281FDB114EB3698F
:1008980025448020FFF7B2FF002804DAFFF7A6FFFF
:1008A8006FF0010070BD14F8013B3361AC42F0D128
:1008B8000420FFF7A3FF002804DAFFF797FF6FF083
:1008C8000200EFE7FFF792FF0020EBE74FF0FF3061
:1008D800E8E700BF0058004007B501210DF1070007
:1008E8008DF80710FFF7CAFF03B05DF804FB00009E
:1008F8002DE9F843264C236843F4806305462360BA
:1009080001208846FFF78CFF00283BDBA36905F12F
:10091800FF3900264020FFF771FF002807DAFFF7AC
:1009280065FF6FF00200BDE8F8833E46F2E72369F1
:1009380009F8013F771CA8EB0703032BF5D804201F
:10094800FFF75CFF002804DAFFF750FF6FF00300A1
:10095800E9E7236823F48063236072B62369EB55C3
:10096800236843F400732360F71C2E442369B37093
:1009780062B64020FFF742FF002806DB2369EB55EB
:100988000020D0E76FF00100CDE76FF00400CAE760
:10099800005800402DE9F04F5D4C5E4B5E4E5F4DB8
:1009A80000212160616021721A6B317042F00202ED
:1009B8001A631A6C42F480021A6491B01B6CFFF738
:1009C800F1FE574B4FF400421A602A2219605A6010
:1009D800D222DA612B221A6201221A601A6822F0E6
:1009E80001021A602B6823F440032B602B6843F440
:1009F80080032B606B6823F400636B604FF0006327
:100A0800AB6100F075F90746884600F071F9C21B22
:100A180061EB0803502A73F10003F6D34FF4006327
:100A2800AB61FFF7BFFE3E4B01251D60022000F0C1
:100A380053F9042104A8FFF75BFF002804DA11B07A
:100A4800BDE8F04FFFF748BF9DF81030042BF6D1F2
:100A58009DF81130112BF2D1324B0593052100235B
:100A68000DF11500ADF81830FFF77EFE0821ADF83E
:100A78001A0005A8FFF702FF0028E0DB052000F0B8
:100A88002BF9232107A8FFF733FF0028D7DB9DF8B0
:100A98001C30232BD3D1212107A8FFF765FE9DF831
:100AA8003D20C3B29A42CAD19DF83E30C0F3072018
:100AB8009842C4D19DF81D009DF81E109DF81F2076
:100AC8009DF820309DF825B09DF826A09DF8279028
:100AD8009DF828809DF82970039002910192009357
:100AE800FFF7FAFE03980299019A009B2070617043
:100AF800A270E37084F804B084F805A084F8069026
:100B080084F807802772357011B0BDE8F08F00BFF8
:100B1800EC01002000380240F501002000040240EA
:100B28000058004003070280014B1878704700BF47
:100B3800F501002000487047EC010020084B1A6BB3
:100B480042F480521A631B6B064B01229A600268BA
:100B58001A6042681A6082681A601868704700BF95
:100B680000380240003002401FB50E4B1B7813B10D
:100B78007F2004B010BD0C4B0C4C186801905A68CB
:100B8800029299680391A042F2D1012AF0D17E29FC
:100B9800EED801A8DC68FFF7D1FF8442E8D1C8B2DB
:100BA800E7E700BFF601002000000E08444E474961
:100BB80008B5074A074B9B1A074A18BF0123137049
:100BC800FFF7D2FF054B1870054B187008BD00BF22
:100BD80000000E0800000E08F601002000000020AA
:100BE80001000020014B1878704700BF0100002069
:100BF800024B18787F3818BF012070470100002089
:100C0800014B1878704700BF00000020034B18788C
:100C1800034B1B78C01A18BF012070470000002042
:100C28000100002030B5154B1B7885B004464BB940
:100C3800010607D40B2000F05DF9114D30B1FFF724
:100C480093FF28704FF0FF3005B030BD7F2C0DD0DA
:100C58000C4A029401236846CDE90023FFF76EFF92
:100C6800694603900422084800F05CF9FFF77CFF0E
:100C78002870001B18BF4FF0FF30E5E7F601002091
:100C880000000020444E474900000E08064B1B7820
:100C98003BB9064B06481A78064B7F2A18BF1846F8
:100CA80070470548704700BFF6010020010000208A
:100CB800725F0008965F00083F5F0008024A1368E9
:100CC80001331360704700BFF8010020014B18681A
:100CD800704700BFF8010020044A116813685B1AC6
:100CE800834200D3704730BFF8E700BFF801002007
:100CF80010B50B494FF0E022086894690B688342ED
:100D0800FAD15069074A08491268B2FBF1F2001B90
:100D18000021B0FBF2F04FF47A72E3FB020110BD40
:100D2800F8010020AC00002040420F00214B1A6857
:100D380042F480321A601A689203FCD51A6C1E4974
:100D480042F080521A641A6C0A6842F480420A60BF
:100D58001A4A40F205711160194A5A601A6842F03D
:100D680080721A60134A13689B01FCD5936823F4B8
:100D78007C4323F0F00343F414439360936823F017
:100D8800030343F0020393600A4A936803F00C03D9
:100D9800082BFAD10B4B0C4A1A604FF0E0230B4A90
:100DA8005A610B4AF02182F8231000229A61072227
:100DB8001A6170470038024000700040003C024051
:100DC80008544007AC000020007A030A3F90020054
:100DD80000ED00E0044B05495A6F120E0A705A6F75
:100DE80042F080725A67704700380240FC010020C8
:100DF800014B1878704700BFFC010020104B1B788E
:100E0800980610D4590610D41A0610D4D80610D44F
:100E1800590710D41A0710D413F0020F094B0A48C7
:100E280008BF18467047094870470948704709487D
:100E3800704709487047094870470948704700BF1C
:100E4800FC01002003600008F95F0008A25F0008A9
:100E5800B75F0008BC5F0008C65F0008CF5F0008E6
:100E6800F05F0008134A936843F480539360124B71
:100E78005A6F42F001025A67104A596F890701D424
:100E8800013AFAD15B6F9B0713D50D4B45F25552CA
:100E98001A6004225A604FF47A729A60074AD96835
:100EA80009B1013AFBD14AF6AA221A604CF6CC42A3
:100EB8001A607047002004E000380240A186010053
:100EC80000300040024B4AF6AA221A60704700BF61
:100ED80000300040054B1A69002ABFBF044A5A6017
:100EE80002F188325A601869C0177047003C024006
:100EF8002301674510B50146EFF3108472B6FFF77A
:100F0800E9FF10B9054B08469847054A136943F0AD
:100F18000043136184F3108810BD00BF3D01002019
:100F2800003C024070B515468207044613D191B1C2
:100F38008DB1EFF3108672B6FFF7CCFF18B9074BE7
:100F48002A4620469847064A136943F0004313612E
:100F580086F3108870BD4FF0FF30FBE77901002061
:100F6800003C0240114B1A6B42F001021A635A6CA2
:100F780042F010025A645B6C0D4B1A6822F470122E
:100F88001A601A6842F420121A605A6A22F47F62C0
:100F98005A625A6A42F4EE625A62A3F5704340F20A
:100FA800D9229A6042F20C02DA6070470038024097
:100FB80000000240024B1A681206FCD558607047C0
:100FC8000010014008B5411E11F8010F00B908BD15
:100FD800FFF7F0FFF8E77FB528B9302004B0BDE887
:100FE8007040FFF7E7BF01AB00211E460A24B0FBA3
:100FF800F4F504FB1502303203F8012B0246092AE6
:1010080001F10101284601D90A29F0D10139705CA2
:10101800FFF7D0FF0029F9D104B070BD10F0040F1C
:1010280008B5014614BF31203020FFF7C3FF11F087
:10103800020F14BF31203020FFF7BCFF01F0010080
:10104800BDE808403030FFF7B5BF00003C4A136BDD
:1010580043F002031363136B3A4B196821F47021B0
:101068001960196841F420211960996841F47021C8
:101078009960596A21F0FF015962596A41F0990152
:101088005962136C43F000731364136C2E4B1A6887
:1010980022F002021A601A6842F001021A602B4A12
:1010A8005968C90703D4013AFAD1012070471A6870
:1010B800274942F040021A60264A002808BF0A461B
:1010C800DA61D3F80022214842F00102C3F8002275
:1010D800D3F81C2222F00102C3F81C22D3F80C22F8
:1010E80042F00102C3F80C22D3F8042222F00102D4
:1010F800C3F804220022C3F84022C3F84422D3F8DC
:10110800142222F00102C3F81422D3F81C2242F060
:101118000102C3F81C22D3F8002222F00102C3F80E
:1011280000221A6822F001021A60074B5A68D20797
:1011380001D50138FAD1B0FA80F040094000704773
:1011480000380240000402400064004040420F00A2
:1011580005001A0005001AC0082AF0B524D8154B56
:101168009B685B0123D500231E461F46DCB2A242C2
:101178000DD8104B400540F00100C3F88421C3F896
:101188008871C3F88C61C3F880010020F0BD032B7F
:10119800CC5C4FEAC3058BBF203DAC40AC40274335
:1011A80088BF26430133E1E74FF0FF30EEE76FF0E9
:1011B8000100EBE70064004070B5184C0546E06894
:1011C80010F0030018D0D4F8B031D4F8B401D4F832
:1011D800B861D4F8BC410DB15B0D2B8000F00F0055
:1011E800082828BF082002B11070A9B90B4AD36893
:1011F80043F02003D360012070BDD300032A8ABFC7
:10120800203B26FA03F324FA03F3DBB28B540132B2
:10121800D3B29842F1D8E9E70022F9E70064004028
:10122800082AF0B524D8154B9B685B0123D5002309
:101238001E461F46DCB294420DD3104BC00040F04E
:101248000500C3F88421C3F88871C3F88C61C3F81A
:1012580080010020F0BD032BCC5C4FEAC3058BBF97
:10126800203DAC40AC40274388BF26430133E1E72B
:101278004FF0FF30EEE76FF00100EBE7006400404D
:10128800F0B51B4E0746F06810F0030011D0D6F8F1
:10129800B031D6F8B441D6F8B851D6F8BC6113F0DD
:1012A800040FC3F3800005D1114AD36843F020032B
:1012B800D360F0BD0FB1DB083B6004F00F04082CCD
:1012C80028BF082402B114700029EDD000220AE0DA
:1012D800D300032A8ABF203B25FA03F326FA03F337
:1012E800DBB28B540132D3B29C42F1D8DCE700BFA9
:1012F800006400401FB50120FFF7A8FE50BB45F66B
:10130800A523022201A940F22310ADF80430FFF70B
:1013180023FF044600BB1B4B1B4AD16889071FD11A
:10132800013BFAD10324204604B010BDBDF80620C5
:1013380040F223139A4211D19DF80330022B0DD1AC
:101348009DF80830A52B09D19DF809305A2B18BFF4
:101358000524E8E70124E6E71446E4E70524E2E784
:1013680000230DF1030202A90DF10600CDE90233B5
:10137800ADF806308DF80330FFF71EFF0128D5D0F1
:101388000424D0E740420F0000640040064B5A692D
:10139800510542BF5A6922F480625A615A6992071C
:1013A80048BF9B69704700BF00540040024A136859
:1013B80043F400731360704700540040074B084A19
:1013C80040F480605169084204D1013BFAD14FF0E2
:1013D800FF307047506940F380207047A0860100B5
:1013E80000540040074A1368591C1CBF013313609E
:1013F800002805DA044A1368591C1CBF013313601E
:10140800704700BF0402002000020020064B074A74
:10141800D2F81414014201D1013BF9D1B3FA83F097
:1014280040094042704700BFA086010000500040BC
:1014380010B1044B1B68036011B1034B1B680B60B0
:10144800704700BF04020020000200201D4B1A6BE9
:1014580042F002021A631A6C42F400121A641B6CFE
:10146800194B1A6822F470421A601A6842F4204232
:101478001A605A6842F0C0025A609A6842F4704290
:101488009A60DA6822F47042DA60DA6842F4A042BC
:10149800DA601A6A22F07F421A621A6A42F08842B7
:1014A8001A62A3F5D8334FF400421A6000221A607A
:1014B8002A225A60D222DA612B221A6201221A6089
:1014C800704700BF003802400004024008B5094BCD
:1014D80009481A6842F400721A609A69920701D59D
:1014E8000138FAD1FFF752FF18B9BDE80840FFF7F5
:1014F800ADBF08BD00540040A086010070B5184D6E
:101508000C46FFF743FFAB6903F00303022B0646C3
:1015180001D1FFF79BFF2B6843F480732B600120F8
:10152800FFF774FF002804DAFFF7D0FF4FF0FF3011
:1015380070BD44EA4604E4B20A4B094A2C6140F201
:1015480002415069084206D1013BFAD1FFF7BEFFBC
:101558006FF00100ECE7506910F48060E8D0F5E71F
:1015680000540040A086010070B50C4600211546C5
:10157800FFF7C4FF002816DB0E4EB3692544AC42C2
:1015880008D10420FFF71AFF0028B4BF6FF002004B
:10159800002070BD8020FFF711FF002806DB14F83B
:1015A800013B3361EBE74FF0FF30F2E76FF00100EA
:1015B800EFE700BF00540040F8B50D461746002A73
:1015C80000F097804C4C012A23681CD123F4406317
:1015D80023601146FFF792FF002822DB72B6A36949
:1015E800236843F40073236062B64020FFF70EFFC0
:1015F800002804DAFFF76AFF6FF0040013E023699C
:101608002B7000200FE0022A30D143F4406323609E
:101618000121FFF773FF002806DA236823F400632B
:1016280023606FF00300F8BD72B6A369236823F442
:101638008063236062B60420FFF7E8FE002806DA1C
:10164800FFF744FF236823F400632360D4E772B6EE
:10165800236843F40073236023692B7023696B703C
:1016680062B6236823F400632360CAE723F40063A7
:101678002360236843F4806323600121FFF73EFF62
:101688000028CEDBA3690026BB1B032B09D8042046
:10169800FFF7BCFE00280DDAFFF718FF6FF0050012
:1016A800C1E74020FFF7B2FE0028A3DB2369AB5552
:1016B8000136E9E7104C236823F48063236023692B
:1016C800AB550420FFF7A2FE002806F1010704DA53
:1016D800FFF7FCFE6FF00600A5E772B6236843F437
:1016E800007323602369EB5535442369AB7062B6F8
:1016F80087E74FF0FF3096E70054004008B5002117
:10170800FFF7FCFE002805DB034B9B69FFF74EFE45
:10171800012008BD0020FCE70054004010B572B15C
:10172800FFF722FF041E06DAFFF7D0FE2046FFF778
:1017380059FE204610BDFFF739FE0024F6E74FF0AA
:10174800FF34F6E708B5FFF737FFFFF74BFE08BD94
:1017580070B505461E468AB1FFF706FF041E06DA75
:10176800FFF7B4FE2046FFF73DFE204670BD049A01
:1017780031462846FFF720FF0446F3E74FF0FF34D1
:10178800F3E7000073B50D4600211446FFF7B6FED7
:1017980000282BDB174EB3698DF80450230A8DF807
:1017A80006408DF8053001AD00248020FFF706FEC5
:1017B800002807DAFFF78AFE6FF00100FFF712FE34
:1017C80002B070BD013415F8013B3361032CECD134
:1017D8000420FFF7F3FD002804DAFFF777FE6FF027
:1017E8000200EBE7FFF7E2FD0020E7E74FF0FF30EC
:1017F800E4E700BF00540040F8B50F460021064654
:101808001546FFF77BFE00284EDB294C8020A36994
:10181800FFF7D4FD002806DAFFF758FE6FF0010045
:10182800FFF7E0FDF8BD27610420FFF7C7FD00289A
:1018380004DAFFF74BFE6FF00200F1E7236843F488
:101848004063236001213046FFF758FE002806DA7E
:10185800236823F4006323606FF00300E0E772B6A7
:10186800A369236823F48063236062B60420FFF72A
:10187800CDFD002808DAFFF729FE236823F400636A
:1018880023606FF00400CBE772B6FFF78FFD216984
:10189800236962B62268DBB222F4006243EA0123BC
:1018A800226000202B80BBE74FF0FF30B8E700BF75
:1018B80000540040006804F002B8006803F086BFD6
:1018C8007FB5164604460D46FFF712FA064A0094FD
:1018D800821841F10003CDE901560449044803F098
:1018E80023FB04B070BD00BF40420F00742F0020DE
:1018F800602F00202DE9F0411546D708069A00EB25
:10190800D10603EBD20841463A46304604F0B0F916
:1019180015F007050BD00124AC4018F80730E4B2E5
:10192800621E1340F25D644222401343F355BDE842
:10193800F0812DE9F04311F0070F079D07460E4689
:101948009C4604D10795BDE8F043FFF7D3BFAA181A
:101958004FF0010E954201D3BDE8F08305F007086A
:1019680006F00709C84541464FEAD50438BF49463D
:10197800C1F10801531BF0081CF80440994228BF24
:10198800194644FA08F43B5C0EFA01F804FA09F423
:1019980008F1FF385C4008FA09F804EA08046340D3
:1019A8003B540D440E44D5E72DE9F041D400A34241
:1019B800069D94BFE41A241BAC4205F1070228BF18
:1019C8002C46D208984606460F46A2EBD4020021C0
:1019D80000EBD40004F066F9CDF818803B462246A7
:1019E80030460021BDE8F041FFF7A3BF1FB5CC008A
:1019F800944294BF241BA41A102C03464FF00001F4
:101A080000920DF10E00224628BF1022ADF80E10EC
:101A1800FFF78FFFBDF80E0004B010BD07B58DF8B5
:101A2800000001208DF801008DF804108DF80520C4
:101A38006846DDE90421ADF80230FFF741FF03B045
:101A48005DF804FB70B50446D0E90410ADF5047DDB
:101A580008B931BB14480022FFF7C8FF4FF482725F
:101A68000546002143A804F01DF9284643A900F0C3
:101A7800F5FF839DFF2D14D803AE0023EA008DF8EF
:101A88000C500093082143AB30460135FFF732FF75
:101A9800CDE9006540F28113627921792078FFF75A
:101AA800BDFF0DF5047D70BD1F5E0008F0B54FF455
:101AB800A872ADF5297D002105460DEB020004F062
:101AC800F1F801231022002158A88DF850318DF823
:101AD80052318DF8553104F0E5F8FFF725F8002864
:101AE8006FD0FFF727F802460068516858AB03C368
:101AF800127A1A703C4B1C682046FEF7D9FC322833
:101B08000246214628BF32225CA8699204F0FCF8FC
:101B1800549B0593BDF85431ADF81830DDE95623D0
:101B28000026CDF81A20CDF81E30009658AB80223A
:101B3800702105A8FFF7FDFE699C322C3ED88DF870
:101B48003240E4005CAB00962246F82105A8FFF776
:101B5800F0FE6C9F012F04F1F8032FD8DB0805AACB
:101B680004F58074D754BF013A46214600966AAB03
:101B780005A8FFF7DEFE3C44A69FDE2F1ED8E3082B
:101B880005AA0834D754FF006EAB3A46214605A88B
:101B98000096FFF7CEFE2B788DF80C3001238DF8D8
:101BA8000D30E1194FF4D773ADF80E3005AAAB88A4
:101BB800ADF81030C90803A8FFF782FE0DF5297D9E
:101BC800F0BD0A490A4854AB51F8042B1A74140A98
:101BD8005C7481424FEA12444FEA12629C74DA74D0
:101BE80003F10403F0D185E708000020107AFF1FF5
:101BF8001C7AFF1F2DE9FF4D90F800340B70044646
:101C08000D4616466BB901464FF48062681C04F015
:101C18002FF842F20803DB083360002004B0BDE867
:101C2800F08D012B25D1D0F80032FF2B25D84B7031
:101C380041F6FF7800214FF0000A4FF0000BD4F86E
:101C480000224F1C3B0191424FEAD300E3D234F803
:101C58001130434528BF43462B52002300930D21E2
:101C680002AB03222844CDE902ABFFF762FE3946F6
:101C7800E5E7022B04D10823CDE76FF00900CDE793
:101C88006FF00A00CAE700002DE9F041ADF6980DA3
:101C980040F68802002104A804F004F801238DF816
:101CA8001034524B049341F6F873ADF81430504B8E
:101CB8001C78504B186805A90022D3B29C4200F248
:101CC80091800333DBB2012500260DF658042A461D
:101CD80084934FF4D77102AB204600968DF81458C0
:101CE8008DF80850FFF725FE2A4602AB4FF4C07165
:101CF800204600968DF80850FFF71BFE2A468DF8FF
:101D080008503D4D009602AB40F2B3112046FFF754
:101D180010FE40F2014802AA294604A8CDF808801E
:101D2800FFF768FFB04253DB029B45F8043CDB0039
:101D38002E1F03F1400502AA06EBD5010DF214404F
:101D480003F12007CDF80880FFF754FF00283FDB98
:101D5800029BFF084021F35105EBC303DA080DF697
:101D68001807B15003F1200206EBD2023D4603CD1D
:101D7800A542106051602F4602F10802F6D103F522
:101D88000872D2084021B15003F5107206EBD20256
:101D98000DF69806254603CDB542106051602C46D5
:101DA80002F10802F6D1154C154A0292FF2203F5FA
:101DB80088618DF80C2022788DF80D20C908114A09
:101DC80002A8FFF77DFD2378013303F01F0323707A
:101DD8000DF6980DBDE8F08130F8123021F8023F79
:101DE80001326AE7FC2AF7D1FF236CE7551D561D1F
:101DF800B6260020B82600200C020020B5260020B8
:101E08000700561D080200202DE9F047D0E90446D6
:101E18002DED028B0546ADF5CD6D002E75D0E70092
:101E2800072F78D80023CDF85034DB0000932246E2
:101E380008233146D4A8FFF7B7FDDDF85024D300B6
:101E48000833BB4228BF3B46DB089C4294BF221B99
:101E5800E21AD100072960D800238DF860364CAE0D
:101E68004FF408720021304603F01CFF0DF10F04F7
:101E78000023009450AA8DF80E308DF80F300DF520
:101E88008B610DF10E03D4A800F000FE9DF80E3012
:101E980033729DF80F307372FEF72AFFC6E900010E
:101EA80096E80300727A0990337AADF82810090C85
:101EB80009AC8DF82A10E37112B143F00203E37103
:101EC80000220023CDE9042300230093062204AB5B
:101ED8003A212046FFF72DFD96F818322372002B81
:101EE80000F0CB81013B0D2B58D8DFE813F0260119
:101EF8002601D8003D014501130126013D01450198
:101F0800130126013D0145014D01002C46D1AD4E7E
:101F18002746234687E7337885E7F018F35C8DF882
:101F28006036002B9BD0013B0D2B37D8DFE803F040
:101F38003C3C074E63203C4E63203C4E6378012AAC
:101F480094BF941A02F1FF34461C00222146304601
:101F5800FFF74CFDB0F5006FCDF858051ED800907E
:101F68001023224631460DF58B60FFF71DFD76E7FD
:101F7800012A94BF921A02F1FF32D300072B00F115
:101F8800010106D80023CDF858351B01009308231A
:101F9800E9E74378CDF85835802BF6D90DF5CD6DA6
:101FA800BDEC028BBDE8F087012A94BF941A02F1B8
:101FB800FF34461C002221463046FFF717FDB0F5D6
:101FC800807FCDF85805E9D8C000C8E7012A94BF3A
:101FD800921A02F1FF32D300072B00F1010104D855
:101FE8000023CDF858359B01D0E74378CDF8583514
:101FF800202BF8D9D2E7012A94BF921A02F1FF32B6
:10200800D300072B00F1010104D80023CDF858357F
:102018005B01BBE74378CDF85835402BF8D9BDE7CD
:10202800012A94BF941A02F1FF34E300072B00F150
:1020380001072ED80026CDF858663601DFF8A091A2
:102048009FED618ADFED618A0DF58B6808364FF0E8
:10205800080AB2453FF403AF524621463846FFF717
:10206800C5FC09EA403307EE903A67EE887A000427
:1020780017EE903AF4EEE87AF1EE10FAA8BF43F0C2
:10208800FF4300F00040184348F8040B0AF1100A17
:10209800DFE74678CDF85866802ECED97EE7D6F8A9
:1020A8001071B7F5006F3FF679AFB6F81031A4F8A4
:1020B800093000263A461021009650AB0DF12D004C
:1020C800FFF718FC07F1100117F0070713D00022DB
:1020D800C7F108070023CDE90623FAB251FA87F7BA
:1020E800B7F5016F3FF65AAF009606AB0DF12D001C
:1020F800FFF71FFC394621F0070208324032D208A8
:10210800CDE900424FF4C0736A7929792878FFF73E
:1021180085FC43E7D6F81061802E3FF63FAF667224
:10212800360100230093324650AB08210DF12D00F3
:10213800FFF7E0FB06F11002E0E7D6F81021B2F550
:10214800807F3FF62BAFB6F81031A4F80930D600DF
:1021580000230093324650AB10210DF12D00FFF7FC
:10216800C9FB06F11802C9E7D6F81061202E3FF620
:1021780015AF6672B601D4E7D6F81061402E3FF667
:102188000DAF66727601CCE7D6F8100280283FF6CC
:1021980005AF6072DFED0E6A9FED126A9FED0D7A52
:1021A8000D4FDFED0E5A000150AB0830082647F6F8
:1021B800FF7C0DF12D0E86424FEAD60214D1013272
:1021C800D2009BE71F5E0008000080770000804770
:1021D800FFFF7F7F00E07F4700F0FF7F0000800760
:1021E80000E0FF0F00E07FC7F3EC017AB0EEE75A9A
:1021F800B4EE665AF1EE10FA0BD8F4EEC67AF1EEA8
:1022080010FA22D4F4EE477AF1EE10FAC8BFF0EED5
:10221800477A17EE908A28F00041B1F1FF4F17D3A3
:10222800C8F31609B9F1000F24D1B1F1FF4F0CBF63
:102238004FF4F84161464FEA184808F4004841EA6B
:1022480008012EF802101036B5E75FED1A7AE0E7BC
:1022580008EA070107EE901A67EEA57A17EE901ABA
:1022680001F58051B1F1786F28BF4FF07861C1F363
:102278004F31E0E74FF4FC41DDE708223EE700BFBD
:102288002DE9F047074692B089464148DFF844A156
:10229800404E4FF40051904603F066FA0AACCAF873
:1022A80000003D4A3D490AA802F02CFE0FCC3546F5
:1022B8000FC594E80700DAF80030336085E80700B6
:1022C8003771FEF731FC364B364D1870082204A8DA
:1022D800282104AC02F021FE0FCC0FC52368324C34
:1022E8002B600025314B0293CDE9004500234FF4C4
:1022F800D7720221304603F0BFF92D4B0293CDE986
:10230800004540F203234FF4C0720221304603F027
:10231800B3F9284B02930223CDE90045194640F250
:102328008112304603F0A8F9234B0293CDE900450A
:102338004FF4967340F2B3120221304603F09CF931
:102348001E4B02934FF4E052CDE9004507230021CC
:10235800304603F091F91A4B41463846C3F80090CD
:1023680000F062FBFEF7C4FC164B174AC3E90001F4
:10237800164BC31841F10004C2E900340A4A144B51
:10238800801841F10001C3E9000112B0BDE8F087EF
:10239800A02F0020742F0020BD180008C3180008C3
:1023A80030240020602F002080841E00382D00205B
:1023B800102B0020E8280020C026002068240020D8
:1023C80008000020982600209026002040420F0098
:1023D800A8260020902F002013B50C460421ADF844
:1023E8000010FF218DF804102178ADF802008DF857
:1023F800051068461946FFF763FA2378013303F09E
:102408001F03237002B010BD08B5084B187850B1EF
:10241800FEF76EFC064BD3E90023801843EB01015D
:10242800002901DA0020014608BD00BF4024002031
:1024380048240020014B1870704700BFBC260020BC
:10244800014B1860704700BFB026002070B5CAB0B5
:1024580004464FF488720D4606A8002103F022FCBA
:10246800FFF7D2FFCDE906018DF820400DF12302D8
:1024780000242B5D0BB1FF2C3BD1204D9DF81E3065
:10248800AB719DF8203006982860072B284628BF96
:102498000723BDF81C20AA80002600F8073F002269
:1024A8000023CDE90423009604AB052203214994B7
:1024B800FFF73FFA2C72E400009609AB2246284643
:1024C8004821FFF736FA0E4E0E4B02934834FF238D
:1024D8008DF80C302A4633788DF80D30E10802A8C3
:1024E800FFF7EEF93378013303F01F0333704AB076
:1024F80070BD02F8013F0134BBE700BF1A2300207A
:10250800B42600200700F81F044B1870044B1970FC
:1025180018B904490420FFF799BF70470300002049
:10252800020000200B600008F0B5A5B004AB0D4612
:10253800002419462E5D671C0EB1722C24D104F1BB
:1025480090036B44202503F8805C4FF00A0E0023AB
:102558001D4690356D44B2FBFEFC0EFB1C26303642
:1025680005F88C6C15460133092DDBB26246EFD8AD
:102578000C441A4662B990336B443B4403F8802CF0
:10258800FFF764FF25B0F0BD03F8016B3C46D1E7C7
:10259800551E24AEEAB256FA85F515F88C5C04F897
:1025A800015FE7E7024B1860024B1970704700BFE4
:1025B800B8260020B62600202DE9F04FB7B0FEF768
:1025C80097FBB34AD2E900349842A14107D3B149F5
:1025D8005B1844F10004C2E90034FFF755FBFEF72D
:1025E80087FBAD4AD2E900349842A1415AD3AB499E
:1025F8005B1844F10004C2E90034FEF779FBA84AED
:10260800D2E90034C01AA54A4FF0000361EB040177
:10261800FDF7D6FDA34B1B78064623B1A24B1B78CA
:102628000BB1A24B1B7803F00104A14B1B7884F07B
:1026380001049C4238BF1C46FEF7DAFB032C28BF76
:1026480003248DF8644000240546189600270026C8
:10265800009408AB0622022119A8CDE90867FFF704
:1026680068F900940AAB052203210DF165008DF885
:102678006540CDE90A678F4CFFF75BF98E4B1293E3
:10268800FF238DF84C3018AA23788DF84D30072198
:1026980012A88DF86650FFF713F92378013303F079
:1026A8001F032370FEF724FB844DDFF814820646CF
:1026B8000F46284602F0CEFD0446C8B1D4E90623E9
:1026C80052EA03010CD0B242BB4109D22146284646
:1026D800D8F80C9002F0C6FD01467948C847E8E7EB
:1026E80094F82420A16A206AFEF79AFD0028EDD00C
:1026F8000DF11B020DA907A8FEF7C2FD012843D062
:10270800704C237873B1FEF7F3FA6F4AD2E90032BE
:10271800C01A61EB02016D4A0023824273EB01018A
:1027280038BF2370FEF772FAB0B1694CFEF7E0FAD1
:10273800D4E90023904299410ED3FEF7D9FA554BBC
:10274800C01841F10001C4E90001FEF759FA6149D6
:1027580002460320FFF7E8FE5F4B1B78002B00F0D2
:102768004C81564802F076FD002840F04681BFF3C0
:102778004F8F5A495A4BCA6802F4E0621343CB6040
:10278800BFF34F8F00BFFDE7079B0F939DF81B30EA
:1027980010930DAB1193FEF7ABFA12AC0023CDE901
:1027A800013403930FAB009302460B46444802F0F2
:1027B80069FD01289CD19DF84920022A40F09A80A1
:1027C800BDF84A30B3F5D77F4AD00CD8B3F5C07FEF
:1027D8004AD040F2811293424AD0394B1799DB68AC
:1027E8003748984784E740F2B3129342F5D1DDE9C0
:1027F800165414B9002DF0D13A4C0022294620462F
:10280800FFF7F4F8EB00172BADF8600034D800237D
:102818003593DB00009319A818232A462146FFF7B1
:10282800C3F80023BDF860008DF814304FF6FF732D
:10283800984226D1284B01221A709DF814308DF841
:1028480018300123019306AB00939DF84D209DF8A5
:102858004C109DF8480040F2B313FFF7DFF8BCE7CF
:102868002046FFF723F9B8E72046FFF7CDFAB4E78B
:102878002046FFF7E7F8B0E7A3783593702BC8D95F
:10288800ABE7194B1B688BB398478DF81400D4E756
:10289800A8260020809698009026002040420F002D
:1028A8009826002030240020030000200200002089
:1028B800BC260020A02600200400551D602F002003
:1028C800742F00204024002038240020C0C62D008A
:1028D800282400203F600008BD26002000ED00E00D
:1028E8000400FA051F5E0008B026002003238DF8B7
:1028F8001430A2E7179B002A7FF46FAFBDF84A2077
:10290800B2F5E05F7FF469AF9DF94C209DF84C70FB
:10291800002AFFF662AF169A1BB9002A7FF45DAF52
:10292800374BD200382A4FF000004FF000014FF02B
:102938000004CDE9180128BF3822214618A80094C0
:10294800FEF7D8FFDFF8D4E02E4BBEF80090BEF9B2
:102958000060B945DDE91815DDE91420D3E900C8A0
:102968000FFA87FA09D8DFF8B8B0B2EB0C0960EBB8
:102978000807CB4574EB070B12D22349AEF800A029
:10298800C3E9002000249DF84DA00C701F4B0124C2
:1029980083F800A01E4B1C701E4BC3E900201CE7E7
:1029A800B2457FF41AAFDFF868E09DF84DA09EF8B5
:1029B80000E0BEF1000F1DD051EA050E1AD0DFF875
:1029C8004CE09EF800E00EF1010E0EF01F0ED64509
:1029D80010D1DFF850E0CE4574EB07070AD3B1EB0E
:1029E8000C010D4B65EB0805C3E90015064B0121E9
:1029F8001970CFE7C3E90020C8E737B0BDE8F08F0A
:102A08001F5E000858240020402400205024002085
:102A180060240020382400204824002004000020DE
:102A2800C0C62D0040420F0070B50B4C0D462081EA
:102A380081B10846FDF73CFD3F2828BF3F200646E8
:102A48000246294604F15600344403F05DF9002398
:102A580084F8563070BD00BF0C000020012870B506
:102A68000D460FD84C235843074B1E583046FDF7E8
:102A78001FFD314604460246284603F045F9C5F8CD
:102A8800004170BD0024FAE70C0000202DE9F04752
:102A9800494C26688146304615460F469846FDF74C
:102AA80007FDD9F800A15045024605D131464846F0
:102AB80003F0CEF8064660B1E66C3046FDF7F8FC48
:102AC80050452CD152463146484603F0C1F830BB38
:102AD80001264C20704304EB000999F8053099F859
:102AE80004201BBB4C2303FB06431B79002B4CD152
:102AF80015B10A2385F808324C2303FB06431B89CA
:102B08002B800123C5F800314C2303FB064463796D
:102B180088F80030A379089A1370BDE8F08700237D
:102B2800002D46D188F800300023F4E7002FD9D0D3
:102B380097F80832002BD5D09AB90A2BD8D1D7F8F4
:102B48000031002BD4D0388846B97F2802D8C0B2CB
:102B5800FEF768F8FEF754F82081C3E7A4F854009C
:102B6800C0E7012A11D1012B0FD1D7F800213F2A44
:102B780028BF3F2292460A3039462044D14403F008
:102B8800C3F8002389F80A30ACE715B1012385F8AA
:102B980008324C2707FB06470A373846FDF788FCFA
:102BA800394681460246284603F0AEF8C5F800913A
:102BB800AAE785F80832B5E70C000020431EDBB20F
:102BC800FD2B0AD8052806D0012806D1044B14226B
:102BD80002FB003070470020F8E70020704700BF74
:102BE800FC600008012807B505D002280BD0032097
:102BF80003B05DF804FB00F07FFB0A490320FFF7F0
:102C080025FC0020F4E70DF106010020ADF80600D0
:102C180000F0B2FBBDF8062003490320FFF784FC4F
:102C2800EFE700BF246100084261000838B544207E
:102C3800FEF764FD064D044618B12B780BB900F079
:102C480075FA48202C70FEF759FD024B187038BDF4
:102C5800C04F0020BF4F002038B50B46044615462C
:102C680001460722184603F003F8A268C0F80720B7
:102C78000B232B60002038BD2DE9F8431E464B0777
:102C88000C46154640D100EBD104D7083A463146E8
:102C9800204602F0EDFF15F007030AD001259D40FC
:102CA800EDB2F35D6A1E1340E25D6D422A401343A4
:102CB800E355BDE8F88301F0070804F00709C845A3
:102CC800434638BF4B46C3F108036A1A934228BFEC
:102CD8001346CA084FEAD40CB25C10F80C7042FADA
:102CE80008F20EFA03F802FA09F208F1FF387A40FE
:102CF80008FA09F802EA0802574000F80C7019446B
:102D08001C448D42D7D8D4E700214FF0010EF8E7D4
:102D180008B507211848FFF745FC1848FFF790FB4E
:102D28001748FEF74FF9FEF791FB00F09DFA00F007
:102D3800E9FA144B1A6822F040421A60DA6822F065
:102D48004042DA60DA6842F08042DA60FFF76EFFEC
:102D5800FDF7CEFF0C4BC3E900010C4BC3E90001A2
:102D68000B4B0C491A780C4B1B78032043EA4202A0
:102D7800BDE80840FFF7D8BB18620008ED2B000833
:102D88005561000800000240B04F0020A84F002005
:102D9800BF4F002088610008C04F00202DE9F04F88
:102DA8008FB0FDF7A5FFB74AB74E0F46D2E90031FD
:102DB8000546E81A67EB010486424FF00000A0417F
:102DC80080F04B81B148DFF814831B1841F10001F2
:102DD800C2E9003198F800300AAC002B58D0002323
:102DE80002AA01A9684600930193029300F0B2F980
:102DF800A74A0146002840F077811070102220462B
:102E0800009E02F04FFFFFF7FFFA04AACDE90A017E
:102E180007A920460C96FFF71FFF002806DB049B36
:102E28009C4907AA4FF48050FFF7D6FA10220021D8
:102E38002046019E02F036FFFFF7E6FA04AACDE924
:102E48000A0107A920460C96FFF706FF002806DBB3
:102E5800049B914907AA41F20100FFF7BDFA10222D
:102E680000212046029E02F01DFFFFF7CDFA04AABA
:102E7800CDE90A0107A920460C96FFF7EDFE0028C8
:102E880006DB049B854907AA41F20200FFF7A4FA72
:102E9800DFF84C9299F8003013B3002302A802938C
:102EA80000F0AEF97A4A0146002840F023815070BC
:102EB80010222046029E02F0F5FEFFF7A5FA04AAAA
:102EC800CDE90A0107A920460C96FFF7C5FE0028A0
:102ED80006DB049B724907AA41F20300FFF77CFA5C
:102EE800704B714A1B691278DFF8F8A113F400439C
:102EF8000CBF0126002662B19AF80020B24208D021
:102F0800002B6A4B6A4912BF042019460320FFF7B9
:102F18009DFA8AF80060FFF777FACDE90A0194E88C
:102F280003000022ADF820100023090CCDE902238C
:102F380007908DF8221046F0020602AB06223A21CD
:102F480007A88DF82360FFF797FE0026082307AA35
:102F58005849DFF854A141F20400FFF73DFACDE9E2
:102F68000C66FFF751FACDE90A01314601A88DF840
:102F7800046000F001FA9AF800209DF804604E4BB6
:102F8800834662B11A78B24209D04C4A4C49002EA5
:102F980016BF114603200420FFF758FA464B1E704F
:102FA80094E80300ADF82010090C07908DF8221062
:102FB800BBF1000F01D046F0020600220023CDE944
:102FC80004233A2104AB062207A88DF82360FFF7F3
:102FD80053FE08233B4907AA41F20500FFF7FCF915
:102FE80010220021204602F05DFEFFF70DFACDE920
:102FF8000A0100F073F901AA07A920468DED0C0A11
:10300800FFF72AFE002806DB019B2F4907AA41F299
:103018000600FFF7E1F999F8004001238AF800302B
:103028002CB11B4B5C78022C94BF0024012498F827
:10303800003023B1164B1B78032B28BF02242046EF
:10304800FFF7F8F9214B1A78A24206D01C70002C21
:1030580056D11F490320FFF7F9F91E4A1E48D2E945
:103068000031ED1A67EB0107854277F1000706D3B7
:103078001B1841F10001C2E90031FFF7D7FD0FB07D
:10308800BDE8F08FB04F00203F420F0040420F00D4
:10309800A34F0020BE4F0020BD4F0020BC4F002092
:1030A800BB4F002000000240A04F0020A86100088C
:1030B800B6610008BA4F0020A14F0020C461000883
:1030C800D1610008B94F0020B84F0020A24F00205E
:1030D800DE610008A84F002000879303C04F00203E
:1030E800BF4F0020A40000201378FF2B1CBF013322
:1030F8001370CDE65378FF2B1CBF01335370EFE6F6
:10310800084B09495A781B78022A94BF00220122E9
:10311800022B94BF0023012343EA42020420FFF755
:1031280003FA9AE7A34F0020F461000808B544F2B7
:10313800271200214420FEF725FB002807DBBDE805
:1031480008404FF4006205214420FEF71BBB4FF0F6
:10315800FF3008BD73B50D461446064698B10DF10B
:10316800060202214420FEF747FB002839DBBDF8A0
:1031780006309FED207A07EE903AF8EE677A67EE10
:10318800877AC6ED007A9DB10DF10602042144202C
:10319800FEF732FB002827DBBDF906309FED167AD3
:1031A80007EE903AF8EEE77A67EE877AC5ED007A8F
:1031B80014B9002002B070BD0DF1060203214420AD
:1031C800FEF71AFB002812DBBDF806309FED0B7ADC
:1031D80007EE903AF8EE677A67EE877AC4ED007AE0
:1031E800E7E74FF0FF30E5E76FF00100E2E76FF047
:1031F8000200DFE70AD7A33A17B7D1370AD7233A2D
:1032080013B504460DF1060200214820FEF7F4FA32
:10321800002812DB14B9002002B010BDBDF9063039
:10322800DFED076ADFED077A07EE103AB8EEC77AE6
:10323800E7EE267AC4ED007AEDE74FF0FF30EBE7D2
:103248000000003C33938843054B5A69D20406D5E5
:103258004FF480525A61034A136801331360704770
:10326800003C0140C44F0020174B1A6B42F0020289
:103278001A635A6C42F480425A645B6C134B1A68A6
:1032880022F040721A60DA6822F04072DA60DA6876
:1032980042F08072DA600E4A536923F00F0343F05C
:1032A800010353610B4B1A6842F480521A60DA68C2
:1032B80042F48052DA609A6822F480529A60064B8F
:1032C8004FF480725A607047003802400004024090
:1032D80000380140003C014000E100E0044BDFED14
:1032E800057A93ED000AB8EE400A20EE270A7047E7
:1032F800C44F002000A00C45014B00221A60704703
:10330800C44F0020184B1A6B42F005021A635A6C1E
:1033180042F480725A645B6C144B4FF000729A61ED
:103328001A6822F440221A601A6842F480221A604D
:103338005A6822F400725A60DA6822F44022DA608D
:103348000B4A136843F4407313600A4BDA6842F47B
:10335800E042DA600022DA620E225A639A6842F08A
:1033680001029A60704700BF003802400000024026
:103378000008024000200140164B4FF4007270B55F
:103388009A61044605200D46FDF7A6FC124A13680B
:1033980023F002031360936843F0804393600F4B5C
:1033A8001168890701D4013BFAD1D26C0949181E6A
:1033B8004FF0007618BF012092B28E6105B12A80C5
:1033C8003CB12BB140F692439A428CBF00230123B3
:1033D800237070BD0000024000200140A08601005B
:1033E8002DE9F84307464420FEF788F9064676207B
:1033F800FEF784F904466220FEF780F9DFF8509062
:10340800054634B199F800401CB900F07FFEC4436A
:10341800E40FDFF840804DB198F8005035B9094BFA
:103428003946188801F068FAC543ED0F064B89F84C
:1034380000401E7088F800500CB9044B1C70BDE8A1
:10344800F88300BFA60000202C5000200850002060
:103458002B5000202A500020012838B5044603D0FC
:10346800022817D0032038BD104B1B78DBB1104D54
:103478002B78C3B901F0B8FB002812DB2C70FDF7DC
:1034880037FC0C4A0C4B801841F10001C3E90001DC
:103498000020E8E7094B1B782BB1094B01221A7071
:1034A800F6E72046DFE70520DDE700BF2A500020C9
:1034B800D84F002020A10700D04F00202C5000201A
:1034C800C94F0020034A135CFF2B1CBF0133135460
:1034D800704700BFD94F0020244B1B782DE9F041DD
:1034E80093B3234F3B787BBBDFF8A880FDF700FC44
:1034F80098F8005004460E469DB91E4B1E48D3E965
:103508000012611A66EB0202814272F100020DD3C9
:103518001A49C3E900460D701949012288F80020AC
:103528000A70164B1A78174B33F81250164B284668
:1035380093ED000A00F0D4FE002807DA0120FFF717
:10354800C1FF002388F80030BDE8F0810F4B284602
:103558001D8001233B7000F0AFFE0D4B4FF47A72D3
:10356800E0FB0246C3E90046EEE700BF2B5000200F
:1035780008500020F04F002080969800ED4F002062
:10358800EC4F00204E650008A8000020F84F0020EE
:1035980000500020EE4F00202DE9F8431E464B074F
:1035A8000C46154640D100EBD104D7083A463146BF
:1035B800204602F05DFB15F007030AD001259D4067
:1035C800EDB2F35D6A1E1340E25D6D422A4013437B
:1035D800E355BDE8F88301F0070804F00709C8457A
:1035E800434638BF4B46C3F108036A1A934228BFC3
:1035F8001346CA084FEAD40CB25C10F80C7042FAB1
:1036080008F20EFA03F802FA09F208F1FF387A40D4
:1036180008FA09F802EA0802574000F80C70194441
:103628001C448D42D7D8D4E700214FF0010EF8E7AB
:1036380038B50B460446154601460722184602F0DF
:1036480017FBA268C0F807200B232B60002038BDA9
:1036580030B52DED028B102289B004460D460DEBD6
:1036680002000021B0EE408A02F01CFBFEF7CCFEFF
:103678006A46CDE9040101A904A88DED068AFFF781
:10368800D7FF002805DB009B01AA29462046FEF744
:10369800A3FE09B0BDEC028B30BD30B52DED028B19
:1036A800102289B004460D460DEB02000021B0EE51
:1036B800408A02F0F7FAFEF7A7FE6A46CDE9040150
:1036C80001A904A88DED068AFFF7B2FF002805DBE3
:1036D800009B01AA29462046FEF77EFE09B0BDECF4
:1036E800028B30BD30B52DED028B102289B0044617
:1036F8000D460DEB02000021B0EE408A02F0D2FA2E
:10370800FEF782FE6A46CDE9040101A904A88DED01
:10371800068AFFF78DFF002805DB009B01AA2946D2
:103728002046FEF759FE09B0BDEC028B30BD000003
:103738002DE9F0430A2185B07E487F4DFEF732FF20
:103748007E48FEF77DFEFDF781FE0120FFF748FE6B
:103758007B48FDF737FC7B48FDF734FC2B78002BC2
:1037680000F0DA80002302A8029300F095FC0028FC
:1037780040F0CE807448FDF725FC0298FDF72BFC3D
:103788007248734EFDF71EFC7248FDF71BFC337838
:10379800002B00F0C38000F087FD6F4A6F4B0028B4
:1037A8000CBF10461846FDF70DFC6D48FDF70AFCE6
:1037B8000420FDF710FC6B48FDF704FC0A20FDF718
:1037C8000AFC6948694FFDF7FDFB6948FDF7FAFBFC
:1037D8003B78002B00F0AB80664800220023CDE93F
:1037E8000223FDF7EFFB02A801F0D2F958B96248AD
:1037F800FDF7E8FB0398FDF7EEFB3A20FDF7DAFB4F
:103808000298FDF7E8FB002301A8019301F0AEF947
:1038180000283BD15948FDF7D5FBDDED017A9FED36
:10382800587A67EE877AFDEEE77A17EE904A002C11
:1038380003DA2D20FDF7BEFB64424FF47A79B4FB1E
:10384800F9F84046FDF7C7FB2E2009FB1844FDF7A1
:10385800B1FB6420B4FBF0F030304FF00A08C0B27E
:10386800FDF7A8FBB4FBF8F9B9FBF8F008FB1090DA
:103878003030C0B208FB1944FDF79CFB04F130005E
:10388800C0B2FDF797FB3F48FDF79CFB00230DF105
:1038980003010DF102008DF802308DF8033001F0BC
:1038A8008BF930B99DF80230002B39D13648FDF735
:1038B80089FB2648FDF786FB002302A901A8CDE96C
:1038C8000133FDF7B5FD3148FDF77CFB0198FDF7A5
:1038D80082FB2F48FDF776FB0298FDF77CFB2D480D
:1038E800FDF770FBFDF704FA2B4B3A78C3E90001AA
:1038F8002A4BC3E90001337829495B0043EA820374
:103908002A7803201A4305B0BDE8F043FEF70CBE41
:103918002448FDF757FB33E7234832E7234851E7AC
:103928009DF803300BB12248C1E72248BFE722487F
:10393800C0E700BF3A6500082C5000206134000839
:1039480064620008786200088B6200081D5E000847
:103958002B500020E06200083E6200082662000842
:10396800F362000800630008126300082A50002070
:103978004E630008616300089262000869630008EA
:1039880000007A44756300088D6300082564000808
:103998002D6400083D6400081850002010500020D5
:1039A800476400089C620008C462000817630008A6
:1039B800B1630008E3630008126400082DE9F047CA
:1039C8002DED028BB2B0FDF793F9B14ADFF838C399
:1039D8000E46D2E900310546EF1A66EB01000024D5
:1039E800BC4574EB0000AB4F66D2AB48DFF81C83D4
:1039F8001B1841F10001C2E9003198F8003063B1A9
:103A080000231EA90CA80C931E9300F0EDFAA04207
:103A180080F29F802046FFF755FDDFF8F49299F871
:103A280000306BB13C785CB90DF107008DF80740A8
:103A380001F01AF8002880F2C7800220FFF742FD43
:103A4800964B1A7872B198F800205AB13A784AB968
:103A58001A7000F036FB0028914914BF0520032096
:103A6800FEF7F4FCFFF738FD8E4B1C782CB18E4B1B
:103A78005C78022C94BF0024012499F8003023B10B
:103A8800894B9B78032B28BF012498F8003023B179
:103A9800854B1B78032B28BF02242046FEF7CAFC5F
:103AA800824B1A78A24207D01C70002C40F0CD80BF
:103AB8007F490320FEF7CAFC3B78B3B17D4CFDF784
:103AC80017F9D4E90023904299410ED33B78012B92
:103AD80040F0208101F08CF8002880F2CE8000238D
:103AE80075493B700520FEF7B1FC744B1A78C2B1DA
:103AF800734AD2E900128D4276EB020211D30024F8
:103B08001422214607A81C7002F0CCF807A800F080
:103B180089FCA0426B4F80F229810120FFF7D2FC7B
:103B28003C70694A6948D2E90031ED1A66EB010632
:103B3800854276F1000607D31B1841F100010020E9
:103B4800C2E90031FFF74CFC32B0BDEC028BBDE896
:103B5800F087554BDDED0C7A9FED5D0A1C705D4BCF
:103B68005D49C3ED007A37EE800A41F21000FFF795
:103B78006FFD9DED1E0A594941F21100FFF78DFDB9
:103B8800DDED0C7A9FED567A9FED560A9DED1E8A63
:103B980027EE800A77EE877A80EE270A01F024FF65
:103BA800514941F21200DFED517A20EE270AF7EE73
:103BB800007A77EEC87A20EE270ADFED4D7A20EEFC
:103BC800270AFFF78FFD28E79DF80730002B3FF401
:103BD80037AF002304AA03A902A80293039304930E
:103BE80000F060FF0028FFF628AF2F4BDDF808A093
:103BF8009C70102221461EA802F054F8FEF704FC1F
:103C080007AACDE91E010CA91EA8CDF880A0FFF7D0
:103C18000FFD002806DB079B36490CAA41F213006A
:103C2800FEF7DAFB9DED030ADFED297A324930EE23
:103C3800270A41F21800FFF70BFD9DED040A2F49F2
:103C480041F21900FFF729FDFAE6174B99785A78DF
:103C58001B78022994BF00210121022A94BF002267
:103C68000122520042EA8102022B88BF42F001027F
:103C780023490420FEF758FC1EE702233B70FDF79A
:103C880037F8204BC01841F10001C4E900012CE7C6
:103C980018500020D84F002040420F00C94F002084
:103CA800A16400082B500020D94F0020C84F0020E5
:103CB800CB640008D04F002007650008085000209A
:103CC80000500020EE4F0020105000200087930382
:103CD80033938843A8000020295000202850002052
:103CE800CD4C6D43F6288A4127500020145C1C3FB8
:103CF80000007A4426500020215000202050002047
:103D0800E1640008809698003F420F002C50002084
:103D18002A500020022B1CD100231EA88DF87830D1
:103D280000F06AFF00280ADA6B490520FEF78EFBCF
:103D380003233B70FCF7DCFFC4E90001D5E69DF8DE
:103D480078306649002B664B0EBF052019460320C4
:103D5800ECE7644B0021188800F0CEFD0028BEBFB8
:103D6800614B00221A7000233B70BEE65F4B5C700B
:103D78003B7823B15E4B1B78B3FA83F35B095D4A4A
:103D880012880AB1002B3DD09DED080A5A4941F22C
:103D98001400FFF7A7FCDFED597A9DED070A584993
:103DA80030EE270A41F21600FFF752FC9DED090A92
:103DB800544941F21700FFF770FC9FED537ADDED8F
:103DC800086AC6EE877AB6EE007A77EE877AFCEE56
:103DD800E77A17EE903A9CB2A4F59673B3F5487F4C
:103DE80010D8DFF80081B8F80030A3420AD03E4B63
:103DF8001B7813B9A8F8004004E0204600F0A6FE9E
:103E08000028F7D03B78002B5ED0394A3F4C137816
:103E18000A9804EB830108609DF82C1009B93C4806
:103E280001700133DBB2032B13704DD90DF1780902
:103E3800002150224846397001F034FFFEF7E4FAB9
:103E48002368269363682793A3682893314A324BE3
:103E5800CDE92023E36829932D4BCDE91E011C7879
:103E68008DF8C4404FF00408CDF89480CDF8C08098
:103E780099E803004022ADF83410090C0C908DF835
:103E8800361020AB11460CA88DF83780FFF784FB5D
:103E980026AB802288210CA88DF84080FFF77CFB98
:103EA80000220023CDE9042340F2091104AB0722C4
:103EB8000CA88DF85140FFF76FFB184922230CAA74
:103EC80041F21500FEF788FA3B78002B3FF429AE43
:103ED800FFF702FB25E600BF22650008876400089B
:103EE8006A640008A60000202A500020D94F00204C
:103EF800ED4F0020F84F00202550002033938843D1
:103F080023500020225000200000C842DC4F00202F
:103F1800EC4F0020C800FA00400190012450002016
:103F280030B502460144FF208A4200D130BD12F864
:103F3800013B0824584045B24300002DD8B2B8BF11
:103F480080F03100013CF6D1EEE72DE9F04102EBBB
:103F5800420805460F46144680440646464505D1A4
:103F68000023A3420ED10020BDE8F0813046022193
:103F78000336FFF7D5FF16F8013C8342EED04FF029
:103F8800FF30F1E703EB4302AA5A52BA27F813208D
:103F98000133E6E730B585B00D468DF807001446C5
:103FA8000DF1070101224420FDF7B8FB002815DBBD
:103FB8002846FCF791FE062202A94420FDF7C2FB21
:103FC80000280EDB0222214602A8FFF7BEFF0028C8
:103FD800B4BF6FF00300002005B030BD6FF00100E2
:103FE800FAE76FF00200F7E737B505460C4601AA75
:103FF8000A21FD20FFF7CEFF002834DBBDF806308C
:10400800DFED1F7A9FED1F6A07EE103AB8EE477A88
:1040180027EE277AC7EE067AB1EE087A77EEC77AE6
:10402800F5EEC07AF1EE10FA1FD49FED177AF4EE90
:10403800477AF1EE10FAC8BFF0EE477A8DB1BDF8B5
:104048000430DFED126A07EE103AB8EE477A27EE31
:10405800267AC7EE066A9FED0E7A36EEC77A85EDA8
:10406800007A2CB9002003B030BDDFED0A7AE5E70D
:10407800DFED056A87EEA67A84ED007AF2E700BFE5
:104088000000FA4200FF7F470000C84200002F43AB
:10409800000034420000000013B5044601AA0121C3
:1040A8008920FFF777FF002801DB14B9002002B050
:1040B80010BDBDF80420BDF8063043EA0243236072
:1040C800F4E707B5732101AA1520FFF763FF03B0D2
:1040D8005DF804FB1FB50B468DF80F0000920DF13B
:1040E8000F0101227620FDF733FB05B05DF804FBD4
:1040F80007B502228DF804008DF80510762001A975
:10410800FDF70CFB03B05DF804FB000010B58CB0A4
:10411800002401220DF10301D0208DF80340FFF7A0
:10412800D9FFA042C0F2A7809DF80330612B40F070
:10413800A580B621E020FFF7DBFFA042C0F2A180F6
:104148000A20FCF7C9FD56490122F020FFF7C2FFFB
:10415800A042C0F29980172201A98A20FFF7BAFF6E
:10416800A04203DA6FF004000CB010BD0E220DF16E
:104178001B01E120FFF7AEFF0028F3DB05220DF15C
:1041880029012046FFF7A6FF0028EBDB454BBDF8C9
:1041980023201A80BDF804205A809DF806201A7141
:1041A800BDF80820DA80BDF80A201A819DF80C2095
:1041B8009A72BDF80E209A81BDF81020DA81BDF8F8
:1041C80012209DF81D0052BA1A82BDF816205A8294
:1041D800BDF818209A829DF81A209A759DF81C201F
:1041E80002F00F0141EA001119839DF81B10120912
:1041F80042EA01125A83BDF81E209A83BDF8202096
:10420800DA839DF8222083F820209DF8272083F860
:104218002120BDF825205A849DF8282083F82420E1
:104228009DF82B20C2F3011283F825209DF8292040
:1042380083F826209DF92D2021461211742083F839
:104248002720FFF755FF002821DB01217220FFF707
:104258004FFF00281EDB21467520FFF749FF002885
:104268001BDB54217420FFF743FF0028B4BF6FF015
:104278000800002078E74FF0FF3075E76FF0010085
:1042880072E76FF002006FE76FF003006CE76FF002
:10429800050069E76FF0060066E76FF0070063E75F
:1042A8003450002036500020024B1878431E5842E4
:1042B800584170473450002000284AF2762249F6C7
:1042C800251314BF134600204FF47A7218BF9620A6
:1042D80003F5FA73B3FBF2F3013318447047000097
:1042E80007B5002800F08180454B9FED466A93F999
:1042F80021209FED457ADFED455A06EE902AB3F965
:104308002220F8EEE66AB0F5C87FA6EE867A06EEB9
:10431800902A9FED3F6A93F9242088BFDFED3D7A0C
:10432800FAEEE86A98BF07EE900AE6EE865A4FF072
:104338005A0098BFF8EE677AF7EE006A06EE102A80
:1043480093F8252093F92630B0EE665AA5EEA75AC1
:1043580007EE902ABAEECB6AF8EE677A20EE060AE4
:10436800B1EE006A77EE867AA7EE050A86EE277A1E
:1043780007EE903A9FED286AF8EEE77AF0EE665A73
:10438800E7EE865A27EE007A86EEA56AFBEE097AF2
:10439800E7EE067A9FED217A67EE877AFCEEE77AF8
:1043A800CDED017A9DF80410FFF7A2FE00281EDB70
:1043B80065216420FFF79CFE00281BDB184B1B7847
:1043C800012B14BF102120217120FFF791FE002836
:1043D80013DB55217420FFF78BFE0028ACBF0020AB
:1043E8006FF0030003B05DF804FB0146ECE74FF003
:1043F800FF30F7E76FF00100F4E76FF00200F1E734
:10440800365000200000803D0000444275021A3BEF
:104418006F12033A0000C8436F12033B9A99594040
:10442800345000202DE9F04387B00446112201A939
:104438001D20FFF74FFE0028C0F2D8819DF90430F7
:10444800002B80F2D6819DF80A309DF809209FED57
:10445800EA6A9FEDEA7ADFEDEA6ADFEDEA3A9DF86B
:1044680006609DF807709DF80800BDF80CE01B0178
:1044780043EA02339DF80B2043EA121307EE903A01
:10448800E14BE24AB3F8008092F800C005EE908A4A
:10449800B3F90280F8EE655AF8EEE77A04EE908AEE
:1044A80026EE656A93F9048027EE657AA7EEA66A78
:1044B800BCF1010F0BBF9DF814109DF812109DF868
:1044C80013509DF81150A7EEA37A8A0942EA850293
:1044D80007EE908AF8EEE77AB3EE005A67EE857A2F
:1044E80027EE077AF8EEE44A67EE877ADFF87083FA
:1044F800E6EE247A01F00F05C8ED007A1CB9002019
:1045080007B0BDE8F083B3F90C909FEDC14A9FED69
:10451800C17A9FEDC12A93F9108001EE909A93F920
:104528000A90F6EE004AA7EEA44A06EE109AB3F9EE
:104538000890C7EE875AB8EEC66A07EE109A26EEBC
:10454800046AB8EEC77A26EE046A27EE047AB3F84E
:104558000690C4ED005AA6EE267A9FEDB06A27EEC3
:10456800067AB7EE006AB0EE463AA7EE023A02EED5
:10457800909AF8EE622A07EE908A62EE832AB3F9DF
:104588000E80F5EE402AF1EE10FA00F0C78000091F
:1045980040EA071040EA063007EE100A9FEDA03AFD
:1045A800987DB8EEC77AF8EEE77A33EE477A67EE89
:1045B800A37A24EE043AF8EEE11A67EE837A03EE62
:1045C800108AB8EEC33A23EE044AB0EE003AE4EE9D
:1045D800037AB5EE004A67EE847A9FED924AE1EEDF
:1045E800847A9FED914AA7EEC47ADFED907A67EE60
:1045F800277A87EEA27ADFED8E7ADFED8E2A67EED4
:10460800277A27EEA73A23EE273A07EE900AB3F95E
:104618001400F8EE677A04EE100AB3F9120067EE98
:10462800A33A07EE900AB8EEC44AF8EEE77A24EE09
:10463800074A67EE827A24EE074A67EE877A93F98B
:104648001100E4EE227A04EE100AE3EE237AB8EEC3
:10465800C44ADFED793AE4EE237A9FED784AA7EE73
:10466800847A9EFA9EF080B284ED017A07EE100AF1
:10467800188B04EE100A93F91C0007EE900AF8EE66
:10468800E77AB8EE444A67EEA47A588B67EEA57AC3
:10469800B8EE477AE4EE057AF0EE464A37EE677AE6
:1046A80007EE900A93F91D0005EE100AB8EEC55AF8
:1046B80093F91E0025EE265AFBEEC77AE5EE854AE9
:1046C80005EE100ABAEEC65AD87F25EE255AE5EE51
:1046D800854A05EE100A67EEA47A93F9200067EE82
:1046E800877A07EE100ABAEEE57AB8EE455A27EE51
:1046F800257ADFED535AA5EE267A27EE877AE7EE7C
:10470800877AF4EEE57AF1EE10FA0ADCF5EEC07A73
:10471800F1EE10FA07D5DFED4B7A04E09FED497A08
:104728009FE7F0EE657A87EEA57ABCF1010F84ED7C
:10473800027A1ED14FF48023EB4007EE903A9FEDAA
:10474800427AF8EEE77A02EB420202F5206267EE5F
:10475800877A07EE102AB8EEC77AC7EE876A01F0A3
:104768003001A1F13003594259412174C4ED036A63
:10477800C5E60120A84007EE900A93F927309FED7F
:10478800337AF8EEE76A07EE903AF8EEE77AB1EE98
:10479800045A2F4BA7EE857A03EB850307EE902A80
:1047A8009FED2C5AD3ED004A2B4BF8EE677A03EBBA
:1047B800850377EEC57A84EEA55A35EE065A25EEBE
:1047C800075A87EE857A93ED005AC5EE257ADFED14
:1047D800235A77EE867A37EE067A67EEA57A67EE81
:1047E800A67A67EE277AC6EE276AB8E74FF0FF3059
:1047F80086E66FF0010083E60000803A0000003989
:104808000000803800000037365000203450002067
:1048180000007AC70000A0450000003800000036FC
:104828000000804900008047000080390050C345DF
:104838000000803B00000030000000430000803D85
:104848000000C84200000000002474490080A7440A
:10485800986500080000004458650008BD37063414
:104868003050002007B549BAADF8021040BA02210D
:10487800ADF800000DEB0100FFF752FB05228DF8A3
:10488800040069466220FCF749FFC01703B05DF8D1
:1048980004FB07B540BAADF80400022201A9622062
:1048A800FCF73CFFC01703B05DF804FB7FB50D466D
:1048B800144602EB4206FFF7ECFF002815DB022046
:1048C800FCF70AFA324601A96220FCF73BFF0028F0
:1048D8000EDB2246294601A8FFF737FB0028ACBFAC
:1048E80000206FF0030004B070BD6FF00100FAE71C
:1048F8006FF00200F7E700002DE9FF47DFF85CA141
:10490800DFF85C91DFF85C814E4F0024054643F6E2
:1049180086700E468AF8004089F8004088F8004002
:104928003C70FFF7B6FFA0427CDB4FF4FA70FCF74F
:10493800D3F9032202A943F282600294ADF80C4035
:10494800FFF7B4FF68B9BDF80A00BDF80C303E4A5D
:10495800BDF8081043EA0043C2E9003101238AF890
:104968000030012202A942F21830FFF79FFF98B9E0
:10497800BDF808309FED357ADFED356A07EE903ADD
:10498800F8EE677A334B67EE877A87EEA67A83ED7F
:10499800007A012389F800304FF0000901220DF157
:1049A800060142F21330ADF80690FFF77FFF484545
:1049B8003BDBBDF806304B45274B14BF01224A4666
:1049C8004FF001041A7088F8004015D0494642F2A9
:1049D8001640FFF747FF48452ADB0220FCF77CF921
:1049E80056B143F21560FFF754FF484523DB4FF4F7
:1049F8004870FCF771F93C7029464FF46040FFF7A6
:104A080031FF00281ADB0220FCF766F942F2B110E8
:104A1800FFF73FFF0028B4BF6FF00500002004B087
:104A2800BDE8F0874FF0FF30F9E76FF00100F6E7D7
:104A38006FF00200F3E76FF00300F0E76FF0040097
:104A4800EDE700BF5E5000206850002000002F43B3
:104A580000FF7F47645000205F5000206250002014
:104A6800615000206050002013B500230446012245
:104A78000DF106014EF2B840ADF80630FFF716FF0B
:104A880000280CDB14B9002002B010BDBDF80630B8
:104A9800C3F30A03003B18BF01232370F3E74FF069
:104AA800FF30F1E773B506460D4614466946032202
:104AB8004EF60540FFF7FAFE00283BDB5EB1BDF875
:104AC80000309FED1E7A07EE903AF8EE677A67EEAF
:104AD800877AC6ED007A9DB1BDF802309FED187A4D
:104AE800DFED186A07EE903AF8EE677A67EE877A94
:104AF80087EEA67ADFED147A77EE677AC5ED007A4D
:104B080014B9002002B070BDBDF80430DFED0D6AA5
:104B180007EE103AB8EE477AC7EE267AB7EE007A73
:104B2800F4EE477AF1EE10FAC8BFF0EE477AC4ED1A
:104B3800007AE6E74FF0FF30E4E700BFBD3786357F
:104B480000002F4300FF7F4700003442014608B5AC
:104B58004FF46040FFF786FE002804DB0220FCF7D4
:104B6800BBF8002008BD4FF0FF30FBE7064B1B7871
:104B780033B108B900207047044B1B680360F9E79C
:104B88004FF0FF30704700BF615000206450002094
:104B9800074B1B7843B108B900207047054BD3E990
:104BA8000023C0E90023F7E74FF0FF30704700BF4C
:104BB8006250002068500020084B1B7853B110B198
:104BC800074B1B78037009B900207047054B1B7809
:104BD8000B70F9E74FF0FF30704700BF60500020BE
:104BE8005F5000205E50002043F68670FFF751BEEC
:104BF80043F23960FFF74DBE13B50322044601A9FD
:104C08006220FCF79FFD002815DB002301220DF12F
:104C1800020101A8ADF80230FFF797F900280DDB73
:104C280014B9002002B010BDBDF80230B3FA83F306
:104C38005B092370F5E74FF0FF30F3E76FF00100F1
:104C4800F0E730B581F0010400EB8404056863687F
:104C58004DB1AA68A2EB000CDCF1000242EB0C0299
:104C680005EB820253601D60036003EB81035A6801
:104C7800626002B11060586030BD2DE9F041002932
:104C8800037B0CBFFF220122134459B2013303F006
:104C9800FF03022B044643D900294FEAD1786FEA73
:104CA80001014FEAD17100EB8103B8BF01255E68AD
:104CB80096F90C30A8BF4FF0FF3513FB05F3002B16
:104CC80010DC4146FFF7BDFF96F90C303BB96B424B
:104CD8005BB22373374635733846BDE8F08100254B
:104CE8002B46F6E706EB880330465F68FFF7A9FF17
:104CF80041462046FFF7A5FF97F90C3013FB05F353
:104D0800002B04DA002325733B733373E4E71DBFDC
:104D180000236D42237323731CBF3B736BB2F4E70C
:104D280001730746D8E770472DE9F041DDF8188090
:104D38000D461E4608F1300183681746984768B14A
:104D48000024C0E90044C0E9067600F1300384601D
:104D580004730461C0F8248083620562BDE8F081B1
:104D6800006A0B6A984234BF4FF0FF300120704749
:104D780010B5C3680C46096998470023C4E9023393
:104D880023614FF6FF73A382A37D013303F01F0352
:104D9800A3750123237610BD02888B8B9A4205D018
:104DA800034A8CBF01230023D05670470020704768
:104DB800D86500081C30FFF7EFBF70B5D1E9015284
:104DC8000446002D36D0002A34D0104603464068E9
:104DD8000028FBD191F90C0018735D602B601868EE
:104DE800814222D09D68456005B128609A601360B1
:104DF80000220D681D60DDB1AE68A6EB010CDCF188
:104E0800000646EB0C0605EB86056B6082F0010197
:104E1800FFF733FF0346006893F90C20FAB9F8B19D
:104E28008268D31A5A425A41F0E718460122E0E74D
:104E38002360EBE7003A18BF012201EB8202086801
:104E4800536803B1186058B18268511A4A424A41FE
:104E580000EB82014B60002BD8D01860D6E700B970
:104E6800236070BD2DE9F843056807468946144656
:104E780098460646316831B14846A047002833684D
:104E880008D11C461BB9B8F1000F0BD100242046ED
:104E9800BDE8F883CCBF0126002601361D4603EB8A
:104EA8008606E7E74846C04704460028EED00023B8
:104EB8003060C0E90133056003730DB93860E6E777
:104EC800A9680B1A594259412846FFF7D6FE90F9AE
:104ED8000C300568002BF0D1002DD8D1EEE700008A
:104EE80010B5074C11448A4200D110BD12F8013B9D
:104EF80083EA102334F8133083EA002080B2F2E703
:104F08002C66000830B50024FF25C0E90212C0E96C
:104F1800044404600571846130BDC0E900120022B8
:104F2800C0E90222026170472DE9F04F8FB0CDE948
:104F38000B23DDE9184681468B46002900F086815F
:104F4800002800F08381002C00F080811A9B13B99F
:104F5800002E40F07B81D9F80430072B3ED9402B36
:104F68003ED8B54AD35CB54AD35C0593059B6278B5
:104F78009BF80410013B0393002A44D12379FF2BAB
:104F880040F064816588B5F5005F80F05F810B06AD
:104F980028D445F4C04041EA00202378072B00F2CA
:104FA800558140EA836303980993864263790A939B
:104FB800D9F80810D9F8002006F101036DD89E48E9
:104FC800C35C9E48C45C9142A4EB060505F1FF351D
:104FD80038D36FF002000FB0BDE8F08F0823C4E7A4
:104FE8004023C2E7039B9E4200F230811A9A314661
:104FF8004FF6FF70FFF774FF00F07F0040EA0520CE
:1050080040F0B070C9E7531E012B00F21F8194F9DC
:1050180004302579002BC0F219816388B3F5007F2D
:1050280080F014810F0600F11181980340EAC51041
:10503800951E6A4240EA01006A4140EA026040F077
:105048000070AAE7DDE90B23099900945846FFF799
:105058006BFE07460028BCD026B11A99324630307C
:1050680000F052FE06F130002A460021384400F0D4
:1050780019FE0A9B724A3C4463F01F0384F82F30E0
:105088003946704B09F10C00FFF7ECFED9F80830EF
:105098000133C9F8083001209DE7B01C0790039838
:1050A8000344B3FBF0F30B44934292D81A9A314667
:1050B8004FF6FF70FFF714FF0024012304902546E4
:1050C80006940893A046079B434518D8069E002DD2
:1050D80000F0AE80DFF86C81594F09F10C053146BC
:1050E80043463A462846FFF7BDFE3669002EF6D1FC
:1050F800D9F808302344C9F8083020466BE7079BE5
:105108000999A3EB0802039B934289BF4A4BDDF838
:1051180014A09B18494A84BF5B7812F803A0CDF805
:1051280000A0DDE90B235846FFF7FEFD069B01347E
:105138000746002B63D02861002F70D046450AF13E
:10514800FF335ED9A6EB08059D4228BF1D461A9974
:105158000D932A4607F1300000F0D6FD1A9BA844AB
:105168002B4446451A930D9B2DD8AAF1030AAA1C75
:10517800AAEB050A9A4288BF4FF0000A05F13000F1
:105188005246002138440D9300F08CFD0D9B6A1C9B
:1051980001329A4237D35544AB4214D9464509D116
:1051A80004997A190135090AAB4282F8301006F1E0
:1051B800010808D9464506D27B19049A83F830209D
:1051C800013508F101080A9B089A03F01F0343EA16
:1051D8004213069AB91A4A424A4143EAC213079A45
:1051E80042453D448CBF0022012243EA821385F8E0
:1051F8003030089B83F0010308933D4663E706902F
:105208009AE70025B1E704990F48C1F30F2130F858
:105218001110049881EA002189B20491B8E73D464B
:1052280054E73146DBF80C3034695846984726462F
:10523800002EF6D1CDE600BFDA6500081B6600082F
:10524800694D00082F4D00082C6600086FF001001A
:10525800C1E600BF10B1C368002003B97047184603
:105268005B68FAE738B50D46044640B129B10C3001
:10527800FFF7A3FDA368013BA360284638BD054698
:10528800FBE700002DE9F04F89B09B469DF84C9054
:10529800129B149E14460746002800F0B581002E84
:1052A80000F0B281002B00F0AF81D3F800A0BAF172
:1052B800005F80F0A981D3E90158B8F1000F02D14D
:1052C800002D40F0A18120220021684600F0EAFC70
:1052D80025B90025284609B0BDE8F08F4FEA9A6342
:1052E8008DF808301AF0007F0AF07F03CDE9004BF3
:1052F8008DF80C300AF0807240F0CB80002ACAF397
:105308000C2118BFFF231AF0801FADF80A108DF882
:105318000C300CBF01220022FF21013DCDE90558C8
:105328008DF80D1018F8053003F01F004FEAD31C54
:10533800C3F3801E8DF80E008DF80FC058B203F02D
:10534800400C8DF810E003F0200EC3F340138DF8E5
:105358001130002ABDD0002805DABEF1000FB8D000
:10536800BCF1000F0BD19DF80C30FF2BB1D0062DEE
:1053780005D8BCF1000FACD00DB90028A9DAFF2977
:1053880002D03B798B42A4D19DF80900A04A043091
:1053980000230DF10A0107EB8000FFF763FD159B61
:1053A800804603B11860B8F1000F92D09DF90C2027
:1053B8009DF80C30002AC0F2038108EB83035C6A75
:1053C800F4B99DF80F30DBB1BB6820213846984707
:1053D8009DF80C3008EB8303586200286ED0DDE995
:1053E8000023C0E90244C0E900234FF6FF7383821B
:1053F8009DF80E3083750123046180F817900376B9
:1054080000259DF80C3008EB83035C6A002C3FF400
:1054180061AFDDE90021D4E90003904273EB010E8E
:10542800D8E904C5D8F818804BD2101A61EB0303E9
:10543800844575EB030334BF4FF0010C4FF0000CAB
:105448009DF80E00A37D1B1A9DB2002BBCBF05F171
:1054580020031BB2BCF1000F08D1E57D4D4533D1C7
:105468009DF80F5085B3DBB2012B2DD90023C4E979
:1054780002334FF6FF73A382012323769DF80F3082
:10548800A07584F81790FBB921463846FFF770FCE1
:105498001FE7002A14BF022201228DF809201AF4FE
:1054A800000FCAF38832ADF80A20CAF3C61103D137
:1054B8005A1A18BF012230E700222EE76FF00205C2
:1054C8009FE74FF0000CBBE794F817E09DF811C078
:1054D800257EA37DCE457FF4FCAEAC457FF4F9AEC6
:1054E80098427FF4F6AE9DF80F30002B51D1DDE9DC
:1054F8000512A08AFFF7F4FC0025A082DDE9059AD1
:10550800A3684B44A36023693BB9B8F1000F04D0EA
:10551800BB6841463846984720612069002840D03A
:10552800E36809EB0302904538BFA8EB0309184468
:105538004A46514600F0E8FBE3684B44E3609DF8B7
:105548001030002B37D00DB9A38AEBB99DF80C3079
:105558003371BDF808109DF80E3031807371BDF8B5
:105568000A207280D4E90023C6E90223E26823698D
:10557800326173612DB9A3689A1A012A9CBF023B54
:10558800336100232361012521463846FFF7F0FBEC
:10559800A0E69DF81030C4E90021002BA7D0012512
:1055A800ACE7B8F1000FCAD021463846FFF7E0FB58
:1055B8006FF002058EE6237E83F00103237688E6EA
:1055C800D8F81830059C9C4228BF1C462146BB6869
:1055D800384698470028EBD0DDE900899DF80C2073
:1055E800BDF80A10BDF8085032719DF80E203580BC
:1055F80071807271C6E90289C6E90440069922469B
:1056080000F082FB012565E66FF0010562E600BF48
:10561800A14D0008F7B5064648B3022927D804313A
:1056280000EB8105ADF806200023124A0DF10601B2
:105638002846FFF717FC0446B8B101462846FFF78D
:10564800BCFB04F12005002704F5087455F8041F75
:10565800F36801B1096930469847F368296830460C
:105668009847A5422F60F1D1012003B0F0BD6FF03B
:105678000100FAE7A14D00082DE9F8430A9F0D46FD
:1056880091461E46804610B30FB302291FD8FFF774
:10569800C1FF041E18DBDDE908230021C7E9042344
:1056A800BE614FF40072A7F81C9007F1240004357E
:1056B80000F0F8FA074B084A394608EB8500FFF76F
:1056C800D1FBB4FA84F464092046BDE8F8836FF08E
:1056D8000104F9E72F4D0008BD4D000800B1016035
:1056E80001B14860704710B58A6800235209012A41
:1056F80003F1010418D8D1E9042402B154614C69BA
:1057080004B12261DBB250F823208A420BD10A6926
:1057180040F823203AB901229A40D0F8803023EA91
:105728000203C0F8803010BD52082346DFE710B5E9
:105738008A6800235209012A03F1010411D8DBB257
:10574800002450F823200A614C6102B15161012202
:1057580040F823109A40D0F880301343C0F88030C6
:1057680010BD52082346E6E770B50D46044628B337
:1057780010F00F0126D1BF2D26D9A03DC0F880100A
:10578800802200F08FFAB5F1004F28BF4FF0004596
:1057980015F01F0614D1C4E92866C4F8A85084F887
:1057A800AC6004F1A0012046FFF7C1FF00220023EE
:1057B800C4E92256C4E92466C4E92623204670BDFC
:1057C800013DE5E70024F9E70C46F7E7F8B505469B
:1057D8000F4651B3D0F88830103B8B4225D3103197
:1057E8000A460023012A03F1010020D807F10F021D
:1057F8000A40002A18BF0133DBB201269E40710916
:105808000A460023012A03F1010013D84A1E0A4060
:10581800002A18BF0133DAB24FF0FF339340D5F8AE
:10582800802013405C421C4047D1002035E05208DC
:105838000346D7E752080346E4E764081346012CF9
:1058480003F10102F9D1DBB2284655F8234021467D
:10585800FFF749FFA368A6609B1B1F2B0DD9A01952
:105868002168836000230373FFF738FF0146204651
:10587800FFF734FF2846FFF75AFFD5F88C301E444F
:10588800D5F89030C5F88C609E424FF0010388BF70
:10589800C5F8906004F110002373D5F89430BB422A
:1058A80038BFC5F8947038B937B1D5E92632013315
:1058B80042F10002C5E92632F8BD0023BFE72DE911
:1058C800F84305460C46002957D0002351F8089C98
:1058D80001F8043C51E90476D0F88C30A3EB0903B5
:1058E800C0F88C30F6B196F80C8088F00108002FCB
:1058F8003CD03B7B83F00103B8F1000F28D09BB16B
:1059080031462846FFF7EFFE3946FFF7ECFEB3684D
:10591800BA6813444B44B360002344F8083CBB60A6
:1059280039680CE0B046E2E731462846FFF7DBFE6F
:10593800B3684B44B360002344F8083C394630460A
:10594800FFF7CCFE31462846BDE8F843FFF7EFBE27
:10595800A4F110067BB139462846FFF7C4FEBB68A0
:105968004B4444F8083CC7F80880D9E7B8F1000F61
:10597800DAD1A4F110063146E5E7BDE8F883000066
:10598800034AD2F8883043F47003C2F8883070476D
:1059980000ED00E0DFF834D0FFF7F2FF0C480D49C6
:1059A8000D4A002302E0D458C4500433C4188C4272
:1059B800F9D30A4A0A4C002301E013600432A242D8
:1059C800FBD300F07DF9FAF77BFD70470000022059
:1059D80000000020C401002054680008D001002005
:1059E800A8510020FEE7000008B52DED028BF0EE6F
:1059F800408A00F039F8B0EE408AB0EE680A00F04C
:105A080029F860B1DFED0F7AF4EEE78AF1EE10FACB
:105A18000ADD00F04FF99FED0C8A22230360B0EEF7
:105A2800480ABDEC028B08BDDFED087AF4EEE78A80
:105A3800F1EE10FAF3D500F03DF922239FED048A28
:105A48000360ECE71772B1420000807FB5F1CFC266
:105A58000000000010EE103A23F00040B0F1FF4FB4
:105A6800ACBF00200120704710EE102A22F000433E
:105A7800B3F1FF4F02D930EE000A70474FEAD271F6
:105A880006D1DFED4E7A002918BFB0EE670A7047DD
:105A98004B48824202DD002000F0D4B8002A05DA23
:105AA800484A934202D9002000F0C6B8464A9342B9
:105AB800F7EE005A52D9454A93424FEA810234D848
:105AC800434B134493ED007A424B134430EE477A2C
