:020000040800F2
:1000000000000220894F0008D94F0008D94F00088E
:10001000D94F0008D94F0008D94F00080000000050
:10002000000000000000000000000000D94F0008A0
:10003000D94F000800000000D94F0008D90A000875
:10004000D94F0008D94F0008D94F0008D94F0008F0
:10005000D94F0008D94F0008D94F0008D94F0008E0
:10006000D94F0008D94F0008D94F0008D94F0008D0
:10007000D94F0008D94F0008D94F0008D94F0008C0
:10008000D94F0008D94F0008D94F0008D94F0008B0
:10009000D94F0008D94F0008D94F0008D94F0008A0
:1000A000D94F0008D94F0008D94F0008D94F000890
:1000B000D94F0008D94F0008D94F0008D94F000880
:1000C000D94F0008D94F0008D94F0008D94F000870
:1000D000D94F0008D94F0008D94F0008D94F000860
:1000E000AD2A0008D94F0008D94F0008D94F0008A1
:1000F000D94F0008D94F0008D94F0008D94F000840
:10010000D94F0008D94F0008D94F0008D94F00082F
:10011000D94F0008D94F0008D94F0008D94F00081F
:10012000D94F0008D94F0008D94F0008D94F00080F
:10013000D94F00080000000000000000D94F00085F
:10014000D94F0008D94F0008D94F0008D94F0008EF
:10015000D94F0008D94F0008D94F0008D94F0008DF
:10016000D94F0008D94F0008D94F0008D94F0008CF
:10017000D94F0008D94F000800000000000000001F
:08018000D94F0008D94F000817
:1001880010B5054C237833B9044B13B10448AFF3C9
:1001980000800123237010BD000100200000000032
:1001A8001853000808B5034B1BB103490348AFF3C4
:1001B800008008BD0000000004010020185300085A
:1001C80053B94AB9002908BF00281CBF4FF0FF31B6
:1001D8004FF0FF3000F06AB9ADF1080C6DE904CEBC
:1001E80000F006F8DDF804E0DDE9022304B070470A
:1001F8002DE9F047089D0C46002B4ED194468C45BE
:100208008646B2FA82F262D94AB1C2F1200391401D
:1002180020FA03F30CFA02FC194300FA02FE4FEA33
:100228001C471FFA8CF6B1FBF7F44FEA1E4307FB95
:10023800141143EA014304FB06F199420AD91CEB65
:10024800030304F1FF3080F01281994240F20F81DC
:10025800023C6344591A1FFA8EF3B1FBF7F007FB0F
:10026800101143EA014300FB06F69E420AD91CEB33
:10027800030300F1FF3180F0FC809E4240F2F980D8
:10028800634402389B1B40EA044000211DB1D3405F
:100298000022C5E90032BDE8F0878B4205D90DB1CF
:1002A800C5E9000100210846F5E7B3FA83F1002902
:1002B80046D1A34202D39042C0F0F080861A64EB84
:1002C80003030120002DE6D0C5E90063E3E7002A17
:1002D80040F09080A1EB0C044FEA1C481FFA8CF701
:1002E8000121B4FBF8F64FEA1E4308FB164443EA23
:1002F800044307FB06F0984208D91CEB030306F1F8
:10030800FF3402D2984200F2CD8026461C1A1FFA0A
:100318008EF3B4FBF8F008FB104443EA044300FBF7
:1003280007F79F4208D91CEB030300F1FF3402D200
:100338009F4200F2B0802046DB1B40EA0640A5E75A
:10034800C1F120068B4022FA06F71F4320FA06FC6B
:1003580004FA01F343EA0C03F44000FA01F8380CFC
:100368004FEA1349B4FBF0FE1FFA87FC00FB1E445A
:1003780049EA04440EFB0CF9A14502FA01F20AD934
:100388003C190EF1FF3A80F08480A14540F281804B
:10039800AEF1020E3C44A4EB09041FFA83F9B4FB46
:1003A800F0F300FB134449EA044403FB0CFCA445A6
:1003B80007D93C1903F1FF3067D2A44565D9023B40
:1003C8003C4443EA0E40A0FB0293A4EB0C049C427D
:1003D800CE469C4651D34ED055B1B8EB0E0364EBD4
:1003E8000C0404FA06F6CB401E43CC40C5E9006471
:1003F800002150E7C2F1200320FA03F10CFA02FCB5
:1004080024FA03F394400C434FEA1C4800FA02FE16
:100418001FFA8CF7B3FBF8F008FB1031230C43EA02
:10042800014300FB07F1994208D91CEB030300F1D3
:10043800FF362CD299422AD9023863445B1AA4B2F7
:10044800B3FBF8F108FB113344EA034401FB07F35B
:10045800A34208D91CEB040401F1FF3613D2A342CE
:1004680011D902396444E41A41EA004139E70446E3
:10047800F0E6084606E7C845AED2B9EB020E63EBD4
:10048800070C0138A8E73146EDE7034699E73046FF
:10049800D4E7D6467FE7634402384DE7064623464D
:1004A80008460FE7023E634430E700BF704700BFCD
:1004B800034613F8012B002AFBD1181A013870479C
:1004C8002DE9F04100F090FB00F03AFB00F0B8F89D
:1004D80000F00AFC494800F037FC494800F034FCB9
:1004E80000F096FB00F030FC464800F02DFC00F0D0
:1004F800E3F8054602F062F80446434800F024FC9D
:10050800284600F04DFC002C6CD0404800F01CFC44
:10051800606800F019FC3B4800F016FC201E18BF6C
:10052800012000F0D9F800F0A7FD394A394B00281E
:1005380014BF1046184600F007FC00F0F5F93648DD
:1005480000F002FC00F0BAFA00284DD000F0BCFA26
:1005580005463248DFF8E48000F0F6FB6F1E0835E8
:1005680017F8016F330906F00F0618F8030000F0BA
:10057800E3FB18F8060000F0DFFBBD42F0D1284885
:1005880000F0E2FB94B3D4E901766578002000F02E
:100598001FFC3A463146284601F032FD214800F05A
:1005A800D3FB284600F0D9FB164800F0CDFB0CB36E
:1005B800E368984700F060FB00F092FA054600F007
:1005C8008BFB0CB12369984701F0E6FD00F088FA2F
:1005D800401BB0F5FA7FF2D300F082FA054600F02E
:1005E80085F8ECE7104897E71048C9E7104E114F17
:1005F8007F25CBE7104800F0A7FBDBE7A1530008F5
:10060800D0530008CD530008DD530008F25300080A
:100618004C530008305300082A5400084754000877
:100628005454000887540008F75300086954000818
:100638006A5300088D5300089B540008D3540008DF
:100648001B4B1A6B42F003021A631B6B194B4FF4D6
:1006580000329A614FF480229A611A6822F00C02E3
:1006680042F004021A601A6822F0300242F01002C6
:100678001A601A6822F440621A601A6822F440521A
:100688001A601A6822F440421A60DA6822F440625A
:1006980042F40062DA60DA6822F4405242F400520E
:1006A800DA60DA6822F4404242F40042DA607047C5
:1006B8000038024000000240064B1B69C3F340109B
:1006C8005A0648BF40F002001B0648BF40F004002D
:1006D800704700BF000002400028034B0CBF4FF4D6
:1006E800003202229A61704700000240024A5369B0
:1006F80083F002035361704700000240F0B50246E0
:10070800014448F2050700208A4213D012F8016B11
:1007180008250124430026424FEAD03C98B214BF72
:1007280001230023634518BF78406400013DE4B20B
:10073800F0D1E9E7F0BD0000104B1A6822F470020E
:100748001A601A6842F420021A605A6842F4406239
:100758005A609A6842F470029A60DA6822F4700269
:10076800DA60DA6842F4A002DA605A6A22F47F4258
:100778005A625A6A42F488425A6270470004024038
:10078800024A136843F4007313607047005800402E
:10079800064B074AD2F81418014201D1013BF9D19E
:1007A800B3FA83F040094042704700BFA0860100B9
:1007B8000050004038B5144C236843F48073054654
:1007C80023600120FFF7E4FF002814DBC0350F4B3E
:1007D800256140F20242616911420FD1013BFAD111
:1007E800636923F480636361236843F400732360BF
:1007F8006FF0010038BD4FF0FF30FBE7606910F47F
:100808008060F7D0ECE700BF00580040A0860100E8
:1008180070B5044600200D46FFF7CCFF00281FDB0B
:10082800114EB36925448020FFF7B2FF002804DA8F
:10083800FFF7A6FF6FF0010070BD14F8013B3361AC
:10084800AC42F0D10420FFF7A3FF002804DAFFF739
:1008580097FF6FF00200EFE7FFF792FF0020EBE74A
:100868004FF0FF30E8E700BF0058004007B501210E
:100878000DF107008DF80710FFF7CAFF03B05DF808
:1008880004FB00002DE9F843264C236843F48063F9
:100898000546236001208846FFF78CFF00283BDBD4
:1008A800A36905F1FF3900264020FFF771FF0028F2
:1008B80007DAFFF765FF6FF00200BDE8F8833E46F0
:1008C800F2E7236909F8013F771CA8EB0703032B1C
:1008D800F5D80420FFF75CFF002804DAFFF750FF83
:1008E8006FF00300E9E7236823F48063236072B69E
:1008F8002369EB55236843F400732360F71C2E44E7
:100908002369B37062B64020FFF742FF002806DB78
:100918002369EB550020D0E76FF00100CDE76FF0B9
:100928000400CAE7005800402DE9F04F5D4C5E4BCB
:100938005E4E5F4D00212160616021721A6B31703B
:1009480042F002021A631A6C42F480021A6491B0EF
:100958001B6CFFF7F1FE574B4FF400421A602A2236
:1009680019605A60D222DA612B221A6201221A60B7
:100978001A6822F001021A602B6823F440032B60E6
:100988002B6843F480032B606B6823F400636B606F
:100998004FF00063AB6100F0B5F80746884600F0F9
:1009A800B1F8C21B61EB0803502A73F10003F6D3B8
:1009B8004FF40063AB61FFF7BFFE3E4B01251D609E
:1009C800022000F093F8042104A8FFF75BFF002839
:1009D80004DA11B0BDE8F04FFFF748BF9DF81030BA
:1009E800042BF6D19DF81130112BF2D1324B05931F
:1009F800052100230DF11500ADF81830FFF77EFE34
:100A08000821ADF81A0005A8FFF702FF0028E0DB6F
:100A1800052000F06BF8232107A8FFF733FF002813
:100A2800D7DB9DF81C30232BD3D1212107A8FFF752
:100A380065FE9DF83D20C3B29A42CAD19DF83E306A
:100A4800C0F307209842C4D19DF81D009DF81E10E0
:100A58009DF81F209DF820309DF825B09DF826A010
:100A68009DF827909DF828809DF8297003900291A1
:100A780001920093FFF7FAFE03980299019A009BEE
:100A880020706170A270E37084F804B084F805A047
:100A980084F8069084F807802772357011B0BDE895
:100AA800F08F00BF1C010020003802402501002003
:100AB800000402400058004003070280014B1878E8
:100AC800704700BF25010020004870471C01002026
:100AD800024A136801331360704700BF28010020E1
:100AE800014B1868704700BF28010020044A1168AC
:100AF80013685B1A834200D3704730BFF8E700BF22
:100B08002801002010B50B494FF0E02208689469CD
:100B18000B688342FAD15069074A08491268B2FB48
:100B2800F1F2001B0021B0FBF2F04FF47A72E3FB04
:100B3800020110BD28010020A400002040420F003F
:100B4800214B1A6842F480321A601A689203FCD565
:100B58001A6C1E4942F080521A641A6C0A6842F4F0
:100B680080420A601A4A40F205711160194A5A60B7
:100B78001A6842F080721A60134A13689B01FCD508
:100B8800936823F47C4323F0F00343F41443936005
:100B9800936823F0030343F0020393600A4A9368BF
:100BA80003F00C03082BFAD10B4B0C4A1A604FF0D8
:100BB800E0230B4A5A610B4AF02182F823100022E5
:100BC8009A6107221A61704700380240007000409D
:100BD800003C024008544007A4000020007A030AA1
:100BE8003F90020000ED00E0044B05495A6F120ED9
:100BF8000A705A6F42F080725A6770470038024094
:100C08002C010020014B1878704700BF2C010020F0
:100C1800104B1B78980610D4590610D41A0610D415
:100C2800D80610D4590710D41A0710D413F0020F9D
:100C3800094B0A4808BF18467047094870470948D1
:100C4800704709487047094870470948704709487C
:100C5800704700BF2C010020455500083B5500088F
:100C6800E4540008F9540008FE5400080855000828
:100C78001155000832550008134A936843F480530D
:100C88009360124B5A6F42F001025A67104A596F2B
:100C9800890701D4013AFAD15B6F9B0713D50D4B35
:100CA80045F255521A6004225A604FF47A729A60DB
:100CB800074AD96809B1013AFBD14AF6AA221A6053
:100CC8004CF6CC421A607047002004E0003802401D
:100CD800A186010000300040024B4AF6AA221A60A1
:100CE800704700BF00300040114B1A6B42F0010200
:100CF8001A635A6C42F010025A645B6C0D4B1A6806
:100D080022F470121A601A6842F420121A605A6AA1
:100D180022F47F625A625A6A42F4EE625A62A3F57A
:100D2800704340F2D9229A6042F20C02DA607047AE
:100D38000038024000000240024B1A681206FCD537
:100D4800586070470010014008B5411E11F8010FA6
:100D580000B908BDFFF7F0FFF8E77FB528B93020E4
:100D680004B0BDE87040FFF7E7BF01AB00211E46A5
:100D78000A24B0FBF4F504FB1502303203F8012B0A
:100D88000246092A01F10101284601D90A29F0D1B0
:100D98000139705CFFF7D0FF0029F9D104B070BDAC
:100DA80010F0040F08B5014614BF31203020FFF7BA
:100DB800C3FF11F0020F14BF31203020FFF7BCFF32
:100DC80001F00100BDE808403030FFF7B5BF000072
:100DD8003C4A136B43F002031363136B3A4B1968D5
:100DE80021F470211960196841F42021196099686B
:100DF80041F470219960596A21F0FF015962596ADA
:100E080041F099015962136C43F000731364136C39
:100E18002E4B1A6822F002021A601A6842F0010288
:100E28001A602B4A5968C90703D4013AFAD101203C
:100E380070471A68274942F040021A60264A00287B
:100E480008BF0A46DA61D3F80022214842F00102BD
:100E5800C3F80022D3F81C2222F00102C3F81C2296
:100E6800D3F80C2242F00102C3F80C22D3F8042272
:100E780022F00102C3F804220022C3F84022C3F87A
:100E88004422D3F8142222F00102C3F81422D3F822
:100E98001C2242F00102C3F81C22D3F8002222F0DF
:100EA8000102C3F800221A6822F001021A60074BF7
:100EB8005A68D20701D50138FAD1B0FA80F0400952
:100EC80040007047003802400004024000640040BF
:100ED80040420F0005001A0005001AC0082AF0B5A4
:100EE80024D8154B9B685B0123D500231E461F465B
:100EF800DCB2A2420DD8104B400540F00100C3F807
:100F08008421C3F88871C3F88C61C3F8800100207C
:100F1800F0BD032BCC5C4FEAC3058BBF203DAC4032
:100F2800AC40274388BF26430133E1E74FF0FF3049
:100F3800EEE76FF00100EBE70064004070B5184C75
:100F48000546E06810F0030018D0D4F8B031D4F8A2
:100F5800B401D4F8B861D4F8BC410DB15B0D2B8055
:100F680000F00F00082828BF082002B11070A9B9A6
:100F78000B4AD36843F02003D360012070BDD3002F
:100F8800032A8ABF203B26FA03F324FA03F3DBB2D1
:100F98008B540132D3B29842F1D8E9E70022F9E73D
:100FA80000640040082AF0B524D8154B9B685B0103
:100FB80023D500231E461F46DCB294420DD3104BA6
:100FC800C00040F00500C3F88421C3F88871C3F855
:100FD8008C61C3F880010020F0BD032BCC5C4FEA84
:100FE800C3058BBF203DAC40AC40274388BF264398
:100FF8000133E1E74FF0FF30EEE76FF00100EBE778
:1010080000640040F0B51B4E0746F06810F003007E
:1010180011D0D6F8B031D6F8B441D6F8B851D6F8D0
:10102800BC6113F0040FC3F3800005D1114AD368E3
:1010380043F02003D360F0BD0FB1DB083B6004F040
:101048000F04082C28BF082402B114700029EDD021
:1010580000220AE0D300032A8ABF203B25FA03F3C3
:1010680026FA03F3DBB28B540132D3B29C42F1D897
:10107800DCE700BF006400401FB50120FFF7A8FEB1
:1010880050BB45F6A523022201A940F22310ADF872
:101098000430FFF723FF044600BB1B4B1B4AD168F3
:1010A80089071FD1013BFAD10324204604B010BDA3
:1010B800BDF8062040F223139A4211D19DF803305F
:1010C800022B0DD19DF80830A52B09D19DF80930C8
:1010D8005A2B18BF0524E8E70124E6E71446E4E79D
:1010E8000524E2E700230DF1030202A90DF1060031
:1010F800CDE90233ADF806308DF80330FFF71EFF57
:101108000128D5D00424D0E740420F0000640040F5
:10111800064B5A69510542BF5A6922F480625A61E6
:101128005A69920748BF9B69704700BF0054004046
:10113800024A136843F40073136070470054004078
:10114800074B084A40F480605169084204D1013BCA
:10115800FAD14FF0FF307047506940F38020704754
:10116800A086010000540040074A1368591C1CBFA0
:1011780001331360002805DA044A1368591C1CBFA0
:1011880001331360704700BF340100203001002094
:10119800064B074AD2F81414014201D1013BF9D198
:1011A800B3FA83F040094042704700BFA0860100AF
:1011B8000050004010B1044B1B68036011B1034B91
:1011C8001B680B60704700BF34010020300100200D
:1011D8001D4B1A6B42F002021A631A6C42F4001299
:1011E8001A641B6C194B1A6822F470421A601A6848
:1011F80042F420421A605A6842F0C0025A609A6863
:1012080042F470429A60DA6822F47042DA60DA686E
:1012180042F4A042DA601A6A22F07F421A621A6A1D
:1012280042F088421A62A3F5D8334FF400421A609C
:1012380000221A602A225A60D222DA612B221A620C
:1012480001221A60704700BF0038024000040240C3
:1012580008B5094B09481A6842F400721A609A697D
:10126800920701D50138FAD1FFF752FF18B9BDE846
:101278000840FFF7ADBF08BD00540040A08601003C
:1012880070B5184D0C46FFF743FFAB6903F0030335
:10129800022B064601D1FFF79BFF2B6843F48073AE
:1012A8002B600120FFF774FF002804DAFFF7D0FF56
:1012B8004FF0FF3070BD44EA4604E4B20A4B094AD5
:1012C8002C6140F202415069084206D1013BFAD133
:1012D800FFF7BEFF6FF00100ECE7506910F4806083
:1012E800E8D0F5E700540040A086010070B50C4630
:1012F80000211546FFF7C4FF002816DB0E4EB36920
:101308002544AC4208D10420FFF71AFF0028B4BFD7
:101318006FF00200002070BD8020FFF711FF002849
:1013280006DB14F8013B3361EBE74FF0FF30F2E7DF
:101338006FF00100EFE700BF00540040F8B50D461C
:101348001746002A00F097804C4C012A23681CD1CC
:1013580023F4406323601146FFF792FF002822DB45
:1013680072B6A369236843F40073236062B6402011
:10137800FFF70EFF002804DAFFF76AFF6FF004009A
:1013880013E023692B7000200FE0022A30D143F4C8
:10139800406323600121FFF773FF002806DA236802
:1013A80023F4006323606FF00300F8BD72B6A369ED
:1013B800236823F48063236062B60420FFF7E8FE05
:1013C800002806DAFFF744FF236823F4006323604C
:1013D800D4E772B6236843F40073236023692B7043
:1013E80023696B7062B6236823F400632360CAE73D
:1013F80023F400632360236843F48063236001219E
:10140800FFF73EFF0028CEDBA3690026BB1B032B9A
:1014180009D80420FFF7BCFE00280DDAFFF718FFF3
:101428006FF00500C1E74020FFF7B2FE0028A3DBFC
:101438002369AB550136E9E7104C236823F4806330
:1014480023602369AB550420FFF7A2FE002806F1AC
:10145800010704DAFFF7FCFE6FF00600A5E772B695
:10146800236843F4007323602369EB5535442369EB
:10147800AB7062B687E74FF0FF3096E70054004044
:1014880008B50021FFF7FCFE002805DB034B9B692C
:10149800FFF74EFE012008BD0020FCE70054004085
:1014A80010B572B1FFF722FF041E06DAFFF7D0FE6F
:1014B8002046FFF759FE204610BDFFF739FE0024ED
:1014C800F6E74FF0FF34F6E708B5FFF737FFFFF709
:1014D8004BFE08BD70B505461E468AB1FFF706FFEC
:1014E800041E06DAFFF7B4FE2046FFF73DFE20464D
:1014F80070BD049A31462846FFF720FF0446F3E7FB
:101508004FF0FF34F3E7000073B50D460021144691
:10151800FFF7B6FE00282BDB174EB3698DF8045091
:10152800230A8DF806408DF8053001AD002480208F
:10153800FFF706FE002807DAFFF78AFE6FF00100C2
:10154800FFF712FE02B070BD013415F8013B33619C
:10155800032CECD10420FFF7F3FD002804DAFFF791
:1015680077FE6FF00200EBE7FFF7E2FD0020E7E708
:101578004FF0FF30E4E700BF00540040F8B50F46D5
:10158800002106461546FFF77BFE00284EDB294C56
:101598008020A369FFF7D4FD002806DAFFF758FE7C
:1015A8006FF00100FFF7E0FDF8BD27610420FFF7A9
:1015B800C7FD002804DAFFF74BFE6FF00200F1E7E1
:1015C800236843F44063236001213046FFF758FE47
:1015D800002806DA236823F4006323606FF0030011
:1015E800E0E772B6A369236823F48063236062B6D8
:1015F8000420FFF7CDFD002808DAFFF729FE23684D
:1016080023F4006323606FF00400CBE772B6FFF7A2
:101618008FFD2169236962B62268DBB222F4006279
:1016280043EA0123226000202B80BBE74FF0FF3004
:10163800B8E700BF00540040006803F036BC0068FB
:1016480003F0BABB7FB5164604460D46FFF75AFAB3
:10165800064A0094821841F10003CDE90156044975
:10166800044802F057FF04B070BD00BF40420F00AD
:10167800342B0020202B00202DE9F0411546D708F7
:10168800069A00EBD10603EBD20841463A463046AB
:1016980003F0E4FD15F007050BD00124AC4018F861
:1016A8000730E4B2621E1340F25D644222401343E5
:1016B800F355BDE8F0812DE9F04311F0070F079DC0
:1016C80007460E469C4604D10795BDE8F043FFF750
:1016D800D3BFAA184FF0010E954201D3BDE8F0839D
:1016E80005F0070806F00709C84541464FEAD50442
:1016F80038BF4946C1F10801531BF0081CF80440E3
:10170800994228BF194644FA08F43B5C0EFA01F8DE
:1017180004FA09F408F1FF385C4008FA09F804EA09
:10172800080463403B540D440E44D5E72DE9F041CD
:10173800D400A342069D94BFE41A241BAC4205F1D1
:10174800070228BF2C46D208984606460F46A2EB49
:10175800D402002100EBD40003F09AFDCDF81880E4
:101768003B46224630460021BDE8F041FFF7A3BFC3
:101778001FB5CC00944294BF241BA41A102C034616
:101788004FF0000100920DF10E00224628BF1022F2
:10179800ADF80E10FFF78FFFBDF80E0004B010BDB6
:1017A80007B58DF8000001208DF801008DF80410B0
:1017B8008DF805206846DDE90421ADF80230FFF711
:1017C80041FF03B05DF804FB70B50446D0E904108E
:1017D800ADF5047D08B931BB14480022FFF7C8FFF6
:1017E8004FF482720546002143A803F051FD2846B4
:1017F80043A900F03FFE839DFF2D14D803AE0023BC
:10180800EA008DF80C500093082143AB30460135AF
:10181800FFF732FFCDE9006540F281136279217943
:101828002078FFF7BDFF0DF5047D70BDCF5300088C
:10183800F0B54FF4A872ADF5297D002105460DEBF2
:10184800020003F025FD01231022002158A88DF87D
:1018580050318DF852318DF8553103F019FDFFF7ED
:101868002DF900286FD0FFF72FF90246006851685C
:1018780058AB03C3127A1A703C4B1C682046FEF71B
:1018880017FE32280246214628BF32225CA86992F8
:1018980003F030FD549B0593BDF85431ADF8183072
:1018A800DDE956230026CDF81A20CDF81E30009623
:1018B80058AB8022702105A8FFF7FDFE699C322CE9
:1018C8003ED88DF83240E4005CAB00962246F82101
:1018D80005A8FFF7F0FE6C9F012F04F1F8032FD83D
:1018E800DB0805AA04F58074D754BF013A4621469F
:1018F80000966AAB05A8FFF7DEFE3C44A69FDE2FE4
:101908001ED8E30805AA0834D754FF006EAB3A4640
:10191800214605A80096FFF7CEFE2B788DF80C30EF
:1019280001238DF80D30E1194FF4D773ADF80E305F
:1019380005AAAB88ADF81030C90803A8FFF782FEE6
:101948000DF5297DF0BD0A490A4854AB51F8042B1E
:101958001A74140A5C7481424FEA12444FEA126204
:101968009C74DA7403F10403F0D185E700000020C9
:10197800107AFF1F1C7AFF1F2DE9FF4D90F80034E5
:101988000B7004460D4616466BB901464FF480624B
:10199800681C03F063FC42F20803DB083360002094
:1019A80004B0BDE8F08D012B25D1D0F80032FF2B13
:1019B80025D84B7041F6FF7800214FF0000A4FF010
:1019C800000BD4F800224F1C3B0191424FEAD30090
:1019D800E3D234F81130434528BF43462B52002345
:1019E80000930D2102AB03222844CDE902ABFFF797
:1019F80062FE3946E5E7022B04D10823CDE76FF0F4
:101A08000900CDE76FF00A00CAE700002DE9F041B0
:101A1800ADF6980D40F68802002104A803F038FCC2
:101A280001238DF81034514B0493514B1C78514BC2
:101A380018680DF112010022D3B29C4200F2918085
:101A48000233DBB2012500260DF658042A4684939A
:101A58004FF4D77102AB204600968DF814588DF8D4
:101A68000850FFF728FE2A4602AB4FF4C071204603
:101A780000968DF80850FFF71EFE2A468DF808508C
:101A88003D4D009602AB40F2B3112046FFF713FE1E
:101A980040F2014802AA294604A8CDF80880FFF7B9
:101AA8006BFFB04253DB029B45F8043CDB002E1F62
:101AB80003F1400502AA06EBD5010DF2144003F12B
:101AC8002007CDF80880FFF757FF00283FDB029B6F
:101AD800FF084021F35105EBC303DA080DF6180798
:101AE800B15003F1200206EBD2023D4603CDA542D8
:101AF800106051602F4602F10802F6D103F5087212
:101B0800D2084021B15003F5107206EBD2020DF64F
:101B18009806254603CDB542106051602C4602F167
:101B28000802F6D1154C164A0292FF2203F5886185
:101B38008DF80C2022788DF80D20C908114A02A8CA
:101B4800FFF780FD2378013303F01F0323700DF6A0
:101B5800980DBDE8F08130F8123021F8023F0132CB
:101B68006AE7FD2AF7D1FF236CE700BF551D561D14
:101B780071220020742200203C01002070220020E5
:101B88000700561D380100202DE9F047D0E904462A
:101B98002DED028B0546ADF5CD6D002E75D0E70015
:101BA800072F78D80023CDF85034DB000093224665
:101BB80008233146D4A8FFF7B9FDDDF85024D30037
:101BC8000833BB4228BF3B46DB089C4294BF221B1C
:101BD800E21AD100072960D800238DF860364CAE90
:101BE8004FF408720021304603F052FB0DF10F0448
:101BF8000023009450AA8DF80E308DF80F300DF5A3
:101C08008B610DF10E03D4A800F04CFC9DF80E304A
:101C180033729DF80F307372FEF774FFC6E9000146
:101C280096E80300727A0990337AADF82810090C07
:101C380009AC8DF82A10E37112B143F00203E37185
:101C480000220023CDE9042300230093062204ABDD
:101C58003A212046FFF72FFD96F818322372002B01
:101C680000F0CB81013B0D2B58D8DFE813F026019B
:101C78002601D8003D014501130126013D0145011A
:101C8800130126013D0145014D01002C46D1AD4E01
:101C98002746234687E7337885E7F018F35C8DF805
:101CA8006036002B9BD0013B0D2B37D8DFE803F0C3
:101CB8003C3C074E63203C4E63203C4E6378012A2F
:101CC80094BF941A02F1FF34461C00222146304684
:101CD800FFF74EFDB0F5006FCDF858051ED80090FF
:101CE8001023224631460DF58B60FFF71FFD76E77E
:101CF800012A94BF921A02F1FF32D300072B00F198
:101D0800010106D80023CDF858351B01009308239C
:101D1800E9E74378CDF85835802BF6D90DF5CD6D28
:101D2800BDEC028BBDE8F087012A94BF941A02F13A
:101D3800FF34461C002221463046FFF719FDB0F556
:101D4800807FCDF85805E9D8C000C8E7012A94BFBC
:101D5800921A02F1FF32D300072B00F1010104D8D7
:101D68000023CDF858359B01D0E74378CDF8583596
:101D7800202BF8D9D2E7012A94BF921A02F1FF3238
:101D8800D300072B00F1010104D80023CDF8583502
:101D98005B01BBE74378CDF85835402BF8D9BDE750
:101DA800012A94BF941A02F1FF34E300072B00F1D3
:101DB80001072ED80026CDF858663601DFF8A09125
:101DC8009FED618ADFED618A0DF58B6808364FF06B
:101DD800080AB2453FF403AF524621463846FFF79A
:101DE800C7FC09EA403307EE903A67EE887A0004A8
:101DF80017EE903AF4EEE87AF1EE10FAA8BF43F045
:101E0800FF4300F00040184348F8040B0AF1100A99
:101E1800DFE74678CDF85866802ECED97EE7D6F82B
:101E28001071B7F5006F3FF679AFB6F81031A4F826
:101E3800093000263A461021009650AB0DF12D00CE
:101E4800FFF71AFC07F1100117F0070713D000225B
:101E5800C7F108070023CDE90623FAB251FA87F73C
:101E6800B7F5016F3FF65AAF009606AB0DF12D009E
:101E7800FFF721FC394621F0070208324032D20828
:101E8800CDE900424FF4C0736A7929792878FFF7C1
:101E980087FC43E7D6F81061802E3FF63FAF6672A5
:101EA800360100230093324650AB08210DF12D0076
:101EB800FFF7E2FB06F11002E0E7D6F81021B2F5D1
:101EC800807F3FF62BAFB6F81031A4F80930D60062
:101ED80000230093324650AB10210DF12D00FFF77F
:101EE800CBFB06F11802C9E7D6F81061202E3FF6A1
:101EF80015AF6672B601D4E7D6F81061402E3FF6EA
:101F08000DAF66727601CCE7D6F8100280283FF64E
:101F180005AF6072DFED0E6A9FED126A9FED0D7AD4
:101F28000D4FDFED0E5A000150AB0830082647F67A
:101F3800FF7C0DF12D0E86424FEAD60214D10132F4
:101F4800D2009BE7CF53000800008077000080474D
:101F5800FFFF7F7F00E07F4700F0FF7F00008007E2
:101F680000E0FF0F00E07FC7F3EC017AB0EEE75A1C
:101F7800B4EE665AF1EE10FA0BD8F4EEC67AF1EE2A
:101F880010FA22D4F4EE477AF1EE10FAC8BFF0EE58
:101F9800477A17EE908A28F00041B1F1FF4F17D326
:101FA800C8F31609B9F1000F24D1B1F1FF4F0CBFE6
:101FB8004FF4F84161464FEA184808F4004841EAEE
:101FC80008012EF802101036B5E75FED1A7AE0E73F
:101FD80008EA070107EE901A67EEA57A17EE901A3D
:101FE80001F58051B1F1786F28BF4FF07861C1F3E6
:101FF8004F31E0E74FF4FC41DDE708223EE700BF40
:102008002DE9F047074692B089463C48DFF82CA1F5
:102018003B4E4FF40051904602F09CFE0AACCAF8C1
:102028000000384A38490AA802F062FA0FCC35464F
:102038000FC594E80700DAF80030336085E8070038
:102048003771FEF73BFD314B314D1870082204A85B
:10205800282104AC02F057FA0FCC0FC523682D4C89
:102068002B6000252C4B0293CDE9004500234FF44B
:10207800D7720221304602F0F5FD284B0293CDE9D4
:10208800004540F203234FF4C0720221304602F0AB
:10209800E9FD234B02930223CDE90045194640F29E
:1020A8008112304602F0DEFD1E4B029340F2B3125D
:1020B800CDE900454FF496730221304602F0D2FD77
:1020C800194B41463846C3F8009000F0B9F9FEF7BD
:1020D80019FD164B164AC3E90001164BC31841F106
:1020E8000004C2E900340B4A134B801841F1000187
:1020F800C3E9000112B0BDE8F08700BF602B0020E3
:10210800342B002041160008471600084A220020F8
:10211800202B002080841E00F8280020D0260020D4
:10212800A82400208022002000000020582200203F
:102138005022002040420F0068220020502B00202F
:1021480013B50C460421ADF80010FF218DF80410DA
:102158002178ADF802008DF8051068461946FFF79A
:1021680071FA2378013303F01F03237002B010BD06
:102178000020002170470000014B1870704700BF15
:1021880078220020024B1860024B1970704700BF7C
:1021980074220020712200202DE9F043B7B0FEF729
:1021A800B1FC984AD2E900349842A14107D3964934
:1021B8005B1844F10004C2E90034FFF727FCFEF77E
:1021C800A1FC924AD2E900349842A14151D39049E6
:1021D8005B1844F10004C2E90034FEF793FC8D4A11
:1021E800D2E90034C01A8A4A61EB04010023FDF7E2
:1021F800E7FF894B1C78894B1B7884F001049C42CB
:1022080038BF1C460646FEF7FDFC032C28BF0324F6
:102218008DF864400024054618960027002600948F
:1022280008AB0622022119A8CDE90867FFF743FA8F
:1022380000940AAB052203210DF165008DF8654075
:10224800CDE90A67764CFFF736FA764B1293FF23EF
:102258008DF84C3018AA23788DF84D30072112A834
:102268008DF86650FFF7EEF92378013303F01F036A
:102278002370FEF747FC6C4DDFF8B08106460F4629
:10228800284602F0DDFA0446C8B1D4E9062352EA2A
:1022980003010CD0B242BB4109D221462846D8F8E6
:1022A8000C9002F0D5FA01466048C847E8E794F870
:1022B8002420A16A206AFEF775FE0028EDD05B4F46
:1022C8000DAE0DF11B02314607A8FEF79BFE012853
:1022D80017D0574B1B78002B00F09180524802F022
:1022E800AFFA002840F08B80BFF34F8F5149524B13
:1022F800CA6802F4E0621343CB60BFF34F8F00BF9C
:10230800FDE7079B0F939DF81B30CDE91036FEF7CC
:10231800F9FB12AC0023CDE9013403930FAB009312
:1023280002460B46384602F0A3FA0128C9D19DF8A7
:102338004930022B0CD1BDF84A30B3F5D77F4DD0C8
:102348000BD8B3F5C07F4DD040F2811293424DD0E7
:10235800FB68179935489847B3E740F2B3129342A0
:10236800F6D1DDE9165414B9002DF1D1334C002211
:1023780029462046FFF7FCF9EB00172BADF8600063
:1023880038D800233593DB0000932A46214619A844
:102398001823FFF7CBF9BDF860209DF84C109DF885
:1023A800480000238DF814304FF6FF739A420BBF94
:1023B8001F4B032301228DF8143008BF1A709DF8B3
:1023C80014308DF818300123019306AB00939DF863
:1023D8004D2040F2B313FFF7E3F9B9E72046FFF7C2
:1023E80027FAB5E72046FFF7CFFBB1E72046FFF70E
:1023F800EBF9ADE7A3783593702BC4D9A8E737B0CC
:10240800BDE8F083682200208096980050220020C2
:1024180040420F00582200204A2200207822002043
:10242800602200200400551D202B0020342B0020A2
:102438007922002000ED00E00400FA05CF530008DF
:1024480070B50B4C0D46208181B10846FEF730F877
:102458003F2828BF3F2006460246294604F1560079
:10246800344402F047FF002384F8563070BD00BFA3
:1024780004000020012870B50D460FD84C2358439E
:10248800074B1E583046FEF713F8314604460246FD
:10249800284602F02FFFC5F8004170BD0024FAE776
:1024A800040000202DE9F047434D2E688146304650
:1024B80014460F469846FDF7FBFFD9F800A1504592
:1024C800024605D13146484602F0B8FE064660B1DC
:1024D800EE6C3046FDF7ECFF504528D152463146A8
:1024E800484602F0ABFE10BB01264C20704305EBBA
:1024F800000999F8053099F80420FBB94C2303FB2F
:1025080006531B794BB314B1012384F808324C27C6
:1025180007FB06570A373846FDF7CAFF3946814692
:102528000246204602F0E6FEC4F8009121E00023AE
:10253800002C3DD188F80030002321E0002FDDD0A9
:1025480097F80832002BD9D0F2B90A2B05D1D7F861
:10255800003113B13B88A9F8083014B10A2384F874
:1025680008324C2303FB06531B8923800123C4F83C
:1025780000314C2303FB06556B7988F80030AB79A2
:10258800089A1370BDE8F087012ABCD1012BBAD193
:10259800D7F800213F2A28BF3F2292460A30394601
:1025A8002844D14402F0A6FE002389F80A30A5E7A2
:1025B80084F80832BEE700BF04000020431EDBB2E7
:1025C800FD2B0AD8052806D0012806D1044B142271
:1025D80002FB003070470020F8E70020704700BF7A
:1025E800E855000838B54420FEF74AFF064D044672
:1025F80018B12B780BB900F0C7F948202C70FEF7FA
:102608003FFF024B187038BD784B0020774B0020F5
:1026180038B50B460446154601460722184602F00F
:102628001DFEA268C0F807200B232B60002038BDD0
:102638002DE9F8431E464B070C46154640D100EBE2
:10264800D104D7083A463146204602F007FE15F075
:1026580007030AD001259D40EDB2F35D6A1E1340C1
:10266800E25D6D422A401343E355BDE8F88301F06B
:10267800070804F00709C845434638BF4B46C3F16D
:1026880008036A1A934228BF1346CA084FEAD40CB3
:10269800B25C10F80C7042FA08F20EFA03F802FA6B
:1026A80009F208F1FF387A4008FA09F802EA080244
:1026B800574000F80C7019441C448D42D7D8D4E711
:1026C80000214FF0010EF8E708B507211148FFF780
:1026D80059FD1148FEF738FBFEF77AFD00F0F2F9D4
:1026E80000F038FA0D4B1A6822F040421A60DA6896
:1026F80022F04042DA60DA6842F08042DA60FFF79E
:1027080071FFFEF7FFF9064BC3E90001054BC3E96A
:10271800000108BD44560008105600080000024099
:10272800684B0020604B00202DE9F0438FB0FEF786
:10273800E9F9864A864F0E46D2E900310546E81A7D
:1027480066EB010487424FF00000A04180F0E98069
:1027580080481B1841F10001C2E900317E4B1B780B
:102768000AAC002B55D0002301A902AA68460093A1
:102778000193029300F01CF90146002849D1102268
:102788002046009F02F084FDFFF7F2FC04AACDE981
:102798000A0107A920460C97FFF73AFF002806DB35
:1027A800049B6E4907AA4FF48050FFF7C9FC10221A
:1027B80000212046019F02F06BFDFFF7D9FC04AA17
:1027C800CDE90A0107A920460C97FFF721FF002849
:1027D80006DB049B624907AA41F20100FFF7B0FC3F
:1027E800102200212046029F02F052FDFFF7C0FC94
:1027F80004AACDE90A0107A920460C97FFF708FFAC
:10280800002806DB049B574907AA41F20200FFF79C
:1028180097FC554B1B78F3B1002302A8029300F0F4
:102828001DF90146B8B910222046029F02F030FD7A
:10283800FFF79EFC04AACDE90A0107A920460C97D8
:10284800FFF7E6FE002806DB049B484907AA41F289
:102858000300FFF775FC464B1F69FFF789FCCDE9BC
:102868000A0194E8030087F40047ADF82010C7F385
:10287800C037090C07908DF822104FF000084FF070
:10288800000902AB06223A2107A847F00207CDE962
:1028980002898DF82370FFF7CBFE082307AA354974
:1028A80041F20400FFF74CFCFFF762FCCDE90A0196
:1028B80000F0AEF9034694E8030043F00203ADF8D4
:1028C8002010090C07908DF822108DF8233006226D
:1028D80004AB3A2107A8CDE90489FFF7A9FE08232C
:1028E800254907AA41F20500FFF72AFC102200211A
:1028F800204602F0CDFCFFF73BFCCDE90A0100F0D1
:102908001BF901AA07A920468DED0C0AFFF780FEE6
:10291800002806DB019B194907AA41F20600FFF7C8
:102928000FFC174A1748D2E90031ED1A66EB010689
:10293800854276F1000606D31B1841F10001C2E971
:102948000031FFF74FFE0FB0BDE8F083684B002061
:102958003F420F0040420F00784B0020764B00208A
:10296800754B0020744B0020774B0020734B0020E0
:1029780000000240724B0020714B0020704B002079
:10298800604B00200087930308B544F2271200210A
:102998004420FEF7B9FD002807DBBDE808404FF4E6
:1029A800006205214420FEF7AFBD4FF0FF3008BD9F
:1029B80073B50D461446064698B10DF1060202217C
:1029C8004420FEF7DBFD002839DBBDF806309FED1B
:1029D800207A07EE903AF8EE677A67EE877AC6EDC6
:1029E800007A9DB10DF1060204214420FEF7C6FDD0
:1029F800002827DBBDF906309FED167A07EE903ADE
:102A0800F8EEE77A67EE877AC5ED007A14B9002008
:102A180002B070BD0DF1060203214420FEF7AEFDA1
:102A2800002812DBBDF806309FED0B7A07EE903ACE
:102A3800F8EE677A67EE877AC4ED007AE7E74FF039
:102A4800FF30E5E76FF00100E2E76FF00200DFE733
:102A58000AD7A33A17B7D1370AD7233A13B504468A
:102A68000DF1060200214820FEF788FD002812DB40
:102A780014B9002002B010BDBDF90630DFED076AB9
:102A8800DFED077A07EE103AB8EEC77AE7EE267A56
:102A9800C4ED007AEDE74FF0FF30EBE70000003CB3
:102AA80033938843054B5A69D20406D54FF48052B4
:102AB8005A61034A1368013313607047003C0140B0
:102AC8007C4B0020174B1A6B42F002021A635A6CB7
:102AD80042F480425A645B6C134B1A6822F04072CD
:102AE8001A60DA6822F04072DA60DA6842F08072BE
:102AF800DA600E4A536923F00F0343F00103536170
:102B08000B4B1A6842F480521A60DA6842F4805219
:102B1800DA609A6822F480529A60064B4FF4807209
:102B28005A607047003802400004024000380140F3
:102B3800003C014000E100E0044BDFED057A93ED35
:102B4800000AB8EE400A20EE270A70477C4B0020A6
:102B580000A00C45184B1A6B42F005021A635A6C18
:102B680042F480725A645B6C144B4FF000729A61A5
:102B78001A6822F440221A601A6842F480221A6005
:102B88005A6822F400725A60DA6822F44022DA6045
:102B98000B4A136843F4407313600A4BDA6842F433
:102BA800E042DA600022DA620E225A639A6842F042
:102BB80001029A60704700BF0038024000000240DE
:102BC800000802400020014008B50E4B4FF4007287
:102BD8009A610520FDF78AFF0B4B1A6822F0020262
:102BE8001A609A6842F080429A60084A1968890710
:102BF80001D4013AFAD1D86C024B4FF000729A61B5
:102C080080B208BD0000024000200140A0860100FB
:102C180008B5FFF7D9FFB0F5006F2CBF00200120E1
:102C280008BD00002DE9F84307464420FEF728FCBC
:102C380006467620FEF724FC04466220FEF720FCB8
:102C4800DFF85090054634B199F800401CB900F0FF
:102C58007FFDC443E40FDFF840804DB198F8005081
:102C680035B9094B3946188801F068F9C543ED0FA5
:102C7800064B89F800401E7088F800500CB9044BC8
:102C88001C70BDE8F88300BF9C000020D44B0020D6
:102C9800B04B0020D34B0020D24B0020034A135CDA
:102CA800FF2B1CBF01331354704700BF804B00201B
:102CB800244B1B782DE9F04193B3234F3B787BBB22
:102CC800DFF8A880FDF71EFF98F8005004460E466E
:102CD8009DB91E4B1E48D3E90012611A66EB020229
:102CE800814272F100020DD31A49C3E900460D7002
:102CF8001949012288F800200A70164B1A78174BD8
:102D080033F81250164B284693ED000A00F00AFEDD
:102D1800002807DA0120FFF7C1FF002388F80030F8
:102D2800BDE8F0810F4B28461D8001233B7000F061
:102D3800E5FD0D4B4FF47A72E0FB0246C3E900460D
:102D4800EEE700BFD34B0020B04B0020984B00208B
:102D580080969800954B0020944B002088580008D6
:102D6800A0000020A04B0020A84B0020964B00207C
:102D78002DE9F8431E464B070C46154640D100EB9B
:102D8800D104D7083A463146204602F067FA15F0D2
:102D980007030AD001259D40EDB2F35D6A1E13407A
:102DA800E25D6D422A401343E355BDE8F88301F024
:102DB800070804F00709C845434638BF4B46C3F126
:102DC80008036A1A934228BF1346CA084FEAD40C6C
:102DD800B25C10F80C7042FA08F20EFA03F802FA24
:102DE80009F208F1FF387A4008FA09F802EA0802FD
:102DF800574000F80C7019441C448D42D7D8D4E7CA
:102E080000214FF0010EF8E738B50B460446154689
:102E180001460722184602F021FAA268C0F80720E6
:102E28000B232B60002038BD30B52DED028B10220E
:102E380089B004460D460DEB02000021B0EE408A31
:102E480002F026FAFFF794F96A46CDE9040101A9D0
:102E580004A88DED068AFFF7D7FF002805DB009B45
:102E680001AA29462046FFF76BF909B0BDEC028B91
:102E780030BD30B52DED028B102289B004460D46C9
:102E88000DEB02000021B0EE408A02F001FAFFF7D4
:102E98006FF96A46CDE9040101A904A88DED068AF7
:102EA800FFF7B2FF002805DB009B01AA2946204650
:102EB800FFF746F909B0BDEC028B30BD30B52DEDFA
:102EC800028B102289B004460D460DEB020000214A
:102ED800B0EE408A02F0DCF9FFF74AF96A46CDE91C
:102EE800040101A904A88DED068AFFF78DFF0028CB
:102EF80005DB009B01AA29462046FFF721F909B006
:102F0800BDEC028B30BD00007FB50A217548FFF784
:102F180039F9FEF75DF90120FFF784FE7248FDF7E5
:102F280013FF7248FDF710FF714B1B78002B00F060
:102F3800CB80002302A8029300F0DAFB002840F0BF
:102F4800BF806C48FDF700FF0298FDF706FF6A484E
:102F5800FDF7FAFE6948FDF7F7FE694B1B78002B71
:102F680000F0B48000F0C2FC664A674B00280CBF32
:102F780010461846FDF7E8FE6448FDF7E5FE042014
:102F8800FDF7EBFE6248FDF7DFFE0A20FDF7E5FEE0
:102F98006048FDF7D9FE6048FDF7D6FE5F4B1B7809
:102FA800002B00F09C805E4800220023CDE902231C
:102FB800FDF7CAFE02A801F00DF958B95948FDF706
:102FC800C3FE0398FDF7C9FE3A20FDF7B5FE029847
:102FD800FDF7C3FE002301A8019301F0E9F8D0BB77
:102FE8005148FDF7B1FEDDED017A9FED507A67EEAD
:102FF800877AFDEEE77A17EE904A002C03DA2D2047
:10300800FDF79AFE64424FF47A76B4FBF6F528464B
:10301800FDF7A3FE2E2006FB1544FDF78DFE642068
:10302800B4FBF0F030300A25C0B2FDF785FEB4FBE2
:10303800F5F6B6FBF5F005FB10603030C0B205FBC5
:103048001644FDF779FE04F13000C0B2FDF774FEB6
:103058003748FDF779FE00230DF103010DF1020059
:103068008DF802308DF8033001F0C8F828B99DF8C2
:1030780002306BBB2F48FDF767FE1F48FDF764FE63
:10308800002302A901A8CDE90133FEF793F82A48E5
:10309800FDF75AFE0198FDF760FE2848FDF754FE3B
:1030A8000298FDF75AFE2648FDF74EFEFDF72AFD69
:1030B800244BC3E90001244BC3E9000104B070BDEF
:1030C8002248FDF741FE42E7214841E7214860E7F1
:1030D8009DF803300BB12048CDE72048CBE72048C6
:1030E800CCE700BF7458000890560008A4560008A2
:1030F800D44B0020B7560008CD5300080C570008E1
:10310800D34B00206A560008525600081F57000883
:103118002C5700083E5700087A570008D24B002069
:103128008D570008BE5600089557000800007A44DD
:10313800A1570008B9570008515800085958000805
:1031480069580008C04B0020B84B0020C85600083A
:10315800F056000843570008DD5700080F580008CC
:103168003E5800082DE9F0432DED028BB3B0FDF772
:10317800C9FCA54ADFF804C30E46D2E9003105466A
:10318800EF1A66EB01000024BC4574EB000042D244
:103198009E489F4F1B1841F10001C2E900313B785E
:1031A8005BB100231EA90CA80C931E9300F048FAEB
:1031B800A04264DA2046FFF771FDDFF8BC8298F878
:1031C800003063B100240DF107008DF8074000F0CE
:1031D8006DFFA04280F28E800220FFF75FFDFFF7AF
:1031E80067FD8C4B187828B18B4B5B78022B94BF0A
:1031F8000020012098F8003023B1874B9B78032BDF
:1032080028BF01203B7823B1834B1B78032B28BFB1
:103218000220FEF7B1FF814B1A78C2B1804AD2E989
:1032280000128D4276EB020211D3002414222146AB
:1032380007A81C7002F02CF807A800F015FCA042A3
:10324800784F80F298800120FFF728FD3C70764A7D
:103258007648D2E90031ED1A66EB0106854276F12F
:10326800000607D31B1841F100010020C2E9003114
:10327800FFF7D8FC33B0BDEC028BBDE8F083664B9A
:10328800DDED0C7A9FED6A0A1C706A4B6A49C3ED42
:10329800007A37EE800A41F21000FFF7C5FD9DED78
:1032A8001E0A664941F21100FFF7E3FDDDED0C7AD5
:1032B8009FED637A9FED630A9DED1E8A27EE800AD3
:1032C80077EE877A80EE270A01F084FE5E4941F2A4
:1032D8001200DFED5E7A20EE270AF7EE007A77EE2D
:1032E800C87A20EE270ADFED5A7A20EE270AFFF780
:1032F800E5FD62E79DF80730002B3FF470AF00232F
:1033080004AA03A902A802930393049300F0ECFE15
:103318000028FFF661AF404BDDF808909C70102242
:1033280021461EA801F0B4FFFEF722FF07AACDE947
:103338001E010CA91EA8CDF88090FFF765FD002896
:1033480006DB079B43490CAA41F21300FEF7F8FE7F
:103358009DED030ADFED367A3F4930EE270A41F248
:103368001800FFF761FD9DED040A3C4941F2190080
:10337800FFF77FFD33E7284B5C703B7823B1384B70
:103388001B78B3FA83F35B09364A12880AB1002B1B
:103398007DD09DED080A344941F21400FFF78EFDF7
:1033A800DFED237A9DED070A304930EE270A41F216
:1033B8001600FFF739FD9DED090A2D4941F2170066
:1033C800FFF757FD9FED2B7ADDED086AC6EE877A89
:1033D800B6EE007A77EE877AFCEEE77A17EE903A47
:1033E8009CB2A4F59673B3F5487F50D8DFF8908067
:1033F800B8F80030A3424AD01F4B1B78002B41D1AC
:10340800A8F8004043E000BFC04B002040420F0036
:10341800D44B0020D34B0020804B0020B04B002021
:10342800A84B0020964B0020B84B00200087930340
:1034380033938843A0000020D14B0020D04B0020BC
:10344800CD4C6D43F6288A41CF4B0020145C1C3FBD
:1034580000007A44CE4B0020C94B0020C84B002006
:10346800954B0020A04B0020CD4B0020CB4B0020DB
:10347800CA4B00200000C842D24B00203F420F0038
:103488009C000020204600F083FE0028B8D03B783E
:10349800002B5ED0324A334C13780A9804EB830130
:1034A80008609DF82C1009B92F4801700133DBB270
:1034B800032B13704DD90DF178090021502248468D
:1034C800397001F0E5FEFEF753FE23682693636822
:1034D8002793A3682893254A254BCDE92023E36841
:1034E8002993214BCDE91E011C788DF8C4404FF07B
:1034F8000408CDF89480CDF8C08099E803004022F4
:10350800ADF83410090C0C908DF8361020AB11462C
:103518000CA88DF83780FFF72BFC26AB802288217A
:103528000CA88DF84080FFF723FC00220023CDE98A
:10353800042340F2091104AB07220CA88DF851406E
:10354800FFF716FC0B4922230CAA41F21500FEF7DF
:10355800F7FD3B78002B3FF47AAEFFF7A9FB76E640
:10356800954B0020844B0020944B0020C800FA00A3
:1035780040019001CC4B002030B502460144FF20A9
:103588008A4200D130BD12F8013B0824584045B2A8
:103598004300002DD8B2B8BF80F03100013CF6D10D
:1035A800EEE72DE9F04102EB420805460F461446C6
:1035B80080440646464505D10023A3420ED100208B
:1035C800BDE8F081304602210336FFF7D5FF16F833
:1035D800013C8342EED04FF0FF30F1E703EB4302AA
:1035E800AA5A52BA27F813200133E6E730B585B056
:1035F8000D468DF8070014460DF1070101224420FD
:10360800FDF74EFF002815DB2846FDF76FFA062266
:1036180002A94420FDF758FF00280EDB02222146AC
:1036280002A8FFF7BEFF0028B4BF6FF00300002018
:1036380005B030BD6FF00100FAE76FF00200F7E760
:1036480037B505460C4601AA0A21FD20FFF7CEFF33
:10365800002834DBBDF80630DFED1F7A9FED1F6AC6
:1036680007EE103AB8EE477A27EE277AC7EE067AC1
:10367800B1EE087A77EEC77AF5EEC07AF1EE10FA75
:103688001FD49FED177AF4EE477AF1EE10FAC8BF0F
:10369800F0EE477A8DB1BDF80430DFED126A07EE1F
:1036A800103AB8EE477A27EE267AC7EE066A9FEDFB
:1036B8000E7A36EEC77A85ED007A2CB9002003B071
:1036C80030BDDFED0A7AE5E7DFED056A87EEA67A19
:1036D80084ED007AF2E700BF0000FA4200FF7F475E
:1036E8000000C84200002F430000344200000000E0
:1036F80013B5044601AA01218920FFF777FF0028A6
:1037080001DB14B9002002B010BDBDF80420BDF8DB
:10371800063043EA02432360F4E71FB50B468DF8F1
:103728000F0000920DF10F0101227620FDF7D2FE65
:1037380005B05DF804FB07B502228DF804008DF88A
:103748000510762001A9FDF7ABFE03B05DF804FB78
:1037580010B58CB0002401220DF10301D0208DF8A2
:103768000340FFF7DAFFA042C0F2A7809DF80330BC
:10377800612B40F0A580B621E020FFF7DCFFA042D6
:10378800C0F2A1800A20FDF7B1F956490122F020C4
:10379800FFF7C3FFA042C0F29980172201A98A202F
:1037A800FFF7BBFFA04203DA6FF004000CB010BDB6
:1037B8000E220DF11B01E120FFF7AFFF0028F3DB1C
:1037C80005220DF129012046FFF7A7FF0028EBDBB2
:1037D800454BBDF823201A80BDF804205A809DF877
:1037E80006201A71BDF80820DA80BDF80A201A816F
:1037F8009DF80C209A72BDF80E209A81BDF8102011
:10380800DA81BDF812209DF81D0052BA1A82BDF85F
:1038180016205A82BDF818209A829DF81A209A75A7
:103828009DF81C2002F00F0141EA001119839DF850
:103838001B10120942EA01125A83BDF81E209A830E
:10384800BDF82020DA839DF8222083F820209DF8F7
:10385800272083F82120BDF825205A849DF82820A8
:1038680083F824209DF82B20C2F3011283F8252029
:103878009DF8292083F826209DF92D202146121134
:10388800742083F82720FFF756FF002821DB012149
:103898007220FFF750FF00281EDB21467520FFF736
:1038A8004AFF00281BDB54217420FFF744FF00283F
:1038B800B4BF6FF00800002078E74FF0FF3075E7DD
:1038C8006FF0010072E76FF002006FE76FF003001E
:1038D8006CE76FF0050069E76FF0060066E76FF0C8
:1038E800070063E7DC4B0020DE4B0020024B187812
:1038F800431E584258417047DC4B002000284AF2CA
:10390800762249F6251314BF134600204FF47A7225
:1039180018BF962003F5FA73B3FBF2F3013318448A
:103928007047000007B5002800F08180454B9FEDE7
:10393800466A93F921209FED457ADFED455A06EE58
:10394800902AB3F92220F8EEE66AB0F5C87FA6EE11
:10395800867A06EE902A9FED3F6A93F9242088BF65
:10396800DFED3D7AFAEEE86A98BF07EE900AE6EED8
:10397800865A4FF05A0098BFF8EE677AF7EE006A59
:1039880006EE102A93F8252093F92630B0EE665AF1
:10399800A5EEA75A07EE902ABAEECB6AF8EE677A38
:1039A80020EE060AB1EE006A77EE867AA7EE050ADF
:1039B80086EE277A07EE903A9FED286AF8EEE77AC6
:1039C800F0EE665AE7EE865A27EE007A86EEA56A8A
:1039D800FBEE097AE7EE067A9FED217A67EE877AA1
:1039E800FCEEE77ACDED017A9DF80410FFF7A3FE0F
:1039F80000281EDB65216420FFF79DFE00281BDBE5
:103A0800184B1B78012B14BF102120217120FFF7C0
:103A180092FE002813DB55217420FFF78CFE002846
:103A2800ACBF00206FF0030003B05DF804FB014653
:103A3800ECE74FF0FF30F7E76FF00100F4E76FF0C5
:103A48000200F1E7DE4B00200000803D0000444208
:103A580075021A3B6F12033A0000C8436F12033B0A
:103A68009A995940DC4B00202DE9F04387B0044671
:103A7800112201A91D20FFF750FE0028C0F2D881AD
:103A88009DF90430002B80F2D6819DF80A309DF80C
:103A980009209FEDEA6A9FEDEA7ADFEDEA6ADFED39
:103AA800EA3A9DF806609DF807709DF80800BDF891
:103AB8000CE01B0143EA02339DF80B2043EA121382
:103AC80007EE903AE14BE24AB3F8008092F800C062
:103AD80005EE908AB3F90280F8EE655AF8EEE77AB7
:103AE80004EE908A26EE656A93F9048027EE657ADB
:103AF800A7EEA66ABCF1010F0BBF9DF814109DF844
:103B080012109DF813509DF81150A7EEA37A8A0958
:103B180042EA850207EE908AF8EEE77AB3EE005A99
:103B280067EE857A27EE077AF8EEE44A67EE877A39
:103B3800DFF87083E6EE247A01F00F05C8ED007A0D
:103B48001CB9002007B0BDE8F083B3F90C909FEDD5
:103B5800C14A9FEDC17A9FEDC12A93F9108001EE09
:103B6800909A93F90A90F6EE004AA7EEA44A06EE58
:103B7800109AB3F90890C7EE875AB8EEC66A07EEEE
:103B8800109A26EE046AB8EEC77A26EE046A27EE83
:103B9800047AB3F80690C4ED005AA6EE267A9FED93
:103BA800B06A27EE067AB7EE006AB0EE463AA7EE9C
:103BB800023A02EE909AF8EE622A07EE908A62EED6
:103BC800832AB3F90E80F5EE402AF1EE10FA00F0E0
:103BD800C780000940EA071040EA063007EE100ADD
:103BE8009FEDA03A987DB8EEC77AF8EEE77A33EE03
:103BF800477A67EEA37A24EE043AF8EEE11A67EE04
:103C0800837A03EE108AB8EEC33A23EE044AB0EE84
:103C1800003AE4EE037AB5EE004A67EE847A9FED47
:103C2800924AE1EE847A9FED914AA7EEC47ADFEDDD
:103C3800907A67EE277A87EEA27ADFED8E7ADFED4B
:103C48008E2A67EE277A27EEA73A23EE273A07EE61
:103C5800900AB3F91400F8EE677A04EE100AB3F983
:103C6800120067EEA33A07EE900AB8EEC44AF8EEDF
:103C7800E77A24EE074A67EE827A24EE074A67EE6F
:103C8800877A93F91100E4EE227A04EE100AE3EE43
:103C9800237AB8EEC44ADFED793AE4EE237A9FED51
:103CA800784AA7EE847A9EFA9EF080B284ED017A73
:103CB80007EE100A188B04EE100A93F91C0007EEA1
:103CC800900AF8EEE77AB8EE444A67EEA47A588B81
:103CD80067EEA57AB8EE477AE4EE057AF0EE464A42
:103CE80037EE677A07EE900A93F91D0005EE100A81
:103CF800B8EEC55A93F91E0025EE265AFBEEC77A90
:103D0800E5EE854A05EE100ABAEEC65AD87F25EECA
:103D1800255AE5EE854A05EE100A67EEA47A93F96E
:103D2800200067EE877A07EE100ABAEEE57AB8EE59
:103D3800455A27EE257ADFED535AA5EE267A27EE67
:103D4800877AE7EE877AF4EEE57AF1EE10FA0ADC84
:103D5800F5EEC07AF1EE10FA07D5DFED4B7A04E004
:103D68009FED497A9FE7F0EE657A87EEA57ABCF178
:103D7800010F84ED027A1ED14FF48023EB4007EE49
:103D8800903A9FED427AF8EEE77A02EB420202F5AA
:103D9800206267EE877A07EE102AB8EEC77AC7EE78
:103DA800876A01F03001A1F1300359425941217469
:103DB800C4ED036AC5E60120A84007EE900A93F90E
:103DC80027309FED337AF8EEE76A07EE903AF8EE7F
:103DD800E77AB1EE045A2F4BA7EE857A03EB8503F9
:103DE80007EE902A9FED2C5AD3ED004A2B4BF8EEA4
:103DF800677A03EB850377EEC57A84EEA55A35EE2C
:103E0800065A25EE075A87EE857A93ED005AC5EED5
:103E1800257ADFED235A77EE867A37EE067A67EE53
:103E2800A57A67EEA67A67EE277AC6EE276AB8E71C
:103E38004FF0FF3086E66FF0010083E60000803A1D
:103E4800000000390000803800000037DE4B0020F9
:103E5800DC4B002000007AC70000A04500000038B5
:103E680000000036000080490000804700008039CB
:103E78000050C3450000803B0000003000000043B4
:103E88000000803D0000C842000000000024744982
:103E98000080A744D058000800000044905800084B
:103EA800BD370634D84B002007B549BAADF8021023
:103EB80040BA0221ADF800000DEB0100FFF75CFBF2
:103EC80005228DF8040069466220FDF7E9FAC0175B
:103ED80003B05DF804FB07B540BAADF80400022250
:103EE80001A96220FDF7DCFAC01703B05DF804FBF6
:103EF8007FB50D46144602EB4206FFF7ECFF00289B
:103F080015DB0220FCF7F2FD324601A96220FDF71D
:103F1800DBFA00280EDB2246294601A8FFF741FB01
:103F28000028ACBF00206FF0030004B070BD6FF034
:103F38000100FAE76FF00200F7E700002DE9FF47FC
:103F4800DFF85CA1DFF85C91DFF85C814E4F00245C
:103F5800054643F686700E468AF8004089F8004008
:103F680088F800403C70FFF7B6FFA0427CDB4FF4B6
:103F7800FA70FCF7BBFD032202A943F282600294A7
:103F8800ADF80C40FFF7B4FF68B9BDF80A00BDF8FA
:103F98000C303E4ABDF8081043EA0043C2E900313C
:103FA80001238AF80030012202A942F21830FFF7F3
:103FB8009FFF98B9BDF808309FED357ADFED356A77
:103FC80007EE903AF8EE677A334B67EE877A87EE1A
:103FD800A67A83ED007A012389F800304FF00009B2
:103FE80001220DF1060142F21330ADF80690FFF7F9
:103FF8007FFF48453BDBBDF806304B45274B14BFD8
:1040080001224A464FF001041A7088F8004015D082
:10401800494642F21640FFF747FF48452ADB02208F
:10402800FCF764FD56B143F21560FFF754FF4845AD
:1040380023DB4FF44870FCF759FD3C7029464FF4D8
:104048006040FFF731FF00281ADB0220FCF74EFD25
:1040580042F2B110FFF73FFF0028B4BF6FF0050030
:10406800002004B0BDE8F0874FF0FF30F9E76FF0AB
:104078000100F6E76FF00200F3E76FF00300F0E7E6
:104088006FF00400EDE700BF064C0020104C002044
:1040980000002F4300FF7F470C4C0020074C0020F6
:1040A8000A4C0020094C0020084C002013B50023BE
:1040B800044601220DF106014EF2B840ADF8063073
:1040C800FFF716FF00280CDB14B9002002B010BD62
:1040D800BDF80630C3F30A03003B18BF0123237061
:1040E800F3E74FF0FF30F1E773B506460D46144687
:1040F800694603224EF60540FFF7FAFE00283BDB2F
:104108005EB1BDF800309FED1E7A07EE903AF8EEEA
:10411800677A67EE877AC6ED007A9DB1BDF80230FE
:104128009FED187ADFED186A07EE903AF8EE677A95
:1041380067EE877A87EEA67ADFED147A77EE677AEC
:10414800C5ED007A14B9002002B070BDBDF8043086
:10415800DFED0D6A07EE103AB8EE477AC7EE267A19
:10416800B7EE007AF4EE477AF1EE10FAC8BFF0EE37
:10417800477AC4ED007AE6E74FF0FF30E4E700BF86
:10418800BD37863500002F4300FF7F4700003442CB
:10419800014608B54FF46040FFF786FE002804DBAF
:1041A8000220FCF7A3FC002008BD4FF0FF30FBE71E
:1041B800064B1B7833B108B900207047044B1B68C5
:1041C8000360F9E74FF0FF30704700BF094C00204B
:1041D8000C4C0020074B1B7843B108B900207047EE
:1041E800054BD3E90023C0E90023F7E74FF0FF3080
:1041F800704700BF0A4C0020104C0020084B1B7869
:1042080053B110B1074B1B78037009B900207047F0
:10421800054B1B780B70F9E74FF0FF30704700BF74
:10422800084C0020074C0020064C002030B581F0D7
:10423800010400EB8404056863684DB1AA68A2EB29
:10424800000CDCF1000242EB0C0205EB8202536029
:104258001D60036003EB81035A68626002B110605D
:10426800586030BD2DE9F0410029037B0CBFFF22C7
:104278000122134459B2013303F0FF03022B044611
:1042880043D900294FEAD1786FEA01014FEAD17189
:1042980000EB8103B8BF01255E6896F90C30A8BF12
:1042A8004FF0FF3513FB05F3002B10DC4146FFF7F9
:1042B800BDFF96F90C303BB96B425BB223733746AE
:1042C80035733846BDE8F08100252B46F6E706EB46
:1042D800880330465F68FFF7A9FF41462046FFF78D
:1042E800A5FF97F90C3013FB05F3002B04DA002324
:1042F80025733B733373E4E71DBF00236D422373BB
:1043080023731CBF3B736BB2F4E701730746D8E70E
:1043180070472DE9F041DDF818800D461E4608F17A
:10432800300183681746984768B10024C0E9004403
:10433800C0E9067600F13003846004730461C0F8B4
:10434800248083620562BDE8F081006A0B6A9842A6
:1043580034BF4FF0FF300120704710B5C3680C46DA
:10436800096998470023C4E9023323614FF6FF73B4
:10437800A382A37D013303F01F03A37501232376D2
:1043880010BD000002888B8B9A4205D0034A8CBF6F
:1043980001230023D05670470020704710590008A9
:1043A8001C30FFF7EFBF70B5D1E901520446002D6C
:1043B80036D0002A34D01046034640680028FBD186
:1043C80091F90C0018735D602B601868814222D047
:1043D8009D68456005B128609A60136000220D68E9
:1043E8001D60DDB1AE68A6EB010CDCF1000646EB02
:1043F8000C0605EB86056B6082F00101FFF732FFC2
:104408000346006893F90C20FAB9F8B18268D31A08
:104418005A425A41F0E718460122E0E72360EBE7E9
:10442800003A18BF012201EB82020868536803B101
:10443800186058B18268511A4A424A4100EB820119
:104448004B60002BD8D01860D6E700B9236070BD48
:104458002DE9F843056807468946144698460646F6
:10446800316831B14846A0470028336808D11C4656
:104478001BB9B8F1000F0BD100242046BDE8F88322
:10448800CCBF0126002601361D4603EB8606E7E76A
:104498004846C04704460028EED000233060C0E9F3
:1044A8000133056003730DB93860E6E7A9680B1A94
:1044B800594259412846FFF7D5FE90F90C30056856
:1044C800002BF0D1002DD8D1EEE7000010B5074C35
:1044D80011448A4200D110BD12F8013B83EA10232F
:1044E80034F8133083EA002080B2F2E764590008F8
:1044F80030B50024FF25C0E90212C0E90444046075
:104508000571846130BDC0E900120022C0E90222B1
:10451800026170472DE9F04F8FB0CDE90B23DDE93B
:10452800184681468B46002900F08681002800F055
:104538008381002C00F080811A9B13B9002E40F073
:104548007B81D9F80430072B3ED9402B3ED8B54A99
:10455800D35CB54AD35C0593059B62789BF804103D
:10456800013B0393002A44D12379FF2B40F0648157
:104578006588B5F5005F80F05F810B0628D445F4A7
:10458800C04041EA00202378072B00F2558140EA19
:10459800836303980993864263790A93D9F80810CC
:1045A800D9F8002006F101036DD89E48C35C9E48E7
:1045B800C45C9142A4EB060505F1FF3538D36FF0D2
:1045C80002000FB0BDE8F08F0823C4E74023C2E71C
:1045D800039B9E4200F230811A9A31464FF6FF70D3
:1045E800FFF774FF00F07F0040EA052040F0B0704C
:1045F800C9E7531E012B00F21F8194F90430257975
:10460800002BC0F219816388B3F5007F80F0148114
:104618000F0600F11181980340EAC510951E6A4201
:1046280040EA01006A4140EA026040F00070AAE7EF
:10463800DDE90B23099900945846FFF76AFE0746FF
:104648000028BCD026B11A993246303000F052FE0C
:1046580006F130002A460021384400F019FE0A9B72
:10466800724A3C4463F01F0384F82F303946704B7C
:1046780009F10C00FFF7ECFED9F808300133C9F84E
:10468800083001209DE7B01C079003980344B3FB52
:10469800F0F30B44934292D81A9A31464FF6FF70C2
:1046A800FFF714FF0024012304902546069408937D
:1046B800A046079B434518D8069E002D00F0AE8003
:1046C800DFF86C81594F09F10C05314643463A46EB
:1046D8002846FFF7BDFE3669002EF6D1D9F8083016
:1046E8002344C9F8083020466BE7079B0999A3EBD8
:1046F8000802039B934289BF4A4BDDF814A09B181C
:10470800494A84BF5B7812F803A0CDF800A0DDE920
:104718000B235846FFF7FDFD069B01340746002B87
:1047280063D02861002F70D046450AF1FF335ED967
:10473800A6EB08059D4228BF1D461A990D932A46E7
:1047480007F1300000F0D6FD1A9BA8442B444645DB
:104758001A930D9B2DD8AAF1030AAA1CAAEB050AE5
:104768009A4288BF4FF0000A05F1300052460021F6
:1047780038440D9300F08CFD0D9B6A1C01329A425F
:1047880037D35544AB4214D9464509D104997A190F
:104798000135090AAB4282F8301006F1010808D940
:1047A800464506D27B19049A83F83020013508F172
:1047B80001080A9B089A03F01F0343EA4213069A6A
:1047C800B91A4A424A4143EAC213079A42453D444C
:1047D8008CBF0022012243EA821385F83030089BFF
:1047E80083F0010308933D4663E706909AE70025A6
:1047F800B1E704990F48C1F30F2130F8111004985C
:1048080081EA002189B20491B8E73D4654E7314670
:10481800DBF80C303469584698472646002EF6D106
:10482800CDE600BF12590008535900085343000849
:1048380019430008645900086FF00100C1E600BF81
:1048480010B1C368002003B9704718465B68FAE7DF
:1048580038B50D46044640B129B10C30FFF7A3FD29
:10486800A368013BA360284638BD0546FBE7000066
:104878002DE9F04F89B09B469DF84C90129B149EF1
:1048880014460746002800F0B581002E00F0B281DA
:10489800002B00F0AF81D3F800A0BAF1005F80F0E0
:1048A800A981D3E90158B8F1000F02D1002D40F0D9
:1048B800A18120220021684600F0EAFC25B90025E4
:1048C800284609B0BDE8F08F4FEA9A638DF80830A2
:1048D8001AF0007F0AF07F03CDE9004B8DF80C3009
:1048E8000AF0807240F0CB80002ACAF30C2118BF6E
:1048F800FF231AF0801FADF80A108DF80C300CBF9A
:1049080001220022FF21013DCDE905588DF80D1047
:1049180018F8053003F01F004FEAD31CC3F3801EBC
:104928008DF80E008DF80FC058B203F0400C8DF8CA
:1049380010E003F0200EC3F340138DF81130002A65
:10494800BDD0002805DABEF1000FB8D0BCF1000FC9
:104958000BD19DF80C30FF2BB1D0062D05D8BCF13A
:10496800000FACD00DB90028A9DAFF2902D03B7995
:104978008B42A4D19DF80900A04A043000230DF110
:104988000A0107EB8000FFF763FD159B804603B122
:104998001860B8F1000F92D09DF90C209DF80C30EA
:1049A800002AC0F2038108EB83035C6AF4B99DF81E
:1049B8000F30DBB1BB682021384698479DF80C3092
:1049C80008EB8303586200286ED0DDE90023C0E9B4
:1049D8000244C0E900234FF6FF7383829DF80E302E
:1049E80083750123046180F81790037600259DF8EC
:1049F8000C3008EB83035C6A002C3FF461AFDDE9FF
:104A08000021D4E90003904273EB010ED8E904C5F4
:104A1800D8F818804BD2101A61EB0303844575EB64
:104A2800030334BF4FF0010C4FF0000C9DF80E004B
:104A3800A37D1B1A9DB2002BBCBF05F120031BB23E
:104A4800BCF1000F08D1E57D4D4533D19DF80F50DD
:104A580085B3DBB2012B2DD90023C4E902334FF60D
:104A6800FF73A382012323769DF80F30A07584F885
:104A78001790FBB921463846FFF76FFC1FE7002A5D
:104A880014BF022201228DF809201AF4000FCAF37C
:104A98008832ADF80A20CAF3C61103D15A1A18BFD2
:104AA800012230E700222EE76FF002059FE74FF062
:104AB800000CBBE794F817E09DF811C0257EA37D94
:104AC800CE457FF4FCAEAC457FF4F9AE98427FF456
:104AD800F6AE9DF80F30002B51D1DDE90512A08A02
:104AE800FFF7F4FC0025A082DDE9059AA3684B4492
:104AF800A36023693BB9B8F1000F04D0BB684146F5
:104B08003846984720612069002840D0E36809EBBF
:104B18000302904538BFA8EB030918444A4651469A
:104B280000F0E8FBE3684B44E3609DF81030002B8D
:104B380037D00DB9A38AEBB99DF80C303371BDF8A5
:104B480008109DF80E3031807371BDF80A2072800C
:104B5800D4E90023C6E90223E2682369326173615C
:104B68002DB9A3689A1A012A9CBF023B336100231E
:104B78002361012521463846FFF7EFFBA0E69DF8A3
:104B88001030C4E90021002BA7D00125ACE7B8F10B
:104B9800000FCAD021463846FFF7DFFB6FF0020549
:104BA8008EE6237E83F00103237688E6D8F8183052
:104BB800059C9C4228BF1C462146BB68384698473E
:104BC8000028EBD0DDE900899DF80C20BDF80A101B
:104BD800BDF8085032719DF80E20358071807271D1
:104BE800C6E90289C6E904400699224600F082FB1C
:104BF800012565E66FF0010562E600BF8D430008F8
:104C0800F7B5064648B3022927D8043100EB8105D9
:104C1800ADF806200023124A0DF106012846FFF7D9
:104C280017FC0446B8B101462846FFF7BCFB04F15F
:104C38002005002704F5087455F8041FF36801B12E
:104C4800096930469847F368296830469847A5426D
:104C58002F60F1D1012003B0F0BD6FF00100FAE739
:104C68008D4300082DE9F8430A9F0D4691461E46DC
:104C7800804610B30FB302291FD8FFF7C1FF041EE7
:104C880018DBDDE908230021C7E90423BE614FF4DE
:104C98000072A7F81C9007F12400043500F0F8FA18
:104CA800074B084A394608EB8500FFF7D1FBB4FAF1
:104CB80084F464092046BDE8F8836FF00104F9E73D
:104CC80019430008A943000800B1016001B1486018
:104CD800704710B58A6800235209012A03F10104BC
:104CE80018D8D1E9042402B154614C6904B1226195
:104CF800DBB250F823208A420BD10A6940F82320FE
:104D08003AB901229A40D0F8803023EA0203C0F869
:104D1800803010BD52082346DFE710B58A680023AB
:104D28005209012A03F1010411D8DBB2002450F81A
:104D380023200A614C6102B15161012240F823101D
:104D48009A40D0F880301343C0F8803010BD520824
:104D58002346E6E770B50D46044628B310F00F0168
:104D680026D1BF2D26D9A03DC0F88010802200F0A2
:104D78008FFAB5F1004F28BF4FF0004515F01F0618
:104D880014D1C4E92866C4F8A85084F8AC6004F1CA
:104D9800A0012046FFF7C1FF00220023C4E92256E4
:104DA800C4E92466C4E92623204670BD013DE5E731
:104DB8000024F9E70C46F7E7F8B505460F4651B366
:104DC800D0F88830103B8B4225D310310A46002397
:104DD800012A03F1010020D807F10F020A40002A36
:104DE80018BF0133DBB201269E4071090A46002331
:104DF800012A03F1010013D84A1E0A40002A18BFED
:104E08000133DAB24FF0FF339340D5F880201340D6
:104E18005C421C4047D1002035E052080346D7E7E2
:104E280052080346E4E764081346012C03F1010223
:104E3800F9D1DBB2284655F823402146FFF749FF50
:104E4800A368A6609B1B1F2B0DD9A019216883603E
:104E580000230373FFF738FF01462046FFF734FFAE
:104E68002846FFF75AFFD5F88C301E44D5F8903005
:104E7800C5F88C609E424FF0010388BFC5F890606A
:104E880004F110002373D5F89430BB4238BFC5F83D
:104E9800947038B937B1D5E92632013342F10002AE
:104EA800C5E92632F8BD0023BFE72DE9F8430546DA
:104EB8000C46002957D0002351F8089C01F8043CFF
:104EC80051E90476D0F88C30A3EB0903C0F88C3094
:104ED800F6B196F80C8088F00108002F3CD03B7B97
:104EE80083F00103B8F1000F28D09BB13146284662
:104EF800FFF7EFFE3946FFF7ECFEB368BA681344D4
:104F08004B44B360002344F8083CBB6039680CE0AC
:104F1800B046E2E731462846FFF7DBFEB3684B446C
:104F2800B360002344F8083C39463046FFF7CCFE0E
:104F380031462846BDE8F843FFF7EFBEA4F1100656
:104F48007BB139462846FFF7C4FEBB684B4444F89A
:104F5800083CC7F80880D9E7B8F1000FDAD1A4F106
:104F680010063146E5E7BDE8F8830000034AD2F8A9
:104F7800883043F47003C2F88830704700ED00E0D1
:104F8800DFF834D0FFF7F2FF0C480D490D4A002333
:104F980002E0D458C4500433C4188C42F9D30A4AE6
:104FA8000A4C002301E013600432A242FBD300F054
:104FB8007DF9FBF785FA7047000002200000002009
:104FC800F80000208C5B000800010020504D0020F4
:104FD800FEE7000008B52DED028BF0EE408A00F0E8
:104FE80039F8B0EE408AB0EE680A00F029F860B1EE
:104FF800DFED0F7AF4EEE78AF1EE10FA0ADD00F041
:105008004FF99FED0C8A22230360B0EE480ABDECED
:10501800028B08BDDFED087AF4EEE78AF1EE10FAAC
:10502800F3D500F03DF922239FED048A0360ECE7F5
:105038001772B1420000807FB5F1CFC200000000B6
:1050480010EE103A23F00040B0F1FF4FACBF002043
:105058000120704710EE102A22F00043B3F1FF4FF1
:1050680002D930EE000A70474FEAD27106D1DFED5F
:105078004E7A002918BFB0EE670A70474B48824243
:1050880002DD002000F0D4B8002A05DA484A93422D
:1050980002D9002000F0C6B8464A9342F7EE005AFB
:1050A80052D9454A93424FEA810234D8434B1344BC
:1050B80093ED007A424B134430EE477AC1F1010276
:1050C800D3ED007A521A37EE670A20EE006A9FED98
:1050D8003D5ADFED3D6AE6EE056A9FED3C5AA6EEC5
:1050E800865ADFED3B6AE5EE066A9FED3A5AA6EE70
:1050F800865AF0EE406AE5EE466AB0EE006A20EEA7
:10510800265A92BB76EEC66AC5EE267A37EEC00AF4
:1051180035EEC00A7047304B9FED307ADFED306ACC
:105128001344D3ED007AE0EE077AB0EE407AFDEE54
:10513800E77A17EE902AF8EEE77AA7EEE67ADFED3F
:10514800296A67EEA67ABEE7B3F1505F0BD2DFEDAE
:10515800266A70EE266AF4EEE56AF1EE10FA02DDD0
:1051680030EE250A70470022AFE736EE666A12F184
:105178007D0FC5EE066AB8BF643277EEE67A77EE41
:10518800C77A75EEE77A17EE903AABBF03EBC253D6
:1051980003EBC25300EE103ADFED147ABCBF00EE09
:1051A800103A20EE270A7047000000001772B1423B
:1051B800B5F1CF421872B13E9115853F6C5B00087E
:1051C800645B00084CBB31330EEADDB555B38A3851
:1051D800610B36BBABAA2A3E745B00083BAAB83FFA
:1051E8008071313FD1F71737CAF249710000800D3D
:1051F80010B52DED028BB0EE408A044600F050F851
:10520800B0EE480ABDEC028B046010BD30B1F1EE7F
:10521800407A27EE800A2220FFF7EABFF0EE407AB4
:10522800F7E700009FED010AFFF7F0BF000000104C
:105238009FED010AFFF7EABF0000007010B50139C1
:105248000244904201D1002005E0037811F8014F93
:10525800A34201D0181B10BD0130F2E7884210B5F7
:1052680001EB020402D98442234607D8431EA14217
:1052780008D011F8012B03F8012FF8E70244014682
:105288008A4200D110BD13F8014D02F8014DF7E72D
:1052980002440346934200D1704703F8011BF9E723
:1052A800014B1868704700BFA800002070B50D4D6D
:1052B8000D4C641BA4100026A64209D10B4D0C4CC2
:1052C80000F026F8641BA4100026A64205D170BD84
:1052D80055F8043B98470136EEE755F8043B9847E4
:1052E8000136F2E7845B0008845B0008845B0008F1
:1052F800885B00080A44914200F1FF3300D17047EF
:1053080010B511F8014B03F8014F9142F9D110BDC6
:10531800F8B500BFF8BC08BC9E467047F8B500BF9A
:08532800F8BC08BC9E4670476A
:1053300043414E206C6F6F706261636B2073656CCC
:10534000662D74657374204F4B0D0A0043414E2047
:105350006C6F6F706261636B2073656C662D746532
:105360007374204641494C0D0A006F72672E696EB6
:1053700064757374727967726F772E6E6F64652EC1
:10538000756E6964656E74696669656400756E69D9
:1053900064656E746966696564206D6F64756C65BB
:1053A000000D0A496E64757374727947726F7720C5
:1053B0006E6F6465206669726D776172652028631F
:1053C000617272696572204530303031290D0A00F2
:1053D0006C6173742072657365743A20006D6F643C
:1053E000756C652D6964207374726170203D203086
:1053F0006200202D3E2000202D3E20554E49444580
:105400004E54494649454420286E6F20706572739A
:105410006F6E616C69747920636C61696D7320745F
:10542000686973204944290D0A00415445434336B5
:1054300030382063617272696572204944202849BE
:10544000324332293A200070726573656E742C20E5
:10545000534E3D00202D3E206E6F646520756E69B1
:105460007175652D69640D0A00616273656E742043
:105470002D3E2053544D333220666163746F727930
:10548000205549440D0A0063797068616C2075707D
:105490003A206E6F64652D696420006E6F20706520
:1054A00072736F6E616C6974793A20736B656C65A9
:1054B000746F6E206F6E6C792C206E6F2073656E2A
:1054C000736F72207075626C69636174696F6E735B
:1054D0000D0A0030313233343536373839414243E2
:1054E000444546004957444720286669726D7761F4
:1054F00072652068616E67290057574447006C6FDA
:10550000772D706F77657200736F6674776172655F
:10551000004E5253542070696E202864656275678E
:105520002070726F6265206F7220627574746F6E86
:105530002900706F7765722D6F6E0062726F776EE3
:105540002D6F757400756E6B6E6F776E006F72677E
:105550002E696E64757374727967726F772E6E6FD1
:1055600064650075617663616E2E6E6F64652E6989
:10557000640075617663616E2E6E6F64652E64657E
:10558000736372697074696F6E004D30352D5341CD
:10559000464554592028453030303629006F72670F
:1055A0002E696E64757374727967726F772E6E6F81
:1055B00064652E6D3035004D30312D434C494D41E1
:1055C00054452028453030303229006F72672E69EB
:1055D0006E64757374727967726F772E6E6F64651F
:1055E0002E6D303100000000056000008A55000873
:1055F0009D550008D12600083127000801610000F0
:10560000B7550008CB550008112F00086D31000870
:10561000646562756720636F6E736F6C6520656E7D
:10562000647320686572652028504139202D3E2022
:105630006C65616B2065786369746174696F6E294C
:105640000D0A0000001001100210031004100510D4
:10565000061070726573656E742C207661726961D4
:105660006E7420424D453638380070726573656E31
:10567000742C2076617269616E7420424D45363813
:10568000302028616C7465726E61746976652900DA
:105690004D30312073656E736F722070726F62656A
:1056A0003A0D0A002020553120534854343520202B
:1056B000307834343A200070726573656E742C2033
:1056C00073657269616C200041434B2062757420E0
:1056D0006E6F2076616C696420616E7377657220ED
:1056E0002D3E204E4F5420616E20534854343500D7
:1056F000616273656E74202D3E206E6F20542F52B0
:10570000482C206E6F205650440D0A002020553240
:1057100020424D4536387820307837363A20002CF4
:10572000206761732073776565702000207365744E
:10573000706F696E747320657665727920002073CE
:105740000D0A00616273656E74202D3E20434F3256
:105750002070726573737572652066616C6C73205E
:105760006261636B20746F20313031332068506187
:1057700020284F2D3438290D0A002020553320537E
:10578000434434312020307836323A20007072653C
:1057900073656E74002C2054206F666673657420E8
:1057A0000020432028756E63616C696272617465C4
:1057B000642C204F2D343529002C20415343206187
:1057C0006C7265616479206F666620286E6F204573
:1057D0004550524F4D20777269746529002C204145
:1057E000534320776173204F4E202D3E206F666615
:1057F0002C2070657273697374656420286F6E6500
:1058000020454550524F4D206379636C6529002C2B
:105810002041534320776173204F4E202D3E206F4F
:10582000666620696E2052414D206F6E6C792C2087
:105830004E4F5420706572736973746564006162C1
:1058400073656E74202D3E206E6F20434F320D0A1B
:105850000020204932433A2000207472616E736147
:105860006374696F6E732C2000206661696C6564D7
:105870000D0A000010101110121013101410151042
:105880001610171018101910C800FA0040019001E6
:105890000000000000000000000000000000000008
:1058A000CDCCCC3D3333333F00000000CDCC4CBFDA
:1058B000CDCCCCBD000000000000000000000000C6
:1058C00000000000000000000000000000000000D8
:1058D00000000000000000000000000000000000C8
:1058E00000000000000080BF00000000CDCC4CBFD5
:1058F00000000000000000009A9999BE000000BF5F
:1059000000000000000080BF000000000000000058
:10591000FF01000102030405060708090909090A35
:105920000A0A0A0B0B0B0B0C0C0C0C0D0D0D0D0DBC
:105930000D0D0D0E0E0E0E0E0E0E0E0E0E0E0E0E8A
:105940000E0E0E0F0F0F0F0F0F0F0F0F0F0F0F0F6A
:105950000F0F0F0001020304050607080C101418AE
:105960002030400000002110422063308440A550C8
:10597000C660E770088129914AA16BB18CC1ADD195
:10598000CEE1EFF13112100273325222B55294423D
:10599000F772D662399318837BB35AA3BDD39CC3E5
:1059A000FFF3DEE36224433420040114E664C77489
:1059B000A44485546AA54BB528850995EEE5CFF535
:1059C000ACC58DD55336722611163006D776F666DD
:1059D0009556B4465BB77AA719973887DFF7FEE785
:1059E0009DD7BCC7C448E5588668A77840086118A9
:1059F00002282338CCC9EDD98EE9AFF948896999D5
:105A00000AA92BB9F55AD44AB77A966A711A500A7C
:105A1000333A122AFDDBDCCBBFFB9EEB799B588B24
:105A20003BBB1AABA66C877CE44CC55C222C033CC8
:105A3000600C411CAEED8FFDECCDCDDD2AAD0BBD74
:105A4000688D499D977EB66ED55EF44E133E322E1C
:105A5000511E700E9FFFBEEFDDDFFCCF1BBF3AAFC4
:105A6000599F788F8891A981CAB1EBA10CD12DC122
:105A70004EF16FE18010A100C230E32004502540B8
:105A800046706760B9839893FBA3DAB33DC31CD318
:105A90007FE35EF3B1029012F322D2323542145208
:105AA00077625672EAB5CBA5A89589856EF54FE564
:105AB0002CD50DC5E234C324A01481046674476458
:105AC00024540544DBA7FAB79987B8975FE77EF7B8
